:100000006FA0F003130000001300000013000000B5
:100010001300000013000000130000001300000094
:100020001300000013000000130000001300000084
:08003000130000007300100032
:100038000000000000000000589E0000689E0000BC
:100048000000000084A7000000000000000000007D
:1000580086A7000088A7000000000000000000003C
:100068008AA70000000000008CA700000000000024
:100078008EA7000090A7000092A7000094A7000098
:1000880096A7000098A7000018910000CC910000E6
:100098008092000034930000E8930000A4A70000B9
:1000A800A6A70000A8A70000AAA70000ACA7000008
:1000B800AEA70000B0A70000B2A70000B4A70000D8
:1000C800B6A70000B8A70000BAA700009C940000DB
:1000D800BEA70000E6960000C2A70000C4A7000063
:1000E800A69700006698000028990000CCA7000099
:1000F800CEA70000D0A70000D2A70000D4A7000018
:10010800D6A700002A8A0000EE8A0000B28B000001
:10011800B4950000E0A70000E2A70000E4A70000F3
:10012800209C0000E8A70000EAA70000ECA7000058
:10013800EEA70000F0A70000E8990000F4A700006F
:10014800768C00003A8D0000A89A0000609B0000A1
:10015800FEA7000000A8000002A8000004A80000F4
:1001680006A8000008A800000AA800000CA80000C3
:100178000EA8000010A8000012A800005CC600002D
:1001880016A8000018A8000048900000FC8D000088
:10019800C08E0000888F000022A80000E09C0000AC
:1001A80026A8000028A800002AA80000A09D00009A
:1001B8002EA8000030A8000032A8000034A80000D3
:1001C80036A8000038A800003AA800003CA80000A3
:1001D8000000000000000000000000000000000017
:1001E8000000000000000000000000000000000007
:0801F8000000000000000000FF
:100200003D432A876373C3029377F700BDEFADE5E3
:10021000937606FF3D8ABA960CC34CC30CC74CC7F5
:100220004107E36BD7FE11E28280B306C3408A0622
:100230009702000096966780A6002307B700A306E2
:10024000B7002306B700A305B7002305B700A30432
:10025000B7002304B700A303B7002303B700A3022A
:10026000B7002302B700A301B7002301B700A30022
:10027000B7002300B700828093F5F50F93968500B1
:10028000D58D93960501D58D61B79396270097027A
:10029000000096968682E78086FA9680C1171D8FA9
:1002A0003E96E374C3F8A5B73367B500FD530D8BD5
:1002B00079E7B7877F7F9387F7F710419441B3724F
:1002C000F6003363F600BE92B3E262006397720CED
:1002D0006318D6065041D441B372F6003363F6007A
:1002E000BE92B3E262006398720A631BD6041045A3
:1002F0009445B372F6003363F600BE92B3E2620037
:100300006391720A631ED6025045D445B372F6005B
:100310003363F600BE92B3E26200639A720863111F
:10032000D60210499449B372F6003363F600BE92C8
:10033000B3E26200639372085105D105E30FD6F66C
:100340001317060193970601631CF7001357060164
:1003500093D706013305F7409375F50F91E9828035
:100360004183C1833305F7409375F50F91E1828096
:100370001377F70F93F7F70F3305F74082800346A3
:10038000050083C60500050585056313D60065FADB
:100390003305D640828011059105E312D6FE014552
:1003A00082802105A105E31CD6FC01458280310530
:1003B000B105E316D6FC014582804105C105E31075
:1003C000D6FC01458280011122CE00102326A4FE16
:1003D00037F500E08328450037F500E093F8E8FFA3
:1003E0002322150183A801820965130505F433D57D
:1003F000A802AA8601470325C4FEAA87014837F54B
:1004000000E03303F702B308D8029A983383F60268
:1004100033B6F6029A85B387C8003E860CC950C928
:10042000B7F700E09843B7F700E01367070198C3F8
:10043000B7F700E09843B7F700E01367170298C3D7
:100440000100B7F700E0DC4313F717008547E31A14
:10045000F7FEB7F700E09843B7F700E0799B98C341
:100460000100724405618280011122CE0010232612
:10047000A4FE37F500E08328450037F500E093F847
:10048000E8FF2322150183A8018237157A0013059E
:10049000052033D5A802AA8601470325C4FEAA87F2
:1004A000014837F500E03303F702B308D8029A9801
:1004B0003383F60233B6F6029A85B387C8003E86C8
:1004C0000CC950C9B7F700E09843B7F700E01367CD
:1004D000070198C3B7F700E09843B7F700E0136748
:1004E000170298C30100B7F700E0DC4313F71700C9
:1004F0008547E31AF7FEB7F700E09843B7F700E047
:10050000799B98C30100724405618280011106CE77
:1005100022CC0010AA8E2E8E32833685BA853E8676
:10052000C2864687F687A307F4FEF2872307F4FE08
:100530009A87A306F4FEAA872306F4FEAE87A305D6
:10054000F4FEB2872305F4FEB687A304F4FEBA874F
:100550002304F4FE8347F4FE93068004014681459C
:100560003E85B12C8347E4FE930680040146814515
:100570003E85B1248347D4FE93068004014681451D
:100580003E85352C8347C4FE930680040146814591
:100590003E8535248347B4FE930680040146814599
:1005A0003E85312C8347A4FE930680040146814595
:1005B0003E853124834794FE93068004014681459D
:1005C0003E85F52A834784FE9306800401468145D3
:1005D0003E85F52283474400930680040146814509
:1005E0003E85F12A83470400930680040146814535
:1005F0003E85F122834784009306800401468145AD
:100600003E85752A0100F240624405618280011135
:1006100006CE22CC00102326A4FE2324B4FEB287EB
:1006200036872313F4FEBA872312F4FE8545096545
:10063000EFA0F01FB70705500D472380E700B7076D
:1006400005500547A380E700B7070550035744FE50
:100650002392E700B7070550035764FE2393E70092
:10066000B70705500327C4FE98C7B70705500327EF
:1006700084FED8C7B707055011472381E70081459D
:1006800013056005EF80601013056005EF80200CF6
:100690000100F240624405618280011122CE001007
:1006A0002326A4FEAE87A305F4FE8347B4FE85CBC4
:1006B0008327C4FEBD8B0547B317F7009396070148
:1006C000C1828327C4FE13D75700B70700200A074B
:1006D00093870704BA979C43368798CB3DA083271E
:1006E000C4FEBD8B0547B317F70093960701C1827F
:1006F0008327C4FE13D75700B70700200A07938744
:100700000704BA979C433687D8CB01007244056131
:100710008280011122CE00102326A4FE8327C4FE6E
:10072000958313F77700B70700200A07938707041C
:10073000BA979C439C470327C4FE7D8B854633971D
:10074000E600F98FB337F00093F7F70F3E85724458
:1007500005618280797122D60018232EA4FC83279C
:10076000C4FD958393F7F70F9D8BA307F4FE8327B2
:10077000C4FD93F7F70FFD8B2307F4FE0347F4FE48
:10078000B70700200A0793870704BA979C43D84706
:100790008347E4FE8546B397F600C207C1833E86D1
:1007A0008346F4FEB70700208A0693870704B697AE
:1007B0009C43318FD8C701003254456182807971E2
:1007C00006D622D40018232EA4FC232CB4FCB28716
:1007D0002328D4FCA30BF4FC232004FE232204FED4
:1007E000232404FE8327C4FD958393F7F70F9D8B85
:1007F000A307F4FE8327C4FD93F7F70FFD8B2307B0
:10080000F4FE8347F4FE91E785451145EFA090067D
:1008100091A80347F4FE85476317F70085452145F6
:10082000EFA0500581A00347F4FE89476317F70046
:1008300085454145EFA0100435A00347F4FE8D47E0
:100840006318F700854513050002EFA0B00219A850
:100850000347F4FE91476317F7008545130500042D
:10086000EFA050018347E4FE0547B317F700C20726
:10087000C1832310F4FE032784FD85476317F70225
:10088000832704FDC207C183A183C207C18389E70F
:100890008D472322F4FE11A8832704FDC207C183DC
:1008A000A183C207C1832322F4FE832704FDC2076C
:1008B000C18393F7F70F2324F4FE0347F4FEB70731
:1008C00000200A0793870704BA979C43130704FE86
:1008D000BA853E85EFA0A006032784FD85476319EE
:1008E000F7020347F4FEB70700200A0793870704BF
:1008F000BA9794438347E4FE0547B317F700C2074E
:10090000C183034774FD3A86BE853685EFA0C025B6
:100910000100B2502254456182801D7186CEA2CC66
:1009200080102326A4FA2324B4FA85450325C4FAAB
:10093000EF104064AA873E871306D006D9679385D7
:1009400087CE3A85EF50F060832784FAB337F00002
:1009500093F7F70F3E871306F006D967938587CE86
:100960003A85EF50105F832784FABD832315F4FE88
:100970008357A4FE85073E87832784FAB3D7E7020F
:100980002314F4FE0325C4FAEF102065B7370140A5
:10099000938707C02326F4FE0327C4FAA54763EC18
:1009A000E7088327C4FA13972700D9679387477608
:1009B000BA979C438287B7370140938707C02326A5
:1009C000F4FE95A8B70700402326F4FEADA0B707B4
:1009D0000040938707402326F4FEB1A8B7170040D4
:1009E000938707802326F4FEB9A0B71700409387AA
:1009F00007C02326F4FE81A0B71700402326F4FE8B
:100A00001DA8B7170040938707402326F4FE25A0B2
:100A1000B7370140938707402326F4FE29A8B7572C
:100A20000140938707C02326F4FE31A0B757014049
:100A30002326F4FE0100232E04FC232004FE2312AF
:100A400004FE835784FE2310F4FE8357A4FE231E66
:100A5000F4FC231104FE231F04FC230204FE93076D
:100A6000C4FDBE850325C4FEEFA0D00E0546854516
:100A70000325C4FEEFB0601E85450325C4FEEFB01C
:100A8000C054D96703AE07CC138707CC03234700B4
:100A9000138707CC83288700138707CC0328C70058
:100AA000138707CC084B138707CC4C4B138707CC15
:100AB000104F138707CC544F138707CC18539387D5
:100AC00007CCDC53232AC4FB232C64FA232E14FB0B
:100AD000232004FD2322A4FC2324B4FC2326C4FCED
:100AE0002328D4FC232AE4FC232CF4FC8327C4FA17
:100AF00093F7F70F8A07130704FFBA9783A747FCFA
:100B00008D453E85EF7070488327C4FA8A07130726
:100B100004FFBA9783A747FC3E85EF705043854595
:100B20000325C4FEEFB0E0070100F64066442561EE
:100B30008280797106D622D40018232EA4FC232C9F
:100B4000B4FC032784FD896793871771B337F700D7
:100B500093F7F70F3E8713065003D9679385C7D2E3
:100B60003A85EF50103FB7370140938707C02326DF
:100B7000F4FE8327C4FDC183BD8B2547636EF70652
:100B800013972700D9679387C778BA979C438287C2
:100B9000B7370140938707C02326F4FEB1A8B707F3
:100BA00000402326F4FE89A8B7070040938707403A
:100BB0002326F4FE91A0B7170040938707802326D1
:100BC000F4FE1DA8B7170040938707C02326F4FE44
:100BD00025A0B7370140938707402326F4FE29A8B4
:100BE000B7570140938707C02326F4FE31A0B757BB
:100BF00001402326F4FE01008327C4FE83D7C702E9
:100C00002315F4FE0357A4FE832784FD3307F70260
:100C1000896793870771B357F7022314F4FE83277C
:100C2000C4FDA1838D8B81EB8327C4FE035784FE13
:100C3000239AE702A9A88327C4FDA18313F73700ED
:100C400085476319F7008327C4FE035784FE239C5E
:100C5000E70235A88327C4FDA18313F7370089472E
:100C60006319F7008327C4FE035784FE239EE7021F
:100C700039A88327C4FDA18313F737008D47631874
:100C8000F7008327C4FE035784FE2390E704010086
:100C9000B2502254456182805D7186C6A2C480082C
:100CA000232EA4FA232CB4FA232AC4FA8327C4FBE4
:100CB000C1838D453E85EF10E02BAA873E87130642
:100CC000D00AD9679385C7D23A85EF509028032779
:100CD00044FB896793871771B337F70093F7F70FD2
:100CE0003E871306F00AD9679385C7D23A85EF503D
:100CF0005026232E04FC232004FE231204FE232668
:100D000004FC232804FC232A04FC232C04FC2315C4
:100D100004FE8327C4FBC183BD8B3E85EF10E02B0F
:100D20008327C4FB93F7F70F93068031014685456F
:100D30003E85713485450545EFA0C033B737014086
:100D4000938707C02326F4FE8327C4FBC183BD8B92
:100D50002547636EF70613972700D9679387477B6C
:100D6000BA979C438287B7370140938707C02326F1
:100D7000F4FEB1A8B70700402326F4FE89A8B70700
:100D80000040938707402326F4FE91A0B717004048
:100D9000938707802326F4FE1DA8B717004093878A
:100DA00007C02326F4FE25A0B737014093870740EC
:100DB0002326F4FE29A8B7570140938707C02326AE
:100DC000F4FE31A0B75701402326F4FE010083272B
:100DD000C4FB13D7C7008D47631AF7008545B707D3
:100DE00016001385070CEF90B05B15AA8327C4FB90
:100DF00013D7C700C547631AF7008545B707180022
:100E000013850710EF90D05919AA8327C4FB13D775
:100E1000C700C947631AF7008545B707180013854F
:100E20000720EF90F057E5A88327C4FB13D7C7002E
:100E3000CD47631AF7008545B707180013850730BB
:100E4000EF901056E9A88327C4FB13D7C700930778
:100E50002002631AF7008545B7171A00138507802B
:100E6000EF9010546DA88327C4FB13D7C7009307D6
:100E70003002631AF7008545B7171A00138507C0BB
:100E8000EF90105269A88327C4FB13D7C7009307BC
:100E900010036317F70085450565EF90705041A07A
:100EA0008327C4FB13D7C70093071007631AF70003
:100EB0008545B707008013854700EF90704E85A0E9
:100EC0008327C4FB13D7C70093073008631AF700C2
:100ED0008545B707138013850701EF90704C81A0FB
:100EE0008327C4FB13D7C70093071009631AF700C1
:100EF0008545B707158013850702EF90704A05A056
:100F00008327C4FB13D7C700930730096319F70081
:100F10008545B707158013850704EF90704803A730
:100F20000182832784FBB357F702C1832315F4FEA4
:100F300003A701828357A4FE8507BE86832784FB0F
:100F4000B387F602B357F7022314F4FE035784FE67
:100F5000832744FB3307F702896793870771B357E9
:100F6000F7022313F4FE835784FEFD17C207C183E3
:100F70002310F4FE8357A4FE231EF4FC231104FE69
:100F8000231F04FC230204FE9307C4FDBE85032532
:100F9000C4FEEFA0203C930700072316F4FC85470E
:100FA0002317F4FC231804FC835764FE2319F4FC74
:100FB0008947231AF4FC8947231BF4FC231C04FCF7
:100FC000231D04FC8327C4FBA1838D8B9DE3930722
:100FD000C4FCBE850325C4FEEFA0A04FA145032598
:100FE000C4FEEFA0904E91450325C4FEEFA0B06271
:100FF00045A08327C4FBA18313F7370085476315FA
:10100000F7029307C4FCBE850325C4FEEFA020664B
:10101000A1450325C4FEEFA0105093050040032511
:10102000C4FEEFA01064ADA08327C4FBA18313F717
:10103000370089476314F7029307C4FCBE85032574
:10104000C4FEEFA0F000A1450325C4FEEFA050525E
:1010500091450325C4FEEFA030661DA88327C4FB7D
:10106000A18313F737008D476314F7029307C4FC7D
:10107000BE850325C4FEEFA0701BA1450325C4FE59
:10108000EFA0D053930500400325C4FEEFA0906766
:1010900085450325C4FEEFA0503685450325C4FED3
:1010A000EFA030300100B640264461618280797142
:1010B00006D622D40018232EA4FC8327C4FDB33700
:1010C000F00093F7F70F3E8713061004D967938556
:1010D00007D73A85EF50E0678327C4FD9C43BD8B5B
:1010E0000547B317F70093960701C1828327C4FD14
:1010F0009C4313D75700B70700200A0793870704BC
:10110000BA979C43368798CB8327C4FDDC43BD8BBD
:101110000547B317F70093960701C1828327C4FDE3
:10112000DC4313D75700B70700200A07938707044B
:10113000BA979C43368798CB8327C4FDDC47232688
:10114000F4FE01008327C4FE1387F7FF2326E4FE85
:10115000F5FB8327C4FDDC43BD8B0547B317F700C0
:1011600093960701C1828327C4FDDC4313D7570040
:10117000B70700200A0793870704BA979C4336876E
:10118000D8CB8327C4FDDC472324F4FE010083274A
:1011900084FE1387F7FF2324E4FEF5FB8327C4FDB9
:1011A0009C43BD8B0547B317F70093960701C18297
:1011B0008327C4FD9C4313D75700B70700200A07B5
:1011C00093870704BA979C433687D8CB0100B25067
:1011D000225445618280797106D622D40018232ECC
:1011E000A4FC8327C4FDB337F00093F7F70F3E87C5
:1011F00013064005D967938507D73A85EF506055A8
:101200008327C4FDDC43BD8B0547B317F7009396D6
:101210000701C1828327C4FDDC4313D75700B707FA
:1012200000200A0793870704BA979C433687D8CBD8
:101230008327C4FD9C43BD8B0547B317F7009396E6
:101240000701C1828327C4FD9C4313D75700B7070A
:1012500000200A0793870704BA979C433687D8CBA8
:101260008327C4FDDC472326F4FE01008327C4FE48
:101270001387F7FF2326E4FEF5FB8327C4FD9C4379
:10128000BD8B0547B317F70093960701C1828327EB
:10129000C4FD9C4313D75700B70700200A07938764
:1012A0000704BA979C43368798CB8327C4FDDC4755
:1012B0002324F4FE0100832784FE1387F7FF2324F1
:1012C000E4FEF5FB8327C4FDDC43BD8B0547B31764
:1012D000F70093960701C1828327C4FDDC4313D72F
:1012E0005700B70700200A0793870704BA979C4363
:1012F000368798CB8327C4FDDC472322F4FE010008
:10130000832744FE1387F7FF2322E4FEF5FB010049
:10131000B250225445618280797106D622D40018D9
:10132000232EA4FCAE87A30DF4FC8327C4FDB337A2
:10133000F00093F7F70F3E8713069006D967938561
:1013400007D73A85EF50E0408327C4FD9C43BD8B0F
:101350000547B317F70093960701C1828327C4FDA1
:101360009C4313D75700B70700200A079387070449
:10137000BA979C433687D8CB8347B4FD95CB832758
:10138000C4FDDC43BD8B0547B317F70093960701F7
:10139000C1828327C4FDDC4313D75700B707002061
:1013A0000A0793870704BA979C43368798CB0DA802
:1013B0008327C4FDDC43BD8B0547B317F700939625
:1013C0000701C1828327C4FDDC4313D75700B70749
:1013D00000200A0793870704BA979C433687D8CB27
:1013E0008327C4FDDC472326F4FE01008327C4FEC7
:1013F0001387F7FF2326E4FEF5FB8327C4FD9C43F8
:10140000BD8B0547B317F70093960701C182832769
:10141000C4FD9C4313D75700B70700200A079387E2
:101420000704BA979C43368798CB8327C4FDDC47D3
:101430002324F4FE0100832784FE1387F7FF23246F
:10144000E4FEF5FB8327C4FD9C43BD8B0547B31722
:10145000F70093960701C1828327C4FD9C4313D7ED
:101460005700B70700200A0793870704BA979C43E1
:101470003687D8CB8327C4FDDC43BD8B0547B31724
:10148000F70093960701C1828327C4FDDC4313D77D
:101490005700B70700200A0793870704BA979C43B1
:1014A000368798CB0100B250225445618280797111
:1014B00006D622D40018232EA4FC8327C4FDB337FC
:1014C000F00093F7F70F3E8713065008D96793850E
:1014D00007D73A85EF50E027A30704FE8327C4FD12
:1014E0009C43BD8B0547B317F70093960701C18254
:1014F0008327C4FD9C4313D75700B70700200A0772
:1015000093870704BA979C433687D8CB8327C4FDBB
:10151000DC43BD8B0547B317F70093960701C182E3
:101520008327C4FDDC4313D75700B70700200A0701
:1015300093870704BA979C43368798CB8327C4FDCB
:10154000DC472324F4FE0100832784FE1387F7FF82
:101550002324E4FEF5FB8327C4FD9C43BD8B054794
:10156000B317F70093960701C1828327C4FD9C43FC
:1015700013D75700B70700200A0793870704BA97C5
:101580009C43368798CB8327C4FDDC472322F4FE97
:101590000100832744FE1387F7FF2322E4FEF5FBB7
:1015A0008327C4FDDC433E85EFF0AF96AA8781C751
:1015B0008547A307F4FE8327C4FD9C43BD8B0547E5
:1015C000B317F70093960701C1828327C4FD9C439C
:1015D00013D75700B70700200A0793870704BA9765
:1015E0009C433687D8CB8327C4FDDC472320F4FEF9
:1015F0000100832704FE1387F7FF2320E4FEF5FB99
:101600008347F4FE3E85B250225445618280797151
:1016100006D622D40018232EA4FCAE87A30DF4FC1A
:101620008327C4FDB337F00093F7F70F3E87130607
:10163000700AD967938507D73A85EF5080119307D1
:1016400000F8A307F4FE09AA0347B4FD8347F4FE9C
:10165000F98F93F7F70F95CB8327C4FDDC43BD8B40
:101660000547B317F70093960701C1828327C4FD8E
:10167000DC4313D75700B70700200A0793870704F6
:10168000BA979C43368798CB0DA88327C4FDDC43CB
:10169000BD8B0547B317F70093960701C1828327D7
:1016A000C4FDDC4313D75700B70700200A07938710
:1016B0000704BA979C433687D8CB8347F4FE8583CB
:1016C000A307F4FE8327C4FDDC472324F4FE0100B6
:1016D000832784FE1387F7FF2324E4FEF5FB83278B
:1016E000C4FD9C43BD8B0547B317F70093960701D4
:1016F000C1828327C4FD9C4313D75700B70700203E
:101700000A0793870704BA979C43368798CB8327A9
:10171000C4FDDC472322F4FE0100832744FE138727
:10172000F7FF2322E4FEF5FB8327C4FD9C43BD8B1A
:101730000547B317F70093960701C1828327C4FDBD
:101740009C4313D75700B70700200A079387070465
:10175000BA979C433687D8CB8347F4FEE39607EECF
:101760000325C4FDA933AA87FD17B337F00093F70B
:10177000F70F3E85B250225445618280397106DEF2
:1017800022DC26DA80002326A4FCAE87A305F4FC25
:101790008327C4FCB337F00093F7F70F3E87130697
:1017A000000CD967938507D73A85EF40907AA30755
:1017B00004FEA1472307F4FE8327C4FC9C43BD8B92
:1017C0000547B317F70093960701C1828327C4FC2E
:1017D0009C4313D75700B70700200A0793870704D5
:1017E000BA979C433687D8CB8327C4FCDC47232495
:1017F000F4FE0100832784FE1387F7FF2324E4FE11
:10180000F5FB8327C4FCDC43BD8B0547B317F7000A
:1018100093960701C1828327C4FCDC4313D757008A
:10182000B70700200A0793870704BA979C433687B7
:1018300098CB7DA88327C4FC9C43BD8B0547B31779
:10184000F70093960701C1828327C4FC9C4313D7FA
:101850005700B70700200A0793870704BA979C43ED
:101860003687D8CB8327C4FCDC472322F4FE010053
:10187000832744FE1387F7FF2322E4FEF5FB83272B
:10188000C4FC9C43BD8B0547B317F7009396070133
:10189000C1828327C4FC9C4313D75700B70700209D
:1018A0000A0793870704BA979C43368798CB832708
:1018B000C4FCDC472320F4FE0100832704FE1387C9
:1018C000F7FF2320E4FEF5FB8347F4FE860793949D
:1018D0008701E1848327C4FCDC433E85EFE07FE39E
:1018E000AA87E207E187C58FE207E187A307F4FE35
:1018F0008347E4FE1387F7FF2307E4FE85FF832772
:10190000C4FC9C43BD8B0547B317F70093960701B2
:10191000C1828327C4FC9C4313D75700B70700201C
:101920000A0793870704BA979C433687D8CB832747
:10193000C4FCDC47232EF4FC01008327C4FD13877D
:10194000F7FF232EE4FCF5FB8347B4FCBE8503259B
:10195000C4FCD9328347F4FE3E85F2506254D2541F
:1019600021618280011106CE22CC00102326A4FE24
:10197000AE873287A305F4FEBA872305F4FE8327DA
:10198000C4FEB337F00093F7F70F3E871306202904
:10199000D967938507D73A85EF40B05B0325C4FE2E
:1019A000EFF0EFF08327C4FE83C78700860793F725
:1019B000F70FBE850325C4FE99398347B4FEBE8563
:1019C0000325C4FEA9318347A4FEBE850325C4FEBA
:1019D0003D390325C4FEEFF01F800100F240624450
:1019E00005618280797106D622D40018232EA4FCCA
:1019F000AE87A30DF4FC8327C4FDB337F00093F743
:101A0000F70F3E871306402AD967938507D73A8593
:101A1000EF403054A30704FE0325C4FDEFF02FE987
:101A20008327C4FD83C78700860793F7F70FBE851A
:101A30000325C4FDE93E8347B4FDBE850325C4FDEF
:101A4000F9360325C4FDEFF00FF90325C4FDEFF0CF
:101A50000FE68327C4FD83C787008607E207E18777
:101A600093E71700E207E18793F7F70FBE85032599
:101A7000C4FD713E85450325C4FD0933AA87A3072C
:101A8000F4FE0325C4FDEFF00FF58347F4FE3E8519
:101A9000B250225445618280797106D622D4001852
:101AA0002326A4FEAE872322C4FE2320D4FE232EA9
:101AB000E4FCA305F4FE8327C4FEB337F00093F7DC
:101AC000F70F3E871306F02BD967938507D73A8522
:101AD000EF403048032704FE8327C4FDB307F740D7
:101AE000B337F00093F7F70F3E871306002CD96742
:101AF000938507D73A85EF40D0458327C4FE032757
:101B000004FE98C38327C4FE0327C4FDD8C38327DC
:101B1000C4FE0347B4FE2384E7008327C4FE0327E3
:101B200044FED8C7C14605468545032504FEEFE0BF
:101B30001FC9D146054685450325C4FDEFE03FC8D2
:101B40000100B250225445618280011122CE001062
:101B50002326A4FE2324B4FE2322C4FEB1A083279F
:101B600084FE138717002324E4FE83C60700D96789
:101B70000327C4FE0A079387C77DBA979C433E8715
:101B800093970601C1832316F7000100D967032745
:101B9000C4FE0A079387C77DBA979C4383D7870003
:101BA000C207C183898BFDD3832744FE1387F7FFC8
:101BB0002322E4FECDF70100D9670327C4FE0A07FC
:101BC0009387C77DBA979C4383D78700C207C18399
:101BD00093F70708F5F30100724405618280011153
:101BE00022CE00102326A4FE2324B4FE2322C4FE0A
:101BF0002320D4FED9670327C4FE0A079387C77D35
:101C0000BA979C4383D7C70049A0832784FE1387D4
:101C100017002324E4FE83C60700D9670327C4FE08
:101C20000A079387C77DBA979C433E87939706011F
:101C3000C1832316F7000100D9670327C4FE0A07F2
:101C40009387C77DBA979C4383D78700C207C18318
:101C500093F70708F5F3832744FE85CBD96703275D
:101C6000C4FE0A079387C77DBA979C4383D7C700F2
:101C700093960701C182832744FE1387170023220E
:101C8000E4FE13F7F60F2380E700832704FE138793
:101C9000F7FF2320E4FEB5FB01007244056182805A
:101CA0005D7186C6A2C480082326A4FC2324B4FC4C
:101CB0002322C4FC2320D4FC232EE4FA232CF4FAA0
:101CC000232A04FBD9670327C4FC0A079387C77D2F
:101CD000BA979C433E85EF90604B85450545EF9054
:101CE0006039032704FC93073012631DF7000327B4
:101CF000C4FB930750126317F70085450545EF8035
:101D0000306A25A0032704FC89679387A714631E04
:101D1000F7000327C4FB89679387C7146317F7008D
:101D2000854537152000EF80B0678327C4FC91E715
:101D300085450565EF90003425A00327C4FC854741
:101D40006317F70085451165EF90203711A8032729
:101D5000C4FC89476316F70085452165EF90E0359F
:101D6000832704FC93F7F70F9306803105468545DA
:101D70003E85EFE0DFA48327C4FB93F7F70F9306BC
:101D80008031054685453E85EFE07FA3032784FB30
:101D9000C167F917630DF700832784FB93F7F70FEB
:101DA00093068034054681453E85EFE05FA1032719
:101DB00044FB9307F00F630DF700832744FB93F771
:101DC000F70F93060031014685453E85EFE03F9FC2
:101DD000232E04FC232004FE232204FE232404FEDD
:101DE000231604FE231E04FC93074010231FF4FC5B
:101DF000231004FE032784FC85476305F70283272D
:101E000084FC81CF032784FC89476303F7020327FF
:101E100084FC8D476304F7020DA8231104FE2312EE
:101E200004FE25A0231104FE85472312F4FE31A8E9
:101E300089472311F4FE231204FE01A889472311C8
:101E4000F4FE85472312F4FE0100231704FE03A7C6
:101E50000182832744FCB357F7022317F4FE03A73C
:101E60000182832744FCB377F70291E78357E4FEAE
:101E7000FD172317F4FE0357E4FE9307F00763F7FB
:101E8000E700930780032317F4FE49A80357E4FEF5
:101E90009307F00363F7E700930700032317F4FEAB
:101EA000B5A80357E4FEFD4763F7E70093078002F8
:101EB0002317F4FEA5A00357E4FEBD4763F7E70030
:101EC000930700022317F4FE91A80357E4FE9D47F1
:101ED00063F6E700E1472317F4FE89A00357E4FE09
:101EE0008D4763F6E700C1472317F4FE05A80357A3
:101EF000E4FE854763F6E700A1472317F4FE39A8FF
:101F00008357E4FE81C7231704FE09A81306802225
:101F1000D967938587DB0145EF40B0038357E4FE23
:101F20002314F4FE930700202313F4FE231504FE6C
:101F3000231604FED9670327C4FC0A079387C77DCD
:101F4000BA979C433E879307C4FDBE853A85EF90C0
:101F5000402BD9670327C4FC0A079387C77DBA972C
:101F60009C4385453E85EF9040390100B6402644AC
:101F700061618280797122D60018232EA4FC232C63
:101F8000B4FC8547A307F4FE0327C4FD0A07938723
:101F90008191BA979C4399EB0327C4FD0A07938765
:101FA0008191BA97032784FD98C315A00327C4FD28
:101FB0000A0793878191BA979C43032784FD631690
:101FC000F7008547A307F4FE19A0A30704FE834783
:101FD000F4FE3E85325445618280011106CE22CC4A
:101FE00000102326A4FE8327C4FE81EB8545856768
:101FF00013850780EF9000086DA80327C4FE85476E
:102000006317F70085450545EF90200B5DA003277A
:10201000C4FE89476317F70085450945EF90E0093D
:1020200049A80327C4FE8D476317F700854511456E
:10203000EF90A008BDA80327C4FE91476317F700DF
:1020400085452145EF906007ADA00327C4FE954765
:102050006317F70085454145EF90200699A80327AF
:10206000C4FE99476318F700854513050002EF90F9
:10207000C00481A00327C4FE9D476317F700854570
:102080000965EF80307F35A00327C4FEA1476318A0
:10209000F700854537050800EF80D07D19A8032794
:1020A000C4FEA5476317F700854537051000EF808C
:1020B000707C0100F240624405618280797122D611
:1020C0000018232EA4FCB7370140938707C02326AE
:1020D000F4FE231504FE0327C4FDA54763ECE708BF
:1020E0008327C4FD13972700D9679387877EBA9704
:1020F0009C438287B7370140938707C02326F4FEAD
:1021000095A8B70700402326F4FEADA0B70700400E
:10211000938707402326F4FEB1A8B71700409387A2
:1021200007802326F4FEB9A0B7170040938707C0A5
:102130002326F4FE81A0B71700402326F4FE1DA835
:10214000B7170040938707402326F4FE25A0B73732
:102150000140938707402326F4FE29A8B757014082
:10216000938707C02326F4FE31A0B75701402326EA
:10217000F4FE01000327C4FD0A0793870194BA9770
:1021800098438947631FF7008327C4FE83D747021C
:102190001397070141838D47B357F7022315F4FEC8
:1021A00039A08327C4FE83D747022315F4FE835743
:1021B000A4FE3E85325445618280797122D6001892
:1021C000232EA4FCB7370140938707C02326F4FED3
:1021D0000327C4FDA54763ECE7088327C4FD1397D5
:1021E0002700DD6793870781BA979C438287B737BB
:1021F0000140938707C02326F4FE95A8B707004047
:102200002326F4FEADA0B70700409387074023269E
:10221000F4FEB1A8B7170040938707802326F4FE89
:10222000B9A0B7170040938707C02326F4FE81A00A
:10223000B71700402326F4FE1DA8B7170040938768
:1022400007402326F4FE25A0B737014093870740B7
:102250002326F4FE29A8B7570140938707C02326F9
:10226000F4FE31A0B75701402326F4FE0100832776
:10227000C4FE23920702010032544561828001119D
:1022800022CE00102326A4FEAE87A305F4FE010093
:10229000DD670327C4FE0A0793878783BA979C43A9
:1022A00083D70700C207C18393F70708F5D3DD671B
:1022B0000327C4FE0A0793878783BA979C433E8708
:1022C0008347B4FEC207C1832312F70001007244A2
:1022D00005618280011106CE22CC00102326A4FEC7
:1022E0002324B4FE2322C4FE832784FEB337F000E8
:1022F00093F7F70F3E871306A004D9679385C7DFCE
:102300003A85EF40004529A8832784FE13871700EC
:102310002324E4FE83C70700BE850325C4FE85375A
:10232000832744FE1387F7FF2322E4FEF1FF010019
:10233000F240624405618280011106CE22CC001079
:102340002326A4FE2324B4FE832784FEB337F000A3
:1023500093F7F70F3E8713069005D9679385C7DF7C
:102360003A85EF40003F39A8832784FE1387170082
:102370002324E4FE8387070093F7F70FBE85032528
:10238000C4FEF53D832784FE83870700F1FF01002B
:10239000F240624405618280011106CE22CC001019
:1023A0002326A4FEAE87A305F4FEDD670327C4FE43
:1023B0000A0793878783BA979C433E878347B4FE77
:1023C0003E86930550523A85EF90506C13874184B6
:1023D0008327C4FEBA9783C7070081453E85EF6017
:1023E000C03A8347B4FE81CF138741848327C4FE5C
:1023F000BA9783C707003E85EF60603519A8138739
:1024000041848327C4FEBA9783C707003E85EF60E7
:10241000E0350100F240624405618280011122CE64
:1024200000102326A4FE2324B4FEDD670327C4FE88
:102430000A0793878783BA979C4383D70700C2070D
:10244000C18393F707028DC7DD670327C4FE0A0720
:1024500093878783BA979C4383D74700C207C1837A
:1024600013F7F70F832784FE2380E700854711A029
:1024700081473E85724405618280797106D622D4F7
:102480000018232EA4FC232CB4FC232AC4FC2328EC
:10249000D4FC032744FD832704FD3D8F8327C4FD1F
:1024A000B207F98F93B7170093F7F70F3E8713061C
:1024B000E00CD9679385C7DF3A85EF4080298327F1
:1024C00044FD13D78700832704FDA183B307F7409A
:1024D00093B7170093F7F70F3E871306F00CD967F1
:1024E0009385C7DF3A85EF40C026832744FD93F7E5
:1024F000F70FE146014685453E85EFE04FAC832767
:1025000004FD93F7F70F93068004014681453E854D
:10251000EFE0EFAA85450545EF80D035032744FD60
:10252000C167FD17F98F0D67130707386387E72029
:102530000D67130707386369F70405671307571614
:102540006381E716056713075716636FF7001307D4
:10255000F022638AE70C130760306381E7101307EA
:1025600060126388E70865A6096713078736638BDF
:10257000E7160D67130707126387E7180967130744
:10258000A7146380E71461A615671307A738638E45
:10259000E72615671307A7386362F7021167130769
:1025A00087386380E7201567130787126385E72262
:1025B000116713074712638CE71A91AE1967130767
:1025C000C7386388E72A19671307C7386368F700B5
:1025D0001967130767106384E72615AE1D67130795
:1025E000E7106382E72C1D671307E7386387E72E40
:1025F00039AEB7070140D44FB7070140370700FC99
:102600007D17758FD8CFB7070140D843B707014072
:102610006D9BD8C3B7070140D843B7070140136784
:102620004700D8C3EDA4B7070140D44FB707014016
:10263000370700FC7D17758FD8CFB7070140D44FFF
:10264000B707014037070004558FD8CFB7070140BF
:10265000D843B70701406D9BD8C355ACB7070140BD
:10266000D44FB7070140370700FC7D17758FD8CFCF
:10267000B7070140D44FB707014037070004558F13
:10268000D8CFB7070140D843B70701406D9BD8C3E7
:10269000B7070140D843B707014013674700D8C3C5
:1026A000BDA4B7070140D843B70701405D9BD8C31D
:1026B000B7070140D843B707014013678700D8C365
:1026C000B9A4B7070140D843B70701401377F7FC17
:1026D000D8C3B7070140D843B707014013670701C4
:1026E000D8C335A4B7070140D843B70701401377D3
:1026F000F7FCD8C3B7070140D843B70701401367B9
:102700000703D8C329A4B7070140D44FB707014036
:102710003707FDFF7D17758FD8CFB7070140D44F1E
:10272000832744FDA18313970701B70703007D8F1B
:10273000B7070140558FD8CFD9AAB7070140D44F6A
:10274000B70701403707FDFF7D17758FD8CFB70753
:102750000140D44F832744FDA18313970701B70796
:1027600003007D8FB7070140558FD8CF4DA2B70723
:102770000140D44FB70701403707F4FF7D17758F2D
:10278000D8CFB7070140D44F832744FDA1831397C7
:102790002701B7070C007D8FB7070140558FD8CFB1
:1027A000BDA2B7070140D44FB70701403707F4FF78
:1027B0007D17758FD8CFB7070140D44F832744FDCD
:1027C000A18313972701B7070C007D8FB70701403E
:1027D000558FD8CF2DAAB7070140D44FB707014076
:1027E0003707D0FF7D17758FD8CFB7070140D44F7B
:1027F000832744FDA18313974701B70730007D8FDE
:10280000B7070140558FD8CF19A2B7070140D44F61
:10281000B70701403707D0FF7D17758FD8CFB707AF
:102820000140D44F832744FDA18313974701B70785
:1028300030007D8FB7070140558FD8CFC9A8B707A3
:102840000140D44FB7070140370740FF7D17758F10
:10285000D8CFB7070140D44F832744FDA1831397F6
:102860006701B707C0007D8FB7070140558FD8CFEC
:1028700079A8B7070140D44FB7070140370740FF99
:102880007D17758FD8CFB7070140D44F832744FDFC
:10289000A18313976701B707C0007D8FB707014079
:1028A000558FD8CFADA0B7070140D44FB70701402F
:1028B000370700FD7D17758FD8CFB7070140D44F7C
:1028C000832744FDA18313978701B70700037D8FFA
:1028D000B7070140558FD8CF1DA8B7070140D44F87
:1028E000B7070140370700FD7D17758FD8CFB707B1
:1028F0000140D44F832744FDA18313978701B70775
:1029000000037D8FB7070140558FD8CF0100832783
:10291000C4FD91E785451165EF80C07569A803275F
:10292000C4FD85476318F700854537050200EF8031
:10293000C07851A00327C4FD89476318F700854577
:1029400037050400EF806077BDA00327C4FD8D47E5
:102950006318F700854537050800EF800076A1A8C9
:102960000327C4FD91476318F7008545370510001C
:10297000EF80A07489A00327C4FD95476318F70072
:10298000854513050004EF80407335A00327C4FD7F
:1029900099476318F700854513050008EF80E0713B
:1029A00019A80327C4FD9D476317F7008545130544
:1029B0000010EF808070232004FE232204FE2324D5
:1029C00004FE232604FE832784FD2320F4FE231225
:1029D00004FE231304FE231404FE231604FEB14751
:1029E0002315F4FEDD670327C4FD0A079387878359
:1029F000BA979C433E87930704FEBE853A85EF90C5
:102A0000A05FDD670327C4FD0A0793878783BA9712
:102A10009C4385453E85EF9070010100B2502254E1
:102A200045618280797106D622D40018232EA4FC39
:102A3000232CB4FC232AC4FC232604FE3DA8010059
:102A4000930500040325C4FDEF907013AA87EDDB06
:102A5000832784FD83C70700C207C183BE85032582
:102A6000C4FDEF90F00E832784FD8507232CF4FC32
:102A70008327C4FE85072326F4FE0327C4FE83278D
:102A800044FDE34EF7FA0100B250225445618280C2
:102A9000797106D622D40018232EA4FC232CB4FC72
:102AA0008327C4FDB337F00093F7F70F3E87130673
:102AB0003006D967938507E43A85EF3090492317AC
:102AC00004FEBDA013058008EFD0BFC4AA87B9E3F8
:102AD000032784FDF54763F5E70279468325C4FDA6
:102AE0001945EFF02FFF8327C4FDF907232EF4FCCF
:102AF000832784FD8917232CF4FC231704FE0DA8DB
:102B0000032684FD8325C4FD1945EFF0AFFC232C7B
:102B100004FC25A08357E4FE85072317F4FE035722
:102B2000E4FE9307301F63E9E7000545EFD0BF8956
:102B3000832784FDC1FB11A00100832784FD3E850E
:102B4000B250225445618280797106D622D4001891
:102B5000232EA4FC232CB4FC8327C4FDB337F00040
:102B600093F7F70F3E871306600ED967938507E446
:102B70003A85EF30103E832784FD2326F4FE930729
:102B8000C4FE81463E868325C4FD13858196EF40B1
:102B9000F03F8327C4FE3E85B250225445618280B7
:102BA000411106C622C40008E12E930680071306D1
:102BB000C00BB7170020938547DF0945EF20903FF2
:102BC000C9290547A388E186EF30200C0100B240F7
:102BD000224441018280797122D60018AA872E876B
:102BE000A30FF4FCBA87230FF4FC232604FE23244E
:102BF00004FE8347F4FD2326F4FE8347E4FD2324EB
:102C0000F4FE0327C4FE832784FEB307F7403E8506
:102C1000325445618280597186D6A2D4CAD2CED0B0
:102C2000D2CED6CC8018232EA4F8AE873287231DAF
:102C3000F4F8BA87231CF4F8A30F04FC0357A4F993
:102C4000835784F9B307F70213D7F7410D8BBA976F
:102C500089872320F4FC8327C4F9232EF4FA232C3C
:102C600004FC05A8B7070020032784FD0A07938703
:102C7000475FBA9723A00700032784FD0A079387BD
:102C800041D8BA9723A00700832784FD8507232C0A
:102C9000F4FC032784FD9307F00FE3D5E7FC23281A
:102CA00004FC232C04FC49A8232A04FC9DA80357F8
:102CB000A4F9832784FD3307F702832744FDBA97DD
:102CC0003E878327C4FBBA9783C7070037070020D6
:102CD000939627001307475F369718430507370673
:102CE0000020939627009307465FB69798C3035733
:102CF000A4F9832784FD3307F702832744FDBA979D
:102D00003E878327C4FBBA9783C707003E87832784
:102D100004FDBA972328F4FC832744FD8907232A5E
:102D2000F4FC8357A4F9032744FDE342F7F8832713
:102D300084FD8907232CF4FC835784F9032784FD41
:102D4000E344F7F6232C04FC35A8B707002003273B
:102D500084FD0A079387475FBA979C4353F707D0D0
:102D6000832704FCD3F707D0D377F718032784FD14
:102D70000A07938741D8BA979CE3832784FD850788
:102D8000232CF4FC032784FD9307F00FE3DFE7FA1D
:102D9000232204FC232C04FA872784FB272AF4FA35
:102DA000872744FB2728F4FA872704FB2726F4FA11
:102DB0008727C4FA2724F4FA872784FA2724F4FC07
:102DC000872784FC2722F4FA872744FA2726F4FC75
:102DD000232A04FC59A2032744FD0A07938741D8FC
:102DE000BA979C630727C4FCD377F7002726F4FC27
:102DF000832744FD53F707D0032744FD0A07938731
:102E000041D8BA979C63D377F710072784FCD37710
:102E1000F7002724F4FCD96707A787F78727C4FCA6
:102E2000D377F7082722F4FA832704FC032704FD4D
:102E3000B357F70253F717D0872784FCD377F708E7
:102E40002724F4FA072784FC8727C4FCD377F718D4
:102E50002726F4FA072784FA872744FAD377F71846
:102E60002728F4FA072784FC872784FAD377F7000A
:102E7000272AF4FA0725C4FCEFE040672A89AE89C7
:102E80000727C4FA872744FBD377F7085385F72031
:102E9000EFE0C065D96703A847F883A707F83E8627
:102EA000C286EFA0004DAA872E883E86C2864A853C
:102EB000CE85EFD00029AA872E883E89C2890725B2
:102EC00044FAEFE0A0622A8AAE8A072704FB87272C
:102ED00044FBD377F7085385F720EFE02061D967EB
:102EE00003A847F883A707F83E86C286EFA060488C
:102EF000AA872E883E86C2865285D685EFD060246A
:102F0000AA872E883E86C2864A85CE85EFB0B063FA
:102F1000AA872E883E85C285EFE0C06BD307A52027
:102F2000272CF4FA072784FB872744FCD397E7A0D4
:102F300089CB872784FB2722F4FC832744FDA30F3A
:102F4000F4FC072784FB872744FCD317F7A089EFFD
:102F5000832744FD8507232AF4FC032744FD9307B8
:102F6000F00FE3DAE7E611A001008347F4FD3E85A8
:102F7000B650265416598659764AE64A65618280CB
:102F8000011106CE22CC0010130680079305C00B5A
:102F9000B767002013854770BD39AA873E87B707FA
:102FA00000202388E746B707002003C70747238C84
:102FB000E184A38C0184A30704FEC9A023AE01848D
:102FC000230704FE41A80346F4FE8347E4FE376767
:102FD00000209306C00BB306D6021307477036973E
:102FE000BA9703C7070083C781856374F7008147D9
:102FF00019A09307F00F8345F4FE0347E4FEB716CC
:1030000000201306C00B3386C502938646DFB296B6
:1030100036972300F7000346F4FE8347E4FE371794
:1030200000209306C00BB306D602130747DF36977E
:10303000BA9703C707009307F00F6318F70083A739
:10304000C1851387170023AEE1848347E4FE85071B
:103050002307F4FE0347E4FE9307B00BE3F5E7F61E
:1030600003A7C185F54763C6E7000347F4FEA38CB9
:10307000E1848347F4FE8507A307F4FE0347F4FECB
:1030800093077007E3FCE7F20100F2406244056138
:103090008280011122CE0010A38001862380018648
:1030A000B70700209387C70C83C7770799CBB7076B
:1030B00000209387C70C03C777079307B00B6319EA
:1030C000F700B70700201307D005A388E74619A823
:1030D000B70700209387C70C03C77707B7070020FF
:1030E000A388E74693077007A307F4FEB7070020FD
:1030F00083C717472307F4FEF5A80346F4FE83476A
:10310000E4FE371700209306C00BB306D602130760
:1031100047DF3697BA9783C70700D9E30346F4FE23
:103120008347E4FE8507371700209306C00BB306DC
:10313000D602130747DF3697BA9783C70700ADE378
:103140000346F4FE8347E4FE890737170020930601
:10315000C00BB306D602130747DF3697BA9783C76B
:1031600007009DEF83C791850347F4FE637EF70058
:103170000347F4FEB76700209387C768BA97130721
:10318000B0FB2380E700BDA80347F4FEB76700202B
:103190009387C768BA970347E4FE2380E7009DA0A2
:1031A0000347E4FE9307A00B6311F7040347F4FE03
:1031B000B76700209387C768BA971307B0FB2380CF
:1031C000E70083C791850347F4FE63FCE7020347EA
:1031D000F4FE9307B00663E6E70283C7118685070E
:1031E00013F7F70FA380E18629A88347E4FE85073C
:1031F0002307F4FE0347E4FE9307B00BE3FFE7EE7B
:1032000011A00100B707002083C71747A306F4FEEB
:103210000346F4FE8347D4FE371700209306C00B05
:10322000B306D602130747DF3697BA9783C707005E
:10323000C9E30346F4FE8347D4FEFD173717002089
:103240009306C00BB306D602130747DF3697BA972B
:1032500083C70700B9EF0346F4FE8347D4FEF9178E
:10326000371700209306C00BB306D602130747DFBB
:103270003697BA9783C707008DEF83C791850347B9
:10328000F4FE637CF7000347F4FEB76700209387E2
:103290004761BA9723800700A5A00347F4FEB767EC
:1032A000002093874761BA970347D4FE2380E70045
:1032B00081A88347D4FE95EF0347F4FEB76700204B
:1032C00093874761BA972380070083C79185034797
:1032D000F4FE63F6E7020347F4FE9307B00663E0EB
:1032E000E70283C70186850713F7F70F2380E1867E
:1032F00039A08347D4FEFD17A306F4FE11BF0100D9
:103300000347F4FEB76700209387C768BA9703C7DF
:1033100007009307B00B6317F7040347F4FEB76782
:10332000002093874761BA9783C7070085EF8347DB
:10333000F4FE138717008346F4FEB7070020938737
:10334000C70CBA9703C70700B70700209387C70CBD
:10335000B6972380E700B70700201307D005A3889E
:10336000E74685AA0347F4FEB76700209387C7683E
:10337000BA9703C707009307B00B6318F706034714
:10338000F4FEB767002093874761BA9783C70700A9
:10339000A9CF0347F4FEB767002093874761BA9728
:1033A00003C707008346F4FEB7070020938747143E
:1033B000B69783C707008346F4FEBA9713F7F70F53
:1033C000B70700209387C70CB6972380E700034711
:1033D000F4FEB70700209387C70CBA9703C707000E
:1033E000B7070020A388E746EDA00347F4FEB767C0
:1033F000002093874761BA9783C70700BDEB034757
:10340000F4FEB76700209387C768BA9703C7070021
:103410009307B00B630FF7040347F4FEB767002070
:103420009387C768BA9703C707008346F4FEB707B8
:10343000002093874714B69783C707008346F4FE9E
:10344000B307F74013F7F70FB70700209387C70CB0
:10345000B6972380E7000347F4FEB7070020938761
:10346000C70CBA9703C70700B7070020A388E74631
:103470008DA00347F4FEB76700209387C768BA970B
:1034800083C70700BE860347F4FEB7670020938713
:103490004761BA9783C70700B69713D7F701BA9762
:1034A00085878346F4FE13F7F70FB707002093874D
:1034B000C70CB6972380E7000347F4FEB707002048
:1034C0009387C70CBA9703C70700B7070020A388E4
:1034D000E7460347F4FE8346F4FEB70700209387D0
:1034E000C70CBA9703C70700B70700209387C70C1C
:1034F000B6972380E7000347F4FEB70700209387C1
:10350000C70CBA9783C707008346F4FE13F6F70F7C
:103510001307B00B6374C7009307B0FB13F7F70FE3
:10352000B70700209387C70CB6972380E70083472F
:10353000F4FE99C78347F4FEFD17A307F4FE7DB69A
:1035400001000100724405618280011106CE22CC87
:103550000010232604FE232004FE93077007A30512
:10356000F4FE231404FE0347B4FEB76700209387DC
:10357000C768BA9703C707009307B00B631EF7121B
:103580000347B4FEB767002093874761BA9783C7A4
:1035900007006393071283C7F186639F071083C7F1
:1035A000E186639B071083C7018763970710034772
:1035B000B4FE93077007631EF7000347B4FEB70716
:1035C00000209387C70CBA971307D0052380E70024
:1035D0002DA08347B4FE138717008346B4FEB707B8
:1035E00000209387C70CBA9703C70700B7070020CE
:1035F0009387C70CB6972380E7008346B4FE034742
:10360000B4FEB70700209387C70CBA9783C707009B
:103610003E86B71700201307C00B3387E602938757
:1036200047DFBA97B29783C707009DEB0347B4FE05
:103630009307100763E6E7028347B4FE138757003A
:103640008346B4FEB70700209387C70CBA9703C719
:103650000700B70700209387C70CB6972380E700C1
:103660008346B4FE0347B4FEB70700209387C70C18
:10367000BA9783C707003E86B71700201307C00B11
:103680003387E602938747DFBA97B29783C707006D
:103690006394076E0347B4FE9307200763FEE76C4D
:1036A0000347B4FEB70700209387C70CBA971307E8
:1036B000D0052380E700C9A50347B4FEB767002003
:1036C0009387C768BA9703C707009307B00B6314C3
:1036D000F7060347B4FEB767002093874761BA97A0
:1036E00083C70700A9CB83C7F186B1E783C7E1860B
:1036F000B9E383C70187A1E30347B4FEB76700209E
:1037000093874761BA9703C707008346B4FEB7079C
:10371000002093874714B69783C707008346B4FEFB
:10372000BA9713F7F70FB70700209387C70CB69720
:103730002380E70099A50347B4FEB767002093876D
:103740004761BA9783C70700BDE70347B4FEB76771
:1037500000209387C768BA9703C707009307B00B89
:10376000630BF70483C7F186B9E783C7E186A1E756
:1037700083C70187A9E30347B4FEB7670020938797
:10378000C768BA9703C707008346B4FEB70700208F
:1037900093874714B69783C707008346B4FEB307E1
:1037A000F74013F7F70FB70700209387C70CB697BA
:1037B0002380E700D9A30347B4FEB76700209387AF
:1037C0004761BA9783C70700D5EB0347B4FEB767D5
:1037D00000209387C768BA9703C707009307B00B09
:1037E000630EF70803C7F18685476319F70883C797
:1037F000E186C9E783C70187D1E30347B4FEB76712
:1038000000209387C768BA9703C707008346B4FEB2
:10381000B707002093874705B69783C70700637CE7
:10382000F7000347B4FEB70700209387C70CBA9789
:103830002380070099A30347B4FEB767002093874E
:10384000C768BA9703C707008346B4FEB7070020CE
:1038500093874705B69783C70700B307F74093F7E9
:10386000F70F8346B4FE990713F7F70FB707002049
:103870009387C70CB6972380E70001A30347B4FEE4
:10388000B76700209387C768BA9703C707009307F5
:10389000B00B631EF70A0347B4FEB7670020938797
:1038A0004761BA9783C70700DDC303C7F186854721
:1038B000631FF70883C7E186D9EB83C70187C1EB94
:1038C0000347B4FEB767002093874761BA9783C761
:1038D0000700BE860347B4FEB7070020938747055D
:1038E000BA9783C707003387F6009307B00B63DEF0
:1038F000E7000347B4FEB70700209387C70CBA97C9
:103900001307B0FB2380E7008DA90347B4FEB76718
:10391000002093874761BA9703C707008346B4FE28
:10392000B707002093874705B69783C70700BA9764
:1039300093F7F70F8346B4FEE91713F7F70FB707AE
:1039400000209387C70CB6972380E7003DA103476B
:10395000B4FEB76700209387C768BA9703C707000C
:103960009307B00B631FF7080347B4FEB767002047
:1039700093874761BA9783C70700C1C703C7E1862A
:1039800085476310F70883C7F186A5EF83C70187D2
:10399000ADEB0347B4FEB767002093874761BA9742
:1039A00003C707009307100763FEE7000347B4FE51
:1039B000B70700209387C70CBA971307B0FB238083
:1039C000E70065AE0347B4FEB76700209387476101
:1039D000BA9703C707008346B4FEB7070020938752
:1039E000C71BB69783C707008346B4FEBA9713F781
:1039F000F70FB70700209387C70CB6972380E7001F
:103A0000ADAE0347B4FEB767002093874761BA970E
:103A100083C70700C5E30347B4FEB7670020938759
:103A2000C768BA9703C707009307B00B6304F7088A
:103A300003C7E1868547631FF70683C7F186BDEBA1
:103A400083C70187A5EB0347B4FEB76700209387C0
:103A5000C768BA9703C707009307A00463ECE700A1
:103A60000347B4FEB70700209387C70CBA9723809B
:103A7000070021A60347B4FEB76700209387C768F5
:103A8000BA9703C707008346B4FEB70700209387A1
:103A9000C71BB69783C707008346B4FEB307F7403A
:103AA00013F7F70FB70700209387C70CB69723804B
:103AB000E700E1A40347B4FEB76700209387C76817
:103AC000BA9703C707009307B00B631FF7080347B4
:103AD000B4FEB767002093874761BA9783C7070092
:103AE000C1C703C7A18685476310F70883C7F1865E
:103AF000A5EF83C70187ADEB0347B4FEB76700208E
:103B000093874761BA9703C707009307100763FEBF
:103B1000E7000347B4FEB70700209387C70CBA97A6
:103B20001307B0FB2380E70089AC0347B4FEB767F7
:103B3000002093874761BA9703C707008346B4FE06
:103B4000B707002093874705B69783C707008346CA
:103B5000B4FEBA9713F7F70FB70700209387C70C87
:103B6000B6972380E70011AC0347B4FEB767002087
:103B700093874761BA9783C70700C5E30347B4FE3D
:103B8000B76700209387C768BA9703C707009307F2
:103B9000B00B6304F70803C7A1868547631FF706C8
:103BA00083C7F186BDEB83C70187A5EB0347B4FE4E
:103BB000B76700209387C768BA9703C707009307C2
:103BC000A00463ECE7000347B4FEB7070020938727
:103BD000C70CBA97238007004DA20347B4FEB7670E
:103BE00000209387C768BA9703C707008346B4FECF
:103BF000B707002093874705B69783C7070083461A
:103C0000B4FEB307F74013F7F70FB7070020938709
:103C1000C70CB6972380E7008DA20347B4FEB767B1
:103C200000209387C768BA9783C70700BE860347FB
:103C3000B4FEB767002093874761BA9783C7070030
:103C4000B69713D7F701BA9785878346B4FE13F763
:103C5000F70FB70700209387C70CB6972380E700BC
:103C60008346B4FE0347B4FEB70700209387C70C12
:103C7000BA9783C707003E86B71700201307C00B0B
:103C80003387E602938747DFBA97B29783C7070067
:103C9000B9E70347B4FE9307200763E7E7028347CA
:103CA000B4FE138757008346B4FEB70700209387FE
:103CB000C70CBA9703C70700B70700209387C70C44
:103CC000B6972380E70021A80347B4FEB70700207A
:103CD0009387C70CBA971307D0052380E700930793
:103CE000C003A303F4FE3DA0034774FEB707002002
:103CF0009387C70CBA9783C70700139707014183BF
:103D0000835784FEBA972314F4FE834774FE850715
:103D1000A303F4FE034774FE93077007E3F6E7FC82
:103D2000035784FE9307C003B357F702C207C1834A
:103D3000D3F707D02726F4FE0727C4FED96787A745
:103D400087F8D377F708539707C023A2E186814805
:103D500001488147376700201307C768B70600206E
:103D60009386C60C376600201306466193058007CC
:103D70000145EF10D02B11A001000347B4FE9307BB
:103D8000500763E3E70C0347B4FEB767002093874F
:103D9000C768BA9703C707009307B00B6316F70A03
:103DA0000347B4FEB767002093874761BA9783C77C
:103DB0000700D9EB0347B4FEB70700209387C70C71
:103DC000BA9703C70700B707002083C72747BE85F8
:103DD0003A85EFE05FE02A87C54763C7E7020347FC
:103DE000B4FEB70700209387C70CBA9703C7070034
:103DF000B707002083C72747BE853A85EFE0BFDDC0
:103E00002A87BD576352F70483C7F18695EF83C7AE
:103E1000B1869DEB83C7C18685EB83C781868DE71D
:103E200083C7918695E383C7D18699EF8346B4FE15
:103E3000B707002003C72747B70700209387C70CA1
:103E4000B6972380E70031A80347B4FEB7070020E8
:103E50009387C70CBA9703C70700B70700202389C9
:103E6000E7460347B4FE8346B4FEB70700209387B6
:103E7000C70CBA9703C70700B70700209387C70C82
:103E8000B6972380E7000347B4FEB7070020938767
:103E9000C70CBA9783C707008346B4FE13F6F70F23
:103EA0001307B00B6374C7009307B0FB13F7F70F4A
:103EB000B70700209387C70CB6972380E700834796
:103EC000B4FE81CB8347B4FEFD17A305F4FE6FF06B
:103ED0004FE901008727C4FE5385F720F240624472
:103EE00005618280411106C622C4000883A781872C
:103EF0000547638BE7006388070C0947638DE7007C
:103F00000D47638FE702E9A083A741871387170056
:103F100023AAE18675A883A741871387170023AAE0
:103F2000E18603A74187A54763F1E70AB7070020A9
:103F3000938707049C4B1167D8CB23AA018671A0F5
:103F400003A7C18785476314F7081305F008EFC07E
:103F50004FFCAA87ADC31945EFE04F96AA873E876D
:103F600083A741871D8F9307600963F2E706194510
:103F7000EFE0AFA483A74187D3F717D05385F7208D
:103F8000EFD0C056D96703A6070283A64702EFC049
:103F9000401BAA872E883E85C285EFD0E03DAA87C8
:103FA000139707014183B7070020239AE746094783
:103FB00023AEE18629A81945EFE04F90AA873E87F6
:103FC00023AAE18629A0010021A0010011A001007F
:103FD0000100B240224441018280411106C622C440
:103FE000000883A781870947637CF7000D47639A20
:103FF000E7001945EFE06F9C054723AEE18611A06D
:1040000001000100B240224441018280397106DE84
:1040100022DC80002326A4FC8547A307F4FE23139B
:1040200004FE231604FE232404FE232E04FC83D75F
:1040300081883E87930700236316F700A547232452
:10404000F4FE29A0A1472324F4FE01008DA89307C4
:1040500050FA2300F4FE832784FE8A070327C4FC5A
:10406000BA978397070093F7F70FA300F4FE83270F
:1040700084FE8A070327C4FCBA978397270023137B
:10408000F4FE835764FEA183C207C18393F7F70F41
:104090002301F4FE835764FE93F7F70FA301F4FEA8
:1040A000930704FE1146BE851145EFE0AFA2094516
:1040B000EFC06FB1832784FEFD172324F4FE03278E
:1040C00084FE9307E00FE3F4E7F883A741883E8579
:1040D000EF20905F2A87894763FFE7028D47232EF1
:1040E000F4FC83A741881306C4FD130704FE814630
:1040F000BA853E85EF308069034714FE9307F00FC1
:104100006308F700034724FE9307F00F6315F700D9
:10411000A30704FE31A80545EFC0EFAA8357C4FEEC
:10412000138717002316E4FE1307700CE37FF7F8DC
:104130008347F4FE3E85F25062542161828079719A
:1041400006D622D40018232EA4FCA30704FE2307BE
:1041500004FE231504FE231604FE232004FE83D749
:1041600081883E87930700236316F700A547A307BE
:10417000F4FE29A0A147A307F4FE01008347F4FE43
:10418000FD1793F7F70FA307F4FE11AA03D7818851
:104190009307F02263EDE7008307F4FE8A07032705
:1041A000C4FDBA9703970700A5476300F70E93076E
:1041B00050FA2302F4FEC557A302F4FE8307F4FE6F
:1041C0008A070327C4FDBA97839707002315F4FED7
:1041D0008357A4FEA183C207C18393F7F70F23037C
:1041E000F4FE8357A4FE93F7F70FA303F4FE93079F
:1041F00044FE1146BE851145EFE0CF8D231604FE27
:1042000083A741883E85EF20304C2A87894763F792
:10421000E7048D472320F4FE83A74188130604FE9C
:10422000130744FE8146BA853E85EF30205683470A
:1042300054FEA20793960701C186834764FE139735
:10424000070141878307F4FE8A070326C4FDB2975E
:10425000558F420741872391E70031A80545EFC0FC
:104260008F968357C4FE138717002316E4FE1307A7
:10427000700CE377F7F80357C4FE9307800C63F7DD
:10428000E70085472307F4FE39A801008307F4FE01
:1042900093F7F70FFD1793F7F70FA307F4FE8307C4
:1042A000F4FEE3D507EE8347E4FE3E85B250225488
:1042B00045618280011106CE22CC0010232404FE29
:1042C0008547A307F4FE231604FE232204FE83A7DA
:1042D00041883E85EF20503FAA8791C783A7418838
:1042E0003E85EF20D0199305F00F1145EFD03FF92F
:1042F000930750FA2304F4FEBD57A304F4FE2305EC
:1043000004FEA30504FE930784FE1146BE851145F5
:10431000EFD05FFC231604FE83A741883E85EF2083
:10432000B03A2A87894763F0E7048D472322F4FED9
:1043300083A74188130644FE130784FE8146BA858D
:104340003E85EF30A0440347A4FE85476309F7008C
:104350000347A4FE89476304F700854711A08147FE
:10436000A307F4FE31A80545EFC0EF858357C4FECF
:10437000138717002316E4FE1307700CE37EF7F88B
:104380008347F4FE3E85F24062440561828001115C
:1043900006CE22CC0010A30704FE9307F4FEBE85D0
:1043A0001145EFE0AF8783A7418885C70347F4FE37
:1043B0009307500A6317F70083A741883E85EF20D3
:1043C000100C83A741880347F4FEBA853E85EF2091
:1043D00050370100F240624405618280411122C6DB
:1043E000000805472380E1880100324441018280B2
:1043F000011106CE22CC0010231704FE231604FE62
:10440000232204FE930750FA2304F4FEC557A304A5
:10441000F4FE230504FEC957A305F4FE930784FEAA
:104420001146BE851145EFD0FFEA83A741883E853E
:10443000EF2090292A87894763F0E7048D472322DC
:10444000F4FE83A74188130644FE130784FE8146C9
:10445000BA853E85EF308033834794FEA2071397D9
:10446000070141878347A4FEC207C187D98FC207CE
:10447000C1872316F4FE31A80545EFB0DFF483575A
:10448000E4FE138717002317E4FE1307700CE37E86
:10449000F7F88357C4FE3E85F2406244056182808E
:1044A0005D7186C6A2C480088547A307F4FE054750
:1044B00023A4E1809307C4FD1307C00493062006DC
:1044C0001306401F81453E85EFD00FDD9307C4FDE5
:1044D0003E85EFA04027AA87B5EFD96703AE470A0C
:1044E0001387470A032347001387470A8328870057
:1044F0001387470A0328C7001387470A084B138707
:10450000470A4C4B1387470A104F1387470A544FEB
:104510001387470A18539387470ADC53232AC4FB9F
:10452000232C64FA232E14FB232004FD2322A4FC55
:104530002324B4FC2326C4FC2328D4FC232AE4FC33
:10454000232CF4FC930744FB3E85EFA0A025AA870B
:10455000A307F4FE8347F4FE3E85B640264461611E
:104560008280597186D6A2D480188547A307F4FEAD
:10457000230704FE232404FE23A401801305000462
:10458000EFD0003FAA872324F4FE832784FE85E32F
:1045900093068020D96713868702D96793854707DA
:1045A0000145EF2080218947A307F4FE3DAC654516
:1045B000EFD0003CAA873E8723A2E18883A74188E9
:1045C00085E79306F020D96713868702D96793851C
:1045D00007090145EF20601E032584FEEFD0E03976
:1045E0008947A307F4FE11A483A74188930600041A
:1045F000032684FE81453E85EF30F0539167938614
:10460000270691671386C704896793850758114564
:10461000EFD0BFE685451145EFD01FD8D13BAA8723
:104620003E872394E18883D7818889CFEFF09FC8A4
:10463000AA8789CB81451145EFD01FD68D47A307A7
:10464000F4FE65A2D96703AE470A1387470A03231E
:1046500047001387470A832887001387470A0328E0
:10466000C7001387470A084B1387470A4C4B138729
:10467000470A104F1387470A544F1387470A1853A6
:104680009387470ADC532320C4FD232264FC2324A0
:1046900014FD232604FD2328A4FC232AB4FC232C88
:1046A000C4FC232ED4FC2320E4FE2322F4FED9678D
:1046B00003A3471013874710832847001387471029
:1046C00003288700138747104847138747100C4B70
:1046D00013874710504B13874710144F1387471009
:1046E000584F938747109C53232E64F8232014FBC4
:1046F000232204FB2324A4FA2326B4FA2328C4FA91
:10470000232AD4FA232CE4FA232EF4FA930704FC88
:104710003E85EFF0BF8FAA8785C79306C024D9676F
:1047200013868702D9679385C70C0145EF20E008FF
:1047300081451145EFD05FC68547A307F4FE75A0FC
:104740009307C4F93E85EFF09F9FAA8785C793061C
:104750008025D96713868702D9679385870E01451F
:10476000EF20A00581451145EFD01FC38547A30762
:10477000F4FEA5A8230704FEA1A88347E4FE85074D
:104780008A07130704FFBA97039707FD8347E4FEE0
:104790008A07930604FFB6978397C7FA631FF70249
:1047A0008347E4FE85078A07130704FFBA97039738
:1047B00027FD8347E4FE8A07930604FFB697839795
:1047C000E7FA631CF7008347E4FE85072307F4FE3E
:1047D0000347E4FEA147E3F2E7FA8347E4FE93B719
:1047E000870093F7F70FA307F4FE032584FEEFD0AD
:1047F000C01883A741883E85EFD0201823A20188E6
:104800008347F4FE3E85B6502654656182807971F7
:1048100006D622D40018A30704FEB747000013866B
:10482000C73D81450D457928EFF09FC7AA8785C30D
:10483000B74700001386C73DB74700009385E738A8
:104840000D454920EFF0FFD1AA87A307F4FE834767
:10485000F4FEB9E791473EC495473EC299473EC032
:104860009308900213088002930760021307B004B4
:104870009306900413068004A9452545EFB01FC98F
:1048800093068007996713860782B7670020938590
:104890004770B767002013854770EFB05FD729A036
:1048A00001468145014539288347F4FE3E85B250D3
:1048B000225445618280411122C600080100324421
:1048C00041018280011122CE00102326A4FE232460
:1048D000B4FE2322C4FE0327C4FE23A6E188832757
:1048E00044FE81C7832744FE29A0B7570000938761
:1048F000678B23A8F180832784FE81C7832784FEEA
:1049000029A0B75700009387678B23A6F180010089
:10491000724405618280797106D622D40018232E54
:10492000A4FC232604FE0327C4FD93074006B30717
:10493000F702232EF4FC39A82945EFB0FFB28327F4
:10494000C4FE85072326F4FE0327C4FD8327C4FE87
:1049500063F9E70013051004EFB0BFDBAA87E9DFB6
:1049600011A001000327C4FD8327C4FEB3B7E700ED
:1049700093C7170093F7F70F3E85B2502254456155
:104980008280011106CE22CC00102326A4FEAE8721
:104990002322C4FE36872315F4FEBA872314F4FEBF
:1049A000B7070020938707049C470547D8CB832788
:1049B000C4FE89CB8357A4FE3E868325C4FE0545ED
:1049C000EFD0AF98832744FE89CB835784FE3E8681
:1049D000832544FE0545EFD04F97B7070020938706
:1049E00007049C47054798CB0100F24062440561EB
:1049F0008280011106CE22CC00102326A4FEAE87B1
:104A00002315F4FEB7070020938707049C4705474A
:104A1000D8CB8327C4FE0327C4FE91463A86BE85C1
:104A20000545EFD0CF9B8357A4FE99CF8327C4FEC3
:104A3000138747008327C4FE91078356A4FE3E8652
:104A4000BA850545EFD0AF99B707002093870704D3
:104A50009C47054798CB0100F24062440561828083
:104A6000011106CE22CC00102326A4FE2324B4FE7E
:104A7000B2872313F4FEB7070020938707049C47EF
:104A80000547D8CB832784FE09472380E700832787
:104A900084FE035764FE2391E700832784FE0327E7
:104AA00084FE91463A86BE850545EFD04F93035765
:104AB00064FE9307000263FAE702832784FE9107EE
:104AC000930600023E868325C4FE0545EFD02F9154
:104AD0008327C4FE13870702835764FE81173E862F
:104AE000BA850545EFD06F8615A8832784FE910708
:104AF000035764FE3A868325C4FE3E85EFC0906866
:104B0000832784FE13874700832784FE910793063B
:104B100000023E86BA850545EFD06F8CB7070020AE
:104B2000938707049C47054798CB0100F2406244F5
:104B300005618280797106D622D40018232EA4FC48
:104B4000232CB4FCB2872328D4FC231BF4FC854718
:104B5000A307F4FE8327C4FD93F7F70F2304F4FEA5
:104B6000835764FD2315F4FE032504FDEFF0BFDA3F
:104B7000AA87B1EB035764FD930784FEBA86032628
:104B800084FD91453E85EFF0DFDF032504FDEFF066
:104B90009FD8AA879DEB89472304F4FE231504FEC2
:104BA0000357A4FE930784FEBA853E859935514587
:104BB000EFB09F8B034784FE930700086318F7004C
:104BC000A30704FE21A0010011A001008347F4FE09
:104BD0003E85B250225445618280797106D622D436
:104BE0000018232EA4FC232CB4FC232AC4FC8547E4
:104BF000A307F4FE032544FDEFF0FFD1AA87B1EB34
:104C00008327C4FD13F7F70F832784FD2380E70074
:104C1000832784FD81460146930500023E85EFF01F
:104C20005FD6032544FDEFF01FCFAA878DE78327CA
:104C300084FD09472380E700832784FD2391070033
:104C400093050002032584FDEFF0BFDAA30704FEFD
:104C500021A0010011A001008347F4FE3E85B2505F
:104C6000225445618280397106DE22DC8000930780
:104C700084FC1306803EBE8513050002B93FAA8757
:104C8000A307F4FE8347F4FE8DE7034784FC9307F4
:104C9000000A6310F7028357A4FC3E87930784FC45
:104CA00091073A86BE85B7C70020138547F2EFC04B
:104CB000704D8347F4FE3E85F2506254216182803C
:104CC000397106DE22DC8000930784FC1306803EE7
:104CD000BE85130510021137AA87A307F4FE834788
:104CE000F4FE8DE7034784FC9307100A6310F70274
:104CF0008357A4FC3E87930784FC91073A86BE85C0
:104D0000B7C70020138507F3EFC0D0478347F4FEF1
:104D10003E85F250625421618280397106DE22DCC8
:104D20008000930784FC1306803EBE851305200295
:104D30006D35AA87A307F4FE8347F4FE8DE703478A
:104D400084FC9307200A6310F7028357A4FC3E8774
:104D5000930784FC91073A86BE85B7C70020138568
:104D600047F4EFC030428347F4FE3E85F250625470
:104D700021618280597186D6A2D48018232EA4F88E
:104D8000232CB4F8832784F98DC31307C4FA832630
:104D900084F90326C4F9D967938587123A85EFD041
:104DA0003017AA872317F4FE31A81307C4FA032685
:104DB000C4F9D967938547133A85EFD07015AA8750
:104DC0002317F4FE0356E4FE1307C4FA896793869B
:104DD0000771BA854145EFF0FFD5AA87A306F4FE17
:104DE0002D3F8347D4FE3E85B650265465618280B0
:104DF0005D7186C6A2C48008232EA4FA232CB4FABF
:104E0000232AC4FA2328D4FA130544FC832704FB7D
:104E1000032744FB832684FB0326C4FBD9659385C3
:104E2000C513EFD0F00EAA872317F4FE0356E4FE55
:104E3000130744FCB16793860735BA854545EFF003
:104E40007FCFAA87A306F4FEC93D8347D4FE3E85E3
:104E5000B6402644616182805D7186C6A2C4800826
:104E6000232EA4FA232CB4FA83A70189639B07108D
:104E7000054723A8E18879A0832784FB056761178C
:104E80006374F7008567E1172317F4FE1305803E6E
:104E9000EFF07FA8AA87BDEB0357E4FE930784FCDD
:104EA0003A86BE850325C4FBEFF09FBB034784FC15
:104EB000930700096308F700034784FC9307100970
:104EC0006313F7028357A4FC99CF8357A4FC3E8752
:104ED000930784FC91073A86BE85B7C700201385E7
:104EE00007F6EF20002C8357E4FE032784FBB3076B
:104EF000F740232CF4FA8357E4FE0327C4FBBA9748
:104F0000232EF4FA832784FBA5FB95A0010085A03E
:104F10001305803EEFF03FA0AA87ADE38947230445
:104F2000F4FC231504FC930784FC930500023E85E2
:104F3000EFF03FAC034784FC930700096308F700D8
:104F4000034784FC930710096313F7028357A4FCFB
:104F500099CF8357A4FC3E87930784FC91073A8638
:104F6000BE85B7C70020138507F6EF2080230347CF
:104F700084FC93070009E30DF7F811A0010023A8B2
:104F80000188832784FB3E85B64026446161828088
:104F90005D7186C6A2C48008232EA4FA232CB4FA1D
:104FA0008327C4FBB337F00093F7F70F3E87130650
:104FB0003023D967938507153A85EF1080798327C9
:104FC00084FB2326F4FE83A70189ADEF054723A8C0
:104FD000E1881305803EEFF01F94AA87ADE389476F
:104FE0002304F4FC231504FC930784FC93050002BE
:104FF0003E85EFF01FA0034784FC93070009630878
:10500000F700034784FC930710096313F7028357E3
:10501000A4FC99CF8357A4FC3E87930784FC910797
:105020003A86BE85B7C70020138507F6EF206017C4
:10503000034784FC93070009E30DF7F811A0010072
:1050400023A801889307C4FE81463E868325C4FBBE
:10505000B7C70020138507F6EF2040738327C4FEEF
:105060003E85B640264461618280397106DE22DCCD
:105070008000930784FC1306803EBE851305000262
:10508000EFF0BFB5AA87A307F4FE8347F4FE89EBD0
:10509000034784FC9307000A6314F700894729A893
:1050A0008347F4FE89EB034784FC9307000D6314E8
:1050B000F700814711A085473E85F2506254216177
:1050C0008280797106D622D40018232EA4FC232CCA
:1050D000B4FCA30704FE93060040B7C70020138664
:1050E000C7F78145B7C70020138507F6EF30A02426
:1050F0001308F00F85679387E70205671307F70228
:1051000085669386D60237C6C901130606388D45D3
:105110000545EFC0FFB8B7470040938707800547B4
:105120002392E702C1460546854513050004EFB00A
:105130000FE9C146054685451D45EFB04FE893068A
:1051400080020146814513051004EFB04FE7814509
:105150001D45EFB08FD42945EFB0EFA685451D451D
:10516000EFB0AFD313054006EFB0EFA523A8018839
:10517000ED3DAA8785E71308F00F85679387E7025F
:1051800005671307F70285669386D60237E6E400C3
:105190001306061C8D450545EFC09FB0EFF0BFAC70
:1051A000AA87A307F4FE8347F4FEA9E3EFF05FB1FB
:1051B000832584FD0325C4FDEFF0DFBBAA87A30789
:1051C000F4FE8347F4FE8DE7D96793868719D96784
:1051D0001386071AD9679385871AD9671385871BA2
:1051E000EFF01FC1AA87A307F4FE21A0010011A0C0
:1051F00001008347F4FE3E85B2502254456182800F
:10520000797106D622D40018232EA4FC232CB4FCDA
:105210008547A307F4FE230204FEA30204FE230332
:1052200004FEA30304FE230404FEA30404FE2305DA
:1052300004FEA30504FEA1472320F4FE0545EFB0BC
:105240008F98A1472320F4FE130704FE930744FE22
:1052500085463A86BE85B7C7002013854741EF20B3
:10526000302D930744FE8325C4FD3E85EFD0206199
:10527000AA8781C7A30704FE81A0130744FED9674C
:105280009385C71B3A85EFD0805FAA8799EB1307F8
:1052900044FED9679385471C3A85EFD0405EAA87C4
:1052A00089C78547A307F4FE01A8832784FD1387D8
:1052B000F7FF232CE4FCD9F38347F4FE3E85B2507C
:1052C000225445618280411106C622C40008B7C736
:1052D000002013854741EF10901A0100B24022448C
:1052E000410182805D7186C6A2C48008232EA4FA83
:1052F000232CB4FA8327C4FBB337F00093F7F70FDE
:105300003E871306D03BD9679385072D3A85EF106A
:1053100040448967938707712326F4FE232604FC03
:10532000232804FC232A04FC232C04FC232E04FC45
:10533000232004FE232204FE232404FEB7C70020FA
:105340009387C73703A7470985476319F710B7C77E
:1053500000209387C73783A7C7086398070EA53730
:10536000032784FB9307C4FCBA853E85EF302021D8
:10537000032784FB896763F9E700D9679385473C76
:105380001945EFC07FFB39A0D9679385473D194583
:10539000EFC09FFAB7C700209387C73703A7070955
:1053A00085476318F700D9679385073E1945EFC015
:1053B000BFF89307C4FCBE851945EFC0FFF7D96756
:1053C0009385071E1945EFC03FF7896793850771DD
:1053D000D9671385871DEFF0BFE2AA87C1E3EFF01D
:1053E0009FEE032684FB8325C4FB1945EFC09FEE87
:1053F000896793850771D9671385871DEFF05FE093
:10540000AA87A9EF232C04FA91A8010013058008AC
:10541000EFB02FB0AA8789CB8327C4FE1387F7FF8D
:105420002326E4FEE344F0FE8327C4FE6357F00224
:105430008327C4FB83C70700BE851945EFC03FE43F
:105440008327C4FB8507232EF4FA832784FB138765
:10545000F7FF232CE4FAD5FB11A00100EFF0BFE623
:10546000832784FB3E85B640264461618280797142
:1054700006D622D40018232EA4FC232CB4FC8327A8
:10548000C4FDB337F00093F7F70F3E8713062043B0
:10549000D9679385072D3A85EF10A02B832784FDCC
:1054A0002326F4FE9307C4FE81463E868325C4FD71
:1054B000B7C7002013854741EF20402D8327C4FE46
:1054C0003E85B250225445618280797106D622D43D
:1054D0000018232EA4FC232CB4FC8327C4FDB3376F
:1054E000F00093F7F70F3E8713063006D9679385D0
:1054F00007483A85EF10E025231704FEBDA01305E9
:105500008008EFB00FA1AA87B9E3032784FDF54710
:1055100063F5E70279468325C4FD1945EFC09FDB9B
:105520008327C4FDF907232EF4FC832784FD891704
:10553000232CF4FC231704FE0DA8032684FD8325E9
:10554000C4FD1945EFC01FD9232C04FC25A08357A7
:10555000E4FE85072317F4FE0357E4FE93073006A5
:1055600063E9E7000545EFA01FE6832784FDC1FB43
:1055700011A00100832784FD3E85B250225445616D
:105580008280797106D622D40018232EA4FC232C05
:10559000B4FC8327C4FDB337F00093F7F70F3E87C1
:1055A0001306700CD967938507483A85EF10601A87
:1055B000832784FD2326F4FE9307C4FE81463E869E
:1055C0008325C4FDB7C7002013850743EF20001CC7
:1055D0008327C4FE3E85B250225445618280797192
:1055E00006D622D40018232EA4FC232CB4FCB287A8
:1055F000A30BF4FCB687231AF4FCBA872319F4FC36
:10560000232604FE1307A0FA238AE18893874189A1
:105610000947A380E7008327C4FD93F7F70F960798
:1056200013F7F70F832784FD99E3C14711A0814742
:10563000D98F13F7F70F834774FDD98F13F7F70F3F
:10564000938741892381E700938741892147A3817B
:10565000E70093874189035744FD2392E70093872E
:105660004189035724FD2393E70003A78181A145C6
:105670001385418902970327C4FD8947630AF7020E
:105680000327C4FD8D47630EF7020327C4FD85473A
:105690006313F704035744FD835724FDB307F70250
:1056A00013D7F7411D8BBA978D872326F4FE25A0CB
:1056B000035744FD835724FDB307F7022326F4FE66
:1056C00019A8035744FD835724FDB307F702860743
:1056D0002326F4FE0100832784FD81CB83A78181EB
:1056E0008325C4FE032584FD82970100B250225415
:1056F00045618280797106D622D40018232EA4FC3D
:10570000231604FE9387C18983D747002316F4FE2E
:105710009387C18983C7270093F7070291C78357EF
:10572000C4FE86072316F4FE03A78181A1451385D5
:10573000C1890297A30704FEA5A08347F4FE0327AF
:10574000C4FD8A07BA97DC4799CF83A68181834736
:10575000F4FE0327C4FD8A07BA97DC470357C4FE4B
:10576000BA853E8582968347F4FE0327C4FDA107D0
:105770008A07BA97DC4785C383A681818347F4FEF5
:105780000327C4FDA1078A07BA97DC470357C4FE65
:10579000BA853E8582968347F4FE8507A307F4FE0B
:1057A0000347F4FE9D47E3FAE7F80100B2502254A4
:1057B00045618280011122CE00102326A4FE2324FD
:1057C000B4FEB28736872313F4FEBA872312F4FEA1
:1057D0001307A0FA238EE1889387C1890D47A38020
:1057E000E7009387C1892147A381E700B7C700205D
:1057F0009387C7440327C4FE98C7B7C70020032771
:1058000084FE23A6E744B7C700209387C744035705
:1058100064FE2392E700B7C700209387C74403576D
:1058200044FE2393E70001007244056182803971D0
:1058300006DE22DC8000232EA4FC232AC4FC2328BD
:10584000D4FC2326E4FC2324F4FC232204FD23209F
:1058500014FDAE87231DF4FCA30704FE230704FEFA
:10586000A30604FEB7C700209387C7449C47B337FD
:10587000F00093F7F70F3E8713068010D9679385E2
:10588000074D3A85EF00F06C9387C1890357A4FD5B
:105890002392E7009387C18923830700A30704FEAF
:1058A0001DA88347F4FE37C700201307C7448A07A3
:1058B000BA9723A607008347F4FE37C70020A10745
:1058C0001307C7448A07BA9723A607008347F4FE45
:1058D0008507A307F4FE0347F4FE8947E3F3E7FCDB
:1058E0000327C4FD85476308F7108327C4FD99C7C4
:1058F0000327C4FD8947630AF71E99AE832744FD39
:10590000B9C38347E4FE85072307F4FE9387C18963
:1059100083C7670093E7170013F7F70F9387C189D1
:105920002383E7008347F4FE13871700A307E4FEF1
:10593000BE86B7C700201387C74493972600BA973F
:10594000032744FDD8C7832704FDB9C38347E4FE7A
:1059500085072307F4FE9387C18983C7670093E710
:10596000270013F7F70F9387C1892383E700834745
:10597000F4FE13871700A307E4FEBE86B7C7002016
:105980001387C74493972600BA97032704FDD8C707
:105990008327C4FCB9C38347E4FE85072307F4FECD
:1059A0009387C18983C7670093E7470013F7F70F11
:1059B0009387C1892383E7008347F4FE1387170089
:1059C000A307E4FEBE86B7C700201387C74493979A
:1059D0002600BA970327C4FCD8C7B7C7002093870F
:1059E000C74403D767009307F00F63FEE72485479A
:1059F000A306F4FE89AC832784FCB1C38347E4FE8D
:105A000085072307F4FE9387C18983C7670093E75F
:105A1000170013F7F70F9387C1892383E7008347A4
:105A2000F4FE13871700A307E4FE37C70020A10781
:105A30001307C7448A07BA97032784FCD8C783276C
:105A400044FCB1C38347E4FE85072307F4FE938734
:105A5000C18983C7670093E7270013F7F70F938780
:105A6000C1892383E7008347F4FE13871700A30748
:105A7000E4FE37C70020A1071307C7448A07BA9777
:105A8000032744FCD8C7832704FCB1C38347E4FE43
:105A900085072307F4FE9387C18983C7670093E7CF
:105AA000470013F7F70F9387C1892383E7008347E4
:105AB000F4FE13871700A307E4FE37C70020A107F1
:105AC0001307C7448A07BA97032704FCD8C7B7C788
:105AD00000209387C74403D747009307F00F63F66E
