:100000006FA0606F130000001300000013000000D9
:100010001300000013000000130000001300000094
:100020001300000013000000130000001300000084
:08003000130000007300100032
:100038000000000000000000109D0000209D00004E
:10004800000000003CA600000000000000000000C6
:100058003EA6000040A600000000000000000000CE
:1000680042A600000000000044A6000000000000B6
:1000780046A6000048A600004AA600004CA60000BC
:100088004EA6000050A60000D08F0000849000000B
:1000980038910000EC910000A09200005CA60000DE
:1000A8005EA6000060A6000062A6000064A600002C
:1000B80066A6000068A600006AA600006CA60000FC
:1000C8006EA6000070A6000072A6000054930000FF
:1000D80076A600009E9500007AA600007CA6000087
:1000E8005E9600001E970000E097000084A60000BE
:1000F80086A6000088A600008AA600008CA600003C
:100108008EA60000E2880000A68900006A8A000026
:100118006C94000098A600009AA600009CA6000017
:10012800D89A0000A0A60000A2A60000A4A600007D
:10013800A6A60000A8A60000A0980000ACA6000093
:100148002E8B0000F28B000060990000189A0000C6
:10015800B6A60000B8A60000BAA60000BCA600001B
:10016800BEA60000C0A60000C2A60000C4A60000EB
:10017800C6A60000C8A60000CAA6000014C5000054
:10018800CEA60000D0A60000008F0000B48C0000AE
:10019800788D0000408E0000DAA60000989B0000D1
:1001A800DEA60000E0A60000E2A60000589C0000C1
:1001B800E6A60000E8A60000EAA60000ECA60000FB
:1001C800EEA60000F0A60000F2A60000F4A60000CB
:1001D8000000000000000000000000000000000017
:1001E8000000000000000000000000000000000007
:0801F8000000000000000000FF
:100200003D432A876373C3029377F700BDEFADE5E3
:10021000937606FF3D8ABA960CC34CC30CC74CC7F5
:100220004107E36BD7FE11E28280B306C3408A0622
:100230009702000096966780A6002307B700A306E2
:10024000B7002306B700A305B7002305B700A30432
:10025000B7002304B700A303B7002303B700A3022A
:10026000B7002302B700A301B7002301B700A30022
:10027000B7002300B700828093F5F50F93968500B1
:10028000D58D93960501D58D61B79396270097027A
:10029000000096968682E78086FA9680C1171D8FA9
:1002A0003E96E374C3F8A5B73367B500FD530D8BD5
:1002B00079E7B7877F7F9387F7F710419441B3724F
:1002C000F6003363F600BE92B3E262006397720CED
:1002D0006318D6065041D441B372F6003363F6007A
:1002E000BE92B3E262006398720A631BD6041045A3
:1002F0009445B372F6003363F600BE92B3E2620037
:100300006391720A631ED6025045D445B372F6005B
:100310003363F600BE92B3E26200639A720863111F
:10032000D60210499449B372F6003363F600BE92C8
:10033000B3E26200639372085105D105E30FD6F66C
:100340001317060193970601631CF7001357060164
:1003500093D706013305F7409375F50F91E9828035
:100360004183C1833305F7409375F50F91E1828096
:100370001377F70F93F7F70F3305F74082800346A3
:10038000050083C60500050585056313D60065FADB
:100390003305D640828011059105E312D6FE014552
:1003A00082802105A105E31CD6FC01458280310530
:1003B000B105E316D6FC014582804105C105E31075
:1003C000D6FC01458280011122CE00102326A4FE16
:1003D00037F500E08328450037F500E093F8E8FFA3
:1003E0002322150183A8C1810965130505F433D5BE
:1003F000A802AA8601470325C4FEAA87014837F54B
:1004000000E03303F702B308D8029A983383F60268
:1004100033B6F6029A85B387C8003E860CC950C928
:10042000B7F700E09843B7F700E01367070198C3F8
:10043000B7F700E09843B7F700E01367170298C3D7
:100440000100B7F700E0DC4313F717008547E31A14
:10045000F7FEB7F700E09843B7F700E0799B98C341
:100460000100724405618280011122CE0010232612
:10047000A4FE37F500E08328450037F500E093F847
:10048000E8FF2322150183A8C18137157A001305DF
:10049000052033D5A802AA8601470325C4FEAA87F2
:1004A000014837F500E03303F702B308D8029A9801
:1004B0003383F60233B6F6029A85B387C8003E86C8
:1004C0000CC950C9B7F700E09843B7F700E01367CD
:1004D000070198C3B7F700E09843B7F700E0136748
:1004E000170298C30100B7F700E0DC4313F71700C9
:1004F0008547E31AF7FEB7F700E09843B7F700E047
:10050000799B98C30100724405618280011106CE77
:1005100022CC0010AA8E2E8E32833685BA853E8676
:10052000C2864687F687A307F4FEF2872307F4FE08
:100530009A87A306F4FEAA872306F4FEAE87A305D6
:10054000F4FEB2872305F4FEB687A304F4FEBA874F
:100550002304F4FE8347F4FE93068004014681459C
:100560003E85B12C8347E4FE930680040146814515
:100570003E85B1248347D4FE93068004014681451D
:100580003E85352C8347C4FE930680040146814591
:100590003E8535248347B4FE930680040146814599
:1005A0003E85312C8347A4FE930680040146814595
:1005B0003E853124834794FE93068004014681459D
:1005C0003E85F52A834784FE9306800401468145D3
:1005D0003E85F52283474400930680040146814509
:1005E0003E85F12A83470400930680040146814535
:1005F0003E85F122834784009306800401468145AD
:100600003E85752A0100F240624405618280011135
:1006100006CE22CC00102326A4FE2324B4FEB287EB
:1006200036872313F4FEBA872312F4FE8545096545
:10063000EFA0700BB70705500D472380E700B70701
:1006400005500547A380E700B7070550035744FE50
:100650002392E700B7070550035764FE2393E70092
:10066000B70705500327C4FE98C7B70705500327EF
:1006700084FED8C7B707055011472381E70081459D
:1006800013056005EF60F05A13056005EF60B05682
:100690000100F240624405618280011122CE001007
:1006A0002326A4FEAE87A305F4FE8347B4FE85CBC4
:1006B0008327C4FEBD8B0547B317F7009396070148
:1006C000C1828327C4FE13D75700B70700200A074B
:1006D00093870704BA979C43368798CB3DA083271E
:1006E000C4FEBD8B0547B317F70093960701C1827F
:1006F0008327C4FE13D75700B70700200A07938744
:100700000704BA979C433687D8CB01007244056131
:100710008280011122CE00102326A4FE8327C4FE6E
:10072000958313F77700B70700200A07938707041C
:10073000BA979C439C470327C4FE7D8B854633971D
:10074000E600F98FB337F00093F7F70F3E85724458
:1007500005618280797122D60018232EA4FC83279C
:10076000C4FD958393F7F70F9D8BA307F4FE8327B2
:10077000C4FD93F7F70FFD8B2307F4FE0347F4FE48
:10078000B70700200A0793870704BA979C43D84706
:100790008347E4FE8546B397F600C207C1833E86D1
:1007A0008346F4FEB70700208A0693870704B697AE
:1007B0009C43318FD8C701003254456182807971E2
:1007C00006D622D40018232EA4FC232CB4FCB28716
:1007D0002328D4FCA30BF4FC232004FE232204FED4
:1007E000232404FE8327C4FD958393F7F70F9D8B85
:1007F000A307F4FE8327C4FD93F7F70FFD8B2307B0
:10080000F4FE8347F4FE91E785451145EFA00072A1
:1008100091A80347F4FE85476317F70085452145F6
:10082000EFA0C07081A00347F4FE89476317F7006B
:1008300085454145EFA0806F35A00347F4FE8D4705
:100840006318F700854513050002EFA0206E19A874
:100850000347F4FE91476317F7008545130500042D
:10086000EFA0C06C8347E4FE0547B317F700C2074B
:10087000C1832310F4FE032784FD85476317F70225
:10088000832704FDC207C183A183C207C18389E70F
:100890008D472322F4FE11A8832704FDC207C183DC
:1008A000A183C207C1832322F4FE832704FDC2076C
:1008B000C18393F7F70F2324F4FE0347F4FEB70731
:1008C00000200A0793870704BA979C43130704FE86
:1008D000BA853E85EF903072032784FD8547631902
:1008E000F7020347F4FEB70700200A0793870704BF
:1008F000BA9794438347E4FE0547B317F700C2074E
:10090000C183034774FD3A86BE853685EFA040114A
:100910000100B2502254456182801D7186CEA2CC66
:1009200080102326A4FA2324B4FA85450325C4FAAB
:10093000EF104064AA873E871306D006D9679385D7
:1009400007BA3A85EF40702B832784FAB337F0005B
:1009500093F7F70F3E871306F006D967938507BA1A
:100960003A85EF409029832784FABD832315F4FE4E
:100970008357A4FE85073E87832784FAB3D7E7020F
:100980002314F4FE0325C4FAEF102065B7370140A5
:10099000938707C02326F4FE0327C4FAA54763EC18
:1009A000E7088327C4FA13972700D9679387C73EC0
:1009B000BA979C438287B7370140938707C02326A5
:1009C000F4FE95A8B70700402326F4FEADA0B707B4
:1009D0000040938707402326F4FEB1A8B7170040D4
:1009E000938707802326F4FEB9A0B71700409387AA
:1009F00007C02326F4FE81A0B71700402326F4FE8B
:100A00001DA8B7170040938707402326F4FE25A0B2
:100A1000B7370140938707402326F4FE29A8B7572C
:100A20000140938707C02326F4FE31A0B757014049
:100A30002326F4FE0100232E04FC232004FE2312AF
:100A400004FE835784FE2310F4FE8357A4FE231E66
:100A5000F4FC231104FE231F04FC230204FE93076D
:100A6000C4FDBE850325C4FEEFA0407A054685453A
:100A70000325C4FEEFB0E00985450325C4FEEFB0B1
:100A80004040D96703AE87B7138787B70323470072
:100A9000138787B783288700138787B70328C70082
:100AA000138787B7084B138787B74C4B138787B7D4
:100AB000104F138787B7544F138787B718539387FF
:100AC00087B7DC53232AC4FB232C64FA232E14FBA0
:100AD000232004FD2322A4FC2324B4FC2326C4FCED
:100AE0002328D4FC232AE4FC232CF4FC8327C4FA17
:100AF00093F7F70F8A07130704FFBA9783A747FCFA
:100B00008D453E85EF60F0128327C4FA8A071307EC
:100B100004FFBA9783A747FC3E85EF60D00D85455B
:100B20000325C4FEEFA070730100F6406644256102
:100B30008280797106D622D40018232EA4FC232C9F
:100B4000B4FC032784FD896793871771B337F700D7
:100B500093F7F70F3E8713065003D967938547BD78
:100B60003A85EF409009B7370140938707C02326A5
:100B7000F4FE8327C4FDC183BD8B2547636EF70652
:100B800013972700D96793874741BA979C43828779
:100B9000B7370140938707C02326F4FEB1A8B707F3
:100BA00000402326F4FE89A8B7070040938707403A
:100BB0002326F4FE91A0B7170040938707802326D1
:100BC000F4FE1DA8B7170040938707C02326F4FE44
:100BD00025A0B7370140938707402326F4FE29A8B4
:100BE000B7570140938707C02326F4FE31A0B757BB
:100BF00001402326F4FE01008327C4FE83D7C702E9
:100C00002315F4FE0357A4FE832784FD3307F70260
:100C1000896793870771B357F7022314F4FE83277C
:100C2000C4FDA1838D8B81EB8327C4FE035784FE13
:100C3000239AE702A9A88327C4FDA18313F73700ED
:100C400085476319F7008327C4FE035784FE239C5E
:100C5000E70235A88327C4FDA18313F7370089472E
:100C60006319F7008327C4FE035784FE239EE7021F
:100C700039A88327C4FDA18313F737008D47631874
:100C8000F7008327C4FE035784FE2390E704010086
:100C9000B2502254456182805D7186C6A2C480082C
:100CA000232EA4FA232CB4FA232AC4FA8327C4FBE4
:100CB000C1838D453E85EF10E02BAA873E87130642
:100CC000D00AD967938547BD3A85EF400073032763
:100CD00044FB896793871771B337F70093F7F70FD2
:100CE0003E871306F00AD967938547BD3A85EF40E2
:100CF000C070232E04FC232004FE231204FE2326AE
:100D000004FC232804FC232A04FC232C04FC2315C4
:100D100004FE8327C4FBC183BD8B3E85EF10E02B0F
:100D20008327C4FB93F7F70F93068031014685456F
:100D30003E85713485450545EFA0401FB73701401A
:100D4000938707C02326F4FE8327C4FBC183BD8B92
:100D50002547636EF70613972700D9679387C74324
:100D6000BA979C438287B7370140938707C02326F1
:100D7000F4FEB1A8B70700402326F4FE89A8B70700
:100D80000040938707402326F4FE91A0B717004048
:100D9000938707802326F4FE1DA8B717004093878A
:100DA00007C02326F4FE25A0B737014093870740EC
:100DB0002326F4FE29A8B7570140938707C02326AE
:100DC000F4FE31A0B75701402326F4FE010083272B
:100DD000C4FB13D7C7008D47631AF7008545B707D3
:100DE00016001385070CEF90304715AA8327C4FB24
:100DF00013D7C700C547631AF7008545B707180022
:100E000013850710EF90504519AA8327C4FB13D709
:100E1000C700C947631AF7008545B707180013854F
:100E20000720EF907043E5A88327C4FB13D7C700C2
:100E3000CD47631AF7008545B707180013850730BB
:100E4000EF909041E9A88327C4FB13D7C70093070D
:100E50002002631AF7008545B7171A00138507802B
:100E6000EF90903F6DA88327C4FB13D7C70093076B
:100E70003002631AF7008545B7171A00138507C0BB
:100E8000EF90903D69A88327C4FB13D7C700930751
:100E900010036317F70085450565EF90F03B41A00F
:100EA0008327C4FB13D7C70093071007631AF70003
:100EB0008545B707008013854700EF90F03985A07E
:100EC0008327C4FB13D7C70093073008631AF700C2
:100ED0008545B707138013850701EF90F03781A090
:100EE0008327C4FB13D7C70093071009631AF700C1
:100EF0008545B707158013850702EF90F03505A0EB
:100F00008327C4FB13D7C700930730096319F70081
:100F10008545B707158013850704EF90F03303A7C5
:100F2000C181832784FBB357F702C1832315F4FEE5
:100F300003A7C1818357A4FE8507BE86832784FB50
:100F4000B387F602B357F7022314F4FE035784FE67
:100F5000832744FB3307F702896793870771B357E9
:100F6000F7022313F4FE835784FEFD17C207C183E3
:100F70002310F4FE8357A4FE231EF4FC231104FE69
:100F8000231F04FC230204FE9307C4FDBE85032532
:100F9000C4FEEFA0A027930700072316F4FC8547A3
:100FA0002317F4FC231804FC835764FE2319F4FC74
:100FB0008947231AF4FC8947231BF4FC231C04FCF7
:100FC000231D04FC8327C4FBA1838D8B9DE3930722
:100FD000C4FCBE850325C4FEEFA0203BA14503252C
:100FE000C4FEEFA0103A91450325C4FEEFA0304E99
:100FF00045A08327C4FBA18313F7370085476315FA
:10100000F7029307C4FCBE850325C4FEEFA0A051E0
:10101000A1450325C4FEEFA0903B930500400325A6
:10102000C4FEEFA0904FADA08327C4FBA18313F7AC
:10103000370089476314F7029307C4FCBE85032574
:10104000C4FEEFA0606CA1450325C4FEEFA0D03D17
:1010500091450325C4FEEFA0B0511DA88327C4FB12
:10106000A18313F737008D476314F7029307C4FC7D
:10107000BE850325C4FEEFA0F006A1450325C4FEEE
:10108000EFA0503F930500400325C4FEEFA010538E
:1010900085450325C4FEEFA0D02185450325C4FE68
:1010A000EFA0B01B0100B6402644616182807971D7
:1010B00006D622D40018232EA4FC8327C4FDB33700
:1010C000F00093F7F70F3E8713061004D967938556
:1010D00087C03A85EF4060328327C4FD9C43BD8BB7
:1010E0000547B317F70093960701C1828327C4FD14
:1010F0009C4313D75700B70700200A0793870704BC
:10110000BA979C43368798CB8327C4FDDC43BD8BBD
:101110000547B317F70093960701C1828327C4FDE3
:10112000DC4313D75700B70700200A07938707044B
:10113000BA979C43368798CB8327C4FDDC47232688
:10114000F4FE01008327C4FE1387F7FF2326E4FE85
:10115000F5FB8327C4FDDC43BD8B0547B317F700C0
:1011600093960701C1828327C4FDDC4313D7570040
:10117000B70700200A0793870704BA979C4336876E
:10118000D8CB8327C4FDDC472324F4FE010083274A
:1011900084FE1387F7FF2324E4FEF5FB8327C4FDB9
:1011A0009C43BD8B0547B317F70093960701C18297
:1011B0008327C4FD9C4313D75700B70700200A07B5
:1011C00093870704BA979C433687D8CB0100B25067
:1011D000225445618280797106D622D40018232ECC
:1011E000A4FC8327C4FDB337F00093F7F70F3E87C5
:1011F00013064005D967938587C03A85EF40E01F05
:101200008327C4FDDC43BD8B0547B317F7009396D6
:101210000701C1828327C4FDDC4313D75700B707FA
:1012200000200A0793870704BA979C433687D8CBD8
:101230008327C4FD9C43BD8B0547B317F7009396E6
:101240000701C1828327C4FD9C4313D75700B7070A
:1012500000200A0793870704BA979C433687D8CBA8
:101260008327C4FDDC472326F4FE01008327C4FE48
:101270001387F7FF2326E4FEF5FB8327C4FD9C4379
:10128000BD8B0547B317F70093960701C1828327EB
:10129000C4FD9C4313D75700B70700200A07938764
:1012A0000704BA979C43368798CB8327C4FDDC4755
:1012B0002324F4FE0100832784FE1387F7FF2324F1
:1012C000E4FEF5FB8327C4FDDC43BD8B0547B31764
:1012D000F70093960701C1828327C4FDDC4313D72F
:1012E0005700B70700200A0793870704BA979C4363
:1012F000368798CB8327C4FDDC472322F4FE010008
:10130000832744FE1387F7FF2322E4FEF5FB010049
:10131000B250225445618280797106D622D40018D9
:10132000232EA4FCAE87A30DF4FC8327C4FDB337A2
:10133000F00093F7F70F3E8713069006D967938561
:1013400087C03A85EF40600B8327C4FD9C43BD8B6B
:101350000547B317F70093960701C1828327C4FDA1
:101360009C4313D75700B70700200A079387070449
:10137000BA979C433687D8CB8347B4FD95CB832758
:10138000C4FDDC43BD8B0547B317F70093960701F7
:10139000C1828327C4FDDC4313D75700B707002061
:1013A0000A0793870704BA979C43368798CB0DA802
:1013B0008327C4FDDC43BD8B0547B317F700939625
:1013C0000701C1828327C4FDDC4313D75700B70749
:1013D00000200A0793870704BA979C433687D8CB27
:1013E0008327C4FDDC472326F4FE01008327C4FEC7
:1013F0001387F7FF2326E4FEF5FB8327C4FD9C43F8
:10140000BD8B0547B317F70093960701C182832769
:10141000C4FD9C4313D75700B70700200A079387E2
:101420000704BA979C43368798CB8327C4FDDC47D3
:101430002324F4FE0100832784FE1387F7FF23246F
:10144000E4FEF5FB8327C4FD9C43BD8B0547B31722
:10145000F70093960701C1828327C4FD9C4313D7ED
:101460005700B70700200A0793870704BA979C43E1
:101470003687D8CB8327C4FDDC43BD8B0547B31724
:10148000F70093960701C1828327C4FDDC4313D77D
:101490005700B70700200A0793870704BA979C43B1
:1014A000368798CB0100B250225445618280797111
:1014B00006D622D40018232EA4FC8327C4FDB337FC
:1014C000F00093F7F70F3E8713065008D96793850E
:1014D00087C03A85EF307072A30704FE8327C4FDEE
:1014E0009C43BD8B0547B317F70093960701C18254
:1014F0008327C4FD9C4313D75700B70700200A0772
:1015000093870704BA979C433687D8CB8327C4FDBB
:10151000DC43BD8B0547B317F70093960701C182E3
:101520008327C4FDDC4313D75700B70700200A0701
:1015300093870704BA979C43368798CB8327C4FDCB
:10154000DC472324F4FE0100832784FE1387F7FF82
:101550002324E4FEF5FB8327C4FD9C43BD8B054794
:10156000B317F70093960701C1828327C4FD9C43FC
:1015700013D75700B70700200A0793870704BA97C5
:101580009C43368798CB8327C4FDDC472322F4FE97
:101590000100832744FE1387F7FF2322E4FEF5FBB7
:1015A0008327C4FDDC433E85EFF0AF96AA8781C751
:1015B0008547A307F4FE8327C4FD9C43BD8B0547E5
:1015C000B317F70093960701C1828327C4FD9C439C
:1015D00013D75700B70700200A0793870704BA9765
:1015E0009C433687D8CB8327C4FDDC472320F4FEF9
:1015F0000100832704FE1387F7FF2320E4FEF5FB99
:101600008347F4FE3E85B250225445618280797151
:1016100006D622D40018232EA4FCAE87A30DF4FC1A
:101620008327C4FDB337F00093F7F70F3E87130607
:10163000700AD967938587C03A85EF30105C9307AD
:1016400000F8A307F4FE09AA0347B4FD8347F4FE9C
:10165000F98F93F7F70F95CB8327C4FDDC43BD8B40
:101660000547B317F70093960701C1828327C4FD8E
:10167000DC4313D75700B70700200A0793870704F6
:10168000BA979C43368798CB0DA88327C4FDDC43CB
:10169000BD8B0547B317F70093960701C1828327D7
:1016A000C4FDDC4313D75700B70700200A07938710
:1016B0000704BA979C433687D8CB8347F4FE8583CB
:1016C000A307F4FE8327C4FDDC472324F4FE0100B6
:1016D000832784FE1387F7FF2324E4FEF5FB83278B
:1016E000C4FD9C43BD8B0547B317F70093960701D4
:1016F000C1828327C4FD9C4313D75700B70700203E
:101700000A0793870704BA979C43368798CB8327A9
:10171000C4FDDC472322F4FE0100832744FE138727
:10172000F7FF2322E4FEF5FB8327C4FD9C43BD8B1A
:101730000547B317F70093960701C1828327C4FDBD
:101740009C4313D75700B70700200A079387070465
:10175000BA979C433687D8CB8347F4FEE39607EECF
:101760000325C4FDA933AA87FD17B337F00093F70B
:10177000F70F3E85B250225445618280397106DEF2
:1017800022DC26DA80002326A4FCAE87A305F4FC25
:101790008327C4FCB337F00093F7F70F3E87130697
:1017A000000CD967938587C03A85EF301045A307B1
:1017B00004FEA1472307F4FE8327C4FC9C43BD8B92
:1017C0000547B317F70093960701C1828327C4FC2E
:1017D0009C4313D75700B70700200A0793870704D5
:1017E000BA979C433687D8CB8327C4FCDC47232495
:1017F000F4FE0100832784FE1387F7FF2324E4FE11
:10180000F5FB8327C4FCDC43BD8B0547B317F7000A
:1018100093960701C1828327C4FCDC4313D757008A
:10182000B70700200A0793870704BA979C433687B7
:1018300098CB7DA88327C4FC9C43BD8B0547B31779
:10184000F70093960701C1828327C4FC9C4313D7FA
:101850005700B70700200A0793870704BA979C43ED
:101860003687D8CB8327C4FCDC472322F4FE010053
:10187000832744FE1387F7FF2322E4FEF5FB83272B
:10188000C4FC9C43BD8B0547B317F7009396070133
:10189000C1828327C4FC9C4313D75700B70700209D
:1018A0000A0793870704BA979C43368798CB832708
:1018B000C4FCDC472320F4FE0100832704FE1387C9
:1018C000F7FF2320E4FEF5FB8347F4FE860793949D
:1018D0008701E1848327C4FCDC433E85EFE07FE39E
:1018E000AA87E207E187C58FE207E187A307F4FE35
:1018F0008347E4FE1387F7FF2307E4FE85FF832772
:10190000C4FC9C43BD8B0547B317F70093960701B2
:10191000C1828327C4FC9C4313D75700B70700201C
:101920000A0793870704BA979C433687D8CB832747
:10193000C4FCDC47232EF4FC01008327C4FD13877D
:10194000F7FF232EE4FCF5FB8347B4FCBE8503259B
:10195000C4FCD9328347F4FE3E85F2506254D2541F
:1019600021618280011106CE22CC00102326A4FE24
:10197000AE873287A305F4FEBA872305F4FE8327DA
:10198000C4FEB337F00093F7F70F3E871306202904
:10199000D967938587C03A85EF3030260325C4FE8A
:1019A000EFF0EFF08327C4FE83C78700860793F725
:1019B000F70FBE850325C4FE99398347B4FEBE8563
:1019C0000325C4FEA9318347A4FEBE850325C4FEBA
:1019D0003D390325C4FEEFF01F800100F240624450
:1019E00005618280797106D622D40018232EA4FCCA
:1019F000AE87A30DF4FC8327C4FDB337F00093F743
:101A0000F70F3E871306402AD967938587C03A852A
:101A1000EF30B01EA30704FE0325C4FDEFF02FE94D
:101A20008327C4FD83C78700860793F7F70FBE851A
:101A30000325C4FDE93E8347B4FDBE850325C4FDEF
:101A4000F9360325C4FDEFF00FF90325C4FDEFF0CF
:101A50000FE68327C4FD83C787008607E207E18777
:101A600093E71700E207E18793F7F70FBE85032599
:101A7000C4FD713E85450325C4FD0933AA87A3072C
:101A8000F4FE0325C4FDEFF00FF58347F4FE3E8519
:101A9000B250225445618280797106D622D4001852
:101AA0002326A4FEAE872322C4FE2320D4FE232EA9
:101AB000E4FCA305F4FE8327C4FEB337F00093F7DC
:101AC000F70F3E871306F02BD967938587C03A85B9
:101AD000EF30B012032704FE8327C4FDB307F7409D
:101AE000B337F00093F7F70F3E871306002CD96742
:101AF000938587C03A85EF3050108327C4FE0327B3
:101B000004FE98C38327C4FE0327C4FDD8C38327DC
:101B1000C4FE0347B4FE2384E7008327C4FE0327E3
:101B200044FED8C7C14605468545032504FEEFE0BF
:101B30001FC9D146054685450325C4FDEFE03FC8D2
:101B40000100B250225445618280011122CE001062
:101B50002326A4FE2324B4FE2322C4FEB1A083279F
:101B600084FE138717002324E4FE83C60700D96789
:101B70000327C4FE0A0793874746BA979C433E87CC
:101B800093970601C1832316F7000100D967032745
:101B9000C4FE0A0793874746BA979C4383D78700BA
:101BA000C207C183898BFDD3832744FE1387F7FFC8
:101BB0002322E4FECDF70100D9670327C4FE0A07FC
:101BC00093874746BA979C4383D78700C207C18350
:101BD00093F70708F5F30100724405618280011153
:101BE00022CE00102326A4FE2324B4FE2322C4FE0A
:101BF0002320D4FED9670327C4FE0A0793874746EC
:101C0000BA979C4383D7C70049A0832784FE1387D4
:101C100017002324E4FE83C60700D9670327C4FE08
:101C20000A0793874746BA979C433E8793970601D6
:101C3000C1832316F7000100D9670327C4FE0A07F2
:101C400093874746BA979C4383D78700C207C183CF
:101C500093F70708F5F3832744FE85CBD96703275D
:101C6000C4FE0A0793874746BA979C4383D7C700A9
:101C700093960701C182832744FE1387170023220E
:101C8000E4FE13F7F60F2380E700832704FE138793
:101C9000F7FF2320E4FEB5FB01007244056182805A
:101CA0005D7186C6A2C480082326A4FC2324B4FC4C
:101CB0002322C4FC2320D4FC232EE4FA232CF4FAA0
:101CC000232A04FBD9670327C4FC0A0793874746E6
:101CD000BA979C433E85EF90E03685450545EF90E9
:101CE000E024032704FC93073012631DF700032749
:101CF000C4FB930750126317F70085450545EF8035
:101D0000B05525A0032704FC89679387A714631E99
:101D1000F7000327C4FB89679387C7146317F7008D
:101D2000854537152000EF8030538327C4FC91E7A9
:101D300085450565EF90801F25A00327C4FC8547D6
:101D40006317F70085451165EF90A02211A80327BE
:101D5000C4FC89476316F70085452165EF90602133
:101D6000832704FC93F7F70F9306803105468545DA
:101D70003E85EFE0DFA48327C4FB93F7F70F9306BC
:101D80008031054685453E85EFE07FA3032784FB30
:101D9000C167F917630DF700832784FB93F7F70FEB
:101DA00093068034054681453E85EFE05FA1032719
:101DB00044FB9307F00F630DF700832744FB93F771
:101DC000F70F93060031014685453E85EFE03F9FC2
:101DD000232E04FC232004FE232204FE232404FEDD
:101DE000231604FE231E04FC93074010231FF4FC5B
:101DF000231004FE032784FC85476305F70283272D
:101E000084FC81CF032784FC89476303F7020327FF
:101E100084FC8D476304F7020DA8231104FE2312EE
:101E200004FE25A0231104FE85472312F4FE31A8E9
:101E300089472311F4FE231204FE01A889472311C8
:101E4000F4FE85472312F4FE0100231704FE03A7C6
:101E5000C181832744FCB357F7022317F4FE03A77D
:101E6000C181832744FCB377F70291E78357E4FEEF
:101E7000FD172317F4FE0357E4FE9307F00763F7FB
:101E8000E700930780032317F4FE49A80357E4FEF5
:101E90009307F00363F7E700930700032317F4FEAB
:101EA000B5A80357E4FEFD4763F7E70093078002F8
:101EB0002317F4FEA5A00357E4FEBD4763F7E70030
:101EC000930700022317F4FE91A80357E4FE9D47F1
:101ED00063F6E700E1472317F4FE89A00357E4FE09
:101EE0008D4763F6E700C1472317F4FE05A80357A3
:101EF000E4FE854763F6E700A1472317F4FE39A8FF
:101F00008357E4FE81C7231704FE09A81306802225
:101F1000D967938507C40145EF30204E8357E4FE0F
:101F20002314F4FE930700202313F4FE231504FE6C
:101F3000231604FED9670327C4FC0A079387474684
:101F4000BA979C433E879307C4FDBE853A85EF90C0
:101F5000C016D9670327C4FC0A0793874746BA9778
:101F60009C4385453E85EF90C0240100B640264441
:101F700061618280797122D60018232EA4FC232C63
:101F8000B4FC8547A307F4FE0327C4FD0A07938723
:101F9000018FBA979C4399EB0327C4FD0A079387E7
:101FA000018FBA97032784FD98C315A00327C4FDAA
:101FB0000A079387018FBA979C43032784FD631612
:101FC000F7008547A307F4FE19A0A30704FE834783
:101FD000F4FE3E85325445618280011106CE22CC4A
:101FE00000102326A4FE8327C4FE81EB8545856768
:101FF00013850780EF8090736DA80327C4FE854783
:102000006317F70085450545EF80B0765DA003278F
:10201000C4FE89476317F70085450945EF80707551
:1020200049A80327C4FE8D476317F700854511456E
:10203000EF803074BDA80327C4FE91476317F700F3
:1020400085452145EF80F072ADA00327C4FE95477A
:102050006317F70085454145EF80B07199A80327C4
:10206000C4FE99476318F700854513050002EF8009
:10207000507081A00327C4FE9D476317F700854574
:102080000965EF80B06A35A00327C4FEA147631835
:10209000F700854537050800EF80506919A8032728
:1020A000C4FEA5476317F700854537051000EF808C
:1020B000F0670100F240624405618280797122D6A6
:1020C0000018232EA4FCB7370140938707C02326AE
:1020D000F4FE231504FE0327C4FDA54763ECE708BF
:1020E0008327C4FD13972700D96793870747BA97BB
:1020F0009C438287B7370140938707C02326F4FEAD
:1021000095A8B70700402326F4FEADA0B70700400E
:10211000938707402326F4FEB1A8B71700409387A2
:1021200007802326F4FEB9A0B7170040938707C0A5
:102130002326F4FE81A0B71700402326F4FE1DA835
:10214000B7170040938707402326F4FE25A0B73732
:102150000140938707402326F4FE29A8B757014082
:10216000938707C02326F4FE31A0B75701402326EA
:10217000F4FE01000327C4FD0A0793878191BA97F3
:1021800098438947631FF7008327C4FE83D747021C
:102190001397070141838D47B357F7022315F4FEC8
:1021A00039A08327C4FE83D747022315F4FE835743
:1021B000A4FE3E85325445618280797122D6001892
:1021C000232EA4FCB7370140938707C02326F4FED3
:1021D0000327C4FDA54763ECE7088327C4FD1397D5
:1021E0002700D96793878749BA979C438287B73777
:1021F0000140938707C02326F4FE95A8B707004047
:102200002326F4FEADA0B70700409387074023269E
:10221000F4FEB1A8B7170040938707802326F4FE89
:10222000B9A0B7170040938707C02326F4FE81A00A
:10223000B71700402326F4FE1DA8B7170040938768
:1022400007402326F4FE25A0B737014093870740B7
:102250002326F4FE29A8B7570140938707C02326F9
:10226000F4FE31A0B75701402326F4FE0100832776
:10227000C4FE23920702010032544561828001119D
:1022800022CE00102326A4FEAE87A305F4FE010093
:10229000D9670327C4FE0A079387074CBA979C4364
:1022A00083D70700C207C18393F70708F5D3D9671F
:1022B0000327C4FE0A079387074CBA979C433E87BF
:1022C0008347B4FEC207C1832312F70001007244A2
:1022D00005618280011106CE22CC00102326A4FEC7
:1022E0002324B4FE2322C4FE832784FEB337F000E8
:1022F00093F7F70F3E871306A004D967938547C766
:102300003A85EF30800F29A8832784FE13871700B2
:102310002324E4FE83C70700BE850325C4FE85375A
:10232000832744FE1387F7FF2322E4FEF1FF010019
:10233000F240624405618280011106CE22CC001079
:102340002326A4FE2324B4FE832784FEB337F000A3
:1023500093F7F70F3E8713069005D967938547C714
:102360003A85EF30800939A8832784FE1387170048
:102370002324E4FE8387070093F7F70FBE85032528
:10238000C4FEF53D832784FE83870700F1FF01002B
:10239000F240624405618280011106CE22CC001019
:1023A0002326A4FEAE87A305F4FED9670327C4FE47
:1023B0000A079387074CBA979C433E878347B4FE2E
:1023C0003E86930550523A85EF90D057138701848B
:1023D0008327C4FEBA9783C7070081453E85EF5027
:1023E00040058347B4FE81CF138701848327C4FE51
:1023F000BA9783C707003E85EF40F07F19A813877F
:1024000001848327C4FEBA9783C707003E85EF5037
:1024100060000100F240624405618280011122CE19
:1024200000102326A4FE2324B4FED9670327C4FE8C
:102430000A079387074CBA979C4383D70700C207C4
:10244000C18393F707028DC7D9670327C4FE0A0724
:102450009387074CBA979C4383D74700C207C18331
:1024600013F7F70F832784FE2380E700854711A029
:1024700081473E85724405618280797106D622D4F7
:102480000018232EA4FC232CB4FC232AC4FC2328EC
:10249000D4FC032744FD832704FD3D8F8327C4FD1F
:1024A000B207F98F93B7170093F7F70F3E8713061C
:1024B000E00CD967938547C73A85EF2010748327CE
:1024C00044FD13D78700832704FDA183B307F7409A
:1024D00093B7170093F7F70F3E871306F00CD967F1
:1024E000938547C73A85EF205071832744FD93F7C2
:1024F000F70FE146014685453E85EFE04FAC832767
:1025000004FD93F7F70F93068004014681453E854D
:10251000EFE0EFAA85450545EF805021032744FDF4
:10252000C167FD17F98F0D67130707386387E72029
:102530000D67130707386369F70405671307571614
:102540006381E716056713075716636FF7001307D4
:10255000F022638AE70C130760306381E7101307EA
:1025600060126388E70865A6096713078736638BDF
:10257000E7160D67130707126387E7180967130744
:10258000A7146380E71461A615671307A738638E45
:10259000E72615671307A7386362F7021167130769
:1025A00087386380E7201567130787126385E72262
:1025B000116713074712638CE71A91AE1967130767
:1025C000C7386388E72A19671307C7386368F700B5
:1025D0001967130767106384E72615AE1D67130795
:1025E000E7106382E72C1D671307E7386387E72E40
:1025F00039AEB7070140D44FB7070140370700FC99
:102600007D17758FD8CFB7070140D843B707014072
:102610006D9BD8C3B7070140D843B7070140136784
:102620004700D8C3EDA4B7070140D44FB707014016
:10263000370700FC7D17758FD8CFB7070140D44FFF
:10264000B707014037070004558FD8CFB7070140BF
:10265000D843B70701406D9BD8C355ACB7070140BD
:10266000D44FB7070140370700FC7D17758FD8CFCF
:10267000B7070140D44FB707014037070004558F13
:10268000D8CFB7070140D843B70701406D9BD8C3E7
:10269000B7070140D843B707014013674700D8C3C5
:1026A000BDA4B7070140D843B70701405D9BD8C31D
:1026B000B7070140D843B707014013678700D8C365
:1026C000B9A4B7070140D843B70701401377F7FC17
:1026D000D8C3B7070140D843B707014013670701C4
:1026E000D8C335A4B7070140D843B70701401377D3
:1026F000F7FCD8C3B7070140D843B70701401367B9
:102700000703D8C329A4B7070140D44FB707014036
:102710003707FDFF7D17758FD8CFB7070140D44F1E
:10272000832744FDA18313970701B70703007D8F1B
:10273000B7070140558FD8CFD9AAB7070140D44F6A
:10274000B70701403707FDFF7D17758FD8CFB70753
:102750000140D44F832744FDA18313970701B70796
:1027600003007D8FB7070140558FD8CF4DA2B70723
:102770000140D44FB70701403707F4FF7D17758F2D
:10278000D8CFB7070140D44F832744FDA1831397C7
:102790002701B7070C007D8FB7070140558FD8CFB1
:1027A000BDA2B7070140D44FB70701403707F4FF78
:1027B0007D17758FD8CFB7070140D44F832744FDCD
:1027C000A18313972701B7070C007D8FB70701403E
:1027D000558FD8CF2DAAB7070140D44FB707014076
:1027E0003707D0FF7D17758FD8CFB7070140D44F7B
:1027F000832744FDA18313974701B70730007D8FDE
:10280000B7070140558FD8CF19A2B7070140D44F61
:10281000B70701403707D0FF7D17758FD8CFB707AF
:102820000140D44F832744FDA18313974701B70785
:1028300030007D8FB7070140558FD8CFC9A8B707A3
:102840000140D44FB7070140370740FF7D17758F10
:10285000D8CFB7070140D44F832744FDA1831397F6
:102860006701B707C0007D8FB7070140558FD8CFEC
:1028700079A8B7070140D44FB7070140370740FF99
:102880007D17758FD8CFB7070140D44F832744FDFC
:10289000A18313976701B707C0007D8FB707014079
:1028A000558FD8CFADA0B7070140D44FB70701402F
:1028B000370700FD7D17758FD8CFB7070140D44F7C
:1028C000832744FDA18313978701B70700037D8FFA
:1028D000B7070140558FD8CF1DA8B7070140D44F87
:1028E000B7070140370700FD7D17758FD8CFB707B1
:1028F0000140D44F832744FDA18313978701B70775
:1029000000037D8FB7070140558FD8CF0100832783
:10291000C4FD91E785451165EF80406169A80327F3
:10292000C4FD85476318F700854537050200EF8031
:10293000406451A00327C4FD89476318F70085450B
:1029400037050400EF80E062BDA00327C4FD8D477A
:102950006318F700854537050800EF808061A1A85E
:102960000327C4FD91476318F7008545370510001C
:10297000EF80206089A00327C4FD95476318F70006
:10298000854513050004EF80C05E35A00327C4FD14
:1029900099476318F700854513050008EF80605DCF
:1029A00019A80327C4FD9D476317F7008545130544
:1029B0000010EF80005C232004FE232204FE232469
:1029C00004FE232604FE832784FD2320F4FE231225
:1029D00004FE231304FE231404FE231604FEB14751
:1029E0002315F4FED9670327C4FD0A079387074C14
:1029F000BA979C433E87930704FEBE853A85EF90C5
:102A0000204BD9670327C4FD0A079387074CBA9761
:102A10009C4385453E85EF90E06C0100B250225406
:102A200045618280797106D622D40018232EA4FC39
:102A3000232CB4FC232AC4FC232604FE3DA8010059
:102A4000930500040325C4FDEF90E07EAA87EDDB2B
:102A5000832784FD83C70700C207C183BE85032582
:102A6000C4FDEF90607A832784FD8507232CF4FC56
:102A70008327C4FE85072326F4FE0327C4FE83278D
:102A800044FDE34EF7FA0100B250225445618280C2
:102A9000797106D622D40018232EA4FC232CB4FC72
:102AA0008327C4FDB337F00093F7F70F3E87130673
:102AB0003006D967938587CA3A85EF20101423170B
:102AC00004FEBDA013058008EFD0BFC4AA87B9E3F8
:102AD000032784FDF54763F5E70279468325C4FDA6
:102AE0001945EFF02FFF8327C4FDF907232EF4FCCF
:102AF000832784FD8917232CF4FC231704FE0DA8DB
:102B0000032684FD8325C4FD1945EFF0AFFC232C7B
:102B100004FC25A08357E4FE85072317F4FE035722
:102B2000E4FE9307301F63E9E7000545EFD0BF8956
:102B3000832784FDC1FB11A00100832784FD3E850E
:102B4000B250225445618280797106D622D4001891
:102B5000232EA4FC232CB4FC8327C4FDB337F00040
:102B600093F7F70F3E871306600ED967938587CAE0
:102B70003A85EF209008832784FD2326F4FE9307EF
:102B8000C4FE81463E868325C4FD13850194EF3043
:102B9000700A8327C4FE3E85B2502254456182806C
:102BA000411106C622C4000883A741850547638BEF
:102BB000E7006388070C0947638DE7000D47638FC3
:102BC000E702E9A083A701851387170023A8E18402
:102BD00075A883A701851387170023A8E18403A79D
:102BE0000185A54763F1E70AB7070020938707042B
:102BF0009C4B1167D8CB23A8018471A003A78185C2
:102C000085476314F7081305F008EFD09FB0AA8733
:102C1000ADC31945EFF08FCAAA873E8783A7018508
:102C20001D8F9307600963F2E7061945EFF0EFD8AF
:102C300083A70185D3F717D05385F720EFE080767F
:102C4000D96703A687CE83A6C7CEEFD0003BAA875D
:102C50002E883E85C285EFE0A05DAA871397070105
:102C60004183B70700202398E73E094723ACE1845E
:102C700029A81945EFF08FC4AA873E8723A8E184CD
:102C800029A0010021A0010011A001000100B24013
:102C9000224441018280411106C622C4000883A754
:102CA00041850947637CF7000D47639AE7001945A2
:102CB000EFF0AFD0054723ACE18411A00100010083
:102CC000B240224441018280397106DE22DC80005C
:102CD0002326A4FC8547A307F4FE231304FE231632
:102CE00004FE232404FE232E04FC83D741863E8762
:102CF000930700236316F700A5472324F4FE29A0B9
:102D0000A1472324F4FE01008DA8930750FA230065
:102D1000F4FE832784FE8A070327C4FCBA978397AF
:102D2000070093F7F70FA300F4FE832784FE8A07BA
:102D30000327C4FCBA97839727002313F4FE835715
:102D400064FEA183C207C18393F7F70F2301F4FE4A
:102D5000835764FE93F7F70FA301F4FE930704FE75
:102D60001146BE851145EFF0EFD60945EFD0AFE52E
:102D7000832784FEFD172324F4FE032784FE930794
:102D8000E00FE3F4E7F883A701863E85EF20505E6D
:102D90002A87894763FFE7028D47232EF4FC83A728
:102DA00001861306C4FD130704FE8146BA853E85DD
:102DB000EF304068034714FE9307F00F6308F700F5
:102DC000034724FE9307F00F6315F700A30704FEE3
:102DD00031A80545EFD02FDF8357C4FE13871700B6
:102DE0002316E4FE1307700CE37FF7F88347F4FE25
:102DF0003E85F250625421618280797106D622D4D8
:102E00000018232EA4FCA30704FE230704FE2315A9
:102E100004FE231604FE232004FE83D741863E874A
:102E2000930700236316F700A547A307F4FE29A024
:102E3000A147A307F4FE01008347F4FEFD1793F7B3
:102E4000F70FA307F4FE11AA03D741869307F022D8
:102E500063EDE7008307F4FE8A070327C4FDBA97F2
:102E600003970700A5476300F70E930750FA230264
:102E7000F4FEC557A302F4FE8307F4FE8A07032776
:102E8000C4FDBA97839707002315F4FE8357A4FE69
:102E9000A183C207C18393F7F70F2303F4FE83577F
:102EA000A4FE93F7F70FA303F4FE930744FE114625
:102EB000BE851145EFF00FC2231604FE83A70186DD
:102EC0003E85EF20F04A2A87894763F7E7048D475C
:102ED0002320F4FE83A70186130604FE130744FE95
:102EE0008146BA853E85EF30E054834754FEA20701
:102EF00093960701C186834764FE139707014187B4
:102F00008307F4FE8A070326C4FDB297558F420754
:102F100041872391E70031A80545EFD0CFCA8357F9
:102F2000C4FE138717002316E4FE1307700CE37723
:102F3000F7F80357C4FE9307800C63F7E700854753
:102F40002307F4FE39A801008307F4FE93F7F70F77
:102F5000FD1793F7F70FA307F4FE8307F4FEE3D5FD
:102F600007EE8347E4FE3E85B250225445618280DD
:102F7000011106CE22CC0010232404FE8547A307AE
:102F8000F4FE231604FE232204FE83A701863E8559
:102F9000EF20103EAA8791C783A701863E85EF20C8
:102FA00090189305F00F1145EFF06FAD930750FAAD
:102FB0002304F4FEBD57A304F4FE230504FEA30579
:102FC00004FE930784FE1146BE851145EFF08FB0D5
:102FD000231604FE83A701863E85EF2070392A87D9
:102FE000894763F0E7048D472322F4FE83A7018617
:102FF000130644FE130784FE8146BA853E85EF30F2
:1030000060430347A4FE85476309F7000347A4FE16
:1030100089476304F700854711A08147A307F4FEA1
:1030200031A80545EFD02FBA8357C4FE1387170088
:103030002316E4FE1307700CE37EF7F88347F4FED3
:103040003E85F240624405618280011106CE22CCA9
:103050000010A30704FE9307F4FEBE851145EFF0B0
:10306000EFBB83A7018685C70347F4FE9307500A89
:103070006317F70083A701863E85EF20D00A83A758
:1030800001860347F4FEBA853E85EF201036010025
:10309000F240624405618280411122C60008054762
:1030A000238EE1840100324441018280011106CE69
:1030B00022CC0010231704FE231604FE232204FE54
:1030C000930750FA2304F4FEC557A304F4FE230526
:1030D00004FEC957A305F4FE930784FE1146BE857E
:1030E0001145EFF02F9F83A701863E85EF205028E2
:1030F0002A87894763F0E7048D472322F4FE83A7DC
:103100000186130644FE130784FE8146BA853E8578
:10311000EF304032834794FEA2071397070141879F
:103120008347A4FEC207C187D98FC207C187231670
:10313000F4FE31A80545EFD00FA98357E4FE1387AD
:1031400017002317E4FE1307700CE37EF7F883578C
:10315000C4FE3E85F2406244056182805D7186C690
:10316000A2C480088547A307F4FEB70700200547DF
:1031700023AAE73E9307C4FD1307C0049306200665
:103180001306401F81453E85EFE01F919307C4FD64
:103190003E85EFB0C046AA87B5EFD96703AEC7D565
:1031A0001387C7D5032347001387C7D58328870014
:1031B0001387C7D50328C7001387C7D5084B1387C4
:1031C000C7D54C4B1387C7D5104F1387C7D5544F5E
:1031D0001387C7D518539387C7D5DC53232AC4FB5D
:1031E000232C64FA232E14FB232004FD2322A4FCA9
:1031F0002324B4FC2326C4FC2328D4FC232AE4FC87
:10320000232CF4FC930744FB3E85EFB02045AA87AE
:10321000A307F4FE8347F4FE3E85B6402644616171
:103220008280597186D6A2D480188547A307F4FE00
:10323000230704FE232404FEB707002023AA073E29
:1032400013050004EFE0405EAA872324F4FE8327E1
:1032500084FE85E393068020D967138607CFD9675C
:103260009385C7D20145EF20C01F8947A307F4FE0D
:1032700035AC6545EFE0405BAA873E8723A0E18639
:1032800083A7018685E79306F020D967138607CFC9
:10329000D967938587D40145EF20A01C032584FEC0
:1032A000EFE020598947A307F4FE09A483A701860C
:1032B00093060004032684FE81453E85EF3030529C
:1032C00091679386270691671386C704896793855C
:1032D00007581145EFF06F9A85451145EFF0CF8BF8
:1032E000F133AA873E872392E18683D7418681CF37
:1032F0004131AA8789CB81451145EFF0EF898D4790
:10330000A307F4FE65A2D96703AEC7D51387C7D557
:10331000032347001387C7D5832887001387C7D5A2
:103320000328C7001387C7D5084B1387C7D54C4B55
:103330001387C7D5104F1387C7D5544F1387C7D5E9
:1033400018539387C7D5DC532320C4FD232264FC84
:10335000232414FD232604FD2328A4FC232AB4FCE3
:10336000232CC4FC232ED4FC2320E4FE2322F4FED1
:10337000D96703A3C7DB1387C7DB832847001387FD
:10338000C7DB032887001387C7DB48471387C7DBE2
:103390000C4B1387C7DB504B1387C7DB144F1387C6
:1033A000C7DB584F9387C7DB9C53232E64F8232039
:1033B00014FB232204FB2324A4FA2326B4FA232893
:1033C000C4FA232AD4FA232CE4FA232EF4FA93071E
:1033D00004FC3E85EFF05F8FAA8785C79306C02463
:1033E000D967138607CFD967938547D80145EF2062
:1033F000400781451145EFE03FFA8547A307F4FEFA
:1034000075A09307C4F93E85EFF03F9FAA8785C753
:1034100093068025D967138607CFD967938507DA86
:103420000145EF20000481451145EFE0FFF6854797
:10343000A307F4FEA5A8230704FEA1A88347E4FE82
:1034400085078A07130704FFBA97039707FD834789
:10345000E4FE8A07930604FFB6978397C7FA631FB3
:10346000F7028347E4FE85078A07130704FFBA972C
:10347000039727FD8347E4FE8A07930604FFB69768
:103480008397E7FA631CF7008347E4FE8507230769
:10349000F4FE0347E4FEA147E3F2E7FA8347E4FEC4
:1034A00093B7870093F7F70FA307F4FE032584FE75
:1034B000EFE0203883A701863E85EFE0803723A028
:1034C00001868347F4FE3E85B650265465618280AE
:1034D000797106D622D40018A30704FEB73700007E
:1034E0001386870981450D457128EFF03FC7AA87EC
:1034F00099CFB737000013868709B7370000938547
:10350000A7040D454120313BAA87A307F4FE83475A
:10351000F4FEB9E791473EC495473EC299473EC085
:103520009308900213088002930760021307B00407
:103530009306900413068004A9452545EFC01FFD9E
:1035400093068007996713860782B7070020938543
:10355000C754B70700201385C754EFD04F8B29A05D
:1035600001468145014539288347F4FE3E85B25026
:10357000225445618280411122C600080100324474
:1035800041018280011122CE00102326A4FE2324B3
:10359000B4FE2322C4FE0327C4FE23A4E1868327AE
:1035A00044FE81C7832744FE29A0B73700009387D4
:1035B000675723A6F180832784FE81C7832784FE73
:1035C00029A0B73700009387675723A4F180010033
:1035D000724405618280797106D622D40018232EA8
:1035E000A4FC232604FE0327C4FD93074006B3076B
:1035F000F702232EF4FC39A82945EFC0FFE6832704
:10360000C4FE85072326F4FE0327C4FD8327C4FEDA
:1036100063F9E70013051004EFD0AF8FAA87E9DF45
:1036200011A001000327C4FD8327C4FEB3B7E70040
:1036300093C7170093F7F70F3E85B25022544561A8
:103640008280011106CE22CC00102326A4FEAE8774
:103650002322C4FE36872315F4FEBA872314F4FE12
:10366000B7070020938707049C470547D8CB8327DB
:10367000C4FE89CB8357A4FE3E868325C4FE054540
:10368000EFE0AFCC832744FE89CB835784FE3E8690
:10369000832544FE0545EFE04FCBB7070020938715
:1036A00007049C47054798CB0100F240624405613E
:1036B0008280011106CE22CC00102326A4FEAE8704
:1036C0002315F4FEB7070020938707049C4705479E
:1036D000D8CB8327C4FE0327C4FE91463A86BE8515
:1036E0000545EFE0CFCF8357A4FE99CF8327C4FED3
:1036F000138747008327C4FE91078356A4FE3E86A6
:10370000BA850545EFE0AFCDB707002093870704E2
:103710009C47054798CB0100F240624405618280D6
:10372000011106CE22CC00102326A4FE2324B4FED1
:10373000B2872313F4FEB7070020938707049C4742
:103740000547D8CB832784FE09472380E7008327DA
:1037500084FE035764FE2391E700832784FE03273A
:1037600084FE91463A86BE850545EFE04FC7035774
:1037700064FE9307000263FAE702832784FE910741
:10378000930600023E868325C4FE0545EFE02FC563
:103790008327C4FE13870702835764FE81173E8682
:1037A000BA850545EFE06FBA15A8832784FE910717
:1037B000035764FE3A868325C4FE3E85EFE0000889
:1037C000832784FE13874700832784FE910793068F
:1037D00000023E86BA850545EFE06FC0B7070020BE
:1037E000938707049C47054798CB0100F240624449
:1037F00005618280797106D622D40018232EA4FC9C
:10380000232CB4FCB2872328D4FC231BF4FC85476B
:10381000A307F4FE8327C4FD93F7F70F2304F4FEF8
:10382000835764FD2315F4FE032504FD6D33AA8739
:10383000A1EB035764FD930784FEBA86032684FD3B
:1038400091453E85FD3B032504FD7133AA879DEB21
:1038500089472304F4FE231504FE0357A4FE9307AF
:1038600084FEBA853E85B1355145EFC0FFBF0347A1
:1038700084FE930700086318F700A30704FE21A045
:10388000010011A001008347F4FE3E85B25022548E
:1038900045618280797106D622D40018232EA4FCBB
:1038A000232CB4FC232AC4FC8547A307F4FE03257C
:1038B00044FD1533AA87A1EB8327C4FD13F7F70F47
:1038C000832784FD2380E700832784FD814601460A
:1038D000930500023E85B533032544FDEFF0BFCFCD
:1038E000AA8785E7832784FD09472380E70083278C
:1038F00084FD2391070093050002032584FD553BB9
:10390000A30704FE21A0010011A001008347F4FEDB
:103910003E85B250225445618280397106DE22DC38
:103920008000930784FC1306803EBE8513050002C9
:103930009537AA87A307F4FE8347F4FE8DE7034774
:1039400084FC9307000A6310F7028357A4FC3E87A8
:10395000930784FC91073A86BE85B76700201385DC
:10396000C7D6EFD0B06D8347F4FE3E85F250625467
:1039700021618280397106DE22DC8000930784FC9D
:103980001306803EBE85130510022937AA87A307B8
:10399000F4FE8347F4FE8DE7034784FC9307100A87
:1039A0006310F7028357A4FC3E87930784FC9107BA
:1039B0003A86BE85B7670020138587D7EFD0106899
:1039C0008347F4FE3E85F250625421618280397152
:1039D00006DE22DC8000930784FC1306803EBE8551
:1039E00013052002453DAA87A307F4FE8347F4FE92
:1039F0008DE7034784FC9307200A6310F70283577F
:103A0000A4FC3E87930784FC91073A86BE85B7677E
:103A100000201385C7D8EFD070628347F4FE3E853F
:103A2000F250625421618280597186D6A2D48018E6
:103A3000232EA4F8232CB4F8832784F98DC313070D
:103A4000C4FA832684F90326C4F9D967938507DE6F
:103A50003A85EFE07037AA872317F4FE31A81307E1
:103A6000C4FA0326C4F9D9679385C7DE3A85EFE027
:103A7000B035AA872317F4FE0356E4FE1307C4FAF1
:103A8000896793860771BA854145AD33AA87A30636
:103A9000F4FE353F8347D4FE3E85B650265465611B
:103AA00082805D7186C6A2C48008232EA4FA232CCE
:103AB000B4FA232AC4FA2328D4FA130544FC832732
:103AC00004FB032744FB832684FB0326C4FBD96540
:103AD000938545DFEFE0502FAA872317F4FE0356A6
:103AE000E4FE130744FCB16793860735BA85454564
:103AF000EFF05FD0AA87A306F4FED13D8347D4FE42
:103B00003E85B6402644616182805D7186C6A2C44E
:103B10008008232EA4FA232CB4FA83A7C186639BC2
:103B20000710054723A6E18679A0832784FB056754
:103B300061176374F7008567E1172317F4FE130517
:103B4000803EEFF05FA9AA87BDEB0357E4FE930721
:103B500084FC3A86BE850325C4FBEFF07FBC034797
:103B600084FC930700096308F700034784FC93076C
:103B700010096313F7028357A4FC99CF8357A4FC61
:103B80003E87930784FC91073A86BE85B76700207D
:103B9000138587DAEF20602B8357E4FE032784FB2D
:103BA000B307F740232CF4FA8357E4FE0327C4FB42
:103BB000BA97232EF4FA832784FBA5FB95A0010076
:103BC00085A01305803EEFF01FA1AA87ADE38947CA
:103BD0002304F4FC231504FC930784FC93050002E2
:103BE0003E85EFF01FAD034784FC9307000963088F
:103BF000F700034784FC930710096313F702835708
:103C0000A4FC99CF8357A4FC3E87930784FC9107BB
:103C10003A86BE85B7670020138587DAEF20E02259
:103C2000034784FC93070009E30DF7F811A0010096
:103C300023A60186832784FB3E85B6402644616126
:103C400082805D7186C6A2C48008232EA4FA232C2C
:103C5000B4FA8327C4FBB337F00093F7F70F3E871E
:103C600013063023D967938587E03A85EF10E07813
:103C7000832784FB2326F4FE83A7C186ADEF054787
:103C800023A6E1861305803EEFF0FF94AA87ADE3FB
:103C900089472304F4FC231504FC930784FC930553
:103CA00000023E85EFF0FFA0034784FC9307000964
:103CB0006308F700034784FC930710096313F702B6
:103CC0008357A4FC99CF8357A4FC3E87930784FCB9
:103CD00091073A86BE85B7670020138587DAEF2003
:103CE000C016034784FC93070009E30DF7F811A001
:103CF000010023A601869307C4FE81463E868325E4
:103D0000C4FBB7670020138587DAEF20A0728327F2
:103D1000C4FE3E85B640264461618280397106DE6C
:103D200022DC8000930784FC1306803EBE851305C9
:103D30000002EFF03FB6AA87A307F4FE8347F4FE24
:103D400089EB034784FC9307000A6314F700894753
:103D500029A88347F4FE89EB034784FC9307000DF1
:103D60006314F700814711A085473E85F2506254E5
:103D700021618280797106D622D40018232EA4FCFA
:103D8000232CB4FCA30704FE93060040B767002071
:103D9000138647DC8145B7670020138587DAEF304B
:103DA00000241308F00F85679387E7020567130760
:103DB000F70285669386D60237C6C9011306063810
:103DC0008D450545EFD0DFEDB7470040938707806D
:103DD00005472392E702C1460546854513050004C1
:103DE000EFC0FF9DC146054685451D45EFC03F9D7F
:103DF000930680020146814513051004EFC03F9CE5
:103E000081451D45EFC07F892945EFC0CFDB854542
:103E10001D45EFC09F8813054006EFC0CFDA23A6EB
:103E20000186ED3DAA8785E71308F00F8567938724
:103E3000E70205671307F70285669386D60237E621
:103E4000E4001306061C8D450545EFD07FE5EFF035
:103E5000DFACAA87A307F4FE8347F4FEA9E3EFF0E3
:103E60007FB1832584FD0325C4FDEFF0FFBBAA8746
:103E7000A307F4FE8347F4FE8DE7D967938607E432
:103E8000D967138687E4D967938507E5D9671385D2
:103E900007E6EFF01FC1AA87A307F4FE21A00100E7
:103EA00011A001008347F4FE3E85B25022544561C3
:103EB0008280797106D622D40018232EA4FC232CEC
:103EC000B4FC8547A307F4FE230204FEA30204FE0C
:103ED000230304FEA30304FE230404FEA30404FE40
:103EE000230504FEA30504FEA1472320F4FE054597
:103EF000EFC06FCDA1472320F4FE130704FE930704
:103F000044FE85463A86BE85B76700201385C725DF
:103F1000EF20902C930744FE8325C4FD3E85EFE0FF
:103F20009001AA8781C7A30704FE81A0130744FE5E
:103F3000D967938547E63A85EFE0E07FAA8799EB5A
:103F4000130744FED9679385C7E63A85EFE0A07E64
:103F5000AA8789C78547A307F4FE01A8832784FDA4
:103F60001387F7FF232CE4FCD9F38347F4FE3E8547
:103F7000B250225445618280411106C622C4000815
:103F8000B76700201385C725EF10F0190100B24074
:103F90002244410182805D7186C6A2C48008232E1E
:103FA000A4FA232CB4FA8327C4FBB337F00093F7A9
:103FB000F70F3E871306D03BD967938587F73A857D
:103FC000EF10A0438967938707712326F4FE232609
:103FD00004FC232804FC232A04FC232C04FC232EA9
:103FE00004FC232004FE232204FE232404FEB767DE
:103FF00000209387471C03A7470985476317F710DD
:10400000B76700209387471C83A7C7086396070EEE
:10401000A537032784FB9307C4FCBA853E85EF30A0
:104020008020032784FB896763F9E700D9679385BC
:10403000C7051945EFE04FB039A0D9679385C7068A
:104040001945EFE06FAFB76700209387471C03A7C0
:10405000070985476318F700D967938587071945CE
:10406000EFE08FAD9307C4FCBE851945EFE0CFAC00
:10407000D967938587E81945EFE00FAC8967938589
:104080000771D967138507E82D35AA87BDEFED3590
:10409000032684FB8325C4FB1945EFE0AFA38967A2
:1040A00093850771D967138507E8EFF09FE0AA872A
:1040B000A9EF232C04FA91A8010013058008EFC092
:1040C0004FE5AA8789CB8327C4FE1387F7FF2326F2
:1040D000E4FEE344F0FE8327C4FE6357F002832727
:1040E000C4FB83C70700BE851945EFE04F998327BE
:1040F000C4FB8507232EF4FA832784FB1387F7FF7D
:10410000232CE4FAD5FB11A00100BD35832784FBE5
:104110003E85B640264461618280797106D622D4FC
:104120000018232EA4FC232CB4FC8327C4FDB33732
:10413000F00093F7F70F3E8713062043D967938566
:1041400087F73A85EF10602B832784FD2326F4FE42
:104150009307C4FE81463E868325C4FDB7670020D1
:104160001385C725EF20002D8327C4FE3E85B2505E
:10417000225445618280797106D622D40018232EFC
:10418000A4FC232CB4FC8327C4FDB337F00093F7C1
:10419000F70F3E8713063006D967938587113A8556
:1041A000EF10A025231704FEBDA013058008EFC063
:1041B0004FD6AA87B9E3032784FDF54763F5E702E5
:1041C00079468325C4FD1945EFE0CF908327C4FDD0
:1041D000F907232EF4FC832784FD8917232CF4FC94
:1041E000231704FE0DA8032684FD8325C4FD19456D
:1041F000EFE04F8E232C04FC25A08357E4FE8507B7
:104200002317F4FE0357E4FE9307300663E9E70043
:104210000545EFC04F9B832784FDC1FB11A0010022
:10422000832784FD3E85B250225445618280797196
:1042300006D622D40018232EA4FC232CB4FC8327FA
:10424000C4FDB337F00093F7F70F3E871306700CE9
:10425000D967938587113A85EF10201A832784FD4B
:104260002326F4FE9307C4FE81463E868325C4FDC3
:10427000B767002013858727EF20C01B8327C4FE64
:104280003E85B250225445618280797106D622D48F
:104290000018232EA4FC232CB4FCB287A30BF4FC3F
:1042A000B687231AF4FCBA872319F4FC232604FEEC
:1042B0001307A0FA2388E186938701870947A38023
:1042C000E7008327C4FD93F7F70F960713F7F70F5F
:1042D000832784FD99E3C14711A08147D98F13F744
:1042E000F70F834774FDD98F13F7F70F9387018773
:1042F0002381E700938701872147A381E700938704
:104300000187035744FD2392E700938701870357F2
:1043100024FD2393E70003A74181A145138501876D
:1043200002970327C4FD8947630AF7020327C4FDE8
:104330008D47630EF7020327C4FD85476313F70417
:10434000035744FD835724FDB307F70213D7F74102
:104350001D8BBA978D872326F4FE25A0035744FDB5
:10436000835724FDB307F7022326F4FE19A8035749
:1043700044FD835724FDB307F70286072326F4FE86
:104380000100832784FD81CB83A741818325C4FE5F
:10439000032584FD82970100B2502254456182803A
:1043A000797106D622D40018232EA4FC231604FE0D
:1043B0009387818783D747002316F4FE93878187ED
:1043C00083C7270093F7070291C78357C4FE860768
:1043D0002316F4FE03A74181A14513858187029727
:1043E000A30704FEA5A08347F4FE0327C4FD8A07A4
:1043F000BA97DC4799CF83A641818347F4FE032710
:10440000C4FD8A07BA97DC470357C4FEBA853E85C8
:1044100082968347F4FE0327C4FDA1078A07BA9753
:10442000DC4785C383A641818347F4FE0327C4FD8F
:10443000A1078A07BA97DC470357C4FEBA853E85B1
:1044400082968347F4FE8507A307F4FE0347F4FE34
:104450009D47E3FAE7F80100B2502254456182809B
:10446000011122CE00102326A4FE2324B4FEB2871D
:1044700036872313F4FEBA872312F4FE1307A0FA3B
:10448000238CE186938781870D47A380E70093877C
:1044900081872147A381E700B767002093874729D9
:1044A0000327C4FE98C7B7670020032784FE23AA0A
:1044B000E728B767002093874729035764FE2392B4
:1044C000E700B767002093874729035744FE2393EB
:1044D000E7000100724405618280397106DE22DC4A
:1044E0008000232EA4FC232AC4FC2328D4FC2326EA
:1044F000E4FC2324F4FC232204FD232014FDAE87D6
:10450000231DF4FCA30704FE230704FEA30604FEF8
:10451000B7670020938747299C47B337F00093F78C
:10452000F70F3E8713068010D967938587153A8564
:10453000EF00B06C938781870357A4FD2392E700B7
:104540009387818723830700A30704FE1DA8834761
:10455000F4FE37670020130747298A07BA9723A676
:1045600007008347F4FE37670020A1071307472998
:104570008A07BA9723A607008347F4FE8507A30797
:10458000F4FE0347F4FE8947E3F3E7FC0327C4FD89
:1045900085476308F7108327C4FD99C70327C4FD27
:1045A0008947630AF71E99AE832744FDB9C3834741
:1045B000E4FE85072307F4FE9387818783C767009E
:1045C00093E7170013F7F70F938781872383E7009B
:1045D0008347F4FE13871700A307E4FEBE86B76780
:1045E00000201387472993972600BA97032744FD95
:1045F000D8C7832704FDB9C38347E4FE8507230793
:10460000F4FE9387818783C7670093E7270013F73A
:10461000F70F938781872383E7008347F4FE13878F
:104620001700A307E4FEBE86B7670020138747295B
:1046300093972600BA97032704FDD8C78327C4FCA5
:10464000B9C38347E4FE85072307F4FE9387818778
:1046500083C7670093E7470013F7F70F93878187B6
:104660002383E7008347F4FE13871700A307E4FEC4
:10467000BE86B76700201387472993972600BA970D
:104680000327C4FCD8C7B76700209387472903D7FF
:1046900067009307F00F63FEE7248547A306F4FE47
:1046A00089AC832784FCB1C38347E4FE85072307D5
:1046B000F4FE9387818783C7670093E7170013F79A
:1046C000F70F938781872383E7008347F4FE1387DF
:1046D0001700A307E4FE37670020A1071307472947
:1046E0008A07BA97032784FCD8C7832744FCB1C341
:1046F0008347E4FE85072307F4FE9387818783C7FA
:10470000670093E7270013F7F70F938781872383C9
:10471000E7008347F4FE13871700A307E4FE37671B
:104720000020A107130747298A07BA97032744FCEB
:10473000D8C7832704FCB1C38347E4FE850723075A
:10474000F4FE9387818783C7670093E7470013F7D9
:10475000F70F938781872383E7008347F4FE13874E
:104760001700A307E4FE37670020A10713074729B6
:104770008A07BA97032704FCD8C7B7670020938736
:10478000472903D747009307F00F63F6E7168547DD
:10479000A306F4FE8DA2832744FDA5C3832784FCD2
:1047A000A9CF8347E4FE85072307F4FE938781871B
:1047B00083C7670093E7170013F7F70F9387818785
:1047C0002383E7008347F4FE376700201307472958
:1047D0008A07BA97032744FDD8C78347F4FE138797
:1047E0001700A307E4FE37670020A1071307472936
:1047F0008A07BA97032784FCD8C7832704FDA5C37B
:10480000832744FCA9CF8347E4FE85072307F4FEF2
:104810009387818783C7670093E7270013F7F70F14
:10482000938781872383E7008347F4FE376700205F
:10483000130747298A07BA97032704FDD8C7834778
:10484000F4FE13871700A307E4FE37670020A107D3
:10485000130747298A07BA97032744FCD8C7832739
:10486000C4FCA5C3832704FCA9CF8347E4FE8507C6
:104870002307F4FE9387818783C7670093E7470088
:1048800013F7F70F938781872383E7008347F4FEAD
:1048900037670020130747298A07BA970327C4FC04
:1048A000D8C78347F4FE13871700A307E4FE3767D2
:1048B0000020A107130747298A07BA97032704FC9A
:1048C000D8C7B76700209387472903D747009307C6
:1048D000F00F63ECE700B76700209387472903D701
:1048E00067009307F00F63FAE7008547A306F4FE1D
:1048F00029A0010021A0010011A001008327C4FD0F
:1049000093F7F70F9A0713F7F70F8347D4FE96072D
:1049100093F7F70FD98F13F7F70F8347E4FED98F7B
:1049200013F7F70F938781872381E7000100F25087
:10493000625421618280411106C622C40008B76713
:104940000020938747299C47B337F00093F7F70F70
:104950003E8713068017D967938587153A85EF0040
:10496000D029B7670020938747298847B767002079
:1049700083A547299387818783C72700BD8B13F6BB
:10498000F70FB76700209387472983D64700B7679B
:1049900000209387472983D767003E87EFF0FF8E7B
:1049A0009387818783C72700BD8B99C7B76700208E
:1049B00013854729EFF0DF9E0100B24022444101F8
:1049C0008280011122CE00102326A4FE2324B4FEEF
:1049D000832784FE3E85724405618280011122CEC8
:1049E00000102326A4FE2324B4FE81473E85724492
:1049F00005618280011122CE00102326A4FE032728
:104A0000C4FE954763EEE7088327C4FE139727008B
:104A1000D9679387074EBA979C4382873757000020
:104A20001307E73123AAE1803757000013078734C3
:104A300023ACE180B5A0374700001307671723AA0E
:104A4000E180374700001307E72223ACE18089A803
:104A500037370000130707A923AAE1803737000082
:104A6000130787B423ACE18025A83747000013075C
:104A700067F923AAE180374700001307A71123AC89
:104A8000E18039A8374700001307A7B023AAE180C7
:104A900037470000130727C423ACE18011A00100B1
:104AA0000100724405618280411122C60008B717D7
:104AB00002409843B71702401367170098C3B7170F
:104AC0000240D443B71702403707FFF8758FD8C3A9
:104AD000B71702409443B71702403707F7FE7D1718
:104AE000758F98C3B71702409443B7170240370732
:104AF000FCFF7D17758F98C3B7170240D443B717D3
:104B00000240370781FF7D17758FD8C3B717024062
:104B100037079F0098C701003244410182807971B4
:104B200006D622D40018232EA4FCBD3F232604FE63
:104B3000232404FEB71702409443B717024041678D
:104B4000558F98C3B71702409843B7070200F98FF3
:104B50002324F4FE8327C4FE85072326F4FE83273F
:104B600084FE91E70327C4FE8567E31DF7FCB717B2
:104B700002409843B7070200F98F89C7854723246D
:104B8000F4FE19A0232404FE032784FE8547631244
:104B9000F71637170240B71702405843D8C33717E4
:104BA0000240B71702405843D8C337170240B7171F
:104BB00002405843D8C3B7170240D443B717024046
:104BC0003707C1FF7D17758FD8C30327C4FDB747CB
:104BD000950893870740631BF700B7170240D4433B
:104BE000B71702404167558FD8C355A80327C4FDA6
:104BF000B7172707938707E0631CF700B717024032
:104C0000D443B717024037073900558FD8C341A89E
:104C10000327C4FDB7E7B80593870780631CF70037
:104C2000B7170240D443B717024037072900558F02
:104C3000D8C3B5A00327C4FDB7A74A0493870720AC
:104C4000631CF700B7170240D443B7170240370779
:104C50001D00558FD8C3A1A00327C4FDB777DC0280
:104C6000938707C0631CF700B7170240D443B717F8
:104C7000024037071100558FD8C315A00327C4FD84
:104C8000B7376E0193870760631BF700B7170240C1
:104C9000D443B717024037070500558FD8C3B7175D
:104CA00002409443B717024037070001558F98C35D
:104CB0000100B71702409843B7070002F98FF5DBF0
:104CC000B7170240D843B7170240719BD8C3B71734
:104CD0000240D843B717024013672700D8C301002A
:104CE000B7170240DC4313F7C700A147E31AF7FEEA
:104CF00011A001A0B250225445618280011106CE5C
:104D000022CC00102326A4FE0327C4FE23AEE1809C
:104D1000EFF09FD90325C4FEEFF07FE0EF20E079AC
:104D20000100F240624405618280411122C6000800
:104D300001000100324441018280011106CE22CCE3
:104D40000010232604FE232404FE232604FE25A0AF
:104D5000232404FE39A0D13F832784FE8507232422
:104D6000F4FE032784FEC167E367F7FE8327C4FED2
:104D700085072326F4FE0327C4FE9307F00FE3F90B
:104D8000E7FC0100F240624405618280411122C6C5
:104D900000080100324441018280011106CE22CC7C
:104DA00000102326A4FE8325C4FE0945EFD0CFD8EA
:104DB0000100F240624405618280130101D923267B
:104DC00011262324812623229126801C232EA4D859
:104DD000232CB4D8232AC4D82328D4D8231504FEDE
:104DE000231404FE231304FE231204FE231104FEE5
:104DF000032584D9EFD01013AA87C207C1872313D4
:104E0000F4FEB767002083D7C73399C7B767002080
:104E10009387C7339C4B829783C7018893F7F70F1B
:104E20006385074EB767002083D7C733638907467A
:104E3000B76700209387C733D447835724FE13975F
:104E40000701418793170701C1838507C207C18303
:104E5000C207C1872311F4FE93170701C1830326FC
:104E6000C4D9BE8501458296832784D92326F4FEC2
:104E7000032584D9EFD0100BAA87C207C18723135B
:104E8000F4FEB76700209387C73383D727003E8798
:104E9000B76700209387C73383C76700B347F7021C
:104EA000C207C1872312F4FE01008327C4FE1387C3
:104EB00017002326E4FE83870700E5FB231404FE86
:104EC000A1A88327C4FEFD172326F4FE8327C4FE72
:104ED000038707009307F002630AF7008327C4FEE5
:104EE000038707009307C005631BF700835784FE01
:104EF000C207C1838507C207C1832314F4FE835709
:104F000064FEC207C187C207C183FD17C207C18300
:104F1000C207C1872313F4FE835784FE139707014A
:104F20004183854763E8E700835764FEC207C18772
:104F3000E3D907F8835764FEC207C18763C207023B
:104F40008327C4FE85072326F4FE130704EE0326F9
:104F5000C4FED967938547193A85EFD0E0661DA84E
:104F6000835784FEC207C18381EF130704EE032633
:104F7000C4FED9679385071A3A85EFD0E06419A873
:104F8000130704EE0326C4FED967938547193A85B3
:104F9000EFD08063231504FE05A2231404FE59A05C
:104FA000930704EE3E85EFD0E0772A87835784FE8F
:104FB000C207C183BE868357A4FEC207C1833E8653
:104FC000835744FEC207C187B307F602B6976367EB
:104FD000F706835784FEC207C1833E878357A4FE2A
:104FE000C207C183BE86835744FEC207C187B38709
:104FF000F602BA97035784FE42074183BA86130725
:1050000004FFBA97038707EF930704FFB697238837
:10501000E7EA835784FEC207C1838507C207C183BD
:105020002314F4FE835784FEC207C1833E8783574F
:1050300044FEC207C187E345F7F611A0010083577C
:1050400084FEC207C183130704FFBA97238807EAC7
:10505000B76700209387C73303A8C700B76700204E
:105060009387C73383C7770013970701418383571B
:1050700024FE93960701C18693970601C183850795
:10508000C207C183C207C1872311F4FE93970601AB
:10509000C183B307F702C207C183130704EA3A8644
:1050A000BE85014502988357A4FEC207C1838507C8
:1050B000C207C1832315F4FE8357A4FEC207C18330
:1050C000BE84930704EE3E85EFD0C0652A878357E0
:1050D00044FEC207C187B357F7028507E3EFF4EA3E
:1050E000130704EE032644D9D9679385071B3A8535
:1050F000EFD0804DB76700209387C73303A8C70060
:10510000B76700209387C73383C7770013970701DA
:105110004183835724FE93960701C1869397060126
:10512000C1838507C207C183C207C1872311F4FE6B
:1051300093970601C183B307F702C207C183130720
:1051400004EE3A86BE8501450298832704D9638E12
:10515000071A231504FE05A2231404FE59A00325F3
:1051600004D9EFD0205C2A87835784FEC207C1830D
:10517000BE868357A4FEC207C1833E86835744FE82
:10518000C207C187B307F602B6976368F70683576D
:1051900084FEC207C1833E878357A4FEC207C18332
:1051A000BE86835744FEC207C187B387F602BA970B
:1051B0003E87832704D9BA97035784FE4207418369
:1051C000BA8603870700930704FFB6972388E7EAA8
:1051D000835784FEC207C1838507C207C183231496
:1051E000F4FE835784FEC207C1833E87835744FE83
:1051F000C207C187E345F7F611A00100835784FE7B
:10520000C207C183130704FFBA97238807EAB76769
:1052100000209387C73303A8C700B7670020938790
:10522000C73383C77700139707014183835724FE51
:1052300093960701C18693970601C1838507C2072C
:10524000C183C207C1872311F4FE93970601C1836E
:10525000B307F702C207C183130704EA3A86BE8583
:10526000014502988357A4FEC207C1838507C20780
:10527000C1832315F4FE8357A4FEC207C183BE84F5
:10528000032504D9EFD0004A2A87835744FEC2077A
:10529000C187B357F7028507E3E0F4ECBDA093079D
:1052A00004DA1306001081453E85EFA07FF5B7674D
:1052B00000209387C7339C470325C4D9829783274F
:1052C00004D999CF130504DA032704D9832644D9D6
:1052D000032684D9D9679385C71BEFD0E02E29A870
:1052E000130704DA832644D9032684D9D967938522
:1052F000871D3A85EFD0402DB76700209387C733CD
:105300009847930704DA3E85029701008320C1265F
:105310000324812683244126130101278280011161
:1053200006CE22CC00102326A4FE2324B4FE03269E
:1053300084FE8325C4FE0945EFC0DFF981473E8521
:10534000F240624405618280011106CE22CC001039
:105350002326A4FE2324B4FE930784FE81463E86C2
:105360008325C4FEB767002013850732EF10800C39
:10537000832784FE3E85F240624405618280797114
:1053800006D622D40018232EA4FC232CB4FC232AF6
:10539000C4FC232604FEA9A00100D9679387074C0B
:1053A0009C47930500043E85EF60F068AA87F5D717
:1053B000D9679387074C9C47BE86832784FD138754
:1053C0001700232CE4FC83870700C207C183BE8536
:1053D0003685EF6070638327C4FE85072326F4FEBD
:1053E0000327C4FE832744FDE348F7FA832744FDDF
:1053F0003E85B250225445618280011106CE22CCF6
:105400000010AA872324B4FE2322C4FEA307F4FEBF
:105410008347F4FEB1E383C7018293F7F70F8DCF83
:1054200083C7118891C301A083C71188850713F72B
:10543000F70FA380E188EF208005EFF03F958146CC
:10544000032644FE832584FED9671385071FEFF0EA
:10545000DF96EFF09F8EE5B70100F24062440561F0
:105460008280011106CE22CC0010AA872324B4FE2C
:105470002322C4FE2320D4FEA307F4FE8347F4FEB8
:1054800095E383C7018893F7F70F91CF832684FEB6
:10549000032604FE832544FED96713850720EFF019
:1054A000DF9111A001000100F24062440561828099
:1054B000011122CE00102326A4FE8327C4FE2390D0
:1054C00007008327C4FE7D572391E7008327C4FE8E
:1054D0007D572392E7008327C4FE7D572383E7008F
:1054E0008327C4FE7D57A383E7008327C4FE23A43C
:1054F00007008327C4FE23A607008327C4FE23A832
:1055000007000100724405618280011122CE001063
:105510002326A4FE8327C4FE03D70700B767002015
:10552000239EE7328327C4FE03D72700B7670020F6
:105530009387C7332391E7008327C4FE03D747002F
:10554000B76700209387C7332392E7008327C4FE01
:1055500003C76700B76700209387C7332383E7003B
:105560008327C4FE03C77700B76700209387C7333C
:10557000A383E7008327C4FE9847B767002093877B
:10558000C73398C78327C4FED847B76700209387DF
:10559000C733D8C78327C4FE984BB76700209387CB
:1055A000C73398CB05472380E18801007244056129
:1055B0008280797106D622D400189307C4FD3E85F7
:1055C000EFF01FEFB75700009387A7D92322F4FE0F
:1055D0009307C4FD3E85EFF05FF389679386B702BA
:1055E00089671386A702F167938507200945EFC0F5
:1055F000DFE893060004B76700201386072E814575
:10560000B767002013850732EF10701D85450945E7
:10561000EFC09FD80100B250225445618280011131
:1056200022CE00102326A4FE2324B4FE8327C4FE2A
:1056300003C7970083C6A700A206558F83C6B7008D
:10564000C206558F83C7C700E207D98F3E878327DD
:1056500084FE3E978327C4FE9375F70F83C6970099
:10566000818A3686AE86D18EA384D7009356870072
:1056700093F5F60F83C6A700818A3686AE86D18E53
:105680002385D7009356070193F5F60F83C6B7001D
:10569000818A3686AE86D18EA385D70013568701C0
:1056A00003C7C700018BBA863287558F2386E70070
:1056B00055A08327C4FE03C7970083C6A700A20690
:1056C000558F83C6B700C206558F83C7C700E20750
:1056D000D98F3E868327C4FE03C7570183C667015F
:1056E000A206558F83C67701C206558F83C78701EF
:1056F000E207D98F3307F6408327C4FE9375F70F6F
:1057000083C69700818A3686AE86D18EA384D70061
:105710009356870093F5F60F83C6A700818A3686D5
:10572000AE86D18E2385D7009356070193F5F60FE9
:1057300083C6B700818A3686AE86D18EA385D70010
:105740001356870103C7C700018BBA863287558F6E
:105750002386E7008327C4FE03C7570183C667017A
:10576000A206558F83C67701C206558F83C787016E
:10577000E207D98F3E868327C4FE03C7970083C6FE
:10578000A700A206558F83C6B700C206558F83C7F0
:10579000C700E207D98FE3FEC7F00100724405613C
:1057A0008280011122CE00102326A4FE2324B4FE01
:1057B0008327C4FE03C7D70083C6E700A206558F20
:1057C00083C6F700C206558F83C70701E207D98F4A
:1057D0003E87832784FE3E978327C4FE9375F70F89
:1057E00083C6D700818A3686AE86D18EA386D7003F
:1057F0009356870093F5F60F83C6E700818A3686B5
:10580000AE86D18E2387D7009356070193F5F60F06
:1058100083C6F700818A3686AE86D18EA387D700ED
:105820001356870103C70701018BBA863287558F4C
:105830002388E70055A08327C4FE03C7D70083C68B
:10584000E700A206558F83C6F700C206558F83C7AF
:105850000701E207D98F3E868327C4FE03C757019D
:1058600083C66701A206558F83C67701C206558F8E
:1058700083C78701E207D98F3307F6408327C4FE29
:105880009375F70F83C6D700818A3686AE86D18E90
:10589000A386D7009356870093F5F60F83C6E700DB
:1058A000818A3686AE86D18E2387D700935607012C
:1058B00093F5F60F83C6F700818A3686AE86D18EC1
:1058C000A387D7001356870103C70701018BBA8648
:1058D0003287558F2388E7008327C4FE03C757010B
:1058E00083C66701A206558F83C67701C206558F0E
:1058F00083C78701E207D98F3E868327C4FE03C78B
:10590000D70083C6E700A206558F83C6F700C206FC
:10591000558F83C70701E207D98FE3FEC7F0010067
:10592000724405618280797106D622D40018232E34
:10593000A4FC8327C4FDB337F00093F7F70F3E872D
:1059400013065005D9679385C7203A85EFF0FFAA63
:10595000232604FE8327C4FD83C7070093E71700AF
:1059600013F7F70F8327C4FD2380E7008327C4FDC7
:1059700003C79700018BA384E70003C7A700018B2F
:105980002385E70003C7B700018BA385E70003C7A2
:10599000C700018B2386E7008327C4FD03C7D70018
:1059A000018BA386E70003C7E700018B2387E7008D
:1059B00003C7F700018BA387E70003C70701018B2B
:1059C0002388E7008327C4FD03C7570183C6670107
:1059D000A206558F83C67701C206558F83C78701FC
:1059E000E207D98F3E878327C4FD9375F70F83C6DF
:1059F0001701818A3686AE86D18EA388D70093564A
:105A0000870093F5F60F83C62701818A3686AE8616
:105A1000D18E2389D7009356070193F5F60F83C6DD
:105A20003701818A3686AE86D18EA389D700135678
:105A3000870103C74701018BBA863287558F238AB6
:105A4000E7008327C4FD03C7170083C62700A2060B
:105A5000558F83C63700C206558F83C74700E207BC
:105A6000D98F0547638DE70489C709476380E70A33
:105A7000EDA08327C4FD03C7570083C66700A206B5
:105A8000558F83C67700C206558F83C78700E2070C
:105A9000D98F3E858327C4FD03C7570183C667019D
:105AA000A206558F83C67701C206558F83C787012B
:105AB000E207D98F3E868145EFA08FF479A883272E
:105AC000C4FD03C7570083C66700A206558F83C66F
:105AD0007700C206558F83C78700E207D98F3E85BE
