:100000006F60407613000000130000001300000032
:100010001300000013000000130000001300000094
:100020001300000013000000130000001300000084
:08003000130000007300100032
:100038000000000000000000005D0000105D0000EE
:1000480000000000AA660000000000000000000098
:10005800AC660000AE660000000000000000000072
:10006800B066000000000000B2660000000000005A
:10007800B4660000B6660000B8660000BA66000004
:10008800BC660000BE660000C04F0000745000004F
:1000980028510000DC51000090520000CA660000A0
:1000A800CC660000CE660000D0660000D266000074
:1000B800D4660000D6660000D8660000DA66000044
:1000C800DC660000DE660000E066000044530000C5
:1000D800E46600008E550000E8660000EA6600004D
:1000E8004E5600000E570000D0570000F266000080
:1000F800F4660000F6660000F8660000FA66000084
:10010800FC660000CE48000092490000564A0000F4
:100118005C54000006670000086700000A670000DA
:10012800C85A00000E670000106700001267000040
:100138001467000016670000905800001A67000056
:100148001A4B0000DE4B000050590000085A00000E
:100158002467000026670000286700002A6700005F
:100168002C6700002E67000030670000326700002F
:10017800346700003667000038670000908400008C
:100188003C6700003E670000F04E0000A44C0000F1
:10019800684D0000304E000048670000885B000092
:1001A8004C6700004E67000050670000485C000084
:1001B8005467000056670000586700005A6700003F
:1001C8005C6700005E67000060670000626700000F
:1001D8000000000000000000000000000000000017
:1001E8000000000000000000000000000000000007
:0801F8000000000000000000FF
:100200003D432A876373C3029377F700BDEFADE5E3
:10021000937606FF3D8ABA960CC34CC30CC74CC7F5
:100220004107E36BD7FE11E28280B306C3408A0622
:100230009702000096966780A6002307B700A306E2
:10024000B7002306B700A305B7002305B700A30432
:10025000B7002304B700A303B7002303B700A3022A
:10026000B7002302B700A301B7002301B700A30022
:10027000B7002300B700828093F5F50F93968500B1
:10028000D58D93960501D58D61B79396270097027A
:10029000000096968682E78086FA9680C1171D8FA9
:1002A0003E96E374C3F8A5B73367B500FD530D8BD5
:1002B00079E7B7877F7F9387F7F710419441B3724F
:1002C000F6003363F600BE92B3E262006397720CED
:1002D0006318D6065041D441B372F6003363F6007A
:1002E000BE92B3E262006398720A631BD6041045A3
:1002F0009445B372F6003363F600BE92B3E2620037
:100300006391720A631ED6025045D445B372F6005B
:100310003363F600BE92B3E26200639A720863111F
:10032000D60210499449B372F6003363F600BE92C8
:10033000B3E26200639372085105D105E30FD6F66C
:100340001317060193970601631CF7001357060164
:1003500093D706013305F7409375F50F91E9828035
:100360004183C1833305F7409375F50F91E1828096
:100370001377F70F93F7F70F3305F74082800346A3
:10038000050083C60500050585056313D60065FADB
:100390003305D640828011059105E312D6FE014552
:1003A00082802105A105E31CD6FC01458280310530
:1003B000B105E316D6FC014582804105C105E31075
:1003C000D6FC01458280011122CE00102326A4FE16
:1003D00037F500E08328450037F500E093F8E8FFA3
:1003E0002322150183A841810965130505F433D53E
:1003F000A802AA8601470325C4FEAA87014837F54B
:1004000000E03303F702B308D8029A983383F60268
:1004100033B6F6029A85B387C8003E860CC950C928
:10042000B7F700E09843B7F700E01367070198C3F8
:10043000B7F700E09843B7F700E01367170298C3D7
:100440000100B7F700E0DC4313F717008547E31A14
:10045000F7FEB7F700E09843B7F700E0799B98C341
:100460000100724405618280797106D622D4001899
:10047000232EA4FC231704FE231604FE0327C4FD29
:10048000A54763E0E70C8327C4FD13972700C567E2
:1004900093874765BA979C438287B7370140938714
:1004A00007C083D74702C207C1832317F4FE69A898
:1004B000B707004083D74702C207C1832317F4FE62
:1004C00061A0B70700409387074083D74702C20760
:1004D000C1832317F4FE8DA8B717004093870780C8
:1004E00083D74702C207C1832317F4FEB1A8B71709
:1004F0000040938707C083D74702C207C1832317F1
:10050000F4FE99A0B73701409387074083D747028D
:10051000C207C1832317F4FE05A8B757014093878C
:1005200007C083D74702C207C1832317F4FE29A857
:10053000B757014083D74702C207C1832317F4FE90
:1005400021A0231704FE0100B7070020138707042A
:100550008327C4FDBA9783C7070013F7F70F9307E4
:10056000F00F6317F7008357E4FE2316F4FE2DA85F
:10057000B7070020138707048327C4FDBA9783C7F2
:10058000070093F7F70F3E85792EAA8791EB8357E3
:10059000E4FEB307F040C207C1832316F4FE29A08E
:1005A0008357E4FE2316F4FE8317C4FE3E85B25043
:1005B000225445618280011122CE00102326A4FE20
:1005C0000327C4FEA54763E0E7088327C4FE13970B
:1005D0002700C5679387C767BA979C438287B73759
:1005E0000140938707C023920702B9A8B7070040CC
:1005F0002392070291A8B7070040938707402392F0
:10060000070299A0B717004093870780239207023B
:1006100025A8B7170040938707C0239207022DA093
:10062000B7370140938707402392070231A8B75795
:100630000140938707C02392070239A0B7570140B2
:100640002392070211A0010001007244056182801B
:10065000397106DE22DC80002326A4FC2324B4FCAE
:100660002322C4FC232604FE91450325C4FCEF008D
:100670001045AA873E8713060008C5679385C72BD8
:100680003A85EF20B006832784FCB1830327C4FC9E
:10069000B307F74093B7170093F7F70F3E8713069A
:1006A0001008C5679385C72B3A85EF203004832750
:1006B00044FCB1830327C4FCB307F74093B717008A
:1006C00093F7F70F3E8713062008C5679385C72B5E
:1006D0003A85EF20B0010325C4FCEF00B044832726
:1006E00084FC93F7F70F93068004014681453E850D
:1006F000CD24832744FC93F7F70F9306800401462B
:1007000081453E85F9240327C4FCA54763E0E7083B
:100710008327C4FC13972700C5679387476ABA9756
:100720009C438287B7370140938707C02324F4FE98
:100730008DA0B70700402324F4FEA1A8B70700400E
:10074000938707402324F4FEA9A0B717004093879E
:1007500007802324F4FE35A8B7170040938707C00D
:100760002324F4FE3DA0B73701409387074023249C
:10077000F4FE05A0B7570140938707C02324F4FE79
:1007800009A8B75701402324F4FE21A0854723265A
:10079000F4FE832784FC13D787008D47631AF70084
:1007A0008545B70716001385070CEF60C031E5A833
:1007B000832784FC13D78700C547631AF700854554
:1007C000B707180013850710EF60E02FE9A883270B
:1007D00084FC13D7870093072002631AF70085452E
:1007E000B7171A0013850780EF60E02D6DA88327E7
:1007F00084FC13D7870093073002631AF7008545FE
:10080000B7171A00138507C0EF60E02B69A883278C
:1008100084FC13D78700930710036317F7008545FF
:100820000565EF60402A41A0832784FC13D7870029
:1008300093071007631AF7008545B70700801385F3
:100840004700EF60402885A0832784FC13D78700EA
:1008500093073008631AF7008545B707138013859F
:100860000701EF60402681A0832784FC13D787000F
:1008700093071009631AF7008545B707158013859C
:100880000702EF60402405A0832784FC13D787006C
:10089000930730096319F7008545B707158013855D
:1008A0000704EF6040228327C4FEADEB8545054574
:1008B000EF60406A232E04FC232004FE231204FE72
:1008C0009307C4FD3E85EF609076231E04FCFD5720
:1008D0002310F4FE231104FE231F04FC230204FE54
:1008E0009307C4FDBE85032584FEEF60606F93050A
:1008F0000006032584FEEF70C0098545032584FEAC
:10090000EF60B076814601468945032584FEEF708D
:1009100080118545032584FEEF6030750100F2509B
:10092000625421618280011122CE00102326A4FE90
:100930008327C4FE958313F77700B70700200A07C3
:100940009387C704BA979C439C470327C4FE7D8BBB
:1009500085463397E600F98FB337F00093F7F70F2A
:100960003E85724405618280797122D60018232E5B
:10097000A4FC8327C4FD958393F7F70F9D8BA307F2
:10098000F4FE8327C4FD93F7F70FFD8B2307F4FED6
:100990000347F4FEB70700200A079387C704BA97F6
:1009A0009C43D8478347E4FE8546B397F600C207C9
:1009B000C1833E868346F4FEB70700208A069387EC
:1009C000C704B6979C43318FD8C7010032544561A4
:1009D0008280797106D622D40018232EA4FC232C01
:1009E000B4FCB2872328D4FCA30BF4FC232004FE20
:1009F000232204FE232404FE8327C4FD958393F75A
:100A0000F70F9D8BA307F4FE8327C4FD93F7F70F21
:100A1000FD8B2307F4FE8347F4FE91E785451145DE
:100A2000EF60405391A80347F4FE85476317F70032
:100A300085452145EF60005281A00347F4FE8947B8
:100A40006317F70085454145EF60C05035A0034767
:100A5000F4FE8D476318F700854513050002EF602B
:100A6000604F19A80347F4FE91476317F7008545C7
:100A700013050004EF60004E8347E4FE0547B317FB
:100A8000F700C207C1832310F4FE032784FD8547C6
:100A90006317F702832704FDC207C183A183C2073E
:100AA000C18389E78D472322F4FE11A8832704FD23
:100AB000C207C183A183C207C1832322F4FE832717
:100AC00004FDC207C18393F7F70F2324F4FE034705
:100AD000F4FEB70700200A079387C704BA979C4320
:100AE000130704FEBA853E85EF50D057032784FDD7
:100AF00085476319F7020347F4FEB70700200A078A
:100B00009387C704BA9794438347E4FE0547B31716
:100B1000F700C207C183034774FD3A86BE85368558
:100B2000EF50F0760100B2502254456182801D7171
:100B300086CEA2CC80102326A4FA2324B4FA8545BD
:100B40000325C4FAEF00A077AA873E871306D006D4
:100B5000C567938507333A85EF204039832784FAA8
:100B6000B337F00093F7F70F3E871306F006C5671B
:100B7000938507333A85EF206037832784FABD8356
:100B80002315F4FE8357A4FE85073E87832784FA46
:100B9000B3D7E7022314F4FE0325C4FAEF008078EC
:100BA000B7370140938707C02326F4FE0327C4FA12
:100BB000A54763ECE7088327C4FA13972700C567A6
:100BC0009387C76CBA979C438287B7370140938756
:100BD00007C02326F4FE95A8B70700402326F4FE9D
:100BE000ADA0B7070040938707402326F4FEB1A8C5
:100BF000B7170040938707802326F4FEB9A0B717E4
:100C00000040938707C02326F4FE81A0B717004059
:100C10002326F4FE1DA8B71700409387074023261C
:100C2000F4FE25A0B7370140938707402326F4FE42
:100C300029A8B7570140938707C02326F4FE31A0A7
:100C4000B75701402326F4FE0100232E04FC232085
:100C500004FE231204FE835784FE2310F4FE835700
:100C6000A4FE231EF4FC231104FE231F04FC230214
:100C700004FE9307C4FDBE850325C4FEEF60403625
:100C8000054685450325C4FEEF60B049854503252B
:100C9000C4FEEF70C016C56703AE87301387873078
:100CA0000323470013878730832887001387873003
:100CB0000328C70013878730084B138787304C4BB6
:100CC00013878730104F13878730544F138787302F
:100CD000185393878730DC53232AC4FB232C64FAF0
:100CE000232E14FB232004FD2322A4FC2324B4FC84
:100CF0002326C4FC2328D4FC232AE4FC232CF4FC64
:100D00008327C4FA93F7F70F8A07130704FFBA97EC
:100D100083A747FC8D453E85EF20A06D8327C4FA4D
:100D20008A07130704FFBA9783A747FC3E85EF2085
:100D3000C06885450325C4FEEF6030330100F640EE
:100D4000664425618280797106D622D40018232E4C
:100D5000A4FC232CB4FC032784FD896793871771B7
:100D6000B337F70093F7F70F3E8713065003C567B5
:100D7000938587373A85EF206017B737014093870F
:100D800007C02326F4FE8327C4FDC183BD8B2547FE
:100D9000636EF70613972700C5679387476FBA9767
:100DA0009C438287B7370140938707C02326F4FE10
:100DB000B1A8B70700402326F4FE89A8B707004072
:100DC000938707402326F4FE91A0B717004093872E
:100DD00007802326F4FE1DA8B7170040938707C09D
:100DE0002326F4FE25A0B73701409387074023262A
:100DF000F4FE29A8B7570140938707C02326F4FEC5
:100E000031A0B75701402326F4FE01008327C4FE1A
:100E100083D7C7022315F4FE0357A4FE832784FD5E
:100E20003307F702896793870771B357F7022314D3
:100E3000F4FE8327C4FDA1838D8B81EB8327C4FE41
:100E4000035784FE239AE702A9A88327C4FDA18340
:100E500013F7370085476319F7008327C4FE03574C
:100E600084FE239CE70235A88327C4FDA18313F7E2
:100E7000370089476319F7008327C4FE035784FEB0
:100E8000239EE70239A88327C4FDA18313F7370007
:100E90008D476318F7008327C4FE035784FE239011
:100EA000E7040100B2502254456182805D7186C61C
:100EB000A2C48008232EA4FA232CB4FA232AC4FA4D
:100EC0008327C4FBC1838D453E85D52EAA873E87E7
:100ED0001306D00AC567938587373A85EF2000014E
:100EE000032744FB896793871771B337F70093F79C
:100EF000F70F3E871306F00AC567938587373A8553
:100F0000EF10D07E232E04FC232004FE231204FEC7
:100F1000232604FC232804FC232A04FC232C04FCA1
:100F2000231504FE8327C4FBC183BD8B3E85DD2EC4
:100F30008327C4FB93F7F70F93068031014685455D
:100F40003E85413C85450545EF60C000B73701400F
:100F5000938707C02326F4FE8327C4FBC183BD8B80
:100F60002547636EF70613972700C5679387C771F8
:100F7000BA979C438287B7370140938707C02326DF
:100F8000F4FEB1A8B70700402326F4FE89A8B707EE
:100F90000040938707402326F4FE91A0B717004036
:100FA000938707802326F4FE1DA8B7170040938778
:100FB00007C02326F4FE25A0B737014093870740DA
:100FC0002326F4FE29A8B7570140938707C023269C
:100FD000F4FE31A0B75701402326F4FE0100832719
:100FE000C4FB13D7C7008D47631AF7008545B707C1
:100FF00016001385070CEF50102D15AA8327C4FB8C
:1010000013D7C700C547631AF7008545B70718000F
:1010100013850710EF50302B19AA8327C4FB13D771
:10102000C700C947631AF7008545B707180013853D
:101030000720EF505029E5A88327C4FB13D7C7002A
:10104000CD47631AF7008545B707180013850730A9
:10105000EF507027E9A88327C4FB13D7C700930775
:101060002002631AF7008545B7171A001385078019
:10107000EF5070256DA88327C4FB13D7C7009307D3
:101080003002631AF7008545B7171A00138507C0A9
:10109000EF50702369A88327C4FB13D7C7009307B9
:1010A00010036317F70085450565EF50D02141A077
:1010B0008327C4FB13D7C70093071007631AF700F1
:1010C0008545B707008013854700EF50D01F85A0E6
:1010D0008327C4FB13D7C70093073008631AF700B0
:1010E0008545B707138013850701EF50D01D81A0F8
:1010F0008327C4FB13D7C70093071009631AF700AF
:101100008545B707158013850702EF50D01B05A052
:101110008327C4FB13D7C700930730096319F7006F
:101120008545B707158013850704EF50D01903A72D
:101130004181832784FBB357F702C1832315F4FE53
:1011400003A741818357A4FE8507BE86832784FBBE
:10115000B387F602B357F7022314F4FE035784FE55
:10116000832744FB3307F702896793870771B357D7
:10117000F7022313F4FE835784FEFD17C207C183D1
:101180002310F4FE8357A4FE231EF4FC231104FE57
:10119000231F04FC230204FE9307C4FDBE85032520
:1011A000C4FEEF50F063930700072316F4FC854755
:1011B0002317F4FC231804FC835764FE2319F4FC62
:1011C0008947231AF4FC8947231BF4FC231C04FCE5
:1011D000231D04FC8327C4FBA1838D8B9DE3930710
:1011E000C4FCBE850325C4FEEF507077A1450325DE
:1011F000C4FEEF60D01091450325C4FEEF60F024DB
:1012000045A08327C4FBA18313F7370085476315E7
:10121000F7029307C4FCBE850325C4FEEF60E00D12
:10122000A1450325C4FEEF6050129305004003253D
:10123000C4FEEF605026ADA08327C4FBA18313F743
:10124000370089476314F7029307C4FCBE85032562
:10125000C4FEEF60A028A1450325C4FEEF609014F2
:1012600091450325C4FEEF6070281DA88327C4FBA9
:10127000A18313F737008D476314F7029307C4FC6B
:10128000BE850325C4FEEF602043A1450325C4FEAF
:10129000EF601016930500400325C4FEEF60D029CF
:1012A00085450325C4FEEF60C06185450325C4FE66
:1012B000EF60A05B0100B6402644616182807971D5
:1012C00022D60018232EA4FC232CB4FC8547A307A8
:1012D000F4FE0327C4FD0A079387818EBA979C43C7
:1012E00099EB0327C4FD0A079387818EBA970327DA
:1012F00084FD98C315A00327C4FD0A079387818E38
:10130000BA979C43032784FD6316F7008547A3071C
:10131000F4FE19A0A30704FE8347F4FE3E85325471
:1013200045618280011106CE22CC00102326A4FE46
:101330008327C4FE81EB8545856713850780EF50C1
:1013400070416DA80327C4FE85476317F7008545E4
:101350000545EF5090445DA00327C4FE89476317FD
:10136000F70085450945EF50504349A80327C4FEBF
:101370008D476317F70085451145EF501042BDA812
:101380000327C4FE91476317F70085452145EF50B9
:10139000D040ADA00327C4FE95476317F7008545ED
:1013A0004145EF50903F99A80327C4FE9947631821
:1013B000F700854513050002EF50303E81A003275A
:1013C000C4FE9D476317F70085450965EF509038C7
:1013D00035A00327C4FEA1476318F70085453705EC
:1013E0000800EF50303719A80327C4FEA54763173C
:1013F000F700854537051000EF50D0350100F24069
:10140000624405618280797122D60018232EA4FCE3
:10141000B7370140938707C02326F4FE231504FE47
:101420000327C4FDA54763ECE7088327C4FD139792
:101430002700C56793874774BA979C438287B7375D
:101440000140938707C02326F4FE95A8B707004004
:101450002326F4FEADA0B70700409387074023265C
:10146000F4FEB1A8B7170040938707802326F4FE47
:10147000B9A0B7170040938707C02326F4FE81A0C8
:10148000B71700402326F4FE1DA8B7170040938726
:1014900007402326F4FE25A0B73701409387074075
:1014A0002326F4FE29A8B7570140938707C02326B7
:1014B000F4FE31A0B75701402326F4FE01000327B4
:1014C000C4FD0A0793870191BA9798438947631F20
:1014D000F7008327C4FE83D7470213970701418390
:1014E0008D47B357F7022315F4FE39A08327C4FEB6
:1014F00083D747022315F4FE8357A4FE3E8532545A
:1015000045618280797122D60018232EA4FCB7375A
:101510000140938707C02326F4FE0327C4FDA54797
:1015200063ECE7088327C4FD13972700C5679387FB
:10153000C776BA979C438287B7370140938707C025
:101540002326F4FE95A8B70700402326F4FEADA09D
:10155000B7070040938707402326F4FEB1A8B717CA
:101560000040938707802326F4FEB9A0B7170040F8
:10157000938707C02326F4FE81A0B71700402326D7
:10158000F4FE1DA8B7170040938707402326F4FEFA
:1015900025A0B7370140938707402326F4FE29A8EA
:1015A000B7570140938707C02326F4FE31A0B757F1
:1015B00001402326F4FE01008327C4FE2392070284
:1015C0000100325445618280011122CE0010232691
:1015D000A4FEAE87A305F4FE0100C5670327C4FE81
:1015E0000A0793874779BA979C4383D70700C207B6
:1015F000C18393F70708F5D3C5670327C4FE0A071D
:1016000093874779BA979C433E878347B4FEC207C6
:10161000C1832312F7000100724405618280011129
:1016200006CE22CC00102326A4FE2324B4FE83275A
:1016300084FEB337F00093F7F70F3E87130690054B
:10164000C5679385073C3A85EF10500A39A8832770
:1016500084FE138717002324E4FE8387070093F793
:10166000F70FBE850325C4FE8537832784FE838755
:101670000700F1FF0100F240624405618280011120
:1016800006CE22CC00102326A4FEAE87A305F4FECE
:10169000C5670327C4FE0A0793874779BA979C4317
:1016A0003E878347B4FE3E86930550523A85EF60ED
:1016B0003021138781838327C4FEBA9783C707002D
:1016C00081453E85EF10F0528347B4FE81CF1387EA
:1016D00081838327C4FEBA9783C707003E85EF1036
:1016E000D04D19A8138781838327C4FEBA9783C777
:1016F00007003E85EF10304E0100F2406244056164
:101700008280011122CE00102326A4FE2324B4FEE1
:10171000C5670327C4FE0A0793874779BA979C4396
:1017200083D70700C207C18393F707028DC7C56738
:101730000327C4FE0A0793874779BA979C4383D748
:101740004700C207C18313F7F70F832784FE238066
:10175000E700854711A081473E857244056182807C
:10176000797106D622D40018232EA4FC232CB4FCB5
:10177000232AC4FC2328D4FC032744FD832704FD2B
:101780003D8F8327C4FDB207F98F93B7170093F7F6
:10179000F70F3E871306E00CC5679385073C3A8533
:1017A000EF10C074832744FD13D78700832704FDFF
:1017B000A183B307F74093B7170093F7F70F3E875E
:1017C0001306F00CC5679385073C3A85EF1000724D
:1017D000832744FD93F7F70FE146014685453E8593
:1017E000EFF02F9F832704FD93F7F70F93068004F4
:1017F000014681453E85EFF0CF9D85450545EF507B
:101800006075032744FDC167FD17F98F0D67130746
:1018100007386387E7200D67130707386369F70404
:101820000567130757166381E716056713075716F1
:10183000636FF7001307F022638AE70C1307603029
:101840006381E710130760126388E70865A60967DC
:1018500013078736638BE7160D6713070712638735
:10186000E71809671307A7146380E71461A61567D3
:101870001307A738638EE72615671307A738636237
:10188000F7021167130787386380E720156713078E
:1018900087126385E722116713074712638CE71AE3
:1018A00091AE19671307C7386388E72A19671307CA
:1018B000C7386368F7001967130767106384E72662
:1018C00015AE1D671307E7106382E72C1D6713072A
:1018D000E7386387E72E39AEB7070140D44FB70723
:1018E0000140370700FC7D17758FD8CFB70701403F
:1018F000D843B70701406D9BD8C3B7070140D84311
:10190000B707014013674700D8C3EDA4B7070140EC
:10191000D44FB7070140370700FC7D17758FD8CF2C
:10192000B7070140D44FB707014037070004558F70
:10193000D8CFB7070140D843B70701406D9BD8C344
:1019400055ACB7070140D44FB7070140370700FC3B
:101950007D17758FD8CFB7070140D44FB707014027
:1019600037070004558FD8CFB7070140D843B707D2
:1019700001406D9BD8C3B7070140D843B70701406A
:1019800013674700D8C3BDA4B7070140D843B707C2
:1019900001405D9BD8C3B7070140D843B70701405A
:1019A00013678700D8C3B9A4B7070140D843B70766
:1019B00001401377F7FCD8C3B7070140D843B707F6
:1019C000014013670701D8C335A4B7070140D843C6
:1019D000B70701401377F7FCD8C3B7070140D843D6
:1019E000B707014013670703D8C329A4B70701400D
:1019F000D44FB70701403707FDFF7D17758FD8CF4C
:101A0000B7070140D44F832744FDA18313970701F3
:101A1000B70703007D8FB7070140558FD8CFD9AAEC
:101A2000B7070140D44FB70701403707FDFF7D17C7
:101A3000758FD8CFB7070140D44F832744FDA183CA
:101A400013970701B70703007D8FB7070140558F34
:101A5000D8CF4DA2B7070140D44FB7070140370791
:101A6000F4FF7D17758FD8CFB7070140D44F832778
:101A700044FDA18313972701B7070C007D8FB7079B
:101A80000140558FD8CFBDA2B7070140D44FB7074B
:101A900001403707F4FF7D17758FD8CFB707014096
:101AA000D44F832744FDA18313972701B7070C0068
:101AB0007D8FB7070140558FD8CF2DAAB7070140BA
:101AC000D44FB70701403707D0FF7D17758FD8CFA8
:101AD000B7070140D44F832744FDA18313974701E3
:101AE000B70730007D8FB7070140558FD8CF19A2B7
:101AF000B7070140D44FB70701403707D0FF7D1724
:101B0000758FD8CFB7070140D44F832744FDA183F9
:101B100013974701B70730007D8FB7070140558FF6
:101B2000D8CFC9A8B7070140D44FB707014037073E
:101B300040FF7D17758FD8CFB7070140D44F83275B
:101B400044FDA18313976701B707C0007D8FB707D6
:101B50000140558FD8CF79A8B7070140D44FB707B8
:101B60000140370740FF7D17758FD8CFB707014079
:101B7000D44F832744FDA18313976701B707C000A3
:101B80007D8FB7070140558FD8CFADA0B707014073
:101B9000D44FB7070140370700FD7D17758FD8CFA9
:101BA000B7070140D44F832744FDA18313978701D2
:101BB000B70700037D8FB7070140558FD8CF1DA809
:101BC000B7070140D44FB7070140370700FD7D1725
:101BD000758FD8CFB7070140D44F832744FDA18329
:101BE00013978701B70700037D8FB7070140558F13
:101BF000D8CF01008327C4FD91E785451165EF50DB
:101C0000603569A80327C4FD85476318F70085453B
:101C100037050200EF50603851A00327C4FD894703
:101C20006318F700854537050400EF500037BDA065
:101C30000327C4FD8D476318F70085453705080065
:101C4000EF50A035A1A80327C4FD91476318F70002
:101C5000854537051000EF50403489A00327C4FDA7
:101C600095476318F700854513050004EF50E032EF
:101C700035A00327C4FD99476318F7008545130570
:101C80000008EF50803119A80327C4FD9D47631752
:101C9000F700854513050010EF502030232004FE87
:101CA000232204FE232404FE232604FE832784FD2E
:101CB0002320F4FE231204FE231304FE231404FE47
:101CC000231604FEB1472315F4FEC5670327C4FDA0
:101CD0000A0793874779BA979C433E87930704FE88
:101CE000BE853A85EF608014C5670327C4FD0A07E7
:101CF00093874779BA979C4385453E85EF60403688
:101D00000100B250225445618280797106D622D4F6
:101D10000018232EA4FC232CB4FC232AC4FC232665
:101D200004FE3DA80100930500040325C4FDEF60F7
:101D30004048AA87EDDB832784FD83C70700C207DD
:101D4000C183BE850325C4FDEF60C043832784FDA6
:101D50008507232CF4FC8327C4FE85072326F4FE85
:101D60000327C4FE832744FDE34EF7FA0100B25077
:101D7000225445618280411106C622C4000883A70F
:101D800041860547638BE7006388070C0947638D2D
:101D9000E7000D47638FE702E9A083A70186138759
:101DA000170023A0E18675A883A701861387170073
:101DB00023A0E18603A70186A54763F1E70AB707D9
:101DC00000209387C7049C4B1167D8CB23A00186C2
:101DD00071A003A7818685476314F7081305F008EF
:101DE000EFE07FB4AA87ADC31945EFF0CFE1AA8732
:101DF0003E8783A701861D8F9307600963F2E7067C
:101E00001945EFF02FF083A70186D3F717D053853C
:101E1000F720EFA07060C56703A6874083A6C74080
:101E2000EF90F024AA872E883E85C285EFA09047C8
:101E3000AA87139707014183B7070020239CE73E39
:101E4000094723A4E18629A81945EFF0CFDBAA872B
:101E50003E8723A0E18629A0010021A0010011A056
:101E600001000100B240224441018280411106C6B6
:101E700022C4000883A741860947637CF7000D4709
:101E8000639AE7001945EFF0EFE7054723A4E186E1
:101E900011A001000100B2402244410182804111A1
:101EA00022C600080100324441018280797106D6C1
:101EB00022D40018232EA4FC232CB4FCB287A30B3D
:101EC000F4FCB687231AF4FCBA872319F4FC232602
:101ED00004FE1307A0FA2388E18693870187094748
:101EE000A380E7008327C4FD93F7F70F960713F746
:101EF000F70F832784FD99E3C14711A08147D98F4C
:101F000013F7F70F834774FDD98F13F7F70F9387F4
:101F100001872381E700938701872147A381E70099
:101F200093870187035744FD2392E7009387018736
:101F3000035724FD2393E70003A70181A1451385DF
:101F4000018702970327C4FD8947630AF702032725
:101F5000C4FD8D47630EF7020327C4FD8547631355
:101F6000F704035744FD835724FDB307F70213D743
:101F7000F7411D8BBA978D872326F4FE25A00357C2
:101F800044FD835724FDB307F7022326F4FE19A866
:101F9000035744FD835724FDB307F7028607232622
:101FA000F4FE0100832784FD81CB83A70181832573
:101FB000C4FE032584FD82970100B250225445617E
:101FC0008280797106D622D40018232EA4FC231611
:101FD00004FE9387818783D747002316F4FE9387F7
:101FE000818783C7270093F7070291C78357C4FEF1
:101FF00086072316F4FE03A70181A1451385818777
:102000000297A30704FEA5A08347F4FE0327C4FD9F
:102010008A07BA97DC4799CF83A601818347F4FEEC
:102020000327C4FD8A07BA97DC470357C4FEBA8565
:102030003E8582968347F4FE0327C4FDA1078A07E5
:10204000BA97DC4785C383A601818347F4FE032743
:10205000C4FDA1078A07BA97DC470357C4FEBA85B7
:102060003E8582968347F4FE8507A307F4FE034767
:10207000F4FE9D47E3FAE7F80100B25022544561AF
:102080008280011122CE00102326A4FE2324B4FE58
:10209000B28736872313F4FEBA872312F4FE1307A0
:1020A000A0FA238CE186938781870D47A380E70000
:1020B000938781872147A381E700B7670020938733
:1020C00007D50327C4FE98C7B7670020032784FEFF
:1020D00023A8E7D4B7670020938707D5035764FE8A
:1020E0002392E700B7670020938707D5035744FE84
:1020F0002393E7000100724405618280397106DE96
:1021000022DC8000232EA4FC232AC4FC2328D4FC38
:102110002326E4FC2324F4FC232204FD232014FDC5
:10212000AE87231DF4FCA30704FE230704FEA306C9
:1021300004FEB7670020938707D59C47B337F000AC
:1021400093F7F70F3E8713068010C5679385074105
:102150003A85EF00B059938781870357A4FD2392F6
:10216000E7009387818723830700A30704FE1DA848
:102170008347F4FE37670020130707D58A07BA970D
:1021800023A607008347F4FE37670020A107130743
:1021900007D58A07BA9723A607008347F4FE850769
:1021A000A307F4FE0347F4FE8947E3F3E7FC0327A4
:1021B000C4FD85476308F7108327C4FD99C703272B
:1021C000C4FD8947630AF71E99AE832744FDB9C34E
:1021D0008347E4FE85072307F4FE9387818783C73F
:1021E000670093E7170013F7F70F9387818723831F
:1021F000E7008347F4FE13871700A307E4FEBE86BB
:10220000B7670020138707D593972600BA9703274F
:1022100044FDD8C7832704FDB9C38347E4FE85077F
:102220002307F4FE9387818783C7670093E727001E
:1022300013F7F70F938781872383E7008347F4FE23
:1022400013871700A307E4FEBE86B7670020138735
:1022500007D593972600BA97032704FDD8C783278D
:10226000C4FCB9C38347E4FE85072307F4FE9387C4
:10227000818783C7670093E7470013F7F70F9387BA
:1022800081872383E7008347F4FE13871700A307A2
:10229000E4FEBE86B7670020138707D59397260014
:1022A000BA970327C4FCD8C7B7670020938707D520
:1022B00003D767009307F00F63FEE7248547A30663
:1022C000F4FE89AC832784FCB1C38347E4FE850711
:1022D0002307F4FE9387818783C7670093E717007E
:1022E00013F7F70F938781872383E7008347F4FE73
:1022F00013871700A307E4FE37670020A107130721
:1023000007D58A07BA97032784FCD8C7832744FCDC
:10231000B1C38347E4FE85072307F4FE93878187D3
:1023200083C7670093E7270013F7F70F9387818729
:102330002383E7008347F4FE13871700A307E4FE17
:1023400037670020A107130707D58A07BA97032725
:1023500044FCD8C7832704FCB1C38347E4FE850748
:102360002307F4FE9387818783C7670093E74700BD
:1023700013F7F70F938781872383E7008347F4FEE2
:1023800013871700A307E4FE37670020A107130790
:1023900007D58A07BA97032704FCD8C7B767002078
:1023A000938707D503D747009307F00F63F6E71627
:1023B0008547A306F4FE8DA2832744FDA5C383278A
:1023C00084FCA9CF8347E4FE85072307F4FE9387A7
:1023D000818783C7670093E7170013F7F70F938789
:1023E00081872383E7008347F4FE376700201307C4
:1023F00007D58A07BA97032744FDD8C78347F4FE59
:1024000013871700A307E4FE37670020A10713070F
:1024100007D58A07BA97032784FCD8C7832704FD0A
:10242000A5C3832744FCA9CF8347E4FE8507230780
:10243000F4FE9387818783C7670093E7270013F72C
:10244000F70F938781872383E7008347F4FE37677D
:102450000020130707D58A07BA97032704FDD8C7BA
:102460008347F4FE13871700A307E4FE37670020B5
:10247000A107130707D58A07BA97032744FCD8C7D3
:102480008327C4FCA5C3832704FCA9CF8347E4FEAC
:1024900085072307F4FE9387818783C7670093E747
:1024A000470013F7F70F938781872383E70083475C
:1024B000F4FE37670020130707D58A07BA9703276A
:1024C000C4FCD8C78347F4FE13871700A307E4FEB4
:1024D00037670020A107130707D58A07BA97032794
:1024E00004FCD8C7B7670020938707D503D74700F8
:1024F0009307F00F63ECE700B7670020938707D5D9
:1025000003D767009307F00F63FAE7008547A30638
:10251000F4FE29A0010021A0010011A001008327E1
:10252000C4FD93F7F70F9A0713F7F70F8347D4FE0D
:10253000960793F7F70FD98F13F7F70F8347E4FE4A
:10254000D98F13F7F70F938781872381E700010065
:10255000F250625421618280411106C622C40008F3
:10256000B7670020938707D59C47B337F00093F7F0
:10257000F70F3E8713068017C567938507413A8595
:10258000EF00D016B7670020938707D58847B76755
:10259000002083A507D59387818783C72700BD8B3C
:1025A00013F6F70FB7670020938707D583D6470048
:1025B000B7670020938707D583D767003E87EFF082
:1025C000FF8E9387818783C72700BD8B99C7B76725
:1025D0000020138507D5EFF0DF9E0100B2402244B2
:1025E00041018280011122CE00102326A4FE232463
:1025F000B4FE832784FE3E857244056182804111CA
:1026000022C60008B71702409843B7170240136765
:10261000170098C3B7170240D443B71702403707D3
:10262000FFF8758FD8C3B71702409443B71702401D
:102630003707F7FE7D17758F98C3B717024094438D
:10264000B71702403707FCFF7D17758F98C3B71780
:102650000240D443B7170240370781FF7D17758FBB
:10266000D8C3B717024037079F0098C7010032440C
:1026700041018280797106D622D40018232EA4FC51
:10268000BD3F232604FE232404FEB71702409443D3
:10269000B71702404167558F98C3B7170240984358
:1026A000B7070200F98F2324F4FE8327C4FE8507B1
:1026B0002326F4FE832784FE91E70327C4FE856763
:1026C000E31DF7FCB71702409843B7070200F98FE4
:1026D00089C785472324F4FE19A0232404FE032779
:1026E00084FE85476312F71637170240B71702407A
:1026F0005843D8C337170240B71702405843D8C3CE
:1027000037170240B71702405843D8C3B7170240E3
:10271000D443B71702403707C1FF7D17758FD8C361
:102720000327C4FDB747950893870740631BF7004D
:10273000B7170240D443B71702404167558FD8C33B
:1027400055A80327C4FDB7172707938707E0631C25
:10275000F700B7170240D443B717024037073900D4
:10276000558FD8C341A80327C4FDB7E7B8059387A1
:102770000780631CF700B7170240D443B717024025
:1027800037072900558FD8C3B5A00327C4FDB7A7C5
:102790004A0493870720631CF700B7170240D4430D
:1027A000B717024037071D00558FD8C3A1A00327D4
:1027B000C4FDB777DC02938707C0631CF700B71727
:1027C0000240D443B717024037071100558FD8C3D2
:1027D00015A00327C4FDB7376E0193870760631BFD
:1027E000F700B7170240D443B71702403707050078
:1027F000558FD8C3B71702409443B7170240370725
:102800000001558F98C30100B71702409843B707DE
:102810000002F98FF5DBB7170240D843B717024023
:10282000719BD8C3B7170240D843B717024013674C
:102830002700D8C30100B7170240DC4313F7C700D5
:10284000A147E31AF7FE11A001A0B250225445613E
:102850008280011106CE22CC00102326A4FE03277D
:10286000C4FE23AAE180613B0325C4FE2135EF00AD
:1028700070400100F240624405618280411122C62D
:10288000000801000100324441018280011106CE9E
:1028900022CC0010232604FE232404FE232604FE5B
:1028A00025A0232404FE39A0D13F832784FE850779
:1028B0002324F4FE032784FEC167E367F7FE832722
:1028C000C4FE85072326F4FE0327C4FE9307F00FFA
:1028D000E3F9E7FC0100F2406244056182804111A6
:1028E00022C600080100324441018280011106CE57
:1028F00022CC00102326A4FE8325C4FE0945EFE068
:102900001FD20100F240624405618280130101D9A7
:10291000232611262324812623229126801C232E60
:10292000A4D8232CB4D8232AC4D82328D4D8231538
:1029300004FE231404FE231304FE231204FE2311B9
:1029400004FE032584D9EFB0E055AA87C207C187EA
:102950002313F4FEB767002083D787DF99C7B767D3
:102960000020938787DF9C4B829783C7018893F76A
:10297000F70F6385074EB767002083D787DF63892A
:102980000746B7670020938787DFD447835724FE25
:1029900013970701418793170701C1838507C20772
:1029A000C183C207C1872311F4FE93170701C183B6
:1029B0000326C4D9BE8501458296832784D9232660
:1029C000F4FE032584D9EFB0E04DAA87C207C18782
:1029D0002313F4FEB7670020938787DF83D7270090
:1029E0003E87B7670020938787DF83C76700B347B9
:1029F000F702C207C1872312F4FE01008327C4FE39
:102A0000138717002326E4FE83870700E5FB2314C2
:102A100004FEA1A88327C4FEFD172326F4FE832706
:102A2000C4FE038707009307F002630AF7008327B9
:102A3000C4FE038707009307C005631BF700835795
:102A400084FEC207C1838507C207C1832314F4FE35
:102A5000835764FEC207C187C207C183FD17C2073F
:102A6000C183C207C1872313F4FE835784FE1397E3
:102A700007014183854763E8E700835764FEC20787
:102A8000C187E3D907F8835764FEC207C18763C2D1
:102A900007028327C4FE85072326F4FE130704EEEE
:102AA0000326C4FEC567938507463A85EFB0C02963
:102AB0001DA8835784FEC207C18381EF130704EE6C
:102AC0000326C4FEC5679385C7463A85EFB0C02785
:102AD00019A8130704EE0326C4FEC56793850746AD
:102AE0003A85EFB06026231504FE05A2231404FEE8
:102AF00059A0930704EE3E85EFB0C03A2A8783576A
:102B000084FEC207C183BE868357A4FEC207C18369
:102B10003E86835744FEC207C187B307F602B697C5
:102B20006367F706835784FEC207C1833E878357D6
:102B3000A4FEC207C183BE86835744FEC207C18775
:102B4000B387F602BA97035784FE42074183BA86D9
:102B5000130704FFBA97038707EF930704FFB6979D
:102B60002388E7EA835784FEC207C1838507C2072B
:102B7000C1832314F4FE835784FEC207C1833E87BA
:102B8000835744FEC207C187E345F7F611A0010051
:102B9000835784FEC207C183130704FFBA972388B3
:102BA00007EAB7670020938787DF03A8C700B767E6
:102BB0000020938787DF83C777001397070141833E
:102BC000835724FE93960701C18693970601C1831C
:102BD0008507C207C183C207C1872311F4FE9397FB
:102BE0000601C183B307F702C207C183130704EAD2
:102BF0003A86BE85014502988357A4FEC207C18369
:102C00008507C207C1832315F4FE8357A4FEC207BC
:102C1000C183BE84930704EE3E85EFB0A0282A87C7
:102C2000835744FEC207C187B357F7028507E3EF16
:102C3000F4EA130704EE032644D9C5679385C74712
:102C40003A85EFB06010B7670020938787DF03A84D
:102C5000C700B7670020938787DF83C77700139784
:102C600007014183835724FE93960701C1869397FA
:102C70000601C1838507C207C183C207C18723112B
:102C8000F4FE93970601C183B307F702C207C1831D
:102C9000130704EE3A86BE8501450298832704D9BE
:102CA000638E071A231504FE05A2231404FE59A0FF
:102CB000032504D9EFB0001F2A87835784FEC2077B
:102CC000C183BE868357A4FEC207C1833E86835755
:102CD00044FEC207C187B307F602B6976368F706DA
:102CE000835784FEC207C1833E878357A4FEC20771
:102CF000C183BE86835744FEC207C187B387F602ED
:102D0000BA973E87832704D9BA97035784FE4207B0
:102D10004183BA8603870700930704FFB697238889
:102D2000E7EA835784FEC207C1838507C207C183D0
:102D30002314F4FE835784FEC207C1833E87835762
:102D400044FEC207C187E345F7F611A0010083578F
:102D500084FEC207C183130704FFBA97238807EADA
:102D6000B7670020938787DF03A8C700B7670020F5
:102D7000938787DF83C777001397070141838357C2
:102D800024FE93960701C18693970601C1838507A8
:102D9000C207C183C207C1872311F4FE93970601BE
:102DA000C183B307F702C207C183130704EA3A8657
:102DB000BE85014502988357A4FEC207C1838507DB
:102DC000C207C1832315F4FE8357A4FEC207C18343
:102DD000BE84032504D9EFB0E00C2A87835744FE54
:102DE000C207C187B357F7028507E3E0F4ECBDA043
:102DF000930704DA1306001081453E85EFD04FC0DB
:102E0000B7670020938787DF9C470325C4D9829743
:102E1000832704D999CF130504DA032704D983261D
:102E200044D9032684D9C56793858748EFA0D0711C
:102E300029A8130704DA832644D9032684D9C56751
:102E40009385474A3A85EFA03070B7670020938793
:102E500087DF9847930704DA3E85029701008320B5
:102E6000C126032481268324412613010127828061
:102E7000797106D622D40018232EA4FC232CB4FC8E
:102E8000232AC4FC232604FEA9A00100C56793875A
:102E900047799C47930500043E85EF508031AA870F
:102EA000F5D7C567938747799C47BE86832784FDFE
:102EB00013871700232CE4FC83870700C207C18314
:102EC000BE853685EF50002C8327C4FE8507232658
:102ED000F4FE0327C4FE832744FDE348F7FA832763
:102EE00044FD3E85B250225445618280011106CED8
:102EF00022CC0010AA872324B4FE2322C4FEA307F9
:102F0000F4FE8347F4FEA9E383C7818193F7F70FAB
:102F100085CF83C7118891C301A083C71188850716
:102F200013F7F70FA380E1880D23EFF05F9B814635
:102F3000032644FE832584FEC5671385C74BEFF047
:102F4000FF9CEFF0BF94E5B70100F24062440561D9
:102F50008280011122CE00102326A4FE8327C4FE06
:102F6000239007008327C4FE7D572391E700832722
:102F7000C4FE7D572392E7008327C4FE7D57238339
:102F8000E7008327C4FE7D57A383E7008327C4FEA1
:102F900023A407008327C4FE23A607008327C4FEBB
:102FA00023A807000100724405618280011122CE2E
:102FB00000102326A4FE8327C4FE03D70700B767AB
:102FC0000020239CE7DE8327C4FE03D72700B767D2
:102FD0000020938787DF2391E7008327C4FE03D770
:102FE0004700B7670020938787DF2392E700832796
:102FF000C4FE03C76700B7670020938787DF23837A
:10300000E7008327C4FE03C77700B76700209387D4
:1030100087DFA383E7008327C4FE9847B7670020B4
:10302000938787DF98C78327C4FED847B7670020F8
:10303000938787DFD8C78327C4FE984BB7670020E4
:10304000938787DF98CB05472380E188010072448E
:1030500005618280797106D622D400189307C4FDD9
:103060003E85C53DB73700009387C78E2322F4FE07
:103070009307C4FD3E851D3F89679386B702896724
:103080001386A702F167938507200945EFE04FED0E
:1030900093060004B76700201386C7D98145B76738
:1030A00000201385C7DD112885450945EFE02FDD98
:1030B0000100B250225445618280797106D622D433
:1030C0000018232EA4FC232CB4FC232AC4FC2328A0
:1030D000D4FC8327C4FDB337F00093F7F70F3E8786
:1030E00013062022C5679385874D3A85013523262F
:1030F00004FE8327C4FD032744FD1376F70F03C79F
:103100005700018BBA863287558FA382E7000327C9
:1031100044FD21831376F70F03C76700018BBA863E
:103120003287558F2383E700032744FD41831376BD
:10313000F70F03C77700018BBA863287558FA383B9
:10314000E700032744FD1356870103C78700018B5F
:10315000BA863287558F2384E7008327C4FD2380F6
:1031600007008327C4FD032784FD1376F70F03C7E9
:103170001700018BBA863287558FA380E70003279B
:1031800084FD21831376F70F03C72700018BBA86CE
:103190003287558F2381E700032784FD418313760F
:1031A000F70F03C73700018BBA863287558FA3818B
:1031B000E700032784FD1356870103C74700018BEF
:1031C000BA863287558F2382E7008327C4FD03C761
:1031D0009700018BA384E70003C7A700018B238519
:1031E000E70003C7B700018BA385E70003C7C7004B
:1031F000018B2386E7008327C4FD03C7D700018B1B
:10320000A386E70003C7E700018B2387E70003C716
:10321000F700018BA387E70003C70701018B238811
:10322000E7008327C4FD032704FD1376F70F03C7C8
:103230001701018BBA863287558FA388E7000327D1
:1032400004FD21831376F70F03C72701018BBA868C
:103250003287558F2389E700032704FD41831376C6
:10326000F70F03C73701018BBA863287558FA389C1
:10327000E700032704FD1356870103C74701018BAD
:10328000BA863287558F238AE7008327C4FD032738
:1032900004FD1376F70F03C75701018BBA863287F7
:1032A000558FA38AE700032704FD21831376F70FC8
:1032B00003C76701018BBA863287558F238BE700DE
:1032C000032704FD41831376F70F03C77701018BB2
:1032D000BA863287558FA38BE700032704FD135668
:1032E000870103C78701018BBA863287558F238CEC
:1032F000E7008327C4FE3E85B25022544561828098
:10330000411122C600089967938787087390078048
:103310000100324441018280411122C600089967B0
:10332000739007800100324441018280011122CE56
:1033300000102326A4FE8327C4FEFD8B0547B31689
:10334000F70037E700E08327C4FE958393870704DF
:103350008A07BA9794C30100724405618280011103
:1033600022CE00102326A4FE8327C4FEFD8B054732
:10337000B316F70037E700E08327C4FE95839387F1
:1033800007068A07BA9794C30100724405618280D8
:10339000011122CE00102326A4FEAE87A305F4FE61
:1033A00037E700E08327C4FEBA970347B4FE2380C3
:1033B000E7400100724405618280011106CE22CCF3
:1033C00000102326A4FE0325C4FE8D370100F24021
:1033D000624405618280011106CE22CC00102326B2
:1033E000A4FE0325C4FEA53F0100F240624405612E
:1033F0008280011106CE22CC00102326A4FEAE87C7
:10340000A305F4FE8347B4FEBE850325C4FE4937F9
:103410000100F240624405618280011106CE22CC97
:1034200000102326A4FE8327C4FE99C783A74188E2
:103430001387F7FF23A2E18883A7418891E3C93569
:103440000100F240624405618280411106C622C437
:10345000000883A7418891E3C13583A7418813877A
:10346000170023A2E18883A741883E85B240224409
:1034700041018280411106C622C400080145713F06
:103480000100B240224441018280797122D60018A5
:103490002326A4FE2724A4FE2722B4FE2720C4FE50
:1034A000272ED4FC272CE4FC8327C4FE872784FE28
:1034B0009CE38327C4FE872744FEDCE38327C4FE06
:1034C000872704FE9CE78327C4FE8727C4FD9CEF63
:1034D0008327C4FE872784FD9CF301003254456195
:1034E0008280797122D60018232EA4FC232CB4FCF0
:1034F000272AA4FC832784FDD3F707D0072744FDA0
:10350000D377F708D39707C02326F4FE8327C4FD9B
:10351000D86B8327C4FDD4638327C4FED3F707D0B9
:10352000D3F7F610D377F7008327C4FDDCEB8327AE
:10353000C4FDD86B8327C4FD9C6FD397E7A089C7D0
:103540008327C4FD9C6F21A08327C4FDDC6B8327E8
:10355000C4FDDCEB8327C4FDD86B8327C4FD9C6FBF
:10356000D397F720D317F7A099C78327C4FD9C6F83
:10357000D397F72021A08327C4FDDC6B8327C4FDEC
:10358000DCEB8327C4FD98638327C4FED3F707D001
:103590005377F7108327C4FDDC6B5377F70083273D
:1035A000C4FD94678327C4FE53F607D08327C4FD68
:1035B0009C6BD377F608D3F7F610D377F700D39741
:1035C00007C02324F4FE8327C4FED3F707D0832744
:1035D000C4FD9CEB832784FED3F707D08327C4FD6B
:1035E000DCEF8327C4FDD86F8327C4FD9C73D3977A
:1035F000E7A099C78327C4FD9C738327C4FDDCEF34
:103600008327C4FDD86F8327C4FD9C73D397F7200D
:10361000D317F7A091E309A88327C4FD9C73D39720
:10362000F7208327C4FDDCEF01003254456182801E
:10363000011106CE22CC00102326A4FE2324B4FEC2
:10364000832784FEDC6F530700F0D317F7A091E3C4
:1036500039AA8327C4FEDC6F530700F0D317F7A005
:10366000A9CF832784FED86F8327C4FEDC6FD3776E
:10367000F700B707002027A4F71C832784FEDC6F20
:10368000B70700209387871CDCE3B70700209387E8
:10369000871CDC63D39717C0BE85C167138537309D
:1036A000EFD06FEAB707002087A7871CD39717C012
:1036B000BE854165EFD02FE95DA88327C4FEDC6F8E
:1036C000530700F0D397E7A0A9CF832784FEDC6FD0
:1036D000B707002027A4F71C832784FED86F832711
:1036E000C4FEDC6FD377F708B70700209387871CE9
:1036F000DCE3B70700209387871CDC63D39717C0F0
:10370000BE85C16713853730EFD0EFE3B7070020E0
:1037100087A7871CD39717C0BE854165EFD0AFE25E
:10372000B9A0832784FEDC6FB707002027A4F71C0D
:10373000832784FEDC6FB70700209387871CDCE3B8
:10374000B70700209387871CDC63D39717C0BE851B
:10375000C16713853730EFD00FDFB707002087A789
:10376000871CD39717C0BE854165EFD0CFDD010020
:10377000F240624405618280411106C622C40008FD
:103780008D28930680071306C00BB767002093852A
:10379000C7600945EFE0FF8EF929EF005017054794
:1037A0002385E188EFE05FDB0100B2402244410164
:1037B0008280797122D60018AA872E87A30FF4FC85
:1037C000BA87230FF4FC232604FE232404FE834738
:1037D000F4FD2326F4FE8347E4FD2324F4FE0327AF
:1037E000C4FE832784FEB307F7403E85325445610B
:1037F0008280011106CE22CC0010130680079305AB
:10380000C00BB707002013850753CD28AA873E8732
:10381000A38CE18003C791812388E188A388018874
:10382000A30704FEC9A023A60188230704FE41A81C
:103830000346F4FE8347E4FE370700209306C00BDF
:10384000B306D602130707533697BA9703C7070084
:1038500083C701896374F700814719A09307F00FAC
:103860008345F4FE0347E4FEB76600201306C00B51
:103870003386C5029386C660B29636972300F7005A
:103880000346F4FE8347E4FE376700209306C00B2F
:10389000B306D6021307C7603697BA9703C7070067
:1038A0009307F00F6318F70083A7C18813871700E9
:1038B00023A6E1888347E4FE85072307F4FE034738
:1038C000E4FE9307B00BE3F5E7F603A7C188F547DD
:1038D00063C6E7000347F4FEA388E1888347F4FE4C
:1038E0008507A307F4FE0347F4FE93077007E3FC84
:1038F000E7F20100F240624405618280597186D688
:10390000A2D4CAD2CED0D2CED6CC8018232EA4F840
:10391000AE873287231DF4F8BA87231CF4F8A30F6F
:1039200004FC0357A4F9835784F9B307F70213D7AC
:10393000F7410D8BBA9789872320F4FC8327C4F9BC
:10394000232EF4FA232C04FC15A8B76700200327C4
:1039500084FD0A079387C7E0BA9723A00700B767DB
:103960000020032784FD0A079387C720BA9723A066
:103970000700832784FD8507232CF4FC032784FD9F
:103980009307F00FE3D3E7FC232804FC232C04FC6B
:1039900049A8232A04FC9DA80357A4F9832784FD82
:1039A0003307F702832744FDBA973E878327C4FB7A
:1039B000BA9783C70700376700209396270013073D
:1039C000C7E036971843050737660020939627000F
:1039D0009307C6E0B69798C30357A4F9832784FDDD
:1039E0003307F702832744FDBA973E878327C4FB3A
:1039F000BA9783C707003E87832704FDBA97232819
:103A0000F4FC832744FD8907232AF4FC8357A4F997
:103A1000032744FDE342F7F8832784FD8907232C1D
:103A2000F4FC835784F9032784FDE344F7F6232C41
:103A300004FC81A0B7670020032784FD0A07938751
:103A4000C7E0BA979C4353F707D0832704FCD3F70A
:103A500007D0D377F718B7670020032784FD0A073C
:103A60009387C720BA979CE3832784FD8507232C7F
:103A7000F4FC032784FD9307F00FE3DDE7FA23222C
:103A800004FC232C04FA872784FB272AF4FA8727CF
:103A900044FB2728F4FA872704FB2726F4FA872714
:103AA000C4FA2724F4FA872784FA2724F4FC87270A
:103AB00084FC2722F4FA872744FA2726F4FC232AD9
:103AC00004FC79A2B7670020032744FD0A07938707
:103AD000C720BA979C630727C4FCD377F700272633
:103AE000F4FC832744FD53F707D0B7670020032772
:103AF00044FD0A079387C720BA979C63D377F710D2
:103B0000072784FCD377F7002724F4FCC56707A7B1
:103B100007528727C4FCD377F7082722F4FA8327B4
:103B200004FC032704FDB357F70253F717D0872788
:103B300084FCD377F7082724F4FA072784FC872727
:103B4000C4FCD377F7182726F4FA072784FA8727C7
:103B500044FAD377F7182728F4FA072784FC872735
:103B600084FAD377F700272AF4FA0725C4FCEF90EC
:103B7000A00A2A89AE890727C4FA872744FBD3778E
:103B8000F7085385F720EF902009C56703A8C752AF
:103B900083A787523E86C286EF50E060AA872E88B0
:103BA0003E86C2864A85CE85EF70704CAA872E88E5
:103BB0003E89C289072544FAEF9000062A8AAE8A18
:103BC000072704FB872744FBD377F7085385F720A3
:103BD000EF908004C56703A8C75283A787523E862B
:103BE000C286EF50405CAA872E883E86C2865285E8
:103BF000D685EF70D047AA872E883E86C2864A8532
:103C0000CE85EF601007AA872E883E85C285EF908B
:103C1000200FD307A520272CF4FA072784FB87273A
:103C200044FCD397E7A089CB872784FB2722F4FCA9
:103C3000832744FDA30FF4FC072784FB872744FC5C
:103C4000D317F7A089EF832744FD8507232AF4FCC7
:103C5000032744FD9307F00FE3D6E7E611A0010028
:103C60008347F4FD3E85B650265416598659764A48
:103C7000E64A65618280011122CE0010A389018885
:103C800023890188B70700209387870D83C77707AB
:103C900099CBB70700209387870D03C77707930752
:103CA000B00B6317F7001307D005238DE18009A837
:103CB000B70700209387870D03C77707238DE1801F
:103CC00093077007A307F4FE83C7A1812307F4FEBF
:103CD000F5A80346F4FE8347E4FE37670020930609
:103CE000C00BB306D6021307C7603697BA9783C7CF
:103CF0000700D9E30346F4FE8347E4FE85073767F0
:103D000000209306C00BB306D6021307C760369790
:103D1000BA9783C70700ADE30346F4FE8347E4FE8A
:103D20008907376700209306C00BB306D602130736
:103D3000C7603697BA9783C707009DEF83C711897D
:103D40000347F4FE637EF7000347F4FEB7C7002085
:103D5000938747EABA971307B0FB2380E700BDA813
:103D60000347F4FEB7C70020938747EABA97034793
:103D7000E4FE2380E7009DA00347E4FE9307A00B29
:103D80006311F7040347F4FEB7C70020938747EA9F
:103D9000BA971307B0FB2380E70083C71189034755
:103DA000F4FE63FCE7020347F4FE9307B00663E604
:103DB000E70283C73189850713F7F70FA389E188E5
:103DC00029A88347E4FE85072307F4FE0347E4FEA2
:103DD0009307B00BE3FFE7EE11A0010083C7A181B9
:103DE000A306F4FE0346F4FE8347D4FE37670020A3
:103DF0009306C00BB306D6021307C7603697BA976F
:103E000083C70700C9E30346F4FE8347D4FEFD17CA
:103E1000376700209306C00BB306D6021307C760AE
:103E20003697BA9783C70700B9EF0346F4FE834776
:103E3000D4FEF917376700209306C00BB306D602ED
:103E40001307C7603697BA9783C707008DEF83C7FC
:103E500011890347F4FE637CF7000347F4FEB7C7FC
:103E600000209387C7E2BA9723800700A5A00347E5
:103E7000F4FEB7C700209387C7E2BA970347D4FE82
:103E80002380E70081A88347D4FE95EF0347F4FE23
:103E9000B7C700209387C7E2BA972380070083C77C
:103EA00011890347F4FE63F6E7020347F4FE930724
:103EB000B00663E0E70283C72189850713F7F70F90
:103EC0002389E18839A08347D4FEFD17A306F4FEB9
:103ED00011BF01000347F4FEB7C70020938747EAEC
:103EE000BA9703C707009307B00B6315F70403479E
:103EF000F4FEB7C700209387C7E2BA9783C70700CD
:103F000095EB8347F4FE138717008346F4FEB7074B
:103F100000209387870DBA9703C70700B7070020D3
:103F20009387870DB6972380E7001307D005238D6D
:103F3000E18095A20347F4FEB7C70020938747EAC4
:103F4000BA9703C707009307B00B6316F70603473A
:103F5000F4FEB7C700209387C7E2BA9783C707006C
:103F6000B9CB0347F4FEB7C700209387C7E2BA97DF
:103F700003C707008346F4FEB707002093870715A1
:103F8000B69783C707008346F4FEBA9713F7F70F77
:103F9000B70700209387870DB6972380E700034774
:103FA000F4FEB70700209387870DBA9703C7070071
:103FB000238DE180CDA00347F4FEB7C7002093878F
:103FC000C7E2BA9783C70700ADEB0347F4FEB7C754
:103FD0000020938747EABA9703C707009307B00BFF
:103FE000630DF7040347F4FEB7C70020938747EA41
:103FF000BA9703C707008346F4FEB70700209387EC
:104000000715B69783C707008346F4FEB307F7404A
:1040100013F7F70FB70700209387870DB697238014
:10402000E7000347F4FEB70700209387870DBA9790
:1040300003C70700238DE180B9A80347F4FEB7C783
:104040000020938747EABA9783C70700BE860347D5
:10405000F4FEB7C700209387C7E2BA9783C707006B
:10406000B69713D7F701BA9785878346F4FE13F7FF
:10407000F70FB70700209387870DB6972380E700D7
:104080000347F4FEB70700209387870DBA9703C74D
:104090000700238DE1800347F4FE8346F4FEB70753
:1040A00000209387870DBA9703C70700B707002042
:1040B0009387870DB6972380E7000347F4FEB70781
:1040C00000209387870DBA9783C707008346F4FEC5
:1040D00013F6F70F1307B00B6374C7009307B0FB19
:1040E00013F7F70FB70700209387870DB697238044
:1040F000E7008347F4FE99C78347F4FEFD17A30743
:10410000F4FED9B6010001007244056182800111FC
:1041100006CE22CC001093077007A307F4FE2316E7
:1041200004FE0347F4FEB7C70020938747EABA9717
:1041300003C707009307B00B631AF7120347F4FE97
:10414000B7C700209387C7E2BA9783C70700639F6A
:10415000071083C75189639B071083C761896397E1
:1041600007100347F4FE93077007631EF700034729
:10417000F4FEB70700209387870DBA971307D00581
:104180002380E7002DA08347F4FE138717008346A2
:10419000F4FEB70700209387870DBA9703C707007F
:1041A000B70700209387870DB6972380E7008346E3
:1041B000F4FE0347F4FEB70700209387870DBA97F4
:1041C00083C707003E86B76700201307C00B3387FD
:1041D000E6029387C760BA97B29783C707009DEB43
:1041E0000347F4FE9307100763E6E7028347F4FEF4
:1041F000138757008346F4FEB70700209387870D87
:10420000BA9703C70700B70700209387870DB697B3
:104210002380E7008346F4FE0347F4FEB70700203F
:104220009387870DBA9783C707003E86B76700203C
:104230001307C00B3387E6029387C760BA97B2971C
:1042400083C70700639907540347F4FE93072007C9
:1042500063F3E7540347F4FEB70700209387870D05
:10426000BA971307D0052380E70035A30347F4FE70
:10427000B7C70020938747EABA9703C70700930799
:10428000B00B6311F7060347F4FEB7C7002093870E
:10429000C7E2BA9783C70700B1C783C75189B9E39B
:1042A00083C76189A1E30347F4FEB7C70020938762
:1042B000C7E2BA9703C707008346F4FEB70700209A
:1042C00093870715B69783C707008346F4FEBA970E
:1042D00013F7F70FB70700209387870DB697238052
:1042E000E7005DA90347F4FEB7C700209387C7E244
:1042F000BA9783C70700A5E70347F4FEB7C70020B6
:10430000938747EABA9703C707009307B00B630880
:10431000F70483C75189A1E783C76189A9E30347EC
:10432000F4FEB7C70020938747EABA9703C7070090
:104330008346F4FEB707002093870715B69783C717
:1043400007008346F4FEB307F74013F7F70FB707EC
:1043500000209387870DB6972380E70035A9034790
:10436000F4FEB7C700209387C7E2BA9783C7070058
:10437000DDE70347F4FEB7C70020938747EABA9703
:1043800003C707009307B00B630BF70803C75189F6
:1043900085476316F70883C76189D1E30347F4FEB5
:1043A000B7C70020938747EABA9703C70700834639
:1043B000F4FEB707002093870706B69783C7070068
:1043C000637CF7000347F4FEB70700209387870D4F
:1043D000BA9723800700C9A60347F4FEB7C7002099
:1043E000938747EABA9703C707008346F4FEB707E7
:1043F000002093870706B69783C70700B307F740E7
:1044000093F7F70F8346F4FE990713F7F70FB707F3
:1044100000209387870DB6972380E700B5AE03474A
:10442000F4FEB7C70020938747EABA9703C707008F
:104430009307B00B631BF70A0347F4FEB7C70020CE
:104440009387C7E2BA9783C70700C5C303C75189DB
:104450008547631CF70883C76189C1EB0347F4FEF6
:10446000B7C700209387C7E2BA9783C70700BE8605
:104470000347F4FEB707002093870706BA9783C760
:1044800007003387F6009307B00B63DEE7000347AE
:10449000F4FEB70700209387870DBA971307B0FB88
:1044A0002380E700D5AC0347F4FEB7C7002093870D
:1044B000C7E2BA9703C707008346F4FEB707002098
:1044C00093870706B69783C70700BA9793F7F70F46
:1044D0008346F4FEE91713F7F70FB7070020938719
:1044E000870DB6972380E70045AC0347F4FEB7C7B6
:1044F0000020938747EABA9703C707009307B00BDA
:10450000631FF7080347F4FEB7C700209387C7E28D
:10451000BA9783C70700C1C703C74189854763109E
:10452000F70883C75189A5EF83C76189ADEB0347BE
:10453000F4FEB7C700209387C7E2BA9703C7070006
:104540009307100763FEE7000347F4FEB707002058
:104550009387870DBA971307B0FB2380E7002DAC34
:104560000347F4FEB7C700209387C7E2BA9703C793
:1045700007008346F4FEB707002093870706B69727
:1045800083C707008346F4FEBA9713F7F70FB70700
:1045900000209387870DB6972380E700F5AA03478D
:1045A000F4FEB7C700209387C7E2BA9783C7070016
:1045B000C5E30347F4FEB7C70020938747EABA97DD
:1045C00003C707009307B00B6304F70803C74189CB
:1045D0008547631FF70683C75189BDEB83C7618990
:1045E000A5EB0347F4FEB7C70020938747EABA97C5
:1045F00003C707009307A00463ECE7000347F4FE3A
:10460000B70700209387870DBA972380070069A218
:104610000347F4FEB7C70020938747EABA9703C75A
:1046200007008346F4FEB707002093870706B69776
:1046300083C707008346F4FEB307F74013F7F70F6D
:10464000B70700209387870DB6972380E700A9A2BC
:104650000347F4FEB7C70020938747EABA9783C79A
:104660000700BE860347F4FEB7C700209387C7E262
:10467000BA9783C70700B69713D7F701BA9785870C
:104680008346F4FE13F7F70FB70700209387870DD3
:10469000B6972380E7008346F4FE0347F4FEB7078E
:1046A00000209387870DBA9783C707003E86B767B8
:1046B00000201307C00B3387E6029387C760BA97C1
:1046C000B29783C70700B9E70347F4FE93072007B3
:1046D00063E7E7028347F4FE138757008346F4FE3F
:1046E000B70700209387870DBA9703C70700B7075E
:1046F00000209387870DB6972380E70021A8034702
:10470000F4FEB70700209387870DBA971307D005EB
:104710002380E7009307C003A305F4FE3DA00347F1
:10472000B4FEB70700209387870DBA9783C70700A9
:104730001397070141838357C4FEBA972316F4FEEB
:104740008347B4FE8507A305F4FE0347B4FE930731
:104750007007E3F6E7FC0357C4FE9307C003B357A3
:10476000F7021397070141832394E18881480148A8
:10477000814737C70020130747EAB7060020938612
:10478000860D37C600201306C6E293058007014553
:10479000EFD0DF9611A001000347F4FE9307500706
:1047A00063EEE7080347F4FEB7C70020938747EAA4
:1047B000BA9703C707009307B00B6311F7080347C5
:1047C000F4FEB7C700209387C7E2BA9783C70700F4
:1047D000B5E70347F4FEB70700209387870DBA9724
:1047E00003C7070083C7B181BE853A85EFE07FFC30
:1047F0002A87C54763C5E7020347F4FEB7070020D1
:104800009387870DBA9703C7070083C7B181BE8519
:104810003A85EFE01FFA2A87BD576351F70283C735
:10482000518989EF8346F4FE03C7B181B7070020A1
:104830009387870DB6972380E70021A80347F4FEEE
:10484000B70700209387870DBA9703C70700A38D8A
:10485000E1800347F4FE8346F4FEB7070020938708
:10486000870DBA9703C70700B70700209387870D06
:10487000B6972380E7000347F4FEB707002093872D
:10488000870DBA9783C707008346F4FE13F6F70F28
:104890001307B00B6374C7009307B0FB13F7F70F50
:1048A000B70700209387870DB6972380E7008347DB
:1048B000F4FE81CB8347F4FEFD17A307F4FE6FF0EF
:1048C0001F8601000100F24062440561828035715B
:1048D00006CF16CD1ACB1EC922C72AC52EC332C198
:1048E000B6DEBADCBEDAC2D8C6D6F2D4F6D2FAD078
:1048F000FECE82E686E48AE28EE012FE16FC1AFA0A
:104900001EF82AF62EF432F236F03AEE3EEC42EA87
:1049100046E872E676E47AE27EE0001193055052B2
:10492000B747014013850780EF30100DAA8789CB68
:1049300093055052B747014013850780EF30F01BB5
:104940000100FA40EA425A43CA433A442A459A458A
:104950000A46F6566657D6574658B658265E965EAD
:10496000065FF64F3660A660166186617272E2726B
:104970005273C2733275A275127682767267E267DD
:104980005268C268326EA26E126F826F0D61730040
:104990002030357106CF16CD1ACB1EC922C72AC5C5
:1049A0002EC332C1B6DEBADCBEDAC2D8C6D6F2D465
:1049B000F6D2FAD0FECE82E686E48AE28EE012FEDD
:1049C00016FC1AFA1EF82AF62EF432F236F03AEEF7
:1049D0003EEC42EA46E872E676E47AE27EE00011D6
:1049E00093055052B747004013850740EF30D00081
:1049F000AA8789CB93055052B747004013850740DB
:104A0000EF30B00F0100FA40EA425A43CA433A4439
:104A10002A459A450A46F6566657D6574658B65816
:104A2000265E965E065FF64F3660A660166186616A
:104A30007272E2725273C2733275A2751276827606
:104A40007267E2675268C268326EA26E126F826F3E
:104A50000D6173002030357106CF16CD1ACB1EC9FB
:104A600022C72AC52EC332C1B6DEBADCBEDAC2D82E
:104A7000C6D6F2D4F6D2FAD0FECE82E686E48AE238
:104A80008EE012FE16FC1AFA1EF82AF62EF432F206
:104A900036F03AEE3EEC42EA46E872E676E47AE236
:104AA0007EE0001193055052B757004013850780F0
:104AB000EF308074AA8789CB93055052B7570040D6
:104AC00013850780EF3070030100FA40EA425A4331
:104AD000CA433A442A459A450A46F6566657D65777
:104AE0004658B658265E965E065FF64F3660A6605C
:104AF000166186617272E2725273C2733275A27568
:104B0000127682767267E2675268C268326EA26E6F
:104B1000126F826F0D6173002030357106CF16CD94
:104B20001ACB1EC922C72AC52EC332C1B6DEBADCD3
:104B3000BEDAC2D8C6D6F2D4F6D2FAD0FECE82E61B
:104B400086E48AE28EE012FE16FC1AFA1EF82AF6B5
:104B50002EF432F236F03AEE3EEC42EA46E872E6E5
:104B600076E47AE27EE0001193055052B757004098
:104B7000138507C0EF304068AA8789CB9305505250
:104B8000B7570040138507C0EF3020770100FA4087
:104B9000EA425A43CA433A442A459A450A46F656D7
:104BA0006657D6574658B658265E965E065FF64F4D
:104BB0003660A660166186617272E2725273C273C9
:104BC0003275A275127682767267E2675268C268A1
:104BD000326EA26E126F826F0D61730020303571DC
:104BE00006CF16CD1ACB1EC922C72AC52EC332C185
:104BF000B6DEBADCBEDAC2D8C6D6F2D4F6D2FAD065
:104C0000FECE82E686E48AE28EE012FE16FC1AFAF6
:104C10001EF82AF62EF432F236F03AEE3EEC42EA74
:104C200046E872E676E47AE27EE00011930550529F
:104C300037550040EF30405CAA8781CFB70700208E
:104C400083A7C73F82979305505237550040EF30F6
:104C5000C06A0100FA40EA425A43CA433A442A452C
:104C60009A450A46F6566657D6574658B658265EAF
:104C7000965E065FF64F3660A660166186617272B8
:104C8000E2725273C2733275A275127682767267BF
:104C9000E2675268C268326EA26E126F826F0D6157
:104CA00073002030357106CF16CD1ACB1EC922C72E
:104CB0002AC52EC332C1B6DEBADCBEDAC2D8C6D629
:104CC000F2D4F6D2FAD0FECE82E686E48AE28EE014
:104CD00012FE16FC1AFA1EF82AF62EF432F236F0FC
:104CE0003AEE3EEC42EA46E872E676E47AE27EE0AC
:104CF000001193055052B727004013850780EF300D
:104D0000A04FAA8789CB93055052B727004013853F
:104D10000780EF30805E0100FA40EA425A43CA43FE
:104D20003A442A459A450A46F6566657D657465893
:104D3000B658265E965E065FF64F3660A660166130
:104D400086617272E2725273C2733275A275127604
:104D500082767267E2675268C268326EA26E126F24
:104D6000826F0D6173002030357106CF16CD1ACBDE
:104D70001EC922C72AC52EC332C1B6DEBADCBEDACE
:104D8000C2D8C6D6F2D4F6D2FAD0FECE82E686E4F7
:104D90008AE28EE012FE16FC1AFA1EF82AF62EF4AB
:104DA00032F236F03AEE3EEC42EA46E872E676E45B
:104DB0007AE27EE0001193055052B7270040138538
:104DC00007C0EF306043AA8799CBEF10602B9305A3
:104DD0005052B7270040138507C0EF300052010042
:104DE000FA40EA425A43CA433A442A459A450A4697
:104DF000F6566657D6574658B658265E965E065FF4
:104E0000F64F3660A660166186617272E272527366
:104E1000C2733275A275127682767267E267526843
:104E2000C268326EA26E126F826F0D617300203005
:104E3000357106CF16CD1ACB1EC922C72AC52EC37F
:104E400032C1B6DEBADCBEDAC2D8C6D6F2D4F6D2E9
:104E5000FAD0FECE82E686E48AE28EE012FE16FCEE
:104E60001AFA1EF82AF62EF432F236F03AEE3EEC3A
:104E700042EA46E872E676E47AE27EE000119305C3
:104E8000505237250040EF302037AA8789CBEF10EA
:104E900020629305505237250040EF300046010054
:104EA000FA40EA425A43CA433A442A459A450A46D6
:104EB000F6566657D6574658B658265E965E065F33
:104EC000F64F3660A660166186617272E2725273A6
:104ED000C2733275A275127682767267E267526883
:104EE000C268326EA26E126F826F0D617300203045
:104EF000357106CF16CD1ACB1EC922C72AC52EC3BF
:104F000032C1B6DEBADCBEDAC2D8C6D6F2D4F6D228
:104F1000FAD0FECE82E686E48AE28EE012FE16FC2D
:104F20001AFA1EF82AF62EF432F236F03AEE3EEC79
:104F300042EA46E872E676E47AE27EE00011B707DC
:104F4000055083C7070193F7F70F918B8DC383A794
:104F500081808297B707055083C7070113F7F70FC2
:104F6000B70705506D9B1377F70F2388E700010003
:104F7000FA40EA425A43CA433A442A459A450A4605
:104F8000F6566657D6574658B658265E965E065F62
:104F9000F64F3660A660166186617272E2725273D5
:104FA000C2733275A275127682767267E2675268B2
:104FB000C268326EA26E126F826F0D617300203074
:104FC000357106CF16CD1ACB1EC922C72AC52EC3EE
:104FD00032C1B6DEBADCBEDAC2D8C6D6F2D4F6D258
:104FE000FAD0FECE82E686E48AE28EE012FE16FC5D
:104FF0001AFA1EF82AF62EF432F236F03AEE3EECA9
:1050000042EA46E872E676E47AE27EE0001105457F
:10501000EF10E07D2A8785476315F7000545EF10FF
:1050200070020100FA40EA425A43CA433A442A4510
:105030009A450A46F6566657D6574658B658265EDB
:10504000965E065FF64F3660A660166186617272E4
:10505000E2725273C2733275A275127682767267EB
:10506000E2675268C268326EA26E126F826F0D6183
:1050700073002030357106CF16CD1ACB1EC922C75A
:105080002AC52EC332C1B6DEBADCBEDAC2D8C6D655
:10509000F2D4F6D2FAD0FECE82E686E48AE28EE040
:1050A00012FE16FC1AFA1EF82AF62EF432F236F028
:1050B0003AEE3EEC42EA46E872E676E47AE27EE0D8
:1050C00000110945EF10A0722A8785476315F70084
:1050D0000945EF1020770100FA40EA425A43CA43DB
:1050E0003A442A459A450A46F6566657D6574658D0
:1050F000B658265E965E065FF64F3660A66016616D
:1051000086617272E2725273C2733275A275127640
:1051100082767267E2675268C268326EA26E126F60
:10512000826F0D6173002030357106CF16CD1ACB1A
:105130001EC922C72AC52EC332C1B6DEBADCBEDA0A
:10514000C2D8C6D6F2D4F6D2FAD0FECE82E686E433
:105150008AE28EE012FE16FC1AFA1EF82AF62EF4E7
:1051600032F236F03AEE3EEC42EA46E872E676E497
:105170007AE27EE000111145EF1060672A878547CB
:105180006315F7001145EF10E06B0100FA40EA42A9
:105190005A43CA433A442A459A450A46F656665740
:1051A000D6574658B658265E965E065FF64F36606E
:1051B000A660166186617272E2725273C2733275B2
:1051C000A275127682767267E2675268C268326EA2
:1051D000A26E126F826F0D6173002030357106CFA1
:1051E00016CD1ACB1EC922C72AC52EC332C1B6DEC0
:1051F000BADCBEDAC2D8C6D6F2D4F6D2FAD0FECE27
:1052000082E686E48AE28EE012FE16FC1AFA1EF8A6
:105210002AF62EF432F236F03AEE3EEC42EA46E856
:1052200072E676E47AE27EE000112145EF10205C20
:105230002A8785476315F7002145EF10A06001001C
:10524000FA40EA425A43CA433A442A459A450A4632
:10525000F6566657D6574658B658265E965E065F8F
:10526000F64F3660A660166186617272E272527302
:10527000C2733275A275127682767267E2675268DF
:10528000C268326EA26E126F826F0D6173002030A1
:10529000357106CF16CD1ACB1EC922C72AC52EC31B
:1052A00032C1B6DEBADCBEDAC2D8C6D6F2D4F6D285
:1052B000FAD0FECE82E686E48AE28EE012FE16FC8A
:1052C0001AFA1EF82AF62EF432F236F03AEE3EECD6
:1052D00042EA46E872E676E47AE27EE00011414571
:1052E000EF10E0502A8785476315F7004145EF101E
:1052F00060550100FA40EA425A43CA433A442A45FB
:105300009A450A46F6566657D6574658B658265E08
:10531000965E065FF64F3660A66016618661727211
:10532000E2725273C2733275A27512768276726718
:10533000E2675268C268326EA26E126F826F0D61B0
:1053400073002030357106CF16CD1ACB1EC922C787
:105350002AC52EC332C1B6DEBADCBEDAC2D8C6D682
:10536000F2D4F6D2FAD0FECE82E686E48AE28EE06D
:1053700012FE16FC1AFA1EF82AF62EF432F236F055
:105380003AEE3EEC42EA46E872E676E47AE27EE005
:10539000001113050002EF1080452A878547631628
:1053A000F70013050002EF10E04913050004EF10A9
:1053B00000442A8785476316F70013050004EF10A1
:1053C000604813050008EF1080422A87854763165E
:1053D000F70013050008EF10E04613050010EF106A
:1053E00000412A8785476316F70013050010EF1068
:1053F000604513050020EF10803F2A87854763161C
:10540000F70013050020EF10E0430100FA40EA42E4
:105410005A43CA433A442A459A450A46F6566657BD
:10542000D6574658B658265E965E065FF64F3660EB
:10543000A660166186617272E2725273C27332752F
:10544000A275127682767267E2675268C268326E1F
:10545000A26E126F826F0D6173002030357106CF1E
:1054600016CD1ACB1EC922C72AC52EC332C1B6DE3D
:10547000BADCBEDAC2D8C6D6F2D4F6D2FAD0FECEA4
:1054800082E686E48AE28EE012FE16FC1AFA1EF824
:105490002AF62EF432F236F03AEE3EEC42EA46E8D4
:1054A00072E676E47AE27EE0001113050040EF1028
:1054B00000342A8785476316F70013050040EF1074
:1054C0006038856713850780EF1060322A8785472B
:1054D0006317F700856713850780EF10A036056511
:1054E000EF10E0302A8785476315F7000565EF1058
:1054F00060350965EF10A02F2A8785476318F700EC
:1055000083A7C18082970965EF10C0331165EF1042
:10551000002E2A8785476317F700EFC03F95116576
:10552000EF1040322165EF10802C2A8785476317E2
:10553000F700EFC05F842165EF10C0300100FA4032
:10554000EA425A43CA433A442A459A450A46F6561D
:105550006657D6574658B658265E965E065FF64F93
:105560003660A660166186617272E2725273C2730F
:105570003275A275127682767267E2675268C268E7
:10558000326EA26E126F826F0D6173002030357122
:1055900006CF16CD1ACB1EC922C72AC52EC332C1CB
:1055A000B6DEBADCBEDAC2D8C6D6F2D4F6D2FAD0AB
:1055B000FECE82E686E48AE28EE012FE16FC1AFA3D
:1055C0001EF82AF62EF432F236F03AEE3EEC42EABB
:1055D00046E872E676E47AE27EE000118545B73768
:1055E0000140138507C0EF20807AAA8781CB8545CB
:1055F000B7370140138507C0EF2070000100FA4063
:10560000EA425A43CA433A442A459A450A46F6565C
:105610006657D6574658B658265E965E065FF64FD2
:105620003660A660166186617272E2725273C2734E
:105630003275A275127682767267E2675268C26826
:10564000326EA26E126F826F0D6173002030357161
:1056500006CF16CD1ACB1EC922C72AC52EC332C10A
:10566000B6DEBADCBEDAC2D8C6D6F2D4F6D2FAD0EA
:10567000FECE82E686E48AE28EE012FE16FC1AFA7C
:105680001EF82AF62EF432F236F03AEE3EEC42EAFA
:1056900046E872E676E47AE27EE000118545370559
:1056A0000040EF20C06EAA8791CB854537050040AA
:1056B000EF20E07413052008EFB00FAB0100FA40B3
:1056C000EA425A43CA433A442A459A450A46F6569C
:1056D0006657D6574658B658265E965E065FF64F12
:1056E0003660A660166186617272E2725273C2738E
:1056F0003275A275127682767267E2675268C26866
:10570000326EA26E126F826F0D61730020303571A0
:1057100006CF16CD1ACB1EC922C72AC52EC332C149
:10572000B6DEBADCBEDAC2D8C6D6F2D4F6D2FAD029
:10573000FECE82E686E48AE28EE012FE16FC1AFABB
:105740001EF82AF62EF432F236F03AEE3EEC42EA39
:1057500046E872E676E47AE27EE000118545B70716
:10576000004013850740EF208062AA8789CB8545DA
:10577000B707004013850740EF206068192F01002C
:10578000FA40EA425A43CA433A442A459A450A46ED
:10579000F6566657D6574658B658265E965E065F4A
:1057A000F64F3660A660166186617272E2725273BD
:1057B000C2733275A275127682767267E26752689A
:1057C000C268326EA26E126F826F0D61730020305C
:1057D000357106CF16CD1ACB1EC922C72AC52EC3D6
:1057E00032C1B6DEBADCBEDAC2D8C6D6F2D4F6D240
:1057F000FAD0FECE82E686E48AE28EE012FE16FC45
:105800001AFA1EF82AF62EF432F236F03AEE3EEC90
:1058100042EA46E872E676E47AE27EE000118545E7
:10582000B717004013850780EF206056AA8781CB09
:105830008545B717004013850780EF20405C0100C5
:10584000FA40EA425A43CA433A442A459A450A462C
:10585000F6566657D6574658B658265E965E065F89
:10586000F64F3660A660166186617272E2725273FC
:10587000C2733275A275127682767267E2675268D9
:10588000C268326EA26E126F826F0D61730020309B
:10589000357106CF16CD1ACB1EC922C72AC52EC315
:1058A00032C1B6DEBADCBEDAC2D8C6D6F2D4F6D27F
:1058B000FAD0FECE82E686E48AE28EE012FE16FC84
:1058C0001AFA1EF82AF62EF432F236F03AEE3EECD0
:1058D00042EA46E872E676E47AE27EE00011854527
:1058E000B7170040138507C0EF20604AAA8781CB15
:1058F0008545B7170040138507C0EF2040500100D1
:10590000FA40EA425A43CA433A442A459A450A466B
:10591000F6566657D6574658B658265E965E065FC8
:10592000F64F3660A660166186617272E27252733B
:10593000C2733275A275127682767267E267526818
:10594000C268326EA26E126F826F0D6173002030DA
:10595000357106CF16CD1ACB1EC922C72AC52EC354
:1059600032C1B6DEBADCBEDAC2D8C6D6F2D4F6D2BE
:10597000FAD0FECE82E686E48AE28EE012FE16FCC3
:105980001AFA1EF82AF62EF432F236F03AEE3EEC0F
:1059900042EA46E872E676E47AE27EE00011854566
:1059A00037150040EF20A03EAA8791C785453715DF
:1059B0000040EF20C0440100FA40EA425A43CA4383
:1059C0003A442A459A450A46F6566657D6574658E7
:1059D000B658265E965E065FF64F3660A660166184
:1059E00086617272E2725273C2733275A275127658
:1059F00082767267E2675268C268326EA26E126F78
:105A0000826F0D6173002030357106CF16CD1ACB31
:105A10001EC922C72AC52EC332C1B6DEBADCBEDA21
:105A2000C2D8C6D6F2D4F6D2FAD0FECE82E686E44A
:105A30008AE28EE012FE16FC1AFA1EF82AF62EF4FE
:105A400032F236F03AEE3EEC42EA46E872E676E4AE
:105A50007AE27EE000118545B717004013850740C4
:105A6000EF20E032AA8781CB8545B7170040138528
:105A70000740EF20C0380100FA40EA425A43CA43C7
:105A80003A442A459A450A46F6566657D657465826
:105A9000B658265E965E065FF64F3660A6601661C3
:105AA00086617272E2725273C2733275A275127697
:105AB00082767267E2675268C268326EA26E126FB7
:105AC000826F0D6173002030357106CF16CD1ACB71
:105AD0001EC922C72AC52EC332C1B6DEBADCBEDA61
