:100000006F30517B1300000013000000130000004C
:100010001300000013000000130000001300000094
:100020001300000013000000130000001300000084
:08003000130000007300100032
:100038000000000000000000DA300100EA30010092
:1000480000000000FA3E010000000000000000006F
:10005800FC3E0100FE3E0100000000000000000020
:10006800003F010000000000023F01000000000006
:10007800043F0100063F0100083F01000A3F01005C
:100088000C3F01000E3F01008C23010040240100B9
:10009800F4240100A82501005C2601001A3F010094
:1000A8001C3F01001E3F0100203F0100223F0100CC
:1000B800243F0100263F0100283F01002A3F01009C
:1000C8002C3F01002E3F0100303F010010270100A6
:1000D800343F010062290100383F01003A3F010026
:1000E800222A0100E22A0100AA2B0100423F010056
:1000F800443F0100463F0100483F01004A3F0100DC
:100108004C3F01009E1C0100621D0100261E0100DB
:100118002C280100563F0100583F01005A3F0100BA
:10012800A22E01005E3F0100603F0100623F010016
:10013800643F0100663F01006A2C01006A3F01002C
:10014800EA1E0100AE1F01002A2D0100E22D010068
:10015800743F0100763F0100783F01007A3F0100BB
:100168007C3F01007E3F0100803F0100823F01008B
:10017800843F0100863F0100883F01008C61010037
:100188008C3F01008E3F0100BC220100702001005D
:1001980034210100FC210100983F0100622F010079
:1001A8009C3F01009E3F0100A03F0100223001005A
:1001B800A43F0100A63F0100A83F0100AA3F01009B
:1001C800AC3F0100AE3F0100B03F0100B23F01006B
:1001D8000000000000000000000000000000000017
:1001E8000000000000000000000000000000000007
:0801F8000000000000000000FF
:100200003D432A876373C3029377F700BDEFADE5E3
:10021000937606FF3D8ABA960CC34CC30CC74CC7F5
:100220004107E36BD7FE11E28280B306C3408A0622
:100230009702000096966780A6002307B700A306E2
:10024000B7002306B700A305B7002305B700A30432
:10025000B7002304B700A303B7002303B700A3022A
:10026000B7002302B700A301B7002301B700A30022
:10027000B7002300B700828093F5F50F93968500B1
:10028000D58D93960501D58D61B79396270097027A
:10029000000096968682E78086FA9680C1171D8FA9
:1002A0003E96E374C3F8A5B73367B500FD530D8BD5
:1002B00079E7B7877F7F9387F7F710419441B3724F
:1002C000F6003363F600BE92B3E262006397720CED
:1002D0006318D6065041D441B372F6003363F6007A
:1002E000BE92B3E262006398720A631BD6041045A3
:1002F0009445B372F6003363F600BE92B3E2620037
:100300006391720A631ED6025045D445B372F6005B
:100310003363F600BE92B3E26200639A720863111F
:10032000D60210499449B372F6003363F600BE92C8
:10033000B3E26200639372085105D105E30FD6F66C
:100340001317060193970601631CF7001357060164
:1003500093D706013305F7409375F50F91E9828035
:100360004183C1833305F7409375F50F91E1828096
:100370001377F70F93F7F70F3305F74082800346A3
:10038000050083C60500050585056313D60065FADB
:100390003305D640828011059105E312D6FE014552
:1003A00082802105A105E31CD6FC01458280310530
:1003B000B105E316D6FC014582804105C105E31075
:1003C000D6FC01458280011122CE00102326A4FE16
:1003D00037F500E08328450037F500E093F8E8FFA3
:1003E0002322150183A8C1810965130505F433D5BE
:1003F000A802AA8601470325C4FEAA87014837F54B
:1004000000E03303F702B308D8029A983383F60268
:1004100033B6F6029A85B387C8003E860CC950C928
:10042000B7F700E09843B7F700E01367070198C3F8
:10043000B7F700E09843B7F700E01367170298C3D7
:100440000100B7F700E0DC4313F717008547E31A14
:10045000F7FEB7F700E09843B7F700E0799B98C341
:100460000100724405618280011122CE0010232612
:10047000A4FE37F500E08328450037F500E093F847
:10048000E8FF2322150183A8C18137157A001305DF
:10049000052033D5A802AA8601470325C4FEAA87F2
:1004A000014837F500E03303F702B308D8029A9801
:1004B0003383F60233B6F6029A85B387C8003E86C8
:1004C0000CC950C9B7F700E09843B7F700E01367CD
:1004D000070198C3B7F700E09843B7F700E0136748
:1004E000170298C30100B7F700E0DC4313F71700C9
:1004F0008547E31AF7FEB7F700E09843B7F700E047
:10050000799B98C30100724405618280011106CE77
:1005100022CC0010AA8E2E8E32833685BA853E8676
:10052000C2864687F687A307F4FEF2872307F4FE08
:100530009A87A306F4FEAA872306F4FEAE87A305D6
:10054000F4FEB2872305F4FEB687A304F4FEBA874F
:100550002304F4FE8347F4FE93068004014681459C
:100560003E85EF0050048347E4FE93068004014675
:1005700081453E85EF0030038347D4FE9306800417
:10058000014681453E85EF0010028347C4FE930675
:100590008004014681453E85EF00F0008347B4FEAC
:1005A00093068004014681453E85EF00C07F834766
:1005B000A4FE93068004014681453E85EF00A07E9F
:1005C000834794FE93068004014681453E85EF00F3
:1005D000807D834784FE93068004014681453E85E5
:1005E000EF00607C83474400930680040146814508
:1005F0003E85EF00407B834704009306800401465C
:1006000081453E85EF00207A83478400930680046D
:10061000014681453E85EF0000790100F2406244C9
:1006200005618280011106CE22CC00102326A4FE93
:100630002324B4FEB28736872313F4FEBA8723122D
:10064000F4FE85450965EF400137B70705500D47B2
:100650002380E700B70705500547A380E700B707E9
:100660000550035744FE2392E700B7070550035790
:1006700064FE2393E700B70705500327C4FE98C71D
:10068000B7070550032784FED8C7B70705501147A1
:100690002381E700814513056005EF70A044130531
:1006A0006005EF7060400100F240624405618280A5
:1006B000797106D622D40018232EA4FC231704FE39
:1006C000231604FE0327C4FDA54763E1E70C832737
:1006D000C4FD13972700B707020093874728BA97EE
:1006E0009C438287B7370140938707C083D747026F
:1006F000C207C1832317F4FE69A8B707004083D758
:100700004702C207C1832317F4FE61A0B707004068
:100710009387074083D74702C207C1832317F4FE9C
:100720008DA8B71700409387078083D74702C20779
:10073000C1832317F4FEB1A8B7170040938707C001
:1007400083D74702C207C1832317F4FE99A0B737A6
:1007500001409387074083D74702C207C18323170D
:10076000F4FE05A8B7570140938707C083D7470217
:10077000C207C1832317F4FE29A8B757014083D7C6
:100780004702C207C1832317F4FE21A0231704FEEA
:100790000100B7070020138707048327C4FDBA9719
:1007A00083C7070013F7F70F9307F00F6317F700DE
:1007B0008357E4FE2316F4FE2DA8B7070020138705
:1007C00007048327C4FDBA9783C7070093F7F70F81
:1007D0003E852523AA8791EB8357E4FEB307F040BB
:1007E000C207C1832316F4FE29A08357E4FE231613
:1007F000F4FE8317C4FE3E85B250225445618280C8
:10080000011122CE00102326A4FE0327C4FEA54713
:1008100063E1E7088327C4FE13972700B7070200A8
:100820009387C72ABA979C438287B737014093873B
:1008300007C023920702B9A8B70700402392070216
:1008400091A8B7070040938707402392070299A019
:10085000B7170040938707802392070225A8B71790
:100860000040938707C0239207022DA0B7370140AD
:10087000938707402392070231A8B7570140938717
:1008800007C02392070239A0B757014023920702FD
:1008900011A001000100724405618280397106DEF9
:1008A00022DC80002326A4FC2324B4FC2322C4FCE5
:1008B000232604FE91450325C4FCEF10104EAA87A1
:1008C0003E8713060008B70702009385C7803A8564
:1008D000EF50401C832784FCB1830327C4FCB3077B
:1008E000F74093B7170093F7F70F3E8713061008EA
:1008F000B70702009385C7803A85EF50A019832778
:1009000044FCB1830327C4FCB307F74093B7170037
:1009100093F7F70F3E8713062008B7070200938569
:10092000C7803A85EF5000170325C4FCEF10504DE7
:10093000832784FC93F7F70F9306800401468145D3
:100940003E859521832744FC93F7F70F9306800497
:10095000014681453E8581290327C4FCA54763E103
:10096000E7088327C4FC13972700B7070200938783
:10097000472DBA979C438287B7370140938707C0BA
:100980002324F4FE8DA0B70700402324F4FEA1A881
:10099000B7070040938707402324F4FEA9A0B717A8
:1009A0000040938707802324F4FE35A8B717004042
:1009B000938707C02324F4FE3DA0B73701409387F7
:1009C00007402324F4FE05A0B7570140938707C0D2
:1009D0002324F4FE09A8B75701402324F4FE21A0E4
:1009E00085472326F4FE832784FC13D787008D4791
:1009F000631AF7008545B70716001385070CEF301B
:100A00009128E5A8832784FC13D78700C547631A7C
:100A1000F7008545B707180013850710EF30B1269A
:100A2000E9A8832784FC13D7870093072002631A61
:100A3000F7008545B7171A0013850780EF30B124FA
:100A40006DA8832784FC13D7870093073002631AAD
:100A5000F7008545B7171A00138507C0EF30B1229C
:100A600069A8832784FC13D78700930710036317B3
:100A7000F70085450565EF30112141A0832784FCEF
:100A800013D7870093071007631AF7008545B70748
:100A9000008013854700EF30111F85A0832784FC59
:100AA00013D7870093073008631AF7008545B70707
:100AB000138013850701EF30111D81A0832784FC6B
:100AC00013D7870093071009631AF7008545B70706
:100AD000158013850702EF30111B05A0832784FCC6
:100AE00013D78700930730096319F7008545B707C7
:100AF000158013850704EF3011198327C4FEADEB71
:100B000085450545EF30916F232E04FC232004FE1C
:100B1000231204FE9307C4FD3E85EF401121231EDE
:100B200004FCFD572310F4FE231104FE231F04FCD4
:100B3000230204FE9307C4FDBE85032584FEEF4017
:100B4000E11993050006032584FEEF4051348545E5
:100B5000032584FEEF403121814601468945032566
:100B600084FEEF40113C8545032584FEEF40B11F14
:100B70000100F250625421618280797106D622D43C
:100B80000018232EA4FC232CB4FC85450545EF302A
:100B9000F16693068004054681450325C4FD2124A2
:100BA0008327C4FD958313F7F70F8327C4FD93F7BD
:100BB000F70FFD8B93F7F70FBE853A85EF3031299C
:100BC000232004FE232204FE232404FE232604FE05
:100BD0008327C4FDFD8B0547B317F7002320F4FEE0
:100BE000232204FE832784FD2324F4FE8547232645
:100BF000F4FE930704FE3E85EF3061448327C4FD75
:100C0000FD8B89E75945EF60306ABDA08327C4FD9D
:100C1000F98B89E75D45EF603069B9A88327C4FD8A
:100C200013F7F701894763E6E7006145EF60D06796
:100C3000A1A08327C4FDF18B89E76545EF60D066ED
:100C400025A88327C4FD13F7F701914763E6E70062
:100C50006945EF6070650DA08327C4FD13F7F701A8
:100C6000A54763E7E70013057002EF60F06329A072
:100C700013058003EF6050630100B25022544561B8
:100C80008280011122CE00102326A4FEAE87A30588
:100C9000F4FE8347B4FE85CB8327C4FEBD8B054796
:100CA000B317F70093960701C1828327C4FE13D7B9
:100CB0005700B70700200A079387C704BA979C43D9
:100CC000368798CB3DA08327C4FEBD8B0547B3175D
:100CD000F70093960701C1828327C4FE13D75700FC
:100CE000B70700200A079387C704BA979C43368743
:100CF000D8CB0100724405618280011122CE001020
:100D00002326A4FE8327C4FE958313F77700B70735
:100D100000200A079387C704BA979C439C47032780
:100D2000C4FE7D8B85463397E600F98FB337F0001C
:100D300093F7F70F3E85724405618280797122D660
:100D40000018232EA4FC8327C4FD958393F7F70F87
:100D50009D8BA307F4FE8327C4FD93F7F70FFD8B4C
:100D60002307F4FE0347F4FEB70700200A07938722
:100D7000C704BA979C43D8478347E4FE8546B39798
:100D8000F600C207C1833E868346F4FEB707002003
:100D90008A069387C704B6979C43318FD8C7010052
:100DA000325445618280797106D622D40018232EF0
:100DB000A4FC232CB4FCB2872328D4FCA30BF4FCA2
:100DC000232004FE232204FE232404FE8327C4FDE3
:100DD000958393F7F70F9D8BA307F4FE8327C4FD3C
:100DE00093F7F70FFD8B2307F4FE8347F4FE91E79B
:100DF00085451145EF30914091A80347F4FE8547A2
:100E00006317F70085452145EF30513F81A0034727
:100E1000F4FE89476317F70085454145EF30113EE1
:100E200035A00347F4FE8D476318F7008545130589
:100E30000002EF30B13C19A80347F4FE9147631755
:100E4000F700854513050004EF30513B8347E4FE6E
:100E50000547B317F700C207C1832310F4FE032729
:100E600084FD85476317F702832704FDC207C1830A
:100E7000A183C207C18389E78D472322F4FE11A80D
:100E8000832704FDC207C183A183C207C183232234
:100E9000F4FE832704FDC207C18393F7F70F2324D1
:100EA000F4FE0347F4FEB70700200A079387C70440
:100EB000BA979C43130704FEBA853E85EF3081360E
:100EC000032784FD85476319F7020347F4FEB7073C
:100ED00000200A079387C704BA9794438347E4FE28
:100EE0000547B317F700C207C183034774FD3A866D
:100EF000BE853685EF30A1550100B25022544561C0
:100F000082801D7186CEA2CC80102326A4FA2324D1
:100F1000B4FA85450325C4FAEF102068AA873E87F6
:100F20001306D006B7070200938547873A85EF403E
:100F30007036832784FAB337F00093F7F70F3E87B4
:100F40001306F006B7070200938547873A85EF40FE
:100F50007034832784FABD832315F4FE8357A4FEDF
:100F600085073E87832784FAB3D7E7022314F4FE6C
:100F70000325C4FAEF10C068B7370140938707C054
:100F80002326F4FE0327C4FAA54763EDE708832769
:100F9000C4FA13972700B70702009387C72FBA97A1
:100FA0009C438287B7370140938707C02326F4FE0E
:100FB00095A8B70700402326F4FEADA0B707004070
:100FC000938707402326F4FEB1A8B7170040938704
:100FD00007802326F4FEB9A0B7170040938707C007
:100FE0002326F4FE81A0B71700402326F4FE1DA897
:100FF000B7170040938707402326F4FE25A0B73794
:101000000140938707402326F4FE29A8B7570140E3
:10101000938707C02326F4FE31A0B757014023264B
:10102000F4FE0100232E04FC232004FE231204FE00
:10103000835784FE2310F4FE8357A4FE231EF4FC82
:10104000231104FE231F04FC230204FE9307C4FDA6
:10105000BE850325C4FEEF3071480546854503254E
:10106000C4FEEF40C15B85450325C4FEEF40F12877
:10107000B707020003AEC7841387C7840323470062
:101080001387C784832887001387C7840328C70072
:101090001387C784084B1387C7844C4B1387C784B7
:1010A000104F1387C784544F1387C78418539387EF
:1010B000C784DC53232AC4FB232C64FA232E14FB9D
:1010C000232004FD2322A4FC2324B4FC2326C4FCF7
:1010D0002328D4FC232AE4FC232CF4FC8327C4FA21
:1010E00093F7F70F8A07130704FFBA9783A747FC04
:1010F0008D453E85EF60101F8327C4FA8A071307CA
:1011000004FFBA9783A747FC3E85EF60F019854539
:101110000325C4FEEF4021450100F64066442561E9
:101120008280797106D622D40018232EA4FC232CA9
:10113000B4FC032784FD896793871771B337F700E1
:1011400093F7F70F3E8713065003B7070200938506
:10115000078B3A85EF401014B7370140938707C0DB
:101160002326F4FE8327C4FDC183BD8B2547636F0F
:10117000F70613972700B707020093874732BA97FD
:101180009C438287B7370140938707C02326F4FE2C
:10119000B1A8B70700402326F4FE89A8B70700408E
:1011A000938707402326F4FE91A0B717004093874A
:1011B00007802326F4FE1DA8B7170040938707C0B9
:1011C0002326F4FE25A0B737014093870740232646
:1011D000F4FE29A8B7570140938707C02326F4FEE1
:1011E00031A0B75701402326F4FE01008327C4FE37
:1011F00083D7C7022315F4FE0357A4FE832784FD7B
:101200003307F702896793870771B357F7022314EF
:10121000F4FE8327C4FDA1838D8B81EB8327C4FE5D
:10122000035784FE239AE702A9A88327C4FDA1835C
:1012300013F7370085476319F7008327C4FE035768
:1012400084FE239CE70235A88327C4FDA18313F7FE
:10125000370089476319F7008327C4FE035784FECC
:10126000239EE70239A88327C4FDA18313F7370023
:101270008D476318F7008327C4FE035784FE23902D
:10128000E7040100B2502254456182805D7186C638
:10129000A2C48008232EA4FA232CB4FA232AC4FA69
:1012A0008327C4FBC1838D453E85EF10002FAA879D
:1012B0003E871306D00AB70702009385078B3A854D
:1012C000EF40407D032744FB896793871771B3374D
:1012D000F70093F7F70F3E871306F00AB7070200EF
:1012E0009385078B3A85EF40E07A232E04FC232078
:1012F00004FE231204FE232604FC232804FC232AD4
:1013000004FC232C04FC231504FE8327C4FBC183A7
:10131000BD8B3E85EF10C02E8327C4FB93F7F70FDC
:1013200093068031014685453E85B53C854505459A
:10133000EF30C16CB7370140938707C02326F4FE16
:101340008327C4FBC183BD8B2547636FF7061397C3
:101350002700B70702009387C734BA979C43828758
:10136000B7370140938707C02326F4FEB1A8B7071B
:1013700000402326F4FE89A8B70700409387074062
:101380002326F4FE91A0B7170040938707802326F9
:10139000F4FE1DA8B7170040938707C02326F4FE6C
:1013A00025A0B7370140938707402326F4FE29A8DC
:1013B000B7570140938707C02326F4FE31A0B757E3
:1013C00001402326F4FE01008327C4FB13D7C70086
:1013D0008D47631AF7008545B70716001385070C7C
:1013E000EF30610A15AA8327C4FB13D7C700C5478E
:1013F000631AF7008545B707180013850710EF300B
:10140000810819AA8327C4FB13D7C700C947631AE9
:10141000F7008545B707180013850720EF30A106B0
:10142000E5A88327C4FB13D7C700CD47631AF7008D
:101430008545B707180013850730EF30C104E9A8C8
:101440008327C4FB13D7C70093072002631AF70052
:101450008545B7171A0013850780EF30C1026DA8C4
:101460008327C4FB13D7C70093073002631AF70022
:101470008545B7171A00138507C0EF30C10069A86A
:101480008327C4FB13D7C700930710036317F70024
:1014900085450565EF20317F41A08327C4FB13D725
:1014A000C70093071007631AF7008545B707008048
:1014B00013854700EF20317D85A08327C4FB13D718
:1014C000C70093073008631AF7008545B7071380F4
:1014D00013850701EF20317B81A08327C4FB13D73D
:1014E000C70093071009631AF7008545B7071580F1
:1014F00013850702EF20317905A08327C4FB13D79A
:10150000C700930730096319F7008545B7071580B1
:1015100013850704EF20317703A7C181832784FB5C
:10152000B357F702C1832315F4FE03A7C181835784
:10153000A4FE8507BE86832784FBB387F602B357D4
:10154000F7022314F4FE035784FE832744FB33077A
:10155000F702896793870771B357F7022313F4FEE5
:10156000835784FEFD17C207C1832310F4FE8357FF
:10157000A4FE231EF4FC231104FE231F04FC2302FB
:1015800004FE9307C4FDBE850325C4FEEF3001753C
:10159000930700072316F4FC85472317F4FC231850
:1015A00004FC835764FE2319F4FC8947231AF4FCD6
:1015B0008947231BF4FC231C04FC231D04FC832704
:1015C000C4FBA1838D8B9DE39307C4FCBE850325DB
:1015D000C4FEEF309108A1450325C4FEEF40E12190
:1015E00091450325C4FEEF40013645A08327C4FB87
:1015F000A18313F7370085476315F7029307C4FCEF
:10160000BE850325C4FEEF30111FA1450325C4FE8E
:10161000EF406123930500400325C4FEEF4061378E
:10162000ADA08327C4FBA18313F737008947631458
:10163000F7029307C4FCBE850325C4FEEF30D13901
:10164000A1450325C4FEEF40A12591450325C4FE15
:10165000EF4081391DA88327C4FBA18313F737000E
:101660008D476314F7029307C4FCBE850325C4FEAF
:10167000EF305154A1450325C4FEEF4021279305C7
:1016800000400325C4FEEF40E13A85450325C4FE32
:10169000EF30F17285450325C4FEEF30D16C0100B7
:1016A000B640264461618280797106D622D4001842
:1016B000232EA4FC8327C4FDB337F00093F7F70F64
:1016C0003E8713061004B70702009385C78E3A853C
:1016D000EF40403C8327C4FD9C43BD8B0547B317B7
:1016E000F70093960701C1828327C4FD9C4313D75B
:1016F0005700B70700200A079387C704BA979C438F
:10170000368798CB8327C4FDDC43BD8B0547B317D1
:10171000F70093960701C1828327C4FDDC4313D7EA
:101720005700B70700200A079387C704BA979C435E
:10173000368798CB8327C4FDDC472326F4FE0100BF
:101740008327C4FE1387F7FF2326E4FEF5FB8327D8
:10175000C4FDDC43BD8B0547B317F7009396070123
:10176000C1828327C4FDDC4313D75700B70700208D
:101770000A079387C704BA979C433687D8CB832739
:10178000C4FDDC472324F4FE0100832784FE138775
:10179000F7FF2324E4FEF5FB8327C4FD9C43BD8BA8
:1017A0000547B317F70093960701C1828327C4FD4D
:1017B0009C4313D75700B70700200A079387C70435
:1017C000BA979C433687D8CB0100B250225445616A
:1017D0008280797106D622D40018232EA4FC832798
:1017E000C4FDB337F00093F7F70F3E8713064005AB
:1017F000B70702009385C78E3A85EF40A02983275B
:10180000C4FDDC43BD8B0547B317F7009396070172
:10181000C1828327C4FDDC4313D75700B7070020DC
:101820000A079387C704BA979C433687D8CB832788
:10183000C4FD9C43BD8B0547B317F7009396070182
:10184000C1828327C4FD9C4313D75700B7070020EC
:101850000A079387C704BA979C433687D8CB832758
:10186000C4FDDC472326F4FE01008327C4FE138752
:10187000F7FF2326E4FEF5FB8327C4FD9C43BD8BC5
:101880000547B317F70093960701C1828327C4FD6C
:101890009C4313D75700B70700200A079387C70454
:1018A000BA979C43368798CB8327C4FDDC47232413
:1018B000F4FE0100832784FE1387F7FF2324E4FE50
:1018C000F5FB8327C4FDDC43BD8B0547B317F70049
:1018D00093960701C1828327C4FDDC4313D75700C9
:1018E000B70700200A079387C704BA979C43368737
:1018F00098CB8327C4FDDC472322F4FE0100832715
:1019000044FE1387F7FF2322E4FEF5FB0100B250EB
:10191000225445618280797106D622D40018232E84
:10192000A4FCAE87A30DF4FC8327C4FDB337F000FD
:1019300093F7F70F3E8713069006B70702009385CB
:10194000C78E3A85EF4000158327C4FD9C43BD8BAD
:101950000547B317F70093960701C1828327C4FD9B
:101960009C4313D75700B70700200A079387C70483
:10197000BA979C433687D8CB8347B4FD95CB832752
:10198000C4FDDC43BD8B0547B317F70093960701F1
:10199000C1828327C4FDDC4313D75700B70700205B
:1019A0000A079387C704BA979C43368798CB0DA83C
:1019B0008327C4FDDC43BD8B0547B317F70093961F
:1019C0000701C1828327C4FDDC4313D75700B70743
:1019D00000200A079387C704BA979C433687D8CB61
:1019E0008327C4FDDC472326F4FE01008327C4FEC1
:1019F0001387F7FF2326E4FEF5FB8327C4FD9C43F2
:101A0000BD8B0547B317F70093960701C182832763
:101A1000C4FD9C4313D75700B70700200A079387DC
:101A2000C704BA979C43368798CB8327C4FDDC470D
:101A30002324F4FE0100832784FE1387F7FF232469
:101A4000E4FEF5FB8327C4FD9C43BD8B0547B3171C
:101A5000F70093960701C1828327C4FD9C4313D7E7
:101A60005700B70700200A079387C704BA979C431B
:101A70003687D8CB8327C4FDDC43BD8B0547B3171E
:101A8000F70093960701C1828327C4FDDC4313D777
:101A90005700B70700200A079387C704BA979C43EB
:101AA000368798CB0100B25022544561828079710B
:101AB00006D622D40018232EA4FC8327C4FDB337F6
:101AC000F00093F7F70F3E8713065008B7070200A0
:101AD0009385C78E3A85EF30F07BA30704FE8327FA
:101AE000C4FD9C43BD8B0547B317F70093960701D0
:101AF000C1828327C4FD9C4313D75700B70700203A
:101B00000A079387C704BA979C433687D8CB8327A5
:101B1000C4FDDC43BD8B0547B317F700939607015F
:101B2000C1828327C4FDDC4313D75700B7070020C9
:101B30000A079387C704BA979C43368798CB8327B5
:101B4000C4FDDC472324F4FE0100832784FE1387B1
:101B5000F7FF2324E4FEF5FB8327C4FD9C43BD8BE4
:101B60000547B317F70093960701C1828327C4FD89
:101B70009C4313D75700B70700200A079387C70471
:101B8000BA979C43368798CB8327C4FDDC47232232
:101B9000F4FE0100832744FE1387F7FF2322E4FEAF
:101BA000F5FB8327C4FDDC433E85EFF00F95AA8744
:101BB00081C78547A307F4FE8327C4FD9C43BD8BE3
:101BC0000547B317F70093960701C1828327C4FD29
:101BD0009C4313D75700B70700200A079387C70411
:101BE000BA979C433687D8CB8327C4FDDC47232094
:101BF000F4FE0100832704FE1387F7FF2320E4FE91
:101C0000F5FB8347F4FE3E85B25022544561828045
:101C1000797106D622D40018232EA4FCAE87A30D1A
:101C2000F4FC8327C4FDB337F00093F7F70F3E872A
:101C30001306700AB70702009385C78E3A85EF3006
:101C40007065930700F8A307F4FE09AA0347B4FDE3
:101C50008347F4FEF98F93F7F70F95CB8327C4FDE5
:101C6000DC43BD8B0547B317F70093960701C1828C
:101C70008327C4FDDC4313D75700B70700200A07AA
:101C80009387C704BA979C43368798CB0DA88327C0
:101C9000C4FDDC43BD8B0547B317F70093960701DE
:101CA000C1828327C4FDDC4313D75700B707002048
:101CB0000A079387C704BA979C433687D8CB8347D4
:101CC000F4FE8583A307F4FE8327C4FDDC472324A9
:101CD000F4FE0100832784FE1387F7FF2324E4FE2C
:101CE000F5FB8327C4FD9C43BD8B0547B317F70065
:101CF00093960701C1828327C4FD9C4313D75700E5
:101D0000B70700200A079387C704BA979C43368712
:101D100098CB8327C4FDDC472322F4FE01008327F0
:101D200044FE1387F7FF2322E4FEF5FB8327C4FD5F
:101D30009C43BD8B0547B317F70093960701C182FB
:101D40008327C4FD9C4313D75700B70700200A0719
:101D50009387C704BA979C433687D8CB8347F4FE52
:101D6000E39607EE0325C4FD9933AA87FD17B33721
:101D7000F00093F7F70F3E85B25022544561828000
:101D8000397106DE22DC26DA80002326A4FCAE8729
:101D9000A305F4FC8327C4FCB337F00093F7F70FD7
:101DA0003E871306000CB70702009385C78E3A855D
:101DB000EF30504EA30704FEA1472307F4FE83270C
:101DC000C4FC9C43BD8B0547B317F70093960701EE
:101DD000C1828327C4FC9C4313D75700B707002058
:101DE0000A079387C704BA979C433687D8CB8327C3
:101DF000C4FCDC472324F4FE0100832784FE138700
:101E0000F7FF2324E4FEF5FB8327C4FCDC43BD8BF2
:101E10000547B317F70093960701C1828327C4FCD7
:101E2000DC4313D75700B70700200A079387C7047E
:101E3000BA979C43368798CB7DA88327C4FC9C43E4
:101E4000BD8B0547B317F70093960701C18283271F
:101E5000C4FC9C4313D75700B70700200A07938799
:101E6000C704BA979C433687D8CB8327C4FCDC478A
:101E70002322F4FE0100832744FE1387F7FF232269
:101E8000E4FEF5FB8327C4FC9C43BD8B0547B317D9
:101E9000F70093960701C1828327C4FC9C4313D7A4
:101EA0005700B70700200A079387C704BA979C43D7
:101EB000368798CB8327C4FCDC472320F4FE01003F
:101EC000832704FE1387F7FF2320E4FEF5FB8347F7
:101ED000F4FE860793948701E1848327C4FCDC43E6
:101EE0003E85EFE09FE1AA87E207E187C58FE20721
:101EF000E187A307F4FE8347E4FE1387F7FF230778
:101F0000E4FE85FF8327C4FC9C43BD8B0547B317C4
:101F1000F70093960701C1828327C4FC9C4313D723
:101F20005700B70700200A079387C704BA979C4356
:101F30003687D8CB8327C4FCDC47232EF4FC010072
:101F40008327C4FD1387F7FF232EE4FCF5FB8347AB
:101F5000B4FCBE850325C4FCEFF0FF9B8347F4FE71
:101F60003E85F2506254D25421618280011106CE26
:101F700022CC00102326A4FEAE873287A305F4FEF0
:101F8000BA872305F4FE8327C4FEB337F00093F726
:101F9000F70F3E8713062029B70702009385C78EE7
:101FA0003A85EF30302F0325C4FEEFF0EFEF8327A3
:101FB000C4FE83C78700860793F7F70FBE85032506
:101FC000C4FEB9318347B4FEBE850325C4FE893102
:101FD0008347A4FEBE850325C4FE1D390325C4FE28
:101FE000EFF02FFF0100F2406244056182807971B9
:101FF00006D622D40018232EA4FCAE87A30DF4FC31
:102000008327C4FDB337F00093F7F70F3E8713061D
:10201000402AB70702009385C78E3A85EF30902794
:10202000A30704FE0325C4FDEFF00FE88327C4FDDA
:1020300083C78700860793F7F70FBE850325C4FD86
:10204000C13E8347B4FDBE850325C4FDD1360325BB
:10205000C4FDEFF00FF80325C4FDEFF0EFE4832794
:10206000C4FD83C787008607E207E18793E717006F
:10207000E207E18793F7F70FBE850325C4FD493ECC
:1020800085450325C4FDED39AA87A307F4FE032582
:10209000C4FDEFF00FF48347F4FE3E85B2502254A6
:1020A00045618280797106D622D400182326A4FEC9
:1020B000AE872322C4FE2320D4FE232EE4FCA305F6
:1020C000F4FE8327C4FEB337F00093F7F70F3E8783
:1020D0001306F02BB70702009385C78E3A85EF30C1
:1020E000701B032704FE8327C4FDB307F740B337F3
:1020F000F00093F7F70F3E871306002CB707020096
:102100009385C78E3A85EF30F0188327C4FE0327E6
:1021100004FE98C38327C4FE0327C4FDD8C38327C6
:10212000C4FE0347B4FE2384E7008327C4FE0327CD
:1021300044FED8C7C14605468545032504FEEFE0A9
:102140009FC6D146054685450325C4FDEFE0BFC5C2
:102150000100B250225445618280011122CE00104C
:102160002326A4FE2324B4FE2322C4FE81A88327B1
:1021700084FE138717002324E4FE83C60700B707F5
:1021800002000327C4FE0A0793874737BA979C4388
:102190003E8793970601C1832316F7000100B70716
:1021A00002000327C4FE0A0793874737BA979C4368
:1021B00083D78700C207C183898BF5D3832744FE69
:1021C0001387F7FF2322E4FEDDF30100B7070200C7
:1021D0000327C4FE0A0793874737BA979C4383D7E0
:1021E0008700C207C18393F70708EDF3010072442B
:1021F00005618280011122CE00102326A4FE232433
:10220000B4FE2322C4FE2320D4FEB7070200032716
:10221000C4FE0A0793874737BA979C4383D7C70002
:1022200061A0832784FE138717002324E4FE83C65E
:102230000700B70702000327C4FE0A079387473742
:10224000BA979C433E8793970601C1832316F700F4
:102250000100B70702000327C4FE0A079387473728
:10226000BA979C4383D78700C207C18393F70708B7
:10227000EDF3832744FE8DCBB70702000327C4FE8E
:102280000A0793874737BA979C4383D7C70093962B
:102290000701C182832744FE138717002322E4FE2F
:1022A00013F7F60F2380E700832704FE1387F7FF59
:1022B0002320E4FEBDF701007244056182805D7158
:1022C00086C6A2C480082326A4FC2324B4FC2322AF
:1022D000C4FC2320D4FC232EE4FA232CF4FA232A72
:1022E00004FBB70702000327C4FC0A07938747379C
:1022F000BA979C433E85EF20F10185450545EF20C7
:10230000E16F032704FC93073012631DF7000327D6
:10231000C4FB930750126317F70085450545EF206E
:10232000811625A0032704FC89679387A714631EE1
:10233000F7000327C4FB89679387C7146317F70067
:10234000854537152000EF2001148327C4FC91E751
:1023500085450565EF20816A25A00327C4FC8547D4
:102360006317F70085451165EF20A16D11A80327BC
:10237000C4FC89476316F70085452165EF20616C31
:10238000832704FC93F7F70F9306803105468545B4
:102390003E85EFE05FA18327C4FB93F7F70F930619
:1023A0008031054685453E85EFE0FF9F032784FB8E
:1023B000C167F917630DF700832784FB93F7F70FC5
:1023C00093068034054681453E85EFE0DF9D032777
:1023D00044FB9307F00F630DF700832744FB93F74B
:1023E000F70F93060031014685453E85EFE0BF9B20
:1023F000232E04FC232004FE232204FE232404FEB7
:10240000231604FE231E04FC93074010231FF4FC34
:10241000231004FE032784FC85476305F702832706
:1024200084FC81CF032784FC89476303F7020327D9
:1024300084FC8D476304F7020DA8231104FE2312C8
:1024400004FE25A0231104FE85472312F4FE31A8C3
:1024500089472311F4FE231204FE01A889472311A2
:10246000F4FE85472312F4FE0100231704FE03A7A0
:10247000C181832744FCB357F7022317F4FE03A757
:10248000C181832744FCB377F70291E78357E4FEC9
:10249000FD172317F4FE0357E4FE9307F00763F7D5
:1024A000E700930780032317F4FE51A80357E4FEC7
:1024B0009307F00363F7E700930700032317F4FE85
:1024C000BDA80357E4FEFD4763F7E70093078002CA
:1024D0002317F4FEADA00357E4FEBD4763F7E70002
:1024E000930700022317F4FE99A80357E4FE9D47C3
:1024F00063F6E700E1472317F4FE91A00357E4FEDB
:102500008D4763F6E700C1472317F4FE0DA8035774
:10251000E4FE854763F6E700A1472317F4FE05A014
:102520008357E4FE81C7231704FE11A813068022F7
:10253000B70702009385C7920145EF30A055835736
:10254000E4FE2314F4FE930700202313F4FE231566
:1025500004FE231604FEB70702000327C4FC0A0783
:1025600093874737BA979C433E879307C4FDBE8540
:102570003A85EF208161B70702000327C4FC0A07F0
:1025800093874737BA979C4385453E85EF20616F17
:102590000100B640264461618280797122D600181C
:1025A000232EA4FC232CB4FC8547A307F4FE0327A9
:1025B000C4FD0A079387419BBA979C4399EB032775
:1025C000C4FD0A079387419BBA97032784FD98C3EC
:1025D00015A00327C4FD0A079387419BBA979C4324
:1025E000032784FD6316F7008547A307F4FE19A0AF
:1025F000A30704FE8347F4FE3E8532544561828082
:10260000011106CE22CC00102326A4FE8327C4FE8F
:1026100081EB8545856713850780EF20213E6DA8F6
:102620000327C4FE85476317F70085450545EF205E
:1026300041415DA00327C4FE89476317F700854524
:102640000945EF20014049A80327C4FE8D476317C1
:10265000F70085451145EF20C13EBDA80327C4FE04
:1026600091476317F70085452145EF20813DADA0D7
:102670000327C4FE95476317F70085454145EF20C2
:10268000413C99A80327C4FE99476318F700854584
:1026900013050002EF20E13A81A00327C4FE9D4705
:1026A0006317F70085450965EF20413535A00327FD
:1026B000C4FEA1476318F700854537050800EF20E1
:1026C000E13319A80327C4FEA5476317F700854522
:1026D00037051000EF2081320100F24062440561AD
:1026E0008280797122D60018232EA4FCB7370140CE
:1026F000938707C02326F4FE231504FE0327C4FD99
:10270000A54763EDE7088327C4FD13972700B707A4
:10271000020093870738BA979C438287B7370140F6
:10272000938707C02326F4FE95A8B7070040232609
:10273000F4FEADA0B7070040938707402326F4FEC0
:10274000B1A8B7170040938707802326F4FEB9A0ED
:10275000B7170040938707C02326F4FE81A0B71760
:1027600000402326F4FE1DA8B717004093870740BA
:102770002326F4FE25A0B737014093870740232680
:10278000F4FE29A8B7570140938707C02326F4FE1B
:1027900031A0B75701402326F4FE01000327C4FDF2
:1027A0000A079387C19DBA9798438947631FF7002B
:1027B0008327C4FE83D747021397070141838D47C0
:1027C000B357F7022315F4FE39A08327C4FE83D73D
:1027D00047022315F4FE8357A4FE3E85325445611B
:1027E0008280797122D60018232EA4FCB7370140CD
:1027F000938707C02326F4FE0327C4FDA54763ED96
:10280000E7088327C4FD13972700B70702009387C3
:10281000873ABA979C438287B7370140938707C0AE
:102820002326F4FE95A8B70700402326F4FEADA0AA
:10283000B7070040938707402326F4FEB1A8B717D7
:102840000040938707802326F4FEB9A0B717004005
:10285000938707C02326F4FE81A0B71700402326E4
:10286000F4FE1DA8B7170040938707402326F4FE07
:1028700025A0B7370140938707402326F4FE29A8F7
:10288000B7570140938707C02326F4FE31A0B757FE
:1028900001402326F4FE01008327C4FE2392070291
:1028A0000100325445618280011122CE001023269E
:1028B000A4FEAE87A305F4FE0100B70702000327BC
:1028C000C4FE0A079387073DBA979C4383D7070046
:1028D000C207C18393F70708EDD3B70702000327A8
:1028E000C4FE0A079387073DBA979C433E878347F8
:1028F000B4FEC207C1832312F700010072440561D0
:102900008280011106CE22CC00102326A4FE2324AF
:10291000B4FE2322C4FE832784FEB337F00093F76E
:10292000F70F3E871306A004B7070200938587962A
:102930003A85EF30201629A8832784FE13871700D5
:102940002324E4FE83C70700BE850325C4FEA93FF8
:10295000832744FE1387F7FF2322E4FEF1FF0100E3
:10296000F240624405618280011106CE22CC001043
:102970002326A4FE2324B4FE832784FEB337F0006D
:1029800093F7F70F3E8713069005B707020093856C
:1029900087963A85EF30001039A8832784FE138785
:1029A00017002324E4FE8387070093F7F70FBE8503
:1029B0000325C4FED53D832784FE83870700F1FFEE
:1029C0000100F240624405618280011106CE22CCF2
:1029D00000102326A4FEAE87A305F4FEB70702006D
:1029E0000327C4FE0A079387073DBA979C433E8797
:1029F0008347B4FE3E86930550523A85EF30013C42
:102A0000138701848327C4FEBA9783C707008145D3
:102A10003E85EF50200D8347B4FE81CF138701849C
:102A20008327C4FEBA9783C707003E85EF50C007CF
:102A300019A8138701848327C4FEBA9783C70700A8
:102A40003E85EF5040080100F240624405618280FB
:102A5000011122CE00102326A4FE2324B4FEB707C2
:102A600002000327C4FE0A079387073DBA979C43D9
:102A700083D70700C207C18393F7070295C7B7073B
:102A800002000327C4FE0A079387073DBA979C43B9
:102A900083D74700C207C18313F7F70F832784FE4C
:102AA0002380E700854711A081473E857244056178
:102AB0008280797106D622D40018232EA4FC232C00
:102AC000B4FC232AC4FC2328D4FC032744FD832719
:102AD00004FD3D8F8327C4FDB207F98F93B717001C
:102AE00093F7F70F3E871306E00CB70702009385B4
:102AF00087963A85EF20107A832744FD13D7870005
:102B0000832704FDA183B307F74093B7170093F71A
:102B1000F70F3E871306F00CB707020093858796E0
:102B20003A85EF203077832744FD93F7F70FE1468E
:102B3000014685453E85EFE00FA7832704FD93F707
:102B4000F70F93068004014681453E85EFE0AFA56F
:102B500085450545EF10916A032744FDC167FD17C0
:102B6000F98F0D67130707386387E7200D67130791
:102B700007386369F7040567130757166381E7167B
:102B8000056713075716636FF7001307F022638A70
:102B9000E70C130760306381E71013076012638846
:102BA000E70865A6096713078736638BE7160D6785
:102BB000130707126387E71809671307A7146380D1
:102BC000E71461A615671307A738638EE726156714
:102BD0001307A7386362F70211671307873863800A
:102BE000E7201567130787126385E722116713072C
:102BF0004712638CE71A91AE19671307C7386388C9
:102C0000E72A19671307C7386368F70019671307BE
:102C100067106384E72615AE1D671307E71063820C
:102C2000E72C1D671307E7386387E72E39AEB70730
:102C30000140D44FB7070140370700FC7D17758F5F
:102C4000D8CFB7070140D843B70701406D9BD8C321
:102C5000B7070140D843B707014013674700D8C3FF
:102C6000EDA4B7070140D44FB7070140370700FC78
:102C70007D17758FD8CFB7070140D44FB7070140F4
:102C800037070004558FD8CFB7070140D843B7079F
:102C900001406D9BD8C355ACB7070140D44FB7076F
:102CA0000140370700FC7D17758FD8CFB70701406B
:102CB000D44FB707014037070004558FD8CFB70767
:102CC0000140D843B70701406D9BD8C3B707014007
:102CD000D843B707014013674700D8C3BDA4B7075F
:102CE0000140D843B70701405D9BD8C3B7070140F7
:102CF000D843B707014013678700D8C3B9A4B70703
:102D00000140D843B70701401377F7FCD8C3B70792
:102D10000140D843B707014013670701D8C335A462
:102D2000B7070140D843B70701401377F7FCD8C372
:102D3000B7070140D843B707014013670703D8C35B
:102D400029A4B7070140D44FB70701403707FDFF5B
:102D50007D17758FD8CFB7070140D44F832744FD27
:102D6000A18313970701B70703007D8FB7070140C1
:102D7000558FD8CFD9AAB7070140D44FB707014024
:102D80003707FDFF7D17758FD8CFB7070140D44FA8
:102D9000832744FDA18313970701B70703007D8FA5
:102DA000B7070140558FD8CF4DA2B7070140D44F88
:102DB000B70701403707F4FF7D17758FD8CFB707E6
:102DC0000140D44F832744FDA18313972701B70700
:102DD0000C007D8FB7070140558FD8CFBDA2B70734
:102DE0000140D44FB70701403707F4FF7D17758FB7
:102DF000D8CFB7070140D44F832744FDA183139751
:102E00002701B7070C007D8FB7070140558FD8CF3A
:102E10002DAAB7070140D44FB70701403707D0FFAD
:102E20007D17758FD8CFB7070140D44F832744FD56
:102E3000A18313974701B70730007D8FB707014083
:102E4000558FD8CF19A2B7070140D44FB70701401B
:102E50003707D0FF7D17758FD8CFB7070140D44F04
:102E6000832744FDA18313974701B70730007D8F67
:102E7000B7070140558FD8CFC9A8B7070140D44F35
:102E8000B7070140370740FF7D17758FD8CFB707C9
:102E90000140D44F832744FDA18313976701B707EF
:102EA000C0007D8FB7070140558FD8CF79A8B707ED
:102EB0000140D44FB7070140370740FF7D17758F9A
:102EC000D8CFB7070140D44F832744FDA183139780
:102ED0006701B707C0007D8FB7070140558FD8CF76
:102EE000ADA0B7070140D44FB7070140370700FD39
:102EF0007D17758FD8CFB7070140D44F832744FD86
:102F0000A18313978701B70700037D8FB70701409F
:102F1000558FD8CF1DA8B7070140D44FB707014040
:102F2000370700FD7D17758FD8CFB7070140D44F05
:102F3000832744FDA18313978701B70700037D8F83
:102F4000B7070140558FD8CF01008327C4FD91E713
:102F500085451165EF10912A69A80327C4FD8547AF
:102F60006318F700854537050200EF10912D51A039
:102F70000327C4FD89476318F7008545370504001A
:102F8000EF10312CBDA00327C4FD8D476318F70057
:102F9000854537050800EF10D12AA1A80327C4FDF5
:102FA00091476318F700854537051000EF10712928
:102FB00089A00327C4FD95476318F70085451305CD
:102FC0000004EF10112835A00327C4FD99476318AA
:102FD000F700854513050008EF10B12619A803274F
:102FE000C4FD9D476317F700854513050010EF10DA
:102FF0005125232004FE232204FE232404FE23263D
:1030000004FE832784FD2320F4FE231204FE2313F1
:1030100004FE231404FE231604FEB1472315F4FE18
:10302000B70702000327C4FD0A079387073DBA9735
:103030009C433E87930704FEBE853A85EF20D12E40
:10304000B70702000327C4FD0A079387073DBA9715
:103050009C4385453E85EF2071500100B2502254BB
:1030600045618280797106D622D40018232EA4FCF3
:10307000232CB4FC232AC4FC232604FE3DA8010013
:10308000930500040325C4FDEF207162AA87EDDBE0
:10309000832784FD83C70700C207C183BE8503253C
:1030A000C4FDEF20F15D832784FD8507232CF4FC0C
:1030B0008327C4FE85072326F4FE0327C4FE832747
:1030C00044FDE34EF7FA0100B2502254456182807C
:1030D000797106D622D40018232EA4FC232CB4FC2C
:1030E0008327C4FDB337F00093F7F70F3E8713062D
:1030F0003006B70702009385479A3A85EF2090196A
:10310000231704FEBDA013058008EFD01FBFAA87B8
:10311000B9E3032784FDF54763F5E7027946832584
:10312000C4FD1945EFF0EFFD8327C4FDF907232EF9
:10313000F4FC832784FD8917232CF4FC231704FE59
:103140000DA8032684FD8325C4FD1945EFF06FFB10
:10315000232C04FC25A08357E4FE85072317F4FEE7
:103160000357E4FE9307301F63E9E7000545EFD0FE
:103170008FA5832784FDC1FB11A00100832784FD57
:103180003E85B250225445618280797106D622D4A0
:103190000018232EA4FC232CB4FC8327C4FDB337D2
:1031A000F00093F7F70F3E871306600EB707020093
:1031B0009385479A3A85EF20F00D832784FD2326D7
:1031C000F4FE9307C4FE81463E868325C4FD138525
:1031D00041A0EF3090108327C4FE3E85B2502254A8
:1031E00045618280411106C622C4000883A7C186BA
:1031F0000547638BE7006389070C0947638DE70088
:103200000D47638FE702F1A083A78186138717001C
:1032100023A4E1867DA883A781861387170023A4B2
:10322000E18603A78186A54763F2E70AB707002076
:103230009387C7049C4B1167D8CB23A4018679A040
:1032400003A7018785476315F7081305F008EFD03A
:10325000DFAAAA87B5C31945EFF0AFC8AA873E8792
:1032600083A781861D8F9307600963F3E7061945DD
:10327000EFF02FD783A78186D3F717D05385F72098
:10328000EF70915BB707020003A6079F83A6479FD5
:10329000EF60F11FAA872E883E85C285EF709142AC
:1032A000AA87139707014183B70700202394E73EBD
:1032B000094723A8E18629A81945EFF08FC2AA87FC
:1032C0003E8723A4E18629A0010021A0010011A0CE
:1032D00001000100B240224441018280411106C632
:1032E00022C4000883A7C1860947637CF7000D4705
:1032F000639AE7001945EFF0CFCE054723A8E18692
:1033000011A001000100B2402244410182803971C4
:1033100006DE22DC80002326A4FC8547A307F4FEFA
:10332000231304FE231604FE232404FE232E04FC90
:1033300083D7C1873E87930700236316F700A5470D
:103340002324F4FE29A0A1472324F4FE01008DA824
:10335000930750FA2300F4FE832784FE8A0703278D
:10336000C4FCBA978397070093F7F70FA300F4FE06
:10337000832784FE8A070327C4FCBA978397270014
:103380002313F4FE835764FEA183C207C18393F71E
:10339000F70F2301F4FE835764FE93F7F70FA301A1
:1033A000F4FE930704FE1146BE851145EFF06FD57C
:1033B0000945EFD04F81832784FEFD172324F4FEB7
:1033C000032784FE9307E00FE3F4E7F883A78187E0
:1033D0003E85EF20F0632A87894763FFE7028D4728
:1033E000232EF4FC83A781871306C4FD130704FE74
:1033F0008146BA853E85EF30406E034714FE930741
:10340000F00F6308F700034724FE9307F00F6315DE
:10341000F700A30704FE31A80545EFC0DFFA835784
:10342000C4FE138717002316E4FE1307700CE37F16
:10343000F7F88347F4FE3E85F250625421618280A2
:10344000797106D622D40018232EA4FCA30704FE0B
:10345000230704FE231504FE231604FE232004FE86
:1034600083D7C1873E87930700236316F700A547DC
:10347000A307F4FE29A0A147A307F4FE0100834798
:10348000F4FEFD1793F7F70FA307F4FE11AA03D775
:10349000C1879307F02263EDE7008307F4FE8A07F4
:1034A0000327C4FDBA9703970700A5476300F70EEB
:1034B000930750FA2302F4FEC557A302F4FE8307D4
:1034C000F4FE8A070327C4FDBA97839707002315E4
:1034D000F4FE8357A4FEA183C207C18393F7F70FBD
:1034E0002303F4FE8357A4FE93F7F70FA303F4FE20
:1034F000930744FE1146BE851145EFF08FC0231699
:1035000004FE83A781873E85EF2090502A87894754
:1035100063F7E7048D472320F4FE83A78187130612
:1035200004FE130744FE8146BA853E85EF30E05A1B
:10353000834754FEA20793960701C186834764FE22
:103540001397070141878307F4FE8A070326C4FD0A
:10355000B297558F420741872391E70031A805456F
:10356000EFC07FE68357C4FE138717002316E4FEDF
:103570001307700CE377F7F80357C4FE9307800C2A
:1035800063F7E70085472307F4FE39A801008307A6
:10359000F4FE93F7F70FFD1793F7F70FA307F4FE69
:1035A0008307F4FEE3D507EE8347E4FE3E85B25081
:1035B000225445618280011106CE22CC00102324C2
:1035C00004FE8547A307F4FE231604FE232204FE0F
:1035D00083A781873E85EF20B043AA8791C783A741
:1035E00081873E85EF20101E9305F00F1145EFF007
:1035F000AFAB930750FA2304F4FEBD57A304F4FEC7
:10360000230504FEA30504FE930784FE1146BE8530
:103610001145EFF00FAF231604FE83A781873E8587
:10362000EF20103F2A87894763F0E7048D47232264
:10363000F4FE83A78187130644FE130784FE8146A8
:10364000BA853E85EF3060490347A4FE854763098C
:10365000F7000347A4FE89476304F700854711A0DC
:103660008147A307F4FE31A80545EFC0DFD5835796
:10367000C4FE138717002316E4FE1307700CE37EC5
:10368000F7F88347F4FE3E85F2406244056182808C
:10369000011106CE22CC0010A30704FE9307F4FE0E
:1036A000BE851145EFF0CFBA83A7818785C7034751
:1036B000F4FE9307500A6317F70083A781873E85BE
:1036C000EF20501083A781870347F4FEBA853E851B
:1036D000EF20D03B0100F24062440561828041113D
:1036E00022C600080547238AE186010032444101D1
:1036F0008280011106CE22CC0010231704FE23166F
:1037000004FE232204FE930750FA2304F4FEC55757
:10371000A304F4FE230504FEC957A305F4FE930792
:1037200084FE1146BE851145EFF0AF9D83A78187CA
:103730003E85EF20F02D2A87894763F0E7048D4707
:103740002322F4FE83A78187130644FE130784FE19
:103750008146BA853E85EF304038834794FEA20704
:103760001397070141878347A4FEC207C187D98FFA
:10377000C207C1872316F4FE31A80545EFC0BFC4B8
:103780008357E4FE138717002317E4FE1307700C1A
:10379000E37EF7F88357C4FE3E85F240624405613C
:1037A00082805D7186C6A2C480088547A307F4FEA7
:1037B000B7070020054723A6E73E9307C4FD13077C
:1037C000C004930620061306401F81453E85EFE0A6
:1037D0007F8D9307C4FD3E85EF40B12BAA87BDEFD7
:1037E000B707020003AEC7A61387C7A60323470087
:1037F0001387C7A6832887001387C7A60328C70097
:103800001387C7A6084B1387C7A64C4B1387C7A6B9
:10381000104F1387C7A6544F1387C7A61853938713
:10382000C7A6DC53232AC4FB232C64FA232E14FBE3
:10383000232004FD2322A4FC2324B4FC2326C4FC5F
:103840002328D4FC232AE4FC232CF4FC930744FB18
:103850003E85EF40F129AA87A307F4FE8347F4FED3
:103860003E85B640264461618280597186D6A2D4D5
:1038700080188547A307F4FE230704FE232404FED3
:10388000B707002023A6073E13050004EF7011437D
:10389000AA872324F4FE832784FE95E393068020E1
:1038A000B70702001386879FB70702009385C7A357
:1038B0000145EF20C0248947A307F4FEB1A4654564
:1038C000EF70D13FAA873E8723ACE18683A781872B
:1038D00095E79306F020B70702001386879FB70786
:1038E0000200938587A50145EF206021032584FE12
:1038F000EF70713D8947A307F4FE39A483A7818740
:1039000093060004032684FE81453E85EF3010585F
:1039100091679386270691671386C7048967938505
:1039200007581145EFF0EF9885451145EFF0EF8905
:10393000C933AA873E87239EE18683D7C18781CF7B
:103940009D39AA8789CB81451145EFF00F888D47B6
:10395000A307F4FE55AAB707020003AEC7A6138754
:10396000C7A6032347001387C7A6832887001387AA
:10397000C7A60328C7001387C7A6084B1387C7A687
:103980004C4B1387C7A6104F1387C7A6544F1387F6
:10399000C7A618539387C7A6DC532320C4FD232250
:1039A00064FC232414FD232604FD2328A4FC232ADD
:1039B000B4FC232CC4FC232ED4FC2320E4FE2322BD
:1039C000F4FEB707020003A3C7AC1387C7AC832874
:1039D00047001387C7AC032887001387C7AC484745
:1039E0001387C7AC0C4B1387C7AC504B1387C7ACBE
:1039F000144F1387C7AC584F9387C7AC9C53232EE3
:103A000064F8232014FB232204FB2324A4FA232696
:103A1000B4FA2328C4FA232AD4FA232CE4FA232E56
:103A2000F4FA930704FC3E85EFF07F8EAA8795C7D2
:103A30009306C024B70702001386879FB7070200CA
:103A4000938547A90145EF20800B81451145EFE0A3
:103A5000DFF78547A307F4FE45A89307C4F93E8521
:103A6000EFF01F9EAA8795C793068025B70702002F
:103A70001386879FB7070200938507AB0145EF20A8
:103A8000000881451145EFE05FF48547A307F4FE88
:103A9000A5A8230704FEA1A88347E4FE85078A079B
:103AA000130704FFBA97039707FD8347E4FE8A07CD
:103AB000930604FFB6978397C7FA631FF7028347FD
:103AC000E4FE85078A07130704FFBA97039727FDCB
:103AD0008347E4FE8A07930604FFB6978397E7FAC5
:103AE000631CF7008347E4FE85072307F4FE0347C2
:103AF000E4FEA147E3F2E7FA8347E4FE93B78700C9
:103B000093F7F70FA307F4FE032584FEEF70B11BB4
:103B100083A781873E85EF70111B23AC0186834705
:103B2000F4FE3E85B650265465618280797106D6D2
:103B300022D40018A30704FEB73700001386E76DF0
:103B400081450D457128EFF0DFC5AA8799CFB737BA
:103B500000001386E76DB7370000938507690D45B0
:103B600041202133AA87A307F4FE8347F4FEB9E777
:103B700091473EC495473EC299473EC09308900284
:103B800013088002930760021307B00493069004A1
:103B900013068004A9452545EFC05F97930680076B
:103BA000996713860782B707002093858760B70758
:103BB000002013858760EFC0FFA629A0014681453C
:103BC000014539288347F4FE3E85B25022544561B1
:103BD0008280411122C600080100324441018280E6
:103BE000011122CE00102326A4FE2324B4FE23229A
:103BF000C4FE0327C4FE23A0E188832744FE81C7B7
:103C0000832744FE29A0B7470000938727BD23A63A
:103C1000F180832784FE81C7832784FE29A0B747CC
:103C20000000938727BD23A4F18001007244056141
:103C30008280797106D622D40018232EA4FC232674
:103C400004FE0327C4FD93074006B307F702232EA3
:103C5000F4FC39A82945EFC03F818327C4FE8507BE
:103C60002326F4FE0327C4FD8327C4FE63F9E7007F
:103C700013051004EFD06F88AA87E9DF11A00100B7
:103C80000327C4FD8327C4FEB3B7E70093C717001B
:103C900093F7F70F3E85B25022544561828001119F
:103CA00006CE22CC00102326A4FEAE872322C4FE1B
:103CB00036872315F4FEBA872314F4FEB7070020D5
:103CC0009387C7049C470547D8CB8327C4FE89CB7D
:103CD0008357A4FE3E868325C4FE0545EFE0EFC76B
:103CE000832744FE89CB835784FE3E86832544FE8A
:103CF0000545EFE08FC6B70700209387C7049C47B0
:103D0000054798CB0100F2406244056182800111B1
:103D100006CE22CC00102326A4FEAE872315F4FE87
:103D2000B70700209387C7049C470547D8CB832754
:103D3000C4FE0327C4FE91463A86BE850545EFE0E2
:103D40006FCB8357A4FE99CF8327C4FE1387470008
:103D50008327C4FE91078356A4FE3E86BA85054597
:103D6000EFE04FC9B70700209387C7049C4705477A
:103D700098CB0100F240624405618280011106CEB9
:103D800022CC00102326A4FE2324B4FEB2872313E2
:103D9000F4FEB70700209387C7049C470547D8CB9C
:103DA000832784FE09472380E700832784FE035787
:103DB00064FE2391E700832784FE032784FE914657
:103DC0003A86BE850545EFE0EFC2035764FE9307D0
:103DD000000263FAE702832784FE9107930600023C
:103DE0003E868325C4FE0545EFE0CFC08327C4FE91
:103DF00013870702835764FE81173E86BA850545FF
:103E0000EFE0AFB515A8832784FE9107035764FE42
:103E10003A868325C4FE3E85EF70816B832784FE3E
:103E200013874700832784FE9107930600023E868E
:103E3000BA850545EFE00FBCB70700209387C7049C
:103E40009C47054798CB0100F2406244056182809F
:103E5000797106D622D40018232EA4FC232CB4FC9E
:103E6000B2872328D4FC231BF4FC8547A307F4FE68
:103E70008327C4FD93F7F70F2304F4FE835764FDF3
:103E80002315F4FE032504FD6D33AA87A1EB035728
:103E900064FD930784FEBA86032684FD91453E8522
:103EA000FD3B032504FD7133AA879DEB894723045D
:103EB000F4FE231504FE0357A4FE930784FEBA857F
:103EC0003E85B1355145EFC02FDA034784FE930795
:103ED00000086318F700A30704FE21A0010011A049
:103EE00001008347F4FE3E85B25022544561828032
:103EF000797106D622D40018232EA4FC232CB4FCFE
:103F0000232AC4FC8547A307F4FE032544FD15338B
:103F1000AA87A1EB8327C4FD13F7F70F832784FD3E
:103F20002380E700832784FD814601469305000234
:103F30003E85B533032544FDEFF0BFCFAA8785E763
:103F4000832784FD09472380E700832784FD23918D
:103F5000070093050002032584FD553BA30704FEDB
:103F600021A0010011A001008347F4FE3E85B2505C
:103F7000225445618280397106DE22DC800093077D
:103F800084FC1306803EBE85130500029537AA8780
:103F9000A307F4FE8347F4FE8DE7034784FC9307F1
:103FA000000A6310F7028357A4FC3E87930784FC42
:103FB00091073A86BE85B7670020138587E2EF70C8
:103FC00021518347F4FE3E85F25062542161828084
:103FD000397106DE22DC8000930784FC1306803EE4
:103FE000BE85130510022937AA87A307F4FE83476D
:103FF000F4FE8DE7034784FC9307100A6310F70271
:104000008357A4FC3E87930784FC91073A86BE85BC
:10401000B7670020138547E3EF70814B8347F4FEB9
:104020003E85F250625421618280397106DE22DCC5
:104030008000930784FC1306803EBE851305200292
:10404000453DAA87A307F4FE8347F4FE8DE70347A7
:1040500084FC9307200A6310F7028357A4FC3E8771
:10406000930784FC91073A86BE85B76700201385C5
:1040700087E4EF70E1458347F4FE3E85F2506254D9
:1040800021618280597186D6A2D48018232EA4F88B
:10409000232CB4F8832784F995C31307C4FA832625
:1040A00084F90326C4F9B7070200938507AF3A8560
:1040B000EF80C11AAA872317F4FE39A81307C4FAA0
:1040C0000326C4F9B70702009385C7AF3A85EF808E
:1040D000E118AA872317F4FE0356E4FE1307C4FA77
:1040E000896793860771BA8541459D33AA87A306E0
:1040F000F4FE253F8347D4FE3E85B65026546561C5
:1041000082805D7186C6A2C48008232EA4FA232C67
:10411000B4FA232AC4FA2328D4FA130544FC8327CB
:1041200004FB032744FB832684FB0326C4FBB7055B
:104130000200938545B0EF806112AA872317F4FE31
:104140000356E4FE130744FCB16793860735BA852E
:104150004545EFF0FFCFAA87A306F4FEF935834764
:10416000D4FE3E85B6402644616182805D7186C67C
:10417000A2C48008232EA4FA232CB4FA83A7418872
:10418000639B0710054723A2E18879A0832784FB5E
:10419000056761176374F7008567E1172317F4FE5D
:1041A0001305803EEFF0FFA8AA87BDEB0357E4FE9E
:1041B000930784FC3A86BE850325C4FBEFF01FBC41
:1041C000034784FC930700096308F700034784FC56
:1041D000930710096313F7028357A4FC99CF835701
:1041E000A4FC3E87930784FC91073A86BE85B76797
:1041F0000020138547E6EF20802F8357E4FE032736
:1042000084FBB307F740232CF4FA8357E4FE03271B
:10421000C4FBBA97232EF4FA832784FBA5FB95A051
:10422000010085A01305803EEFF0BFA0AA87ADE393
:1042300089472304F4FC231504FC930784FC9305AD
:1042400000023E85EFF0BFAC034784FC93070009F2
:104250006308F700034784FC930710096313F70210
:104260008357A4FC99CF8357A4FC3E87930784FC13
:1042700091073A86BE85B7670020138547E6EF2091
:104280000027034784FC93070009E30DF7F811A00A
:10429000010023A20188832784FB3E85B640264483
:1042A000616182805D7186C6A2C48008232EA4FA53
:1042B000232CB4FA8327C4FBB337F00093F7F70F2E
:1042C0003E8713063023B7070200938587B13A85EE
:1042D000EF10407C832784FB2326F4FE83A74188CC
:1042E000ADEF054723A2E1881305803EEFF07F94F0
:1042F000AA87ADE389472304F4FC231504FC930744
:1043000084FC930500023E85EFF07FA0034784FC08
:10431000930700096308F700034784FC930710091B
:104320006313F7028357A4FC99CF8357A4FC3E87FD
:10433000930784FC91073A86BE85B76700201385F2
:1043400047E6EF20C01A034784FC93070009E30DFA
:10435000F7F811A0010023A201889307C4FE81464B
:104360003E868325C4FBB7670020138547E6EF2010
:10437000C0768327C4FE3E85B640264461618280B4
:10438000397106DE22DC8000930784FC1306803E30
:10439000BE8513050002EFF0BFB5AA87A307F4FEA0
:1043A0008347F4FE89EB034784FC9307000A6314F8
:1043B000F700894729A88347F4FE89EB034784FC6B
:1043C0009307000D6314F700814711A085473E85D0
:1043D000F250625421618280797106D622D400188D
:1043E000232EA4FC232CB4FCA30704FE9306004058
:1043F000B7670020138607E88145B767002013855B
:1044000047E6EF30A0281308F00F85679387E7028F
:1044100005671307F70285669386D60237C6C9017A
:10442000130606388D450545EFD07FE9B7470040B4
:104430009387078005472392E702C14605468545D5
:1044400013050004EFC03F96C146054685451D454E
:10445000EFC07F9593068002014681451305100445
:10446000EFC07F9481451D45EFC0BF812945EFB066
:104470009FF585451D45EFC0DF8013054006EFB071
:104480009FF423A20188ED3DAA8785E71308F00F6A
:1044900085679387E70205671307F70285669386AA
:1044A000D60237E6E4001306061C8D450545EFD01D
:1044B0001FE1EFF05FACAA87A307F4FE8347F4FE89
:1044C000A9E7EFF0FFB0832584FD0325C4FDEFF0DD
:1044D0007FBBAA87A307F4FE8347F4FE8DEBB707E3
:1044E0000200938687B5B7070200138607B6B707A1
:1044F0000200938587B6B7070200138587B7EFF0F0
:104500005FC0AA87A307F4FE21A0010011A001004B
:104510008347F4FE3E85B250225445618280797112
:1045200006D622D40018232EA4FC232CB4FC8547E5
:10453000A307F4FE230204FEA30204FE230304FEE9
:10454000A30304FE230404FEA30404FE230504FEC7
:10455000A30504FEA1472320F4FE0545EFB0BFE606
:10456000A1472320F4FE130704FE930744FE85466B
:104570003A86BE85B767002013858731EF207030FB
:10458000930744FE8325C4FD3E85EF701164AA871E
:1045900081C7A30704FE91A0130744FEB7070200DA
:1045A0009385C7B73A85EF705162AA8781EF1307E9
:1045B00044FEB7070200938547B83A85EF70F16073
:1045C000AA8789C78547A307F4FE01A8832784FD2E
:1045D0001387F7FF232CE4FCC9F38347F4FE3E85E1
:1045E000B250225445618280411106C622C400089F
:1045F000B767002013858731EF10D01C0100B2404F
:104600002244410182805D7186C6A2C48008232EA7
:10461000A4FA232CB4FA8327C4FBB337F00093F732
:10462000F70F3E871306D03BB7070200938507C9F3
:104630003A85EF1020468967938707712326F4FE99
:10464000232604FC232804FC232A04FC232C04FC3A
:10465000232E04FC232004FE232204FE232404FE34
:10466000B76700209387072803A747098547631D7D
:10467000F710B76700209387072883A7C708639CB4
:10468000070E9D37032784FB9307C4FCBA853E853C
:10469000EF306024032784FB896763FAE700B707DC
:1046A0000200938587D71945EFE00FAC01A8B70743
:1046B0000200938587D81945EFE00FABB76700205C
:1046C0009387072803A7070985476319F700B707EA
:1046D0000200938547D91945EFE00FA99307C4FC61
:1046E000BE851945EFE04FA8B7070200938507BACA
:1046F0001945EFE06FA7896793850771B707020037
:10470000138587B9293DAA87C1E3F93D032684FBB8
:104710008325C4FB1945EFE0CF9E89679385077118
:10472000B7070200138587B9EFF07FDFAA87A9EFEB
:10473000232C04FA91A8010013058008EFC0EFDBD9
:10474000AA8789CB8327C4FE1387F7FF2326E4FEBD
:10475000E344F0FE8327C4FE6357F0028327C4FBC3
:1047600083C70700BE851945EFE00F948327C4FB7C
:104770008507232EF4FA832784FB1387F7FF232C66
:10478000E4FAD5FB11A001008535832784FB3E8523
:10479000B640264461618280797106D622D4001821
:1047A000232EA4FC232CB4FC8327C4FDB337F000D4
:1047B00093F7F70F3E8713062043B7070200938550
:1047C00007C93A85EF10002D832784FD2326F4FEC8
:1047D0009307C4FE81463E868325C4FDB76700204B
:1047E00013858731EF20602F8327C4FE3E85B250AA
:1047F000225445618280797106D622D40018232E76
:10480000A4FC232CB4FC8327C4FDB337F00093F73A
:10481000F70F3E8713063006B7070200938547E37C
:104820003A85EF102027231704FEBDA0130580084A
:10483000EFC0AFCCAA87B9E3032784FDF54763F542
:10484000E70279468325C4FD1945EFE08F8B832766
:10485000C4FDF907232EF4FC832784FD8917232C3C
:10486000F4FC231704FE0DA8032684FD8325C4FD54
:104870001945EFE00F89232C04FC25A08357E4FEA3
:1048800085072317F4FE0357E4FE9307300663E918
:10489000E7000545EFB03FB3832784FDC1FB11A0BE
:1048A0000100832784FD3E85B250225445618280F9
:1048B000797106D622D40018232EA4FC232CB4FC34
:1048C0008327C4FDB337F00093F7F70F3E87130635
:1048D000700CB7070200938547E33A85EF10801B01
:1048E000832784FD2326F4FE9307C4FE81463E867B
:1048F0008325C4FDB767002013854733EF20E01DF3
:104900008327C4FE3E85B25022544561828079716E
:1049100006D622D40018232EA4FC232CB4FCB28784
:10492000A30BF4FCB687231AF4FCBA872319F4FC12
:10493000232604FE1307A0FA2384E1889387818845
:104940000947A380E7008327C4FD93F7F70F960775
:1049500013F7F70F832784FD99E3C14711A081471F
:10496000D98F13F7F70F834774FDD98F13F7F70F1C
:10497000938781882381E700938781882147A381DA
:10498000E70093878188035744FD2392E7009387CC
:104990008188035724FD2393E70003A74181A145A4
:1049A0001385818802970327C4FD8947630AF702AC
:1049B0000327C4FD8D47630EF7020327C4FD854717
:1049C0006313F704035744FD835724FDB307F7022D
:1049D00013D7F7411D8BBA978D872326F4FE25A0A8
:1049E000035744FD835724FDB307F7022326F4FE43
:1049F00019A8035744FD835724FDB307F702860720
:104A00002326F4FE0100832784FD81CB83A7418107
:104A10008325C4FE032584FD82970100B2502254F1
:104A200045618280797106D622D40018232EA4FC19
:104A3000231604FE9387018983D747002316F4FECB
:104A40009387018983C7270093F7070291C783578C
:104A5000C4FE86072316F4FE03A74181A1451385F2
:104A600001890297A30704FEA5A08347F4FE03274C
:104A7000C4FD8A07BA97DC4799CF83A64181834753
:104A8000F4FE0327C4FD8A07BA97DC470357C4FE28
:104A9000BA853E8582968347F4FE0327C4FDA107AD
:104AA0008A07BA97DC4785C383A641818347F4FE12
:104AB0000327C4FDA1078A07BA97DC470357C4FE42
:104AC000BA853E8582968347F4FE8507A307F4FEE8
:104AD0000347F4FE9D47E3FAE7F80100B250225481
:104AE00045618280011122CE00102326A4FE2324DA
:104AF000B4FEB28736872313F4FEBA872312F4FE7E
:104B00001307A0FA2388E188938701890D47A380C2
:104B1000E700938701892147A381E700B767002059
:104B2000938707350327C4FE98C7B767002003277C
:104B300084FE23A8E734B76700209387073503571F
:104B400064FE2392E700B767002093870735035779
:104B500044FE2393E70001007244056182803971AD
:104B600006DE22DC8000232EA4FC232AC4FC23289A
:104B7000D4FC2326E4FC2324F4FC232204FD23207C
:104B800014FDAE87231DF4FCA30704FE230704FED7
:104B9000A30604FEB7670020938707359C47B33709
:104BA000F00093F7F70F3E8713068010B707020057
:104BB000938587E73A85EF00F06D93870189035766
:104BC000A4FD2392E7009387018923830700A307AD
:104BD00004FE1DA88347F4FE37670020130707353E
:104BE0008A07BA9723A607008347F4FE3767002099
:104BF000A107130707358A07BA9723A6070083473B
:104C0000F4FE8507A307F4FE0347F4FE8947E3F3A8
:104C1000E7FC0327C4FD85476308F7108327C4FD1D
:104C200099C70327C4FD8947630AF71E99AE8327F6
:104C300044FDB9C38347E4FE85072307F4FE938749
:104C4000018983C7670093E7170013F7F70F93876E
:104C500001892383E7008347F4FE13871700A30726
:104C6000E4FEBE86B76700201387073593972600BA
:104C7000BA97032744FDD8C7832704FDB9C38347E8
:104C8000E4FE85072307F4FE9387018983C7670045
:104C900093E7270013F7F70F938701892383E70032
:104CA0008347F4FE13871700A307E4FEBE86B767A9
:104CB00000201387073593972600BA97032704FD32
:104CC000D8C78327C4FCB9C38347E4FE85072307FD
:104CD000F4FE9387018983C7670093E7470013F7C2
:104CE000F70F938701892383E7008347F4FE138737
:104CF0001700A307E4FEBE86B767002013870735B9
:104D000093972600BA970327C4FCD8C7B76700203B
:104D10009387073503D767009307F00F63FEE724F7
:104D20008547A306F4FE89AC832784FCB1C383477F
:104D3000E4FE85072307F4FE9387018983C7670094
:104D400093E7170013F7F70F938701892383E70091
:104D50008347F4FE13871700A307E4FE376700209C
:104D6000A107130707358A07BA97032784FCD8C71A
:104D7000832744FCB1C38347E4FE85072307F4FE81
:104D80009387018983C7670093E7270013F7F70F1D
:104D9000938701892383E7008347F4FE1387170075
:104DA000A307E4FE37670020A107130707358A072A
:104DB000BA97032744FCD8C7832704FCB1C38347B1
:104DC000E4FE85072307F4FE9387018983C7670004
:104DD00093E7470013F7F70F938701892383E700D1
:104DE0008347F4FE13871700A307E4FE376700200C
:104DF000A107130707358A07BA97032704FCD8C70A
:104E0000B76700209387073503D747009307F00F54
:104E100063F6E7168547A306F4FE8DA2832744FDBB
:104E2000A5C3832784FCA9CF8347E4FE8507230716
:104E3000F4FE9387018983C7670093E7170013F790
:104E4000F70F938701892383E7008347F4FE3767D1
:104E50000020130707358A07BA97032744FDD8C7F0
:104E60008347F4FE13871700A307E4FE376700208B
:104E7000A107130707358A07BA97032784FCD8C709
:104E8000832704FDA5C3832744FCA9CF8347E4FE01
:104E900085072307F4FE9387018983C7670093E79B
:104EA000270013F7F70F938701892383E7008347D0
:104EB000F4FE37670020130707358A07BA970327E0
:104EC00004FDD8C78347F4FE13871700A307E4FE49
:104ED00037670020A107130707358A07BA9703270A
:104EE00044FCD8C78327C4FCA5C3832704FCA9CFEF
:104EF0008347E4FE85072307F4FE9387018983C770
:104F0000670093E7470013F7F70F9387018923831F
:104F1000E7008347F4FE37670020130707358A0749
:104F2000BA970327C4FCD8C78347F4FE138717003A
:104F3000A307E4FE37670020A107130707358A0798
:104F4000BA97032704FCD8C7B767002093870735B3
:104F500003D747009307F00F63ECE700B767002023
:104F60009387073503D767009307F00F63FAE700CD
:104F70008547A306F4FE29A0010021A0010011A08D
:104F800001008327C4FD93F7F70F9A0713F7F70F74
:104F90008347D4FE960793F7F70FD98F13F7F70FD0
:104FA0008347E4FED98F13F7F70F93870189238195
:104FB000E7000100F250625421618280411106C66F
:104FC00022C40008B7670020938707359C47B33792
:104FD000F00093F7F70F3E8713068017B70702001C
:104FE000938587E73A85EF00F02AB767002093871B
:104FF00007358847B767002083A507359387018960
:1050000083C72700BD8B13F6F70FB7670020938780
:10501000073583D64700B76700209387073583D7C6
:1050200067003E87EFF0BF8E9387018983C7270013
:10503000BD8B99C7B767002013850735EFF09F9E9A
:105040000100B240224441018280011122CE0010B1
:105050002326A4FE2324B4FE832784FE3E857244C7
:1050600005618280011122CE00102326A4FE232494
:10507000B4FE81473E85724405618280011122CED3
:1050800000102326A4FE0327C4FE954763EFE7081C
:105090008327C4FE13972700B70702009387073FB3
:1050A000BA979C438287376700001307479B23AA60
:1050B000E180376700001307E79D23ACE180B5A0CE
:1050C000374700001307677F23AAE18037570000A6
:1050D0001307078B23ACE18089A83737000013073B
:1050E000070D23AAE180373700001307A71823AC68
:1050F000E18025A8374700001307676023AAE180F5
:10510000374700001307877923ACE18039A8374778
:1051100000001307C71623AAE180374700001307D2
:10512000472A23ACE18011A001000100724405610F
:105130008280411122C60008B71702409843B71772
:1051400002401367170098C3B7170240D443B7173C
:1051500002403707FFF8758FD8C3B7170240944352
:10516000B71702403707F7FE7D17758F98C3B7173B
:1051700002409443B71702403707FCFF7D17758F35
:1051800098C3B7170240D443B7170240370781FFCF
:105190007D17758FD8C3B717024037079F0098C790
:1051A0000100324441018280797106D622D4001870
:1051B000232EA4FCBD3F232604FE232404FEB717A0
:1051C00002409443B71702404167558F98C3B71701
:1051D00002409843B7070200F98F2324F4FE832787
:1051E000C4FE85072326F4FE832784FE91E7032768
:1051F000C4FE8567E31DF7FCB71702409843B70765
:105200000200F98F89C785472324F4FE19A02324BF
:1052100004FE032784FE85476312F7163717024002
:10522000B71702405843D8C337170240B717024098
:105230005843D8C337170240B71702405843D8C362
:10524000B7170240D443B71702403707C1FF7D1795
:10525000758FD8C30327C4FDB747950893870740C8
:10526000631BF700B7170240D443B71702404167EA
:10527000558FD8C355A80327C4FDB71727079387B1
:1052800007E0631CF700B7170240D443B71702408A
:1052900037073900558FD8C341A80327C4FDB7E7A6
:1052A000B80593870780631CF700B7170240D44303
:1052B000B717024037072900558FD8C3B5A0032779
:1052C000C4FDB7A74A0493870720631CF700B717EC
:1052D0000240D443B717024037071D00558FD8C38B
:1052E000A1A00327C4FDB777DC02938707C0631C26
:1052F000F700B7170240D443B71702403707110031
:10530000558FD8C315A00327C4FDB7376E01938707
:105310000760631BF700B7170240D443B71702407A
:1053200037070500558FD8C3B71702409443B71706
:10533000024037070001558F98C30100B71702409C
:105340009843B7070002F98FF5DBB7170240D8433F
:10535000B7170240719BD8C3B7170240D843B7179D
:10536000024013672700D8C30100B7170240DC438F
:1053700013F7C700A147E31AF7FE11A001A0B2502E
:10538000225445618280011106CE22CC00102326D2
:10539000A4FE0327C4FE23AEE180EFF09FD90325CE
:1053A000C4FEEFF07FE0EF20607C0100F240624439
:1053B00005618280411122C60008010001003244CB
:1053C00041018280011106CE22CC0010232604FE6A
:1053D000232404FE232604FE25A0232404FE39A052
:1053E000D13F832784FE85072324F4FE032784FE10
:1053F000C167E367F7FE8327C4FE85072326F4FE13
:105400000327C4FE9307F00FE3F9E7FC0100F24025
:10541000624405618280411122C6000801003244C5
:1054200041018280011106CE22CC00102326A4FE69
:105430008325C4FE0945EFD02FD30100F24062441A
:1054400005618280130101D9232611262324812698
:1054500023229126801C232EA4D8232CB4D8232ABF
:10546000C4D82328D4D8231504FE231404FE231300
:1054700004FE231204FE231104FE032584D9EF60E9
:10548000B173AA87C207C1872313F4FEB767002050
:1054900083D7873F99C7B76700209387873F9C4B87
:1054A000829783C7818993F7F70F638B074EB7679E
:1054B000002083D7873F638D0746B7670020938717
:1054C000873FD447835724FE1397070141879317DB
:1054D0000701C1838507C207C183C207C1872311A2
:1054E000F4FE93170701C1830326C4D9BE85014585
:1054F0008296832784D92326F4FE032584D9EF607E
:10550000B16BAA87C207C1872313F4FEB7670020D7
:105510009387873F83D727003E87B767002093870D
:10552000873F83C76700B347F702C207C1872312CB
:10553000F4FE01008327C4FE138717002326E4FE30
:1055400083870700E5FB231404FEA1A88327C4FE7C
:10555000FD172326F4FE8327C4FE03870700930765
:10556000F002630AF7008327C4FE0387070093074E
:10557000C005631BF700835784FEC207C1838507FC
:10558000C207C1832314F4FE835764FEC207C18798
:10559000C207C183FD17C207C183C207C187231396
:1055A000F4FE835784FE139707014183854763E820
:1055B000E700835764FEC207C187E3D907F8835722
:1055C00064FEC207C18763C307028327C4FE850741
:1055D0002326F4FE130704EE0326C4FEB7070200D9
:1055E0009385C7EB3A85EF6071472DA8835784FEFA
:1055F000C207C18389EF130704EE0326C4FEB70771
:105600000200938587EC3A85EF60514521A8130786
:1056100004EE0326C4FEB70702009385C7EB3A8564
:10562000EF60D143231504FE05A2231404FE59A004
:10563000930704EE3E85EF6031582A87835784FE36
:10564000C207C183BE868357A4FEC207C1833E86BC
:10565000835744FEC207C187B307F602B697636754
:10566000F706835784FEC207C1833E878357A4FE93
:10567000C207C183BE86835744FEC207C187B38772
:10568000F602BA97035784FE42074183BA8613078E
:1056900004FFBA97038707EF930704FFB6972388A1
:1056A000E7EA835784FEC207C1838507C207C18327
:1056B0002314F4FE835784FEC207C1833E878357B9
:1056C00044FEC207C187E345F7F611A001008357E6
:1056D00084FEC207C183130704FFBA97238807EA31
:1056E000B76700209387873F03A8C700B7670020EC
:1056F0009387873F83C777001397070141838357B9
:1057000024FE93960701C18693970601C1838507FE
:10571000C207C183C207C1872311F4FE9397060114
:10572000C183B307F702C207C183130704EA3A86AD
:10573000BE85014502988357A4FEC207C183850731
:10574000C207C1832315F4FE8357A4FEC207C18399
:10575000BE84930704EE3E85EF6011462A87835787
:1057600044FEC207C187B357F7028507E3EFF4EAA7
:10577000130704EE032644D9B7070200938587ED8B
:105780003A85EF60B12DB76700209387873F03A864
:10579000C700B76700209387873F83C777001397B9
:1057A00007014183835724FE93960701C18693978F
:1057B0000601C1838507C207C183C207C1872311C0
:1057C000F4FE93970601C183B307F702C207C183B2
:1057D000130704EE3A86BE8501450298832704D953
:1057E0006380071C231504FE05A2231404FE59A0A0
:1057F000032504D9EF60513C2A87835784FEC207F2
:10580000C183BE868357A4FEC207C1833E868357E9
:1058100044FEC207C187B307F602B6976368F7066E
:10582000835784FEC207C1833E878357A4FEC20705
:10583000C183BE86835744FEC207C187B387F60281
:10584000BA973E87832704D9BA97035784FE420745
:105850004183BA8603870700930704FFB69723881E
:10586000E7EA835784FEC207C1838507C207C18365
:105870002314F4FE835784FEC207C1833E878357F7
:1058800044FEC207C187E345F7F611A00100835724
:1058900084FEC207C183130704FFBA97238807EA6F
:1058A000B76700209387873F03A8C700B76700202A
:1058B0009387873F83C777001397070141838357F7
:1058C00024FE93960701C18693970601C18385073D
:1058D000C207C183C207C1872311F4FE9397060153
:1058E000C183B307F702C207C183130704EA3A86EC
:1058F000BE85014502988357A4FEC207C183850770
:10590000C207C1832315F4FE8357A4FEC207C183D7
:10591000BE84032504D9EF60312A2A87835744FEC9
:10592000C207C187B357F7028507E3E0F4EC8DA8FF
:10593000930704DA1306001081453E85EFA05F8CC3
:10594000B76700209387873F9C470325C4D9829778
:10595000832704D985C3130504DA032704D98326D2
:1059600044D9032684D9B7070200938547EEEF6038
:10597000F10E31A8130704DA832644D9032684D90B
:10598000B7070200938507F03A85EF60310DB767DE
:1059900000209387873F9847930704DA3E85029754
:1059A00001008320C126032481268324412613017C
:1059B00001278280011106CE22CC00102326A4FEEE
:1059C0002324B4FE032684FE8325C4FE0945EFC0CC
:1059D0005FF381473E85F240624405618280011198
:1059E00006CE22CC00102326A4FE2324B4FE930767
:1059F00084FE81463E868325C4FEB767002013855A
:105A0000C73DEF10800D832784FE3E85F24062443F
:105A100005618280797106D622D40018232EA4FC59
:105A2000232CB4FC232AC4FC232604FEB9A00100C5
:105A3000B70702009387073D9C47930500043E8506
:105A4000EF00E146AA87EDD7B70702009387073D2D
:105A50009C47BE86832784FD13871700232CE4FC14
:105A600083870700C207C183BE853685EF004141A9
:105A70008327C4FE85072326F4FE0327C4FE83275D
:105A800044FDE346F7FA832744FD3E85B250225495
:105A900045618280011106CE22CC0010AA87232402
:105AA000B4FE2322C4FEA307F4FE8347F4FEB9E349
:105AB00083C7018293F7F70F95CF83C7918991C36D
:105AC00001A083C79189850713F7F70FA38CE1889D
:105AD000EF200007EFF03F948146032644FE832524
