:100000006F10A13B1300000013000000130000005C
:100010001300000013000000130000001300000094
:100020001300000013000000130000001300000084
:08003000130000007300100032
:10003800000000000000000040050100500501001C
:100048000000000000130100000000000000000094
:10005800021301000413010000000000000000006A
:100068000613010000000000081301000000000052
:100078000A1301000C1301000E13010010130100F4
:100088001213010014130100F2F70000A6F8000093
:100098005AF900000EFA0000C2FA0000201301000D
:1000A8002213010024130100261301002813010064
:1000B8002A1301002C1301002E1301003013010034
:1000C80032130100341301003613010076FB0000DF
:1000D8003A130100C8FD00003E130100401301005F
:1000E80088FE000048FF00001000010048130100CE
:1000F8004A1301004C1301004E1301005013010074
:100108005213010004F10000C8F100008CF2000055
:1001180092FC00005C1301005E13010060130100F3
:10012800080301006413010066130100681301004D
:100138006A1301006C130100D00001007013010064
:1001480050F3000014F4000090010100480201007F
:100158007A1301007C1301007E1301008013010053
:100168008213010084130100861301008813010023
:100178008A1301008C1301008E13010092350100CF
:10018800921301009413010022F70000D6F4000036
:100198009AF5000062F600009E130100C8030100F2
:1001A800A2130100A4130100A61301008804010092
:1001B800AA130100AC130100AE130100B013010033
:1001C800B2130100B4130100B6130100B813010003
:1001D8000000000000000000000000000000000017
:1001E8000000000000000000000000000000000007
:0801F8000000000000000000FF
:100200003D432A876373C3029377F700BDEFADE5E3
:10021000937606FF3D8ABA960CC34CC30CC74CC7F5
:100220004107E36BD7FE11E28280B306C3408A0622
:100230009702000096966780A6002307B700A306E2
:10024000B7002306B700A305B7002305B700A30432
:10025000B7002304B700A303B7002303B700A3022A
:10026000B7002302B700A301B7002301B700A30022
:10027000B7002300B700828093F5F50F93968500B1
:10028000D58D93960501D58D61B79396270097027A
:10029000000096968682E78086FA9680C1171D8FA9
:1002A0003E96E374C3F8A5B73367B500FD530D8BD5
:1002B00079E7B7877F7F9387F7F710419441B3724F
:1002C000F6003363F600BE92B3E262006397720CED
:1002D0006318D6065041D441B372F6003363F6007A
:1002E000BE92B3E262006398720A631BD6041045A3
:1002F0009445B372F6003363F600BE92B3E2620037
:100300006391720A631ED6025045D445B372F6005B
:100310003363F600BE92B3E26200639A720863111F
:10032000D60210499449B372F6003363F600BE92C8
:10033000B3E26200639372085105D105E30FD6F66C
:100340001317060193970601631CF7001357060164
:1003500093D706013305F7409375F50F91E9828035
:100360004183C1833305F7409375F50F91E1828096
:100370001377F70F93F7F70F3305F74082800346A3
:10038000050083C60500050585056313D60065FADB
:100390003305D640828011059105E312D6FE014552
:1003A00082802105A105E31CD6FC01458280310530
:1003B000B105E316D6FC014582804105C105E31075
:1003C000D6FC01458280011122CE00102326A4FE16
:1003D00037F500E08328450037F500E093F8E8FFA3
:1003E0002322150183A8C1810965130505F433D5BE
:1003F000A802AA8601470325C4FEAA87014837F54B
:1004000000E03303F702B308D8029A983383F60268
:1004100033B6F6029A85B387C8003E860CC950C928
:10042000B7F700E09843B7F700E01367070198C3F8
:10043000B7F700E09843B7F700E01367170298C3D7
:100440000100B7F700E0DC4313F717008547E31A14
:10045000F7FEB7F700E09843B7F700E0799B98C341
:100460000100724405618280011122CE0010232612
:10047000A4FE37F500E08328450037F500E093F847
:10048000E8FF2322150183A8C18137157A001305DF
:10049000052033D5A802AA8601470325C4FEAA87F2
:1004A000014837F500E03303F702B308D8029A9801
:1004B0003383F60233B6F6029A85B387C8003E86C8
:1004C0000CC950C9B7F700E09843B7F700E01367CD
:1004D000070198C3B7F700E09843B7F700E0136748
:1004E000170298C30100B7F700E0DC4313F71700C9
:1004F0008547E31AF7FEB7F700E09843B7F700E047
:10050000799B98C30100724405618280011106CE77
:1005100022CC0010AA8E2E8E32833685BA853E8676
:10052000C2864687F687A307F4FEF2872307F4FE08
:100530009A87A306F4FEAA872306F4FEAE87A305D6
:10054000F4FEB2872305F4FEB687A304F4FEBA874F
:100550002304F4FE8347F4FE93068004014681459C
:100560003E85EF0090038347E4FE93068004014636
:1005700081453E85EF0070028347D4FE93068004D8
:10058000014681453E85EF0050018347C4FE930636
:100590008004014681453E85EF0030008347B4FE6C
:1005A00093068004014681453E85EF00007F834726
:1005B000A4FE93068004014681453E85EF00E07D60
:1005C000834794FE93068004014681453E85EF00F3
:1005D000C07C834784FE93068004014681453E85A6
:1005E000EF00A07B834744009306800401468145C9
:1005F0003E85EF00807A834704009306800401461D
:1006000081453E85EF00607983478400930680042E
:10061000014681453E85EF0040780100F24062448A
:1006200005618280011106CE22CC00102326A4FE93
:100630002324B4FEB28736872313F4FEBA8723122D
:10064000F4FE85450965EF106177B70705500D4742
:100650002380E700B70705500547A380E700B707E9
:100660000550035744FE2392E700B7070550035790
:1006700064FE2393E700B70705500327C4FE98C71D
:10068000B7070550032784FED8C7B70705501147A1
:100690002381E700814513056005EF70603713057E
:1006A0006005EF7020330100F240624405618280F2
:1006B000797106D622D40018232EA4FC231704FE39
:1006C000231604FE0327C4FDA54763E0E70C832738
:1006D000C4FD13972700F5679387C761BA979C43BA
:1006E0008287B7370140938707C083D74702C20785
:1006F000C1832317F4FE69A8B707004083D74702D8
:10070000C207C1832317F4FE61A0B7070040938797
:10071000074083D74702C207C1832317F4FE8DA881
:10072000B71700409387078083D74702C207C1836A
:100730002317F4FEB1A8B7170040938707C083D7EB
:100740004702C207C1832317F4FE99A0B7370140BF
:100750009387074083D74702C207C1832317F4FE5C
:1007600005A8B7570140938707C083D74702C20740
:10077000C1832317F4FE29A8B757014083D7470246
:10078000C207C1832317F4FE21A0231704FE010032
:10079000B7070020138707048327C4FDBA9783C7D0
:1007A000070013F7F70F9307F00F6317F70083574E
:1007B000E4FE2316F4FE2DA8B707002013870704D4
:1007C0008327C4FDBA9783C7070093F7F70F3E85C9
:1007D000392BAA8791EB8357E4FEB307F040C20799
:1007E000C1832316F4FE29A08357E4FE2316F4FEEA
:1007F0008317C4FE3E85B2502254456182800111A8
:1008000022CE00102326A4FE0327C4FEA54763E0E2
:10081000E7088327C4FE13972700F567938747648B
:10082000BA979C438287B7370140938707C02392CA
:100830000702B9A8B70700402392070291A8B7079B
:100840000040938707402392070299A0B717004002
:10085000938707802392070225A8B7170040938744
:1008600007C0239207022DA0B737014093870740A6
:100870002392070231A8B7570140938707C02392FC
:10088000070239A0B75701402392070211A00100C7
:100890000100724405618280397106DE22DC80002D
:1008A0002326A4FC2324B4FC2322C4FC232604FE18
:1008B00091450325C4FCEF10D049AA873E87130653
:1008C0000008F567938587BF3A85EF50E0108327CE
:1008D00084FCB1830327C4FCB307F74093B7170028
:1008E00093F7F70F3E8713061008F567938587BFC8
:1008F0003A85EF50600E832744FCB1830327C4FC84
:10090000B307F74093B7170093F7F70F3E87130627
:100910002008F567938587BF3A85EF50E00B0325E4
:10092000C4FCEF107049832784FC93F7F70F9306FC
:100930008004014681453E858D21832744FC93F741
:10094000F70F93068004014681453E85B9210327B0
:10095000C4FCA54763E0E7088327C4FC139727007E
:10096000F5679387C766BA979C438287B73701407C
:10097000938707C02324F4FE8DA0B70700402324EB
:10098000F4FEA1A8B7070040938707402324F4FE94
:10099000A9A0B7170040938707802324F4FE35A849
:1009A000B7170040938707C02324F4FE3DA0B73754
:1009B0000140938707402324F4FE05A0B757014068
:1009C000938707C02324F4FE09A8B75701402324C6
:1009D000F4FE21A085472326F4FE832784FC13D749
:1009E00087008D47631AF7008545B7071600138502
:1009F000070CEF00B169E5A8832784FC13D78700B3
:100A0000C547631AF7008545B70718001385071017
:100A1000EF00D167E9A8832784FC13D787009307E9
:100A20002002631AF7008545B7171A00138507805F
:100A3000EF00D1656DA8832784FC13D78700930747
:100A40003002631AF7008545B7171A00138507C0EF
:100A5000EF00D16369A8832784FC13D7870093072D
:100A600010036317F70085450565EF00316241A06B
:100A7000832784FC13D7870093071007631AF700B6
:100A80008545B707008013854700EF00316085A0DA
:100A9000832784FC13D7870093073008631AF70075
:100AA0008545B707138013850701EF00315E81A0EC
:100AB000832784FC13D7870093071009631AF70074
:100AC0008545B707158013850702EF00315C05A047
:100AD000832784FC13D78700930730096319F70035
:100AE0008545B707158013850704EF00315A832722
:100AF000C4FEADEB85450545EF10A130232E04FC67
:100B0000232004FE231204FE9307C4FD3E85EF104C
:100B10003162231E04FCFD572310F4FE231104FE52
:100B2000231F04FC230204FE9307C4FDBE85032596
:100B300084FEEF10015B93050006032584FEEF1091
:100B400071758545032584FEEF105162814601468B
:100B50008945032584FEEF10317D8545032584FEFC
:100B6000EF10D1600100F2506254216182807971EE
:100B700006D622D40018232EA4FC232CB4FC8545D1
:100B80000545EF100128930680040546814503259D
:100B9000C4FD21248327C4FD958313F7F70F832712
:100BA000C4FD93F7F70FFD8B93F7F70FBE853A85DA
:100BB000EF00516A232004FE232204FE232404FEB6
:100BC000232604FE8327C4FDFD8B0547B317F700DA
:100BD0002320F4FE232204FE832784FD2324F4FE35
:100BE00085472326F4FE930704FE3E85EF0091051A
:100BF0008327C4FDFD8B89E75945EF60B05DBDA03B
:100C00008327C4FDF98B89E75D45EF60B05CB9A827
:100C10008327C4FD13F7F701894763E6E7006145C1
:100C2000EF60505BA1A08327C4FDF18B89E7654588
:100C3000EF60505A25A88327C4FD13F7F7019147A9
:100C400063E6E7006945EF60F0580DA08327C4FD17
:100C500013F7F701A54763E7E70013057002EF609C
:100C6000705729A013058003EF60D0560100B250E1
:100C7000225445618280011122CE00102326A4FE59
:100C8000AE87A305F4FE8347B4FE85CB8327C4FE5D
:100C9000BD8B0547B317F70093960701C1828327E1
:100CA000C4FE13D75700B70700200A079387C7046D
:100CB000BA979C43368798CB3DA08327C4FEBD8B53
:100CC0000547B317F70093960701C1828327C4FE37
:100CD00013D75700B70700200A079387C704BA97AE
:100CE0009C433687D8CB0100724405618280011194
:100CF00022CE00102326A4FE8327C4FE958313F77B
:100D00007700B70700200A079387C704BA979C4368
:100D10009C470327C4FE7D8B85463397E600F98FF9
:100D2000B337F00093F7F70F3E8572440561828078
:100D3000797122D60018232EA4FC8327C4FD958345
:100D400093F7F70F9D8BA307F4FE8327C4FD93F75A
:100D5000F70FFD8B2307F4FE0347F4FEB7070020CF
:100D60000A079387C704BA979C43D8478347E4FE92
:100D70008546B397F600C207C1833E868346F4FEDC
:100D8000B70700208A069387C704B6979C43318F24
:100D9000D8C70100325445618280797106D622D4C9
:100DA0000018232EA4FC232CB4FCB2872328D4FCE7
:100DB000A30BF4FC232004FE232204FE232404FEC0
:100DC0008327C4FD958393F7F70F9D8BA307F4FE4C
:100DD0008327C4FD93F7F70FFD8B2307F4FE8347AA
:100DE000F4FE91E785451145EF10A10191A8034755
:100DF000F4FE85476317F70085452145EF10610034
:100E000081A00347F4FE89476317F70085454145F4
:100E1000EF00317F35A00347F4FE8D476318F700DC
:100E2000854513050002EF00D17D19A80347F4FEA4
:100E300091476317F700854513050004EF00717CA7
:100E40008347E4FE0547B317F700C207C1832310A9
:100E5000F4FE032784FD85476317F702832704FD0B
:100E6000C207C183A183C207C18389E78D472322BB
:100E7000F4FE11A8832704FDC207C183A183C20722
:100E8000C1832322F4FE832704FDC207C18393F7A5
:100E9000F70F2324F4FE0347F4FEB70700200A07E8
:100EA0009387C704BA979C43130704FEBA853E850F
:100EB000EF00A177032784FD85476319F7020347F5
:100EC000F4FEB70700200A079387C704BA97944334
:100ED0008347E4FE0547B317F700C207C183034702
:100EE00074FD3A86BE853685EF00D1160100B250FA
:100EF0002254456182801D7186CEA2CC80102326AB
:100F0000A4FA2324B4FA85450325C4FAEF106064DB
:100F1000AA873E871306D006F567938507C63A85EC
:100F2000EF40902B832784FAB337F00093F7F70F45
:100F30003E871306F006F567938507C63A85EF40AE
:100F4000B029832784FABD832315F4FE8357A4FEBA
:100F500085073E87832784FAB3D7E7022314F4FE7C
:100F60000325C4FAEF104065B7370140938707C0E7
:100F70002326F4FE0327C4FAA54763ECE70883277A
:100F8000C4FA13972700F56793874769BA979C437C
:100F90008287B7370140938707C02326F4FE95A8C0
:100FA000B70700402326F4FEADA0B70700409387A3
:100FB00007402326F4FEB1A8B717004093870780A7
:100FC0002326F4FEB9A0B7170040938707C0232655
:100FD000F4FE81A0B71700402326F4FE1DA8B71722
:100FE0000040938707402326F4FE25A0B737014031
:100FF000938707402326F4FE29A8B757014093871B
:1010000007C02326F4FE31A0B75701402326F4FE83
:101010000100232E04FC232004FE231204FE835728
:1010200084FE2310F4FE8357A4FE231EF4FC231138
:1010300004FE231F04FC230204FE9307C4FDBE85A7
:101040000325C4FEEF10E109054685450325C4FECE
:10105000EF10511D85450325C4FEEF10716AF56739
:1010600003AE87C3138787C303234700138787C350
:1010700083288700138787C30328C700138787C384
:10108000084B138787C34C4B138787C3104F1387B5
:1010900087C3544F138787C31853938787C3DC5381
:1010A000232AC4FB232C64FA232E14FB232004FDE3
:1010B0002322A4FC2324B4FC2326C4FC2328D4FC30
:1010C000232AE4FC232CF4FC8327C4FA93F7F70FBC
:1010D0008A07130704FFBA9783A747FC8D453E850F
:1010E000EF6010138327C4FA8A07130704FFBA9727
:1010F00083A747FC3E85EF60F00D85450325C4FEC0
:10110000EF10D1060100F6406644256182807971B6
:1011100006D622D40018232EA4FC232CB4FC0327CB
:1011200084FD896793871771B337F70093F7F70F3B
:101130003E8713065003F5679385C7C93A85EF408C
:10114000B009B7370140938707C02326F4FE8327F1
:10115000C4FDC183BD8B2547636EF7061397270037
:10116000F5679387C76BBA979C438287B73701406F
:10117000938707C02326F4FEB1A8B70700402326B3
:10118000F4FE89A8B7070040938707402326F4FEA2
:1011900091A0B7170040938707802326F4FE1DA86F
:1011A000B7170040938707C02326F4FE25A0B73762
:1011B0000140938707402326F4FE29A8B757014032
:1011C000938707C02326F4FE31A0B757014023269A
:1011D000F4FE01008327C4FE83D7C7022315F4FE63
:1011E0000357A4FE832784FD3307F702896793879B
:1011F0000771B357F7022314F4FE8327C4FDA183BC
:101200008D8B81EB8327C4FE035784FE239AE7026C
:10121000A9A88327C4FDA18313F737008547631965
:10122000F7008327C4FE035784FE239CE70235A8FA
:101230008327C4FDA18313F7370089476319F7009B
:101240008327C4FE035784FE239EE70239A8832721
:10125000C4FDA18313F737008D476318F700832778
:10126000C4FE035784FE2390E7040100B2502254C9
:10127000456182805D7186C6A2C48008232EA4FACF
:10128000232CB4FA232AC4FA8327C4FBC1838D45D7
:101290003E85EF10002CAA873E871306D00AF5671B
:1012A0009385C7C93A85EF402073032744FB8967BC
:1012B00093871771B337F70093F7F70F3E8713063D
:1012C000F00AF5679385C7C93A85EF40E070232E91
:1012D00004FC232004FE231204FE232604FC2328FE
:1012E00004FC232A04FC232C04FC231504FE83277E
:1012F000C4FBC183BD8B3E85EF10002C8327C4FB4C
:1013000093F7F70F93068031014685453E8571348A
:1013100085450545EF00F12EB7370140938707C09B
:101320002326F4FE8327C4FBC183BD8B2547636E50
:10133000F70613972700F5679387476EBA979C4384
:101340008287B7370140938707C02326F4FEB1A8F0
:10135000B70700402326F4FE89A8B707004093870B
:1013600007402326F4FE91A0B7170040938707801B
:101370002326F4FE1DA8B7170040938707C0232635
:10138000F4FE25A0B7370140938707402326F4FEDB
:1013900029A8B7570140938707C02326F4FE31A040
:1013A000B75701402326F4FE01008327C4FB13D75F
:1013B000C7008D47631AF7008545B70716001385E8
:1013C000070CEF00A14C15AA8327C4FB13D7C70055
:1013D000C547631AF7008545B7071800138507103E
:1013E000EF00C14A19AA8327C4FB13D7C700C94716
:1013F000631AF7008545B707180013850720EF002B
:10140000E148E5A88327C4FB13D7C700CD47631A7B
:10141000F7008545B707180013850730EF0001472F
:10142000E9A88327C4FB13D7C70093072002631AD8
:10143000F7008545B7171A0013850780EF000145AF
:101440006DA88327C4FB13D7C70093073002631A24
:10145000F7008545B7171A00138507C0EF00014351
:1014600069A88327C4FB13D7C7009307100363172A
:10147000F70085450565EF00614141A08327C4FB66
:1014800013D7C70093071007631AF7008545B707FE
:10149000008013854700EF00613F85A08327C4FBD0
:1014A00013D7C70093073008631AF7008545B707BD
:1014B000138013850701EF00613D81A08327C4FBE2
:1014C00013D7C70093071009631AF7008545B707BC
:1014D000158013850702EF00613B05A08327C4FB3D
:1014E00013D7C700930730096319F7008545B7077D
:1014F000158013850704EF00613903A7C181832795
:1015000084FBB357F702C1832315F4FE03A7C181FF
:101510008357A4FE8507BE86832784FBB387F60224
:10152000B357F7022314F4FE035784FE832744FBCA
:101530003307F702896793870771B357F7022313BD
:10154000F4FE835784FEFD17C207C1832310F4FE07
:101550008357A4FE231EF4FC231104FE231F04FC66
:10156000230204FE9307C4FDBE850325C4FEEF00DD
:101570005137930700072316F4FC85472317F4FC23
:10158000231804FC835764FE2319F4FC8947231AAB
:10159000F4FC8947231BF4FC231C04FC231D04FCDE
:1015A0008327C4FBA1838D8B9DE39307C4FCBE8579
:1015B0000325C4FEEF00D14AA1450325C4FEEF1068
:1015C000216491450325C4FEEF10417845A083278F
:1015D000C4FBA18313F7370085476315F702930710
:1015E000C4FCBE850325C4FEEF005161A14503255F
:1015F000C4FEEF10A165930500400325C4FEEF1063
:10160000A179ADA08327C4FBA18313F737008947D5
:101610006314F7029307C4FCBE850325C4FEEF00E4
:10162000117CA1450325C4FEEF10E1679145032518
:10163000C4FEEF10C17B1DA88327C4FBA18313F751
:1016400037008D476314F7029307C4FCBE8503255A
:10165000C4FEEF108116A1450325C4FEEF10616999
:10166000930500400325C4FEEF10217D8545032529
:10167000C4FEEF10213585450325C4FEEF10012F70
:101680000100B640264461618280797106D622D479
:101690000018232EA4FC8327C4FDB337F00093F772
:1016A000F70F3E8713061004F567938587CD3A85BB
:1016B000EF4080328327C4FD9C43BD8B0547B317A1
:1016C000F70093960701C1828327C4FD9C4313D77B
:1016D0005700B70700200A079387C704BA979C43AF
:1016E000368798CB8327C4FDDC43BD8B0547B317F2
:1016F000F70093960701C1828327C4FDDC4313D70B
:101700005700B70700200A079387C704BA979C437E
:10171000368798CB8327C4FDDC472326F4FE0100DF
:101720008327C4FE1387F7FF2326E4FEF5FB8327F8
:10173000C4FDDC43BD8B0547B317F7009396070143
:10174000C1828327C4FDDC4313D75700B7070020AD
:101750000A079387C704BA979C433687D8CB832759
:10176000C4FDDC472324F4FE0100832784FE138795
:10177000F7FF2324E4FEF5FB8327C4FD9C43BD8BC8
:101780000547B317F70093960701C1828327C4FD6D
:101790009C4313D75700B70700200A079387C70455
:1017A000BA979C433687D8CB0100B250225445618A
:1017B0008280797106D622D40018232EA4FC8327B8
:1017C000C4FDB337F00093F7F70F3E8713064005CB
:1017D000F567938587CD3A85EF4000208327C4FDC8
:1017E000DC43BD8B0547B317F70093960701C18211
:1017F0008327C4FDDC4313D75700B70700200A072F
:101800009387C704BA979C433687D8CB8327C4FDF8
:101810009C43BD8B0547B317F70093960701C18220
:101820008327C4FD9C4313D75700B70700200A073E
:101830009387C704BA979C433687D8CB8327C4FDC8
:10184000DC472326F4FE01008327C4FE1387F7FF3D
:101850002326E4FEF5FB8327C4FD9C43BD8B05478F
:10186000B317F70093960701C1828327C4FD9C43F9
:1018700013D75700B70700200A079387C704BA9702
:101880009C43368798CB8327C4FDDC472324F4FE92
:101890000100832784FE1387F7FF2324E4FEF5FB72
:1018A0008327C4FDDC43BD8B0547B317F700939630
:1018B0000701C1828327C4FDDC4313D75700B70754
:1018C00000200A079387C704BA979C43368798CBB2
:1018D0008327C4FDDC472322F4FE0100832744FE56
:1018E0001387F7FF2322E4FEF5FB0100B2502254D8
:1018F00045618280797106D622D40018232EA4FC7B
:10190000AE87A30DF4FC8327C4FDB337F00093F733
:10191000F70F3E8713069006F567938587CD3A85C6
:10192000EF40800B8327C4FD9C43BD8B0547B31755
:10193000F70093960701C1828327C4FD9C4313D708
:101940005700B70700200A079387C704BA979C433C
:101950003687D8CB8347B4FD95CB8327C4FDDC43C2
:10196000BD8B0547B317F70093960701C182832704
:10197000C4FDDC4313D75700B70700200A0793873D
:10198000C704BA979C43368798CB0DA88327C4FD1C
:10199000DC43BD8B0547B317F70093960701C1825F
:1019A0008327C4FDDC4313D75700B70700200A077D
:1019B0009387C704BA979C433687D8CB8327C4FD47
:1019C000DC472326F4FE01008327C4FE1387F7FFBC
:1019D0002326E4FEF5FB8327C4FD9C43BD8B05470E
:1019E000B317F70093960701C1828327C4FD9C4378
:1019F00013D75700B70700200A079387C704BA9781
:101A00009C43368798CB8327C4FDDC472324F4FE10
:101A10000100832784FE1387F7FF2324E4FEF5FBF0
:101A20008327C4FD9C43BD8B0547B317F7009396EE
:101A30000701C1828327C4FD9C4313D75700B70712
:101A400000200A079387C704BA979C433687D8CBF0
:101A50008327C4FDDC43BD8B0547B317F70093967E
:101A60000701C1828327C4FDDC4313D75700B707A2
:101A700000200A079387C704BA979C43368798CB00
:101A80000100B250225445618280797106D622D479
:101A90000018232EA4FC8327C4FDB337F00093F76E
:101AA000F70F3E8713065008F567938587CD3A8573
:101AB000EF309072A30704FE8327C4FD9C43BD8BC7
:101AC0000547B317F70093960701C1828327C4FD2A
:101AD0009C4313D75700B70700200A079387C70412
:101AE000BA979C433687D8CB8327C4FDDC43BD8B94
:101AF0000547B317F70093960701C1828327C4FDFA
:101B0000DC4313D75700B70700200A079387C704A1
:101B1000BA979C43368798CB8327C4FDDC472324A0
:101B2000F4FE0100832784FE1387F7FF2324E4FEDD
:101B3000F5FB8327C4FD9C43BD8B0547B317F70016
:101B400093960701C1828327C4FD9C4313D7570096
:101B5000B70700200A079387C704BA979C433687C4
:101B600098CB8327C4FDDC472322F4FE01008327A2
:101B700044FE1387F7FF2322E4FEF5FB8327C4FD11
:101B8000DC433E85EFF0AF96AA8781C78547A30760
:101B9000F4FE8327C4FD9C43BD8B0547B317F700B4
:101BA00093960701C1828327C4FD9C4313D7570036
:101BB000B70700200A079387C704BA979C43368764
:101BC000D8CB8327C4FDDC472320F4FE0100832704
:101BD00004FE1387F7FF2320E4FEF5FB8347F4FEA2
:101BE0003E85B250225445618280797106D622D456
:101BF0000018232EA4FCAE87A30DF4FC8327C4FD9C
:101C0000B337F00093F7F70F3E871306700AF567B6
:101C1000938587CD3A85EF30305C930700F8A307B2
:101C2000F4FE09AA0347B4FD8347F4FEF98F93F746
:101C3000F70F95CB8327C4FDDC43BD8B0547B31756
:101C4000F70093960701C1828327C4FDDC4313D7B5
:101C50005700B70700200A079387C704BA979C4329
:101C6000368798CB0DA88327C4FDDC43BD8B054781
:101C7000B317F70093960701C1828327C4FDDC43A5
:101C800013D75700B70700200A079387C704BA97EE
:101C90009C433687D8CB8347F4FE8583A307F4FEA5
:101CA0008327C4FDDC472324F4FE0100832784FE40
:101CB0001387F7FF2324E4FEF5FB8327C4FD9C4331
:101CC000BD8B0547B317F70093960701C1828327A1
:101CD000C4FD9C4313D75700B70700200A0793871A
:101CE000C704BA979C43368798CB8327C4FDDC474B
:101CF0002322F4FE0100832744FE1387F7FF2322EB
:101D0000E4FEF5FB8327C4FD9C43BD8B0547B31759
:101D1000F70093960701C1828327C4FD9C4313D724
:101D20005700B70700200A079387C704BA979C4358
:101D30003687D8CB8347F4FEE39607EE0325C4FD30
:101D4000A933AA87FD17B337F00093F7F70F3E8545
:101D5000B250225445618280397106DE22DC26DAD7
:101D600080002326A4FCAE87A305F4FC8327C4FCD3
:101D7000B337F00093F7F70F3E871306000CF567B3
:101D8000938587CD3A85EF303045A30704FEA14700
:101D90002307F4FE8327C4FC9C43BD8B0547B31780
:101DA000F70093960701C1828327C4FC9C4313D795
:101DB0005700B70700200A079387C704BA979C43C8
:101DC0003687D8CB8327C4FCDC472324F4FE0100EC
:101DD000832784FE1387F7FF2324E4FEF5FB832784
:101DE000C4FCDC43BD8B0547B317F700939607018E
:101DF000C1828327C4FCDC4313D75700B7070020F8
:101E00000A079387C704BA979C43368798CB7DA867
:101E10008327C4FC9C43BD8B0547B317F7009396FB
:101E20000701C1828327C4FC9C4313D75700B7071F
:101E300000200A079387C704BA979C433687D8CBFC
:101E40008327C4FCDC472322F4FE0100832744FEE1
:101E50001387F7FF2322E4FEF5FB8327C4FC9C4392
:101E6000BD8B0547B317F70093960701C1828327FF
:101E7000C4FC9C4313D75700B70700200A07938779
:101E8000C704BA979C43368798CB8327C4FCDC47AA
:101E90002320F4FE0100832704FE1387F7FF23208D
:101EA000E4FEF5FB8347F4FE860793948701E18403
:101EB0008327C4FCDC433E85EFE07FE3AA87E2078B
:101EC000E187C58FE207E187A307F4FE8347E4FEBD
:101ED0001387F7FF2307E4FE85FF8327C4FC9C4399
:101EE000BD8B0547B317F70093960701C18283277F
:101EF000C4FC9C4313D75700B70700200A079387F9
:101F0000C704BA979C433687D8CB8327C4FCDC47E9
:101F1000232EF4FC01008327C4FD1387F7FF232E33
:101F2000E4FCF5FB8347B4FCBE850325C4FCEFF05D
:101F30007F9C8347F4FE3E85F2506254D254216167
:101F40008280011106CE22CC00102326A4FEAE878B
:101F50003287A305F4FEBA872305F4FE8327C4FE67
:101F6000B337F00093F7F70F3E8713062029F56784
:101F7000938587CD3A85EF3030260325C4FEEFF0F8
:101F8000CFF08327C4FE83C78700860793F7F70F38
:101F9000BE850325C4FE91398347B4FEBE85032563
:101FA000C4FEA1318347A4FEBE850325C4FE353996
:101FB0000325C4FEEFF0EFFF0100F240624405612B
:101FC0008280797106D622D40018232EA4FCAE8715
:101FD000A30DF4FC8327C4FDB337F00093F7F70F8C
:101FE0003E871306402AF567938587CD3A85EF3003
:101FF000B01EA30704FE0325C4FDEFF00FE98327FD
:10200000C4FD83C78700860793F7F70FBE850325B6
:10201000C4FDE13E8347B4FDBE850325C4FDF13612
:102020000325C4FDEFF0EFF80325C4FDEFF0EFE565
:102030008327C4FD83C787008607E207E18793E70C
:102040001700E207E18793F7F70FBE850325C4FD6C
:10205000693E85450325C4FD0133AA87A307F4FE25
:102060000325C4FDEFF0EFF48347F4FE3E85B25044
:10207000225445618280797106D622D40018232625
:10208000A4FEAE872322C4FE2320D4FE232EE4FC2C
:10209000A305F4FE8327C4FEB337F00093F7F70FD0
:1020A0003E871306F02BF567938587CD3A85EF3091
:1020B000B012032704FE8327C4FDB307F740B337EC
:1020C000F00093F7F70F3E871306002CF567938512
:1020D00087CD3A85EF3050108327C4FE032704FED6
:1020E00098C38327C4FE0327C4FDD8C38327C4FE37
:1020F0000347B4FE2384E7008327C4FE032744FE7E
:10210000D8C7C14605468545032504FEEFE0FFC854
:10211000D146054685450325C4FDEFE01FC80100F3
:10212000B250225445618280011122CE0010232634
:10213000A4FE2324B4FE2322C4FEB1A0832784FE80
:10214000138717002324E4FE83C60700F5670327DF
:10215000C4FE0A079387C770BA979C433E8793973C
:102160000601C1832316F7000100F5670327C4FEAB
:102170000A079387C770BA979C4383D78700C20723
:10218000C183898BFDD3832744FE1387F7FF232266
:10219000E4FECDF70100F5670327C4FE0A07938725
:1021A000C770BA979C4383D78700C207C18393F750
:1021B0000708F5F30100724405618280011122CE07
:1021C00000102326A4FE2324B4FE2322C4FE2320D1
:1021D000D4FEF5670327C4FE0A079387C770BA9732
:1021E0009C4383D7C70049A0832784FE1387170029
:1021F0002324E4FE83C60700F5670327C4FE0A070D
:102200009387C770BA979C433E8793970601C18313
:102210002316F7000100F5670327C4FE0A0793871A
:10222000C770BA979C4383D78700C207C18393F7CF
:102230000708F5F3832744FE85CBF5670327C4FE23
:102240000A079387C770BA979C4383D7C7009396B2
:102250000701C182832744FE138717002322E4FE6F
:1022600013F7F60F2380E700832704FE1387F7FF99
:102270002320E4FEB5FB01007244056182805D719C
:1022800086C6A2C480082326A4FC2324B4FC2322EF
:10229000C4FC2320D4FC232EE4FA232CF4FA232AB2
:1022A00004FBF5670327C4FC0A079387C770BA9736
:1022B0009C433E85EFF0704685450545EFF0703450
:1022C000032704FC93073012631DF7000327C4FBA8
:1022D000930750126317F70085450545EFF0005B43
:1022E00025A0032704FC89679387A714631EF700C2
:1022F0000327C4FB89679387C7146317F7008545D5
:1023000037152000EFF080588327C4FC91E78545FE
:102310000565EFF0102F25A00327C4FC8547631740
:10232000F70085451165EFF0303211A80327C4FC92
:1023300089476316F70085452165EFF0F030832764
:1023400004FC93F7F70F93068031054685453E85DB
:10235000EFE0BFA48327C4FB93F7F70F9306803108
:10236000054685453E85EFE05FA3032784FBC167F3
:10237000F917630DF700832784FB93F7F70F930694
:102380008034054681453E85EFE03FA1032744FBAD
:102390009307F00F630DF700832744FB93F7F70FC4
:1023A00093060031014685453E85EFE01F9F232EB1
:1023B00004FC232004FE232204FE232404FE23160F
:1023C00004FE231E04FC93074010231FF4FC23107B
:1023D00004FE032784FC85476305F702832784FCFA
:1023E00081CF032784FC89476303F702032784FC1A
:1023F0008D476304F7020DA8231104FE231204FE87
:1024000025A0231104FE85472312F4FE31A8894735
:102410002311F4FE231204FE01A889472311F4FEC0
:1024200085472312F4FE0100231704FE03A7C18190
:10243000832744FCB357F7022317F4FE03A7C18197
:10244000832744FCB377F70291E78357E4FEFD1737
:102450002317F4FE0357E4FE9307F00763F7E70042
:10246000930780032317F4FE49A80357E4FE93075C
:10247000F00363F7E700930700032317F4FEB5A802
:102480000357E4FEFD4763F7E70093078002231735
:10249000F4FEA5A00357E4FEBD4763F7E7009307EA
:1024A00000022317F4FE91A80357E4FE9D4763F64C
:1024B000E700E1472317F4FE89A00357E4FE8D47A8
:1024C00063F6E700C1472317F4FE05A80357E4FEAF
:1024D000854763F6E700A1472317F4FE39A8835721
:1024E000E4FE81C7231704FE09A813068022F567BE
:1024F000938587D10145EF30204E8357E4FE2314A6
:10250000F4FE930700202313F4FE231504FE231684
:1025100004FEF5670327C4FC0A079387C770BA97C0
:102520009C433E879307C4FDBE853A85EFF0502655
:10253000F5670327C4FC0A079387C770BA979C43C3
:1025400085453E85EFF050340100B6402644616178
:102550008280797122D60018232EA4FC232CB4FC8F
:102560008547A307F4FE0327C4FD0A079387419A12
:10257000BA979C4399EB0327C4FD0A079387419AB6
:10258000BA97032784FD98C315A00327C4FD0A0743
:102590009387419ABA979C43032784FD6316F700FB
:1025A0008547A307F4FE19A0A30704FE8347F4FEA2
:1025B0003E85325445618280011106CE22CC001046
:1025C0002326A4FE8327C4FE81EB854585671385FA
:1025D0000780EFF010036DA80327C4FE854763173B
:1025E000F70085450545EFF030065DA00327C4FEE2
:1025F00089476317F70085450945EFF0F00449A8BE
:102600000327C4FE8D476317F70085451145EFF09A
:10261000B003BDA80327C4FE91476317F7008545A3
:102620002145EFF07002ADA00327C4FE9547631764
:10263000F70085454145EFF0300199A80327C4FE16
:1026400099476318F700854513050002EFF0C07F36
:1026500081A00327C4FE9D476317F70085450965E0
:10266000EFF0207A35A00327C4FEA1476318F700D6
:10267000854537050800EFF0C07819A80327C4FE88
:10268000A5476317F700854537051000EFF0607721
:102690000100F240624405618280797122D60018FF
:1026A000232EA4FCB7370140938707C02326F4FEEE
:1026B000231504FE0327C4FDA54763ECE708832721
:1026C000C4FD13972700F56793878771BA979C43DA
:1026D0008287B7370140938707C02326F4FE95A869
:1026E000B70700402326F4FEADA0B707004093874C
:1026F00007402326F4FEB1A8B71700409387078050
:102700002326F4FEB9A0B7170040938707C02326FD
:10271000F4FE81A0B71700402326F4FE1DA8B717CA
:102720000040938707402326F4FE25A0B7370140D9
:10273000938707402326F4FE29A8B75701409387C3
:1027400007C02326F4FE31A0B75701402326F4FE2C
:1027500001000327C4FD0A079387C19CBA979843D9
:102760008947631FF7008327C4FE83D74702139767
:10277000070141838D47B357F7022315F4FE39A0B3
:102780008327C4FE83D747022315F4FE8357A4FE94
:102790003E85325445618280797122D60018232EFD
:1027A000A4FCB7370140938707C02326F4FE032714
:1027B000C4FDA54763ECE7088327C4FD13972700F2
:1027C000F56793870774BA979C438287B7370140B0
:1027D000938707C02326F4FE95A8B7070040232659
:1027E000F4FEADA0B7070040938707402326F4FE10
:1027F000B1A8B7170040938707802326F4FEB9A03D
:10280000B7170040938707C02326F4FE81A0B717AF
:1028100000402326F4FE1DA8B71700409387074009
:102820002326F4FE25A0B7370140938707402326CF
:10283000F4FE29A8B7570140938707C02326F4FE6A
:1028400031A0B75701402326F4FE01008327C4FEC0
:10285000239207020100325445618280011122CE89
:1028600000102326A4FEAE87A305F4FE0100F56741
:102870000327C4FE0A0793878776BA979C4383D7BA
:102880000700C207C18393F70708F5D3F56703274D
:10289000C4FE0A0793878776BA979C433E8783478F
:1028A000B4FEC207C1832312F70001007244056120
:1028B0008280011106CE22CC00102326A4FE232400
:1028C000B4FE2322C4FE832784FEB337F00093F7BF
:1028D000F70F3E871306A004F567938547D53A8521
:1028E000EF30800F29A8832784FE13871700232445
:1028F000E4FE83C70700BE850325C4FE8537832712
:1029000044FE1387F7FF2322E4FEF1FF0100F240AB
:10291000624405618280011106CE22CC001023267C
:10292000A4FE2324B4FE832784FEB337F00093F77C
:10293000F70F3E8713069005F567938547D53A85CF
:10294000EF30800939A8832784FE138717002324DA
:10295000E4FE8387070093F7F70FBE850325C4FEC7
:10296000F53D832784FE83870700F1FF0100F240D5
:10297000624405618280011106CE22CC001023261C
:10298000A4FEAE87A305F4FEF5670327C4FE0A077D
:1029900093878776BA979C433E878347B4FE3E86EB
:1029A000930550523A85EF00D101138701848327A4
:1029B000C4FEBA9783C7070081453E85EF504005A6
:1029C0008347B4FE81CF138701848327C4FEBA975F
:1029D00083C707003E85EF40F07F19A81387018465
:1029E0008327C4FEBA9783C707003E85EF50600077
:1029F0000100F240624405618280011122CE001084
:102A00002326A4FE2324B4FEF5670327C4FE0A0789
:102A100093878776BA979C4383D70700C207C18301
:102A200093F707028DC7F5670327C4FE0A0793874C
:102A30008776BA979C4383D74700C207C18313F7B1
:102A4000F70F832784FE2380E700854711A0814785
:102A50003E85724405618280797106D622D40018C1
:102A6000232EA4FC232CB4FC232AC4FC2328D4FC4E
:102A7000032744FD832704FD3D8F8327C4FDB20750
:102A8000F98F93B7170093F7F70F3E871306E00C03
:102A9000F567938547D53A85EF201074832744FD69
:102AA00013D78700832704FDA183B307F74093B7AB
:102AB000170093F7F70F3E871306F00CF567938521
:102AC00047D53A85EF205071832744FD93F7F70FE0
:102AD000E146014685453E85EFE02FAC832704FDA6
:102AE00093F7F70F93068004014681453E85EFE09A
:102AF000CFAA85450545EFF0C030032744FDC167E7
:102B0000FD17F98F0D67130707386387E7200D67F7
:102B1000130707386369F7040567130757166381BE
:102B2000E716056713075716636FF7001307F022C0
:102B3000638AE70C130760306381E71013076012A4
:102B40006388E70865A6096713078736638BE7166E
:102B50000D67130707126387E71809671307A714A0
:102B60006380E71461A615671307A738638EE7260D
:102B700015671307A7386362F702116713078738D1
:102B80006380E7201567130787126385E7221167C3
:102B900013074712638CE71A91AE19671307C738FA
:102BA0006388E72A19671307C7386368F70019674E
:102BB000130767106384E72615AE1D671307E71038
:102BC0006382E72C1D671307E7386387E72E39AE6A
:102BD000B7070140D44FB7070140370700FC7D1706
:102BE000758FD8CFB7070140D843B70701406D9B19
:102BF000D8C3B7070140D843B70701401367470060
:102C0000D8C3EDA4B7070140D44FB7070140370739
:102C100000FC7D17758FD8CFB7070140D44FB70799
:102C2000014037070004558FD8CFB7070140D8437C
:102C3000B70701406D9BD8C355ACB7070140D44FCF
:102C4000B7070140370700FC7D17758FD8CFB7074E
:102C50000140D44FB707014037070004558FD8CF44
:102C6000B7070140D843B70701406D9BD8C3B707EA
:102C70000140D843B707014013674700D8C3BDA43C
:102C8000B7070140D843B70701405D9BD8C3B707DA
:102C90000140D843B707014013678700D8C3B9A4E0
:102CA000B7070140D843B70701401377F7FCD8C3F3
:102CB000B7070140D843B707014013670701D8C3DE
:102CC00035A4B7070140D843B70701401377F7FC95
:102CD000D8C3B7070140D843B707014013670703BC
:102CE000D8C329A4B7070140D44FB707014037071D
:102CF000FDFF7D17758FD8CFB7070140D44F8327CD
:102D000044FDA18313970701B70703007D8FB70721
:102D10000140558FD8CFD9AAB7070140D44FB70784
:102D200001403707FDFF7D17758FD8CFB7070140EA
:102D3000D44F832744FDA18313970701B7070300EE
:102D40007D8FB7070140558FD8CF4DA2B7070140FF
:102D5000D44FB70701403707F4FF7D17758FD8CFE1
:102D6000B7070140D44F832744FDA1831397270160
:102D7000B7070C007D8FB7070140558FD8CFBDA294
:102D8000B7070140D44FB70701403707F4FF7D175D
:102D9000758FD8CFB7070140D44F832744FDA18357
:102DA00013972701B7070C007D8FB7070140558F98
:102DB000D8CF2DAAB7070140D44FB7070140370736
:102DC000D0FF7D17758FD8CFB7070140D44F832729
:102DD00044FDA18313974701B70730007D8FB707E4
:102DE0000140558FD8CF19A2B7070140D44FB7077C
:102DF00001403707D0FF7D17758FD8CFB707014047
:102E0000D44F832744FDA18313974701B7073000B0
:102E10007D8FB7070140558FD8CFC9A8B7070140AC
:102E2000D44FB7070140370740FF7D17758FD8CFC4
:102E3000B7070140D44F832744FDA183139767014F
:102E4000B707C0007D8FB7070140558FD8CF79A84D
:102E5000B7070140D44FB7070140370740FF7D1740
:102E6000758FD8CFB7070140D44F832744FDA18386
:102E700013976701B707C0007D8FB7070140558FD3
:102E8000D8CFADA0B7070140D44FB70701403707EF
:102E900000FD7D17758FD8CFB7070140D44F83272A
:102EA00044FDA18313978701B70700037D8FB70700
:102EB0000140558FD8CF1DA8B7070140D44FB707A1
:102EC0000140370700FD7D17758FD8CFB707014048
:102ED000D44F832744FDA18313978701B7070003CD
:102EE0007D8FB7070140558FD8CF01008327C4FDE0
:102EF00091E785451165EFE0D07069A80327C4FD0F
:102F000085476318F700854537050200EFE0D07369
:102F100051A00327C4FD89476318F700854537058D
:102F20000400EFE07072BDA00327C4FD8D47631855
:102F3000F700854537050800EFE01071A1A80327C9
:102F4000C4FD91476318F700854537051000EFE091
:102F5000B06F89A00327C4FD95476318F700854526
:102F600013050004EFE0506E35A00327C4FD994718
:102F70006318F700854513050008EFE0F06C19A809
:102F80000327C4FD9D476317F7008545130500100F
:102F9000EFE0906B232004FE232204FE232404FE92
:102FA000232604FE832784FD2320F4FE231204FE3F
:102FB000231304FE231404FE231604FEB147231535
:102FC000F4FEF5670327C4FD0A0793878776BA974F
:102FD0009C433E87930704FEBE853A85EFF030752B
:102FE000F5670327C4FD0A0793878776BA979C4342
:102FF00085453E85EF00E1160100B250225445613F
:103000008280797106D622D40018232EA4FC232CAA
:10301000B4FC232AC4FC232604FE3DA8010093052A
:1030200000040325C4FDEF00E128AA87EDDB832718
:1030300084FD83C70700C207C183BE850325C4FD85
:10304000EF006124832784FD8507232CF4FC83276C
:10305000C4FE85072326F4FE0327C4FE832744FD10
:10306000E34EF7FA0100B250225445618280797133
:1030700006D622D40018232EA4FC232CB4FC8327CC
:10308000C4FDB337F00093F7F70F3E871306300601
:10309000F567938507D93A85EF201014231704FEAE
:1030A000BDA013058008EFD09FC4AA87B9E303270A
:1030B00084FDF54763F5E70279468325C4FD19458C
:1030C000EFF02FFF8327C4FDF907232EF4FC83279D
:1030D00084FD8917232CF4FC231704FE0DA8032676
:1030E00084FD8325C4FD1945EFF0AFFC232C04FCBF
:1030F00025A08357E4FE85072317F4FE0357E4FE5B
:103100009307301F63E9E7000545EFD0CFAB832776
:1031100084FDC1FB11A00100832784FD3E85B250D0
:10312000225445618280797106D622D40018232E5C
:10313000A4FC232CB4FC8327C4FDB337F00093F721
:10314000F70F3E871306600EF567938507D93A851A
:10315000EF209008832784FD2326F4FE9307C4FE06
:1031600081463E868325C4FD1385419FEF30700A5A
:103170008327C4FE3E85B2502254456182804111AE
:1031800006C622C4000883A7C1860547638BE700F3
:103190006388070C0947638DE7000D47638FE702DB
:1031A000E9A083A781861387170023A4E18675A869
:1031B00083A781861387170023A4E18603A781864E
:1031C000A54763F1E70AB70700209387C7049C4B24
:1031D0001167D8CB23A4018671A003A70187854777
:1031E0006314F7081305F008EFD07FB0AA87ADC3CA
:1031F0001945EFF08FCAAA873E8783A781861D8F66
:103200009307600963F2E7061945EFF0EFD883A74B
:103210008186D3F717D05385F720EF508120F567CB
:1032200003A687DD83A6C7DDEF301165AA872E8848
:103230003E85C285EF50A107AA87139707014183F6
:10324000B70700202394E73E094723A8E18629A871
:103250001945EFF08FC4AA873E8723A4E18629A0F1
:10326000010021A0010011A001000100B240224490
:1032700041018280411106C622C4000883A7C1868D
:103280000947637CF7000D47639AE7001945EFF0A3
:10329000AFD0054723A8E18611A001000100B2408C
:1032A000224441018280397106DE22DC800023261F
:1032B000A4FC8547A307F4FE231304FE231604FE93
:1032C000232404FE232E04FC83D7C1873E87930763
:1032D00000236316F700A5472324F4FE29A0A14785
:1032E0002324F4FE01008DA8930750FA2300F4FE76
:1032F000832784FE8A070327C4FCBA9783970700B5
:1033000093F7F70FA300F4FE832784FE8A070327B1
:10331000C4FCBA97839727002313F4FE835764FEF7
:10332000A183C207C18393F7F70F2301F4FE8357EC
:1033300064FE93F7F70FA301F4FE930704FE114612
:10334000BE851145EFF0EFD60945EFD0CF87832733
:1033500084FEFD172324F4FE032784FE9307E00F69
:10336000E3F4E7F883A781873E85EF20505E2A8744
:10337000894763FFE7028D47232EF4FC83A78187EB
:103380001306C4FD130704FE8146BA853E85EF305F
:103390004068034714FE9307F00F6308F7000347E4
:1033A00024FE9307F00F6315F700A30704FE31A86E
:1033B0000545EFD04F818357C4FE138717002316AE
:1033C000E4FE1307700CE37FF7F88347F4FE3E85B5
:1033D000F250625421618280797106D622D400189D
:1033E000232EA4FCA30704FE230704FE231504FEDA
:1033F000231604FE232004FE83D7C1873E8793074C
:1034000000236316F700A547A307F4FE29A0A147F0
:10341000A307F4FE01008347F4FEFD1793F7F70FAF
:10342000A307F4FE11AA03D7C1879307F02263ED27
:10343000E7008307F4FE8A070327C4FDBA970397C2
:103440000700A5476300F70E930750FA2302F4FE26
:10345000C557A302F4FE8307F4FE8A070327C4FDC1
:10346000BA97839707002315F4FE8357A4FEA18320
:10347000C207C18393F7F70F2303F4FE8357A4FE1B
:1034800093F7F70FA303F4FE930744FE1146BE859E
:103490001145EFF00FC2231604FE83A781873E85F6
:1034A000EF20F04A2A87894763F7E7048D472320F6
:1034B000F4FE83A78187130604FE130744FE8146AA
:1034C000BA853E85EF30E054834754FEA2079396B9
:1034D0000701C186834764FE13970701418783076D
:1034E000F4FE8A070326C4FDB297558F4207418731
:1034F0002391E70031A80545EFC0FFEC8357C4FED8
:10350000138717002316E4FE1307700CE377F7F810
:103510000357C4FE9307800C63F7E7008547230732
:10352000F4FE39A801008307F4FE93F7F70FFD17A7
:1035300093F7F70FA307F4FE8307F4FEE3D507EE36
:103540008347E4FE3E85B2502254456182800111DA
:1035500006CE22CC0010232404FE8547A307F4FEE8
:10356000231604FE232204FE83A781873E85EF20D5
:10357000103EAA8791C783A781873E85EF209018C8
:103580009305F00F1145EFF06FAD930750FA230448
:10359000F4FEBD57A304F4FE230504FEA30504FEB8
:1035A000930784FE1146BE851145EFF08FB02316B8
:1035B00004FE83A781873E85EF2070392A878947DB
:1035C00063F0E7048D472322F4FE83A78187130667
:1035D00044FE130784FE8146BA853E85EF30604382
:1035E0000347A4FE85476309F7000347A4FE894704
:1035F0006304F700854711A08147A307F4FE31A8B3
:103600000545EFC05FDC8357C4FE13871700231600
:10361000E4FE1307700CE37EF7F88347F4FE3E8563
:10362000F240624405618280011106CE22CC001076
:10363000A30704FE9307F4FEBE851145EFF0EFBB30
:1036400083A7818785C70347F4FE9307500A631752
:10365000F70083A781873E85EF20D00A83A7818763
:103660000347F4FEBA853E85EF2010360100F24094
:10367000624405618280411122C600080547238A01
:10368000E1860100324441018280011106CE22CC44
:103690000010231704FE231604FE232204FE9307C2
:1036A00050FA2304F4FEC557A304F4FE230504FED8
:1036B000C957A305F4FE930784FE1146BE85114544
:1036C000EFF02F9F83A781873E85EF2050282A8720
:1036D000894763F0E7048D472322F4FE83A781879F
:1036E000130644FE130784FE8146BA853E85EF30FB
:1036F0004032834794FEA20713970701418783470F
:10370000A4FEC207C187D98FC207C1872316F4FE62
:1037100031A80545EFC03FCB8357E4FE1387170060
:103720002317E4FE1307700CE37EF7F88357C4FEFB
:103730003E85F2406244056182805D7186C6A2C406
:1037400080088547A307F4FEB7070020054723A696
:10375000E73E9307C4FD1307C00493062006130633
:10376000401F81453E85EFE01F919307C4FD3E85D4
:10377000EF10D170AA87B5EFF56703AE47E5138761
:1037800047E503234700138747E58328870013870E
:1037900047E50328C700138747E5084B138747E52C
:1037A0004C4B138747E5104F138747E5544F13875A
:1037B00047E51853938747E5DC53232AC4FB232CA2
:1037C00064FA232E14FB232004FD2322A4FC2324CB
:1037D000B4FC2326C4FC2328D4FC232AE4FC232C99
:1037E000F4FC930744FB3E85EF10316FAA87A307D3
:1037F000F4FE8347F4FE3E85B64026446161828034
:10380000597186D6A2D480188547A307F4FE2307F2
:1038100004FE232404FEB707002023A6073E130559
:103820000004EF504108AA872324F4FE832784FE76
:1038300085E393068020F567138607DEF567938599
:1038400047E20145EF20C01F8947A307F4FE35ACCE
:103850006545EF504105AA873E8723ACE18683A7E3
:10386000818785E79306F020F567138607DEF56705
:10387000938507E40145EF20A01C032584FEEF504B
:1038800021038947A307F4FE09A483A78187930630
:103890000004032684FE81453E85EF303052916757
:1038A0009386270691671386C7048967938507580F
:1038B0001145EFF06F9A85451145EFF0CF8BF1334D
:1038C000AA873E87239EE18683D7C18781CF413176
:1038D000AA8789CB81451145EFF0EF898D47A30772
:1038E000F4FE65A2F56703AE47E5138747E50323BA
:1038F0004700138747E583288700138747E5032898
:10390000C700138747E5084B138747E54C4B1387E0
:1039100047E5104F138747E5544F138747E5185382
:10392000938747E5DC532320C4FD232264FC232432
:1039300014FD232604FD2328A4FC232AB4FC232CF5
:10394000C4FC232ED4FC2320E4FE2322F4FEF567DE
:1039500003A347EB138747EB83284700138747EB05
:1039600003288700138747EB4847138747EB0C4B27
:10397000138747EB504B138747EB144F138747EBE5
:10398000584F938747EB9C53232E64F8232014FB56
:10399000232204FB2324A4FA2326B4FA2328C4FAFE
:1039A000232AD4FA232CE4FA232EF4FA930704FCF6
:1039B0003E85EFF05F8FAA8785C79306C024F56721
:1039C000138607DEF5679385C7E70145EF204007BB
:1039D00081451145EFE03FFA8547A307F4FE75A046
:1039E0009307C4F93E85EFF03F9FAA8785C79306EA
:1039F0008025F567138607DEF567938587E901451E
:103A0000EF20000481451145EFE0FFF68547A3074D
:103A1000F4FEA5A8230704FEA1A88347E4FE8507BA
:103A20008A07130704FFBA97039707FD8347E4FE4D
:103A30008A07930604FFB6978397C7FA631FF702B6
:103A40008347E4FE85078A07130704FFBA970397A5
:103A500027FD8347E4FE8A07930604FFB697839702
:103A6000E7FA631CF7008347E4FE85072307F4FEAB
:103A70000347E4FEA147E3F2E7FA8347E4FE93B786
:103A8000870093F7F70FA307F4FE032584FEEF40AA
:103A9000316283A781873E85EF40916123AC018627
:103AA0008347F4FE3E85B650265465618280797165
:103AB00006D622D40018A30704FEB73700001386E9
:103AC000676781450D457128EFF03FC7AA8799CFF9
:103AD000B737000013866767B737000093858762A2
:103AE0000D454120313BAA87A307F4FE8347F4FE2E
:103AF000B9E791473EC495473EC299473EC09308F7
:103B0000900213088002930760021307B004930623
:103B1000900413068004A9452545EFC03F9F9306F6
:103B20008007996713860782B70700209385875F10
:103B3000B70700201385875FEFC0DFAE29A00146DD
:103B40008145014539288347F4FE3E85B250225411
:103B500045618280411122C60008010032444101C2
:103B60008280011122CE00102326A4FE2324B4FE5D
:103B70002322C4FE0327C4FE23A0E188832744FE3A
:103B800081C7832744FE29A0B7470000938747B524
:103B900023A6F180832784FE81C7832784FE29A082
:103BA000B7470000938747B523A4F1800100724412
:103BB00005618280797106D622D40018232EA4FCD8
:103BC000232604FE0327C4FD93074006B307F7022C
:103BD000232EF4FC39A82945EFC01F898327C4FE92
:103BE00085072326F4FE0327C4FD8327C4FE63F95B
:103BF000E70013051004EFD08F8FAA87E9DF11A02B
:103C000001000327C4FD8327C4FEB3B7E70093C7B1
:103C1000170093F7F70F3E85B2502254456182801A
:103C2000011106CE22CC00102326A4FEAE8723224B
:103C3000C4FE36872315F4FEBA872314F4FEB707B3
:103C400000209387C7049C470547D8CB8327C4FE31
:103C500089CB8357A4FE3E868325C4FE0545EFE04D
:103C6000AFCC832744FE89CB835784FE3E868325D1
:103C700044FE0545EFE04FCBB70700209387C7040C
:103C80009C47054798CB0100F24062440561828061
:103C9000011106CE22CC00102326A4FEAE872315E8
:103CA000F4FEB70700209387C7049C470547D8CB8D
:103CB0008327C4FE0327C4FE91463A86BE85054588
:103CC000EFE0CFCF8357A4FE99CF8327C4FE13879D
:103CD00047008327C4FE91078356A4FE3E86BA851B
:103CE0000545EFE0AFCDB70700209387C7049C4799
:103CF000054798CB0100F2406244056182800111C2
:103D000006CE22CC00102326A4FE2324B4FEB287C4
:103D10002313F4FEB70700209387C7049C47054789
:103D2000D8CB832784FE09472380E700832784FEBE
:103D3000035764FE2391E700832784FE032784FE54
:103D400091463A86BE850545EFE04FC7035764FEAE
:103D50009307000263FAE702832784FE9107930624
:103D600000023E868325C4FE0545EFE02FC583276C
:103D7000C4FE13870702835764FE81173E86BA8507
:103D80000545EFE06FBA15A8832784FE9107035716
:103D900064FE3A868325C4FE3E85EF4011328327B8
:103DA00084FE13874700832784FE91079306000251
:103DB0003E86BA850545EFE06FC0B70700209387C0
:103DC000C7049C47054798CB0100F2406244056157
:103DD0008280797106D622D40018232EA4FC232CCD
:103DE000B4FCB2872328D4FC231BF4FC8547A3072B
:103DF000F4FE8327C4FD93F7F70F2304F4FE8357E3
:103E000064FD2315F4FE032504FD6D33AA87A1EBA1
:103E1000035764FD930784FEBA86032684FD91450B
:103E20003E85FD3B032504FD7133AA879DEB894741
:103E30002304F4FE231504FE0357A4FE930784FE17
:103E4000BA853E85B1355145EFC00FE2034784FE88
:103E5000930700086318F700A30704FE21A00100E0
:103E600011A001008347F4FE3E85B2502254456103
:103E70008280797106D622D40018232EA4FC232C2C
:103E8000B4FC232AC4FC8547A307F4FE032544FDA4
:103E90001533AA87A1EB8327C4FD13F7F70F8327F8
:103EA00084FD2380E700832784FD81460146930536
:103EB00000023E85B533032544FDEFF0BFCFAA874E
:103EC00085E7832784FD09472380E700832784FD56
:103ED0002391070093050002032584FD553BA307AA
:103EE00004FE21A0010011A001008347F4FE3E85DD
:103EF000B250225445618280397106DE22DC800096
:103F0000930784FC1306803EBE8513050002953797
:103F1000AA87A307F4FE8347F4FE8DE7034784FCDA
:103F20009307000A6310F7028357A4FC3E879307A8
:103F300084FC91073A86BE85B7670020138587E128
:103F4000EF40B1178347F4FE3E85F2506254216181
:103F50008280397106DE22DC8000930784FC130620
:103F6000803EBE85130510022937AA87A307F4FEF9
:103F70008347F4FE8DE7034784FC9307100A631020
:103F8000F7028357A4FC3E87930784FC91073A8687
:103F9000BE85B7670020138547E2EF4011128347C3
:103FA000F4FE3E85F250625421618280397106DE52
:103FB00022DC8000930784FC1306803EBE85130537
:103FC0002002453DAA87A307F4FE8347F4FE8DE750
:103FD000034784FC9307200A6310F7028357A4FC6D
:103FE0003E87930784FC91073A86BE85B767002019
:103FF000138587E3EF40710C8347F4FE3E85F25052
:10400000625421618280597186D6A2D48018232EF1
:10401000A4F8232CB4F8832784F98DC31307C4FABA
:10402000832684F90326C4F9F567938587ED3A85DD
:10403000EF506161AA872317F4FE31A81307C4FA71
:104040000326C4F9F567938547EE3A85EF50A15FE3
:10405000AA872317F4FE0356E4FE1307C4FA896700
:1040600093860771BA854145AD33AA87A306F4FE4E
:10407000353F8347D4FE3E85B65026546561828025
:104080005D7186C6A2C48008232EA4FA232CB4FA3C
:10409000232AC4FA2328D4FA130544FC832704FBFB
:1040A000032744FB832684FB0326C4FBF565938525
:1040B000C5EEEF504159AA872317F4FE0356E4FEDC
:1040C000130744FCB16793860735BA854545EFF081
:1040D0005FD0AA87A306F4FED13D8347D4FE3E8578
:1040E000B6402644616182805D7186C6A2C48008A4
:1040F000232EA4FA232CB4FA83A74188639B0710CC
:10410000054723A2E18879A0832784FB056761170F
:104110006374F7008567E1172317F4FE1305803EEB
:10412000EFF05FA9AA87BDEB0357E4FE930784FC79
:104130003A86BE850325C4FBEFF07FBC034784FCB1
:10414000930700096308F700034784FC93071009ED
:104150006313F7028357A4FC99CF8357A4FC3E87CF
:10416000930784FC91073A86BE85B76700201385C4
:1041700047E5EF20602B8357E4FE032784FBB3075A
:10418000F740232CF4FA8357E4FE0327C4FBBA97C5
:10419000232EF4FA832784FBA5FB95A0010085A0BC
:1041A0001305803EEFF01FA1AA87ADE389472304E2
:1041B000F4FC231504FC930784FC930500023E8560
:1041C000EFF01FAD034784FC930700096308F70075
:1041D000034784FC930710096313F7028357A4FC79
:1041E00099CF8357A4FC3E87930784FC91073A86B6
:1041F000BE85B7670020138547E5EF20E02203471F
:1042000084FC93070009E30DF7F811A0010023A235
:104210000188832784FB3E85B64026446161828005
:104220005D7186C6A2C48008232EA4FA232CB4FA9A
:104230008327C4FBB337F00093F7F70F3E871306CD
:104240003023F567938507F03A85EF10E0788327F0
:1042500084FB2326F4FE83A74188ADEF054723A204
:10426000E1881305803EEFF0FF94AA87ADE389470C
:104270002304F4FC231504FC930784FC930500023B
:104280003E85EFF0FFA0034784FC93070009630815
:10429000F700034784FC930710096313F702835761
:1042A000A4FC99CF8357A4FC3E87930784FC910715
:1042B0003A86BE85B7670020138547E5EF20C01614
:1042C000034784FC93070009E30DF7F811A00100F0
:1042D00023A201889307C4FE81463E868325C4FB42
:1042E000B7670020138547E5EF20A0728327C4FE3F
:1042F0003E85B640264461618280397106DE22DC4B
:104300008000930784FC1306803EBE8513050002DF
:10431000EFF03FB6AA87A307F4FE8347F4FE89EBCC
:10432000034784FC9307000A6314F700894729A810
:104330008347F4FE89EB034784FC9307000D631465
:10434000F700814711A085473E85F25062542161F4
:104350008280797106D622D40018232EA4FC232C47
:10436000B4FCA30704FE93060040B7670020138641
:1043700007E78145B7670020138547E5EF30002444
:104380001308F00F85679387E70205671307F702A5
:1043900085669386D60237C6C901130606388D4551
:1043A0000545EFD0DFEDB74700409387078005470D
:1043B0002392E702C1460546854513050004EFC078
:1043C000DF9DC146054685451D45EFC01F9D9306EF
:1043D00080020146814513051004EFC01F9C8145F2
:1043E0001D45EFC05F892945EFB0FFFD85451D459F
:1043F000EFC07F8813054006EFB0FFFC23A20188C1
:10440000ED3DAA8785E71308F00F85679387E702DC
:1044100005671307F70285669386D60237E6E40040
:104420001306061C8D450545EFD07FE5EFF0DFACA8
:10443000AA87A307F4FE8347F4FEA9E3EFF07FB158
:10444000832584FD0325C4FDEFF0FFBBAA87A307E6
:10445000F4FE8347F4FE8DE7F567938607F4F5676E
:10446000138687F4F567938507F5F567138507F6D7
:10447000EFF01FC1AA87A307F4FE21A0010011A03D
:1044800001008347F4FE3E85B2502254456182808C
:10449000797106D622D40018232EA4FC232CB4FC58
:1044A0008547A307F4FE230204FEA30204FE2303B0
:1044B00004FEA30304FE230404FEA30404FE230558
:1044C00004FEA30504FEA1472320F4FE0545EFB03A
:1044D0009FEFA1472320F4FE130704FE930744FE39
:1044E00085463A86BE85B767002013858730EF2062
:1044F000902C930744FE8325C4FD3E85EF50812B0D
:10450000AA8781C7A30704FE81A0130744FEF567AD
:10451000938547F63A85EF50E129AA8799EB13076F
:1045200044FEF5679385C7F63A85EF50A128AA8720
:1045300089C78547A307F4FE01A8832784FD138755
:10454000F7FF232CE4FCD9F38347F4FE3E85B250F9
:10455000225445618280411106C622C40008B76713
:10456000002013858730EF10F0190100B24022447B
:10457000410182805D7186C6A2C48008232EA4FA00
:10458000232CB4FA8327C4FBB337F00093F7F70F5B
:104590003E871306D03BF567938587073A85EF1072
:1045A000A0438967938707712326F4FE232604FC22
:1045B000232804FC232A04FC232C04FC232E04FCC3
:1045C000232004FE232204FE232404FEB7670020D8
:1045D0009387072703A7470985476317F710B7672E
:1045E00000209387072783A7C7086396070EA53780
:1045F000032784FB9307C4FCBA853E85EF308020F7
:10460000032784FB896763F9E700F567938507163D
:104610001945EFE04FB039A0F567938507171945A5
:10462000EFE06FAFB76700209387072703A707095D
:1046300085476318F700F5679385C7171945EFE0BD
:104640008FAD9307C4FCBE851945EFE0CFACF5678D
:10465000938587F81945EFE00FAC8967938507715B
:10466000F567138507F82D35AA87BDEFED350326CD
:1046700084FB8325C4FB1945EFE0AFA389679385CD
:104680000771F567138507F8EFF09FE0AA87A9EF98
:10469000232C04FA91A8010013058008EFC02FE530
:1046A000AA8789CB8327C4FE1387F7FF2326E4FE5E
:1046B000E344F0FE8327C4FE6357F0028327C4FB64
:1046C00083C70700BE851945EFE04F998327C4FBD8
:1046D0008507232EF4FA832784FB1387F7FF232C07
:1046E000E4FAD5FB11A00100BD35832784FB3E858C
:1046F000B640264461618280797106D622D40018C2
:10470000232EA4FC232CB4FC8327C4FDB337F00074
:1047100093F7F70F3E8713062043F56793858707C6
:104720003A85EF10602B832784FD2326F4FE930740
:10473000C4FE81463E868325C4FDB76700201385ED
:104740008730EF20002D8327C4FE3E85B2502254CF
:1047500045618280797106D622D40018232EA4FCEC
:10476000232CB4FC8327C4FDB337F00093F7F70F75
:104770003E8713063006F5679385C7213A85EF100B
:10478000A025231704FEBDA013058008EFC02FD677
:10479000AA87B9E3032784FDF54763F5E702794665
:1047A0008325C4FD1945EFE0CF908327C4FDF907A9
:1047B000232EF4FC832784FD8917232CF4FC231774
:1047C00004FE0DA8032684FD8325C4FD1945EFE0F2
:1047D0004F8E232C04FC25A08357E4FE8507231766
:1047E000F4FE0357E4FE9307300663E9E70005454E
:1047F000EFB07FBD832784FDC1FB11A0010083279B
:1048000084FD3E85B250225445618280797106D67E
:1048100022D40018232EA4FC232CB4FC8327C4FD2F
:10482000B337F00093F7F70F3E871306700CF56768
:104830009385C7213A85EF10201A832784FD23260C
:10484000F4FE9307C4FE81463E868325C4FDB76708
:10485000002013854732EF20C01B8327C4FE3E850E
:10486000B250225445618280797106D622D4001854
:10487000232EA4FC232CB4FCB287A30BF4FCB68734
:10488000231AF4FCBA872319F4FC232604FE130729
:10489000A0FA2384E188938781880947A380E700F1
:1048A0008327C4FD93F7F70F960713F7F70F8327B6
:1048B00084FD99E3C14711A08147D98F13F7F70F02
:1048C000834774FDD98F13F7F70F9387818823816E
:1048D000E700938781882147A381E7009387818838
:1048E000035744FD2392E70093878188035724FDF3
:1048F0002393E70003A74181A1451385818802978F
:104900000327C4FD8947630AF7020327C4FD8D47C7
:10491000630EF7020327C4FD85476313F7040357AB
:1049200044FD835724FDB307F70213D7F7411D8BCE
:10493000BA978D872326F4FE25A0035744FD83579D
:1049400024FDB307F7022326F4FE19A8035744FDFC
:10495000835724FDB307F70286072326F4FE0100E0
:10496000832784FD81CB83A741818325C4FE032552
:1049700084FD82970100B250225445618280797192
:1049800006D622D40018232EA4FC231604FE9387F7
:10499000018983D747002316F4FE9387018983C7D3
:1049A000270093F7070291C78357C4FE8607231693
:1049B000F4FE03A74181A145138501890297A3074E
:1049C00004FEA5A08347F4FE0327C4FD8A07BA9717
:1049D000DC4799CF83A641818347F4FE0327C4FDBA
:1049E0008A07BA97DC470357C4FEBA853E8582968C
:1049F0008347F4FE0327C4FDA1078A07BA97DC4763
:104A000085C383A641818347F4FE0327C4FDA10724
:104A10008A07BA97DC470357C4FEBA853E8582965B
:104A20008347F4FE8507A307F4FE0347F4FE9D4782
:104A3000E3FAE7F80100B250225445618280011187
:104A400022CE00102326A4FE2324B4FEB28736878C
:104A50002313F4FEBA872312F4FE1307A0FA238867
:104A6000E188938701890D47A380E7009387018937
:104A70002147A381E700B767002093870734032706
:104A8000C4FE98C7B7670020032784FE23A0E7343D
:104A9000B767002093870734035764FE2392E7002B
:104AA000B767002093870734035744FE2393E7003A
:104AB0000100724405618280397106DE22DC8000CB
:104AC000232EA4FC232AC4FC2328D4FC2326E4FCA4
:104AD0002324F4FC232204FD232014FDAE87231D90
:104AE000F4FCA30704FE230704FEA30604FEB76735
:104AF0000020938707349C47B337F00093F7F70FF4
:104B00003E8713068010F567938507263A85EF00E8
:104B1000B06C938701890357A4FD2392E700938724
:104B2000018923830700A30704FE1DA88347F4FE21
:104B300037670020130707348A07BA9723A60700B0
:104B40008347F4FE37670020A107130707348A075D
:104B5000BA9723A607008347F4FE8507A307F4FE50
:104B60000347F4FE8947E3F3E7FC0327C4FD8547C9
:104B70006308F7108327C4FD99C70327C4FD89473D
:104B8000630AF71E99AE832744FDB9C38347E4FE49
:104B900085072307F4FE9387018983C7670093E79E
:104BA000170013F7F70F938701892383E7008347E3
:104BB000F4FE13871700A307E4FEBE86B767002044
:104BC0001387073493972600BA97032744FDD8C765
:104BD000832704FDB9C38347E4FE85072307F4FE5A
:104BE0009387018983C7670093E7270013F7F70FBF
:104BF000938701892383E7008347F4FE1387170017
:104C0000A307E4FEBE86B767002013870734939797
:104C10002600BA97032704FDD8C78327C4FCB9C36D
:104C20008347E4FE85072307F4FE9387018983C742
:104C3000670093E7470013F7F70F938701892383F2
:104C4000E7008347F4FE13871700A307E4FEBE8640
:104C5000B76700201387073493972600BA97032776
:104C6000C4FCD8C7B76700209387073403D7670011
:104C70009307F00F63FEE7248547A306F4FE89AC93
:104C8000832784FCB1C38347E4FE85072307F4FE32
:104C90009387018983C7670093E7170013F7F70F1E
:104CA000938701892383E7008347F4FE1387170066
:104CB000A307E4FE37670020A107130707348A071C
:104CC000BA97032784FCD8C7832744FCB1C3834722
:104CD000E4FE85072307F4FE9387018983C76700F5
:104CE00093E7270013F7F70F938701892383E700E2
:104CF0008347F4FE13871700A307E4FE37670020FD
:104D0000A107130707348A07BA97032744FCD8C7BB
:104D1000832704FCB1C38347E4FE85072307F4FE21
:104D20009387018983C7670093E7470013F7F70F5D
:104D3000938701892383E7008347F4FE13871700D5
:104D4000A307E4FE37670020A107130707348A078B
:104D5000BA97032704FCD8C7B767002093870734A6
:104D600003D747009307F00F63F6E7168547A306BE
:104D7000F4FE8DA2832744FDA5C3832784FCA9CF1D
:104D80008347E4FE85072307F4FE9387018983C7E1
:104D9000670093E7170013F7F70F938701892383C1
:104DA000E7008347F4FE37670020130707348A07BC
:104DB000BA97032744FDD8C78347F4FE138717002B
:104DC000A307E4FE37670020A107130707348A070B
:104DD000BA97032784FCD8C7832704FDA5C383277C
:104DE00044FCA9CF8347E4FE85072307F4FE93879D
:104DF000018983C7670093E7270013F7F70F9387AD
:104E000001892383E7008347F4FE376700201307F7
:104E100007348A07BA97032704FDD8C78347F4FEEF
:104E200013871700A307E4FE37670020A1071307C5
:104E300007348A07BA97032744FCD8C78327C4FCE2
:104E4000A5C3832704FCA9CF8347E4FE8507230776
:104E5000F4FE9387018983C7670093E7470013F740
:104E6000F70F938701892383E7008347F4FE3767B1
:104E70000020130707348A07BA970327C4FCD8C752
:104E80008347F4FE13871700A307E4FE376700206B
:104E9000A107130707348A07BA97032704FCD8C76A
:104EA000B76700209387073403D747009307F00FB5
:104EB00063ECE700B76700209387073403D76700E8
:104EC0009307F00F63FAE7008547A306F4FE29A0D5
:104ED000010021A0010011A001008327C4FD93F768
:104EE000F70F9A0713F7F70F8347D4FE960793F748
:104EF000F70FD98F13F7F70F8347E4FED98F13F716
:104F0000F70F938701892381E7000100F250625473
:104F100021618280411106C622C40008B7670020C3
:104F2000938707349C47B337F00093F7F70F3E871A
:104F300013068017F567938507263A85EF00D02979
:104F4000B7670020938707348847B767002083A599
:104F500007349387018983C72700BD8B13F6F70FAA
:104F6000B76700209387073483D64700B7670020D0
:104F70009387073483D767003E87EFF0FF8E9387D0
:104F8000018983C72700BD8B99C7B76700201385A8
:104F90000734EFF0DF9E0100B240224441018280DD
:104FA000011122CE00102326A4FE2324B4FE832761
:104FB00084FE3E85724405618280011122CE00107C
:104FC0002326A4FE2324B4FE81473E857244056156
:104FD0008280011122CE00102326A4FE0327C4FEE6
:104FE000954763EEE7088327C4FE13972700F5670C
:104FF00093878778BA979C438287376700001307A7
:10500000C78F23AAE180376700001307679223AC9C
:10501000E180B5A0374700001307477523AAE18058
:10502000375700001307C78023ACE18089A83737C2
:1050300000001307E70623AAE180373700001307B3
:10504000671223ACE18025A83747000013074757B4
:1050500023AAE180374700001307876F23ACE18064
:1050600039A8374700001307870E23AAE180374786
:1050700000001307072223ACE18011A0010001000A
:10508000724405618280411122C60008B7170240B0
:105090009843B71702401367170098C3B717024029
:1050A000D443B71702403707FFF8758FD8C3B71737
:1050B00002409443B71702403707F7FE7D17758FFC
:1050C00098C3B71702409443B71702403707FCFF55
:1050D0007D17758F98C3B7170240D443B7170240A6
:1050E000370781FF7D17758FD8C3B7170240370781
:1050F0009F0098C70100324441018280797106D631
:1051000022D40018232EA4FCBD3F232604FE232412
:1051100004FEB71702409443B71702404167558F0A
:1051200098C3B71702409843B7070200F98F2324AA
:10513000F4FE8327C4FE85072326F4FE832784FE1E
:1051400091E70327C4FE8567E31DF7FCB71702400C
:105150009843B7070200F98F89C785472324F4FED7
:1051600019A0232404FE032784FE85476312F71643
:1051700037170240B71702405843D8C337170240C9
:10518000B71702405843D8C337170240B717024039
:105190005843D8C3B7170240D443B7170240370764
:1051A000C1FF7D17758FD8C30327C4FDB747950886
:1051B00093870740631BF700B7170240D443B71724
:1051C00002404167558FD8C355A80327C4FDB717C0
:1051D0002707938707E0631CF700B7170240D44303
:1051E000B717024037073900558FD8C341A80327A6
:1051F000C4FDB7E7B80593870780631CF700B717AE
:105200000240D443B717024037072900558FD8C34F
:10521000B5A00327C4FDB7A74A0493870720631CE2
:10522000F700B7170240D443B717024037071D00F5
:10523000558FD8C3A1A00327C4FDB777DC0293879D
:1052400007C0631CF700B7170240D443B7170240EA
:1052500037071100558FD8C315A00327C4FDB737F2
:105260006E0193870760631BF700B7170240D443B2
:10527000B717024037070500558FD8C3B71702404C
:105280009443B717024037070001558F98C30100B8
:10529000B71702409843B7070002F98FF5DBB7173D
:1052A0000240D843B7170240719BD8C3B7170240DA
:1052B000D843B717024013672700D8C30100B717B8
:1052C0000240DC4313F7C700A147E31AF7FE11A021
:1052D00001A0B250225445618280011106CE22CC39
:1052E00000102326A4FE0327C4FE23AEE180EFF0C6
:1052F0009FD90325C4FEEFF07FE0EF20E0790100A5
:10530000F240624405618280411122C6000801001A
:105310000100324441018280011106CE22CC0010EE
:10532000232604FE232404FE232604FE25A0232492
:1053300004FE39A0D13F832784FE85072324F4FE91
:10534000032784FEC167E367F7FE8327C4FE850752
:105350002326F4FE0327C4FE9307F00FE3F9E7FCCE
:105360000100F240624405618280411122C60008BA
:105370000100324441018280011106CE22CC00108E
:105380002326A4FE8325C4FE0945EFD0CFD8010013
:10539000F240624405618280130101D9232611265F
:1053A0002324812623229126801C232EA4D8232C5B
:1053B000B4D8232AC4D82328D4D8231504FE231410
:1053C00004FE231304FE231204FE231104FE03250E
:1053D00084D9EF40013DAA87C207C1872313F4FE99
:1053E000B767002083D7873E99C7B76700209387A8
:1053F000873E9C4B829783C7818993F7F70F63851C
:10540000074EB767002083D7873E63890746B76793
:1054100000209387873ED447835724FE13970701C4
:10542000418793170701C1838507C207C183C2075C
:10543000C1872311F4FE93170701C1830326C4D942
:10544000BE8501458296832784D92326F4FE032551
:1054500084D9EF400135AA87C207C1872313F4FE20
:10546000B76700209387873E83D727003E87B767BB
:1054700000209387873E83C76700B347F702C207C0
:10548000C1872312F4FE01008327C4FE138717008F
:105490002326E4FE83870700E5FB231404FEA1A86E
:1054A0008327C4FEFD172326F4FE8327C4FE03874B
:1054B00007009307F002630AF7008327C4FE0387FF
:1054C00007009307C005631BF700835784FEC207DC
:1054D000C1838507C207C1832314F4FE835764FE8A
:1054E000C207C187C207C183FD17C207C183C207B4
:1054F000C1872313F4FE835784FE1397070141836A
:10550000854763E8E700835764FEC207C187E3D994
:1055100007F8835764FEC207C18763C20702832767
:10552000C4FE85072326F4FE130704EE0326C4FEFB
:10553000F5679385472A3A85EF40E1101DA8835708
:1055400084FEC207C18381EF130704EE0326C4FE65
:10555000F5679385072B3A85EF40E10E19A81307ED
:1055600004EE0326C4FEF5679385472A3A85EF408B
:10557000810D231504FE05A2231404FE59A09307F0
:1055800004EE3E85EF40E1212A87835784FEC2075F
:10559000C183BE868357A4FEC207C1833E8683575C
:1055A00044FEC207C187B307F602B6976367F706E2
:1055B000835784FEC207C1833E878357A4FEC20778
:1055C000C183BE86835744FEC207C187B387F602F4
:1055D000BA97035784FE42074183BA86130704FF34
:1055E000BA97038707EF930704FFB6972388E7EA84
:1055F000835784FEC207C1838507C207C183231472
:10560000F4FE835784FEC207C1833E87835744FE5E
:10561000C207C187E345F7F611A00100835784FE56
:10562000C207C183130704FFBA97238807EAB76745
:1056300000209387873E03A8C700B76700209387A1
:10564000873E83C77700139707014183835724FE62
:1056500093960701C18693970601C1838507C20708
:10566000C183C207C1872311F4FE93970601C1834A
:10567000B307F702C207C183130704EA3A86BE855F
:10568000014502988357A4FEC207C1838507C2075C
:10569000C1832315F4FE8357A4FEC207C183BE84D1
:1056A000930704EE3E85EF40C10F2A87835744FEDF
:1056B000C207C187B357F7028507E3EFF4EA130780
:1056C00004EE032644D9F5679385072C3A85EF301D
:1056D0009177B76700209387873E03A8C700B76715
:1056E00000209387873E83C7770013970701418384
:1056F000835724FE93960701C18693970601C183C1
:105700008507C207C183C207C1872311F4FE93979F
:105710000601C183B307F702C207C183130704EE72
:105720003A86BE8501450298832704D9638E071AFD
:10573000231504FE05A2231404FE59A0032504D951
:10574000EF4021062A87835784FEC207C183BE86A5
:105750008357A4FEC207C1833E86835744FEC20717
:10576000C187B307F602B6976368F706835784FECE
:10577000C207C1833E878357A4FEC207C183BE868A
:10578000835744FEC207C187B387F602BA973E87A4
:10579000832704D9BA97035784FE42074183BA8608
:1057A00003870700930704FFB6972388E7EA835728
:1057B00084FEC207C1838507C207C1832314F4FE98
:1057C000835784FEC207C1833E87835744FEC207C6
:1057D000C187E345F7F611A00100835784FEC20795
:1057E000C183130704FFBA97238807EAB76700202D
:1057F0009387873E03A8C700B76700209387873E3B
:1058000083C77700139707014183835724FE93963C
:105810000701C18693970601C1838507C207C1832B
:10582000C207C1872311F4FE93970601C183B30712
:10583000F702C207C183130704EA3A86BE85014511
:1058400002988357A4FEC207C1838507C207C1839C
:105850002315F4FE8357A4FEC207C183BE8403252B
:1058600004D9EF3011742A87835744FEC207C187D9
:10587000B357F7028507E3E0F4ECBDA0930704DA21
:105880001306001081453E85EFA09F97B767002063
:105890009387873E9C470325C4D98297832704D9E1
:1058A00099CF130504DA032704D9832644D90326A4
:1058B00084D9F5679385C72CEF30F15829A81307D1
:1058C00004DA832644D9032684D9F5679385872E85
:1058D0003A85EF305157B76700209387873E984746
:1058E000930704DA3E85029701008320C126032432
:1058F000812683244126130101278280011106CECF
:1059000022CC00102326A4FE2324B4FE032684FE0A
:105910008325C4FE0945EFC0DFF981473E85F2408B
:10592000624405618280011106CE22CC001023263C
:10593000A4FE2324B4FE930784FE81463E8683257D
:10594000C4FEB76700201385C73CEF10800C832787
:1059500084FE3E85F240624405618280797106D6FC
:1059600022D40018232EA4FC232CB4FC232AC4FC2C
:10597000232604FEA9A00100F567938787769C473C
:10598000930500043E85EFD0F012AA87F5D7F5679E
:10599000938787769C47BE86832784FD13871700ED
:1059A000232CE4FC83870700C207C183BE853685AC
:1059B000EFD0700D8327C4FE85072326F4FE03274E
:1059C000C4FE832744FDE348F7FA832744FD3E8560
:1059D000B250225445618280011106CE22CC0010C3
:1059E000AA872324B4FE2322C4FEA307F4FE834720
:1059F000F4FEB1E383C7018293F7F70F8DCF83C71E
:105A0000918991C301A083C79189850713F7F70F87
:105A1000A38CE188EF208005EFF03F9581460326B7
:105A200044FE832584FEF56713850730EFF0DF968B
:105A3000EFF09F8EE5B70100F2406244056182807D
:105A4000011106CE22CC0010AA872324B4FE232203
:105A5000C4FE2320D4FEA307F4FE8347F4FE95E39F
:105A600083C7818993F7F70F91CF832684FE03269E
:105A700004FE832544FEF56713850731EFF0DF91BF
:105A800011A001000100F240624405618280011111
:105A900022CE00102326A4FE8327C4FE23900700F5
:105AA0008327C4FE7D572391E7008327C4FE7D57DB
:105AB0002392E7008327C4FE7D572383E7008327D3
:105AC000C4FE7D57A383E7008327C4FE23A40700F9
:105AD0008327C4FE23A607008327C4FE23A807004C
